{
  "contractName": "Master",
  "abi": [
    {
      "inputs": [
        {
          "internalType": "address",
          "name": "_att",
          "type": "address"
        }
      ],
      "payable": false,
      "stateMutability": "nonpayable",
      "type": "constructor"
    },
    {
      "anonymous": false,
      "inputs": [
        {
          "indexed": true,
          "internalType": "uint256",
          "name": "epoch",
          "type": "uint256"
        },
        {
          "indexed": false,
          "internalType": "uint256",
          "name": "exchangeRate",
          "type": "uint256"
        },
        {
          "indexed": false,
          "internalType": "int256",
          "name": "requestedSupplyAdjustment",
          "type": "int256"
        },
        {
          "indexed": false,
          "internalType": "uint256",
          "name": "timestampSec",
          "type": "uint256"
        }
      ],
      "name": "LogRebase",
      "type": "event"
    },
    {
      "anonymous": false,
      "inputs": [
        {
          "indexed": true,
          "internalType": "address",
          "name": "previousOwner",
          "type": "address"
        }
      ],
      "name": "OwnershipRenounced",
      "type": "event"
    },
    {
      "anonymous": false,
      "inputs": [
        {
          "indexed": true,
          "internalType": "address",
          "name": "previousOwner",
          "type": "address"
        },
        {
          "indexed": true,
          "internalType": "address",
          "name": "newOwner",
          "type": "address"
        }
      ],
      "name": "OwnershipTransferred",
      "type": "event"
    },
    {
      "anonymous": false,
      "inputs": [
        {
          "indexed": true,
          "internalType": "address",
          "name": "destination",
          "type": "address"
        },
        {
          "indexed": false,
          "internalType": "uint256",
          "name": "index",
          "type": "uint256"
        },
        {
          "indexed": false,
          "internalType": "bytes",
          "name": "data",
          "type": "bytes"
        }
      ],
      "name": "TransactionFailed",
      "type": "event"
    },
    {
      "constant": true,
      "inputs": [],
      "name": "att",
      "outputs": [
        {
          "internalType": "contract IAtt",
          "name": "",
          "type": "address"
        }
      ],
      "payable": false,
      "stateMutability": "view",
      "type": "function"
    },
    {
      "constant": true,
      "inputs": [],
      "name": "deviationThreshold",
      "outputs": [
        {
          "internalType": "uint256",
          "name": "",
          "type": "uint256"
        }
      ],
      "payable": false,
      "stateMutability": "view",
      "type": "function"
    },
    {
      "constant": true,
      "inputs": [],
      "name": "epoch",
      "outputs": [
        {
          "internalType": "uint256",
          "name": "",
          "type": "uint256"
        }
      ],
      "payable": false,
      "stateMutability": "view",
      "type": "function"
    },
    {
      "constant": true,
      "inputs": [],
      "name": "isOwner",
      "outputs": [
        {
          "internalType": "bool",
          "name": "",
          "type": "bool"
        }
      ],
      "payable": false,
      "stateMutability": "view",
      "type": "function"
    },
    {
      "constant": true,
      "inputs": [],
      "name": "lastRebaseTimestampSec",
      "outputs": [
        {
          "internalType": "uint256",
          "name": "",
          "type": "uint256"
        }
      ],
      "payable": false,
      "stateMutability": "view",
      "type": "function"
    },
    {
      "constant": true,
      "inputs": [],
      "name": "marketOracle",
      "outputs": [
        {
          "internalType": "contract IOracle",
          "name": "",
          "type": "address"
        }
      ],
      "payable": false,
      "stateMutability": "view",
      "type": "function"
    },
    {
      "constant": true,
      "inputs": [],
      "name": "owner",
      "outputs": [
        {
          "internalType": "address",
          "name": "",
          "type": "address"
        }
      ],
      "payable": false,
      "stateMutability": "view",
      "type": "function"
    },
    {
      "constant": true,
      "inputs": [],
      "name": "rebaseCooldown",
      "outputs": [
        {
          "internalType": "uint256",
          "name": "",
          "type": "uint256"
        }
      ],
      "payable": false,
      "stateMutability": "view",
      "type": "function"
    },
    {
      "constant": true,
      "inputs": [],
      "name": "rebaseLocked",
      "outputs": [
        {
          "internalType": "bool",
          "name": "",
          "type": "bool"
        }
      ],
      "payable": false,
      "stateMutability": "view",
      "type": "function"
    },
    {
      "constant": true,
      "inputs": [
        {
          "internalType": "uint256",
          "name": "",
          "type": "uint256"
        }
      ],
      "name": "transactions",
      "outputs": [
        {
          "internalType": "bool",
          "name": "enabled",
          "type": "bool"
        },
        {
          "internalType": "address",
          "name": "destination",
          "type": "address"
        },
        {
          "internalType": "bytes",
          "name": "data",
          "type": "bytes"
        }
      ],
      "payable": false,
      "stateMutability": "view",
      "type": "function"
    },
    {
      "constant": false,
      "inputs": [
        {
          "internalType": "address",
          "name": "newOwner",
          "type": "address"
        }
      ],
      "name": "transferOwnership",
      "outputs": [],
      "payable": false,
      "stateMutability": "nonpayable",
      "type": "function"
    },
    {
      "constant": false,
      "inputs": [],
      "name": "renounceOwnership",
      "outputs": [],
      "payable": false,
      "stateMutability": "nonpayable",
      "type": "function"
    },
    {
      "constant": false,
      "inputs": [
        {
          "internalType": "bool",
          "name": "_locked",
          "type": "bool"
        }
      ],
      "name": "setRebaseLocked",
      "outputs": [],
      "payable": false,
      "stateMutability": "nonpayable",
      "type": "function"
    },
    {
      "constant": true,
      "inputs": [],
      "name": "canRebase",
      "outputs": [
        {
          "internalType": "bool",
          "name": "",
          "type": "bool"
        }
      ],
      "payable": false,
      "stateMutability": "view",
      "type": "function"
    },
    {
      "constant": true,
      "inputs": [],
      "name": "cooldownExpiryTimestamp",
      "outputs": [
        {
          "internalType": "uint256",
          "name": "",
          "type": "uint256"
        }
      ],
      "payable": false,
      "stateMutability": "view",
      "type": "function"
    },
    {
      "constant": false,
      "inputs": [],
      "name": "rebase",
      "outputs": [],
      "payable": false,
      "stateMutability": "nonpayable",
      "type": "function"
    },
    {
      "constant": true,
      "inputs": [],
      "name": "getRebaseValues",
      "outputs": [
        {
          "internalType": "uint256",
          "name": "",
          "type": "uint256"
        },
        {
          "internalType": "uint256",
          "name": "",
          "type": "uint256"
        },
        {
          "internalType": "int256",
          "name": "",
          "type": "int256"
        }
      ],
      "payable": false,
      "stateMutability": "view",
      "type": "function"
    },
    {
      "constant": false,
      "inputs": [
        {
          "internalType": "contract IOracle",
          "name": "marketOracle_",
          "type": "address"
        }
      ],
      "name": "setMarketOracle",
      "outputs": [],
      "payable": false,
      "stateMutability": "nonpayable",
      "type": "function"
    },
    {
      "constant": false,
      "inputs": [
        {
          "internalType": "address",
          "name": "destination",
          "type": "address"
        },
        {
          "internalType": "bytes",
          "name": "data",
          "type": "bytes"
        }
      ],
      "name": "addTransaction",
      "outputs": [],
      "payable": false,
      "stateMutability": "nonpayable",
      "type": "function"
    },
    {
      "constant": false,
      "inputs": [
        {
          "internalType": "uint256",
          "name": "index",
          "type": "uint256"
        }
      ],
      "name": "removeTransaction",
      "outputs": [],
      "payable": false,
      "stateMutability": "nonpayable",
      "type": "function"
    },
    {
      "constant": false,
      "inputs": [
        {
          "internalType": "uint256",
          "name": "index",
          "type": "uint256"
        },
        {
          "internalType": "bool",
          "name": "enabled",
          "type": "bool"
        }
      ],
      "name": "setTransactionEnabled",
      "outputs": [],
      "payable": false,
      "stateMutability": "nonpayable",
      "type": "function"
    },
    {
      "constant": true,
      "inputs": [],
      "name": "transactionsSize",
      "outputs": [
        {
          "internalType": "uint256",
          "name": "",
          "type": "uint256"
        }
      ],
      "payable": false,
      "stateMutability": "view",
      "type": "function"
    }
  ],
  "bytecode": "0x608060405234801561001057600080fd5b506040516115613803806115618339818101604052602081101561003357600080fd5b5051600080546001600160a01b03199081163317825566b1a2bc2ec5000060045561384060055560068290556007919091556008805460ff19166001179055600280546001600160a01b03909316929091169190911790556114c78061009a6000396000f3fe608060405234801561001057600080fd5b50600436106101425760003560e01c8063715018a6116100b85780639ace38c21161007c5780639ace38c2146102ea5780639e30bac5146103a3578063af14052c146103c9578063ba36f423146103d1578063d94ad837146103d9578063f2fde38b146103e157610142565b8063715018a6146102c25780638da5cb5b146102ca5780638f32d59b146102d2578063900cf0cf146102da57806391d4ec18146102e257610142565b80633a93069b1161010a5780633a93069b1461023257806346c3bd1f1461024c57806356fecc8e1461026957806360961528146102715780636412bb71146102955780636e9dde991461029d57610142565b806305919e7d14610147578063126e19be1461016857806330d6f02f146101e85780633148235a14610204578063329ceacd1461022a575b600080fd5b6101666004803603602081101561015d57600080fd5b50351515610407565b005b6101666004803603604081101561017e57600080fd5b6001600160a01b0382351691908101906040810160208201356401000000008111156101a957600080fd5b8201836020820111156101bb57600080fd5b803590602001918460018302840111640100000000831117156101dd57600080fd5b50909250905061042b565b6101f061050b565b604080519115158252519081900360200190f35b61020c610514565b60408051938452602084019290925282820152519081900360600190f35b6101f0610761565b61023a6107a0565b60408051918252519081900360200190f35b6101666004803603602081101561026257600080fd5b50356107a6565b61023a6108cb565b6102796108d1565b604080516001600160a01b039092168252519081900360200190f35b61023a6108e0565b610166600480360360408110156102b357600080fd5b508035906020013515156108f9565b61016661097b565b6102796109d8565b6101f06109e7565b61023a6109f8565b61023a6109fe565b6103076004803603602081101561030057600080fd5b5035610a04565b6040518084151515158152602001836001600160a01b03166001600160a01b0316815260200180602001828103825283818151815260200191508051906020019080838360005b8381101561036657818101518382015260200161034e565b50505050905090810190601f1680156103935780820380516001836020036101000a031916815260200191505b5094505050505060405180910390f35b610166600480360360208110156103b957600080fd5b50356001600160a01b0316610ac9565b610166610afc565b610279610ede565b61023a610eed565b610166600480360360208110156103f757600080fd5b50356001600160a01b0316610ef3565b61040f6109e7565b61041857600080fd5b6008805460ff1916911515919091179055565b6104336109e7565b61043c57600080fd5b60016040518060600160405280600115158152602001856001600160a01b0316815260200184848080601f01602080910402602001604051908101604052809392919081815260200183838082843760009201829052509390945250508354600181810180875595835260209283902085516002909302018054848701516001600160a01b031661010002610100600160a81b031994151560ff19909216919091179390931692909217825560408501518051929450610502939185019291019061128b565b50505050505050565b60085460ff1681565b6000806000806012600a0a90506000600360009054906101000a90046001600160a01b03166001600160a01b0316633bc5de306040518163ffffffff1660e01b815260040160206040518083038186803b15801561057157600080fd5b505afa158015610585573d6000803e3d6000fd5b505050506040513d602081101561059b57600080fd5b5051905069d3c21bcecceda10000008111156105be575069d3c21bcecceda10000005b60006105ca8284610f10565b905060008112156105ed576105e681600263ffffffff610fef16565b9050610601565b6105fe81600563ffffffff610fef16565b90505b6000811380156106ac575069d3c21bcecceda10000006001600160ff1b03046106aa82600260009054906101000a90046001600160a01b03166001600160a01b03166318160ddd6040518163ffffffff1660e01b815260040160206040518083038186803b15801561067257600080fd5b505afa158015610686573d6000803e3d6000fd5b505050506040513d602081101561069c57600080fd5b50519063ffffffff61102016565b115b156107565761075361074e600260009054906101000a90046001600160a01b03166001600160a01b03166318160ddd6040518163ffffffff1660e01b815260040160206040518083038186803b15801561070557600080fd5b505afa158015610719573d6000803e3d6000fd5b505050506040513d602081101561072f57600080fd5b5051759abe14cd44753b52c4926a9672793542d78c3615cf3a90611039565b61104e565b90505b909591945092509050565b60085460009060ff16158061077957506107796109e7565b801561079a57504261079860055460065461102090919063ffffffff16565b105b90505b90565b60065481565b6107ae6109e7565b6107b757600080fd5b6001548110610803576040805162461bcd60e51b8152602060048201526013602482015272696e646578206f7574206f6620626f756e647360681b604482015290519081900360640190fd5b600154600019018110156108b45760018054600019810190811061082357fe5b90600052602060002090600202016001828154811061083e57fe5b6000918252602090912082546002928302909101805460ff191660ff9092161515919091178082558354610100600160a81b0319909116610100918290046001600160a01b031682021782556001808501805493946108b0948387019492938116159092026000190190911604611305565b5050505b60018054906108c790600019830161137a565b5050565b60055481565b6003546001600160a01b031681565b600061079a60055460065461102090919063ffffffff16565b6109016109e7565b61090a57600080fd5b600154821061094a5760405162461bcd60e51b815260040180806020018281038252602881526020018061143e6028913960400191505060405180910390fd5b806001838154811061095857fe5b60009182526020909120600290910201805460ff19169115159190911790555050565b6109836109e7565b61098c57600080fd5b60085460ff16156109ce5760405162461bcd60e51b815260040180806020018281038252602d815260200180611466602d913960400191505060405180910390fd5b6109d6611068565b565b6000546001600160a01b031690565b6000546001600160a01b0316331490565b60075481565b60015490565b60018181548110610a1157fe5b6000918252602091829020600291820201805460018083018054604080516101009483161585026000190190921696909604601f810188900488028201880190965285815260ff84169750919092046001600160a01b03169492939092830182828015610abf5780601f10610a9457610100808354040283529160200191610abf565b820191906000526020600020905b815481529060010190602001808311610aa257829003601f168201915b5050505050905083565b610ad16109e7565b610ada57600080fd5b600380546001600160a01b0319166001600160a01b0392909216919091179055565b323314610b0857600080fd5b610b10610761565b610b56576040805162461bcd60e51b8152602060048201526012602482015271149958985cd9481b9bdd08185b1b1bddd95960721b604482015290519081900360640190fd5b42600655600754610b6e90600163ffffffff61102016565b60075560008080610b7d610514565b60025460075460408051637a43e23f60e01b8152600481019290925260248201849052519497509295509093506000926001600160a01b0390911691637a43e23f91604480830192602092919082900301818787803b158015610bdf57600080fd5b505af1158015610bf3573d6000803e3d6000fd5b505050506040513d6020811015610c0957600080fd5b50519050759abe14cd44753b52c4926a9672793542d78c3615cf3a811115610c2d57fe5b60005b600154811015610e2b57600060018281548110610c4957fe5b60009182526020909120600290910201805490915060ff1615610e225780546001808301805460408051602060026101009685161587026000190190941693909304601f8101849004840282018401909252818152600095610d119590046001600160a01b0316939092909190830182828015610d075780601f10610cdc57610100808354040283529160200191610d07565b820191906000526020600020905b815481529060010190602001808311610cea57829003601f168201915b50505050506110c1565b905080610e205781546040805185815260208101828152600180870180546002610100938216158402600019019091160494840185905294046001600160a01b0316937f8091ecaaa54ebb82e02d36c2c336528e0fcb9b3430fc1291ac88295032b9c263938893919290606083019084908015610dcf5780601f10610da457610100808354040283529160200191610dcf565b820191906000526020600020905b815481529060010190602001808311610db257829003601f168201915b5050935050505060405180910390a26040805162461bcd60e51b8152602060048201526012602482015271151c985b9cd858dd1a5bdb8811985a5b195960721b604482015290519081900360640190fd5b505b50600101610c30565b50600360009054906101000a90046001600160a01b03166001600160a01b031663a2e620456040518163ffffffff1660e01b8152600401600060405180830381600087803b158015610e7c57600080fd5b505af1158015610e90573d6000803e3d6000fd5b50506007546040805188815260208101879052428183015290519193507f7f5c8486e564c1d27c32da42b1ba6a909114d7bbea36de9a66bc0bebfba26bc3925081900360600190a250505050565b6002546001600160a01b031681565b60045481565b610efb6109e7565b610f0457600080fd5b610f0d816110e4565b50565b6000610f1c8383611152565b15610f2957506000610fe9565b6000610f348361104e565b9050610fe581610fd9610f5684610f4a8961104e565b9063ffffffff6111c816565b600254604080516318160ddd60e01b81529051610fcd926001600160a01b0316916318160ddd916004808301926020929190829003018186803b158015610f9c57600080fd5b505afa158015610fb0573d6000803e3d6000fd5b505050506040513d6020811015610fc657600080fd5b505161104e565b9063ffffffff6111fb16565b9063ffffffff610fef16565b9150505b92915050565b6000816000191415806110065750600160ff1b8314155b61100f57600080fd5b81838161101857fe5b059392505050565b60008282018381101561103257600080fd5b9392505050565b60008282111561104857600080fd5b50900390565b60006001600160ff1b0382111561106457600080fd5b5090565b6110706109e7565b61107957600080fd5b600080546040516001600160a01b03909116917ff8df31144d9c2f0f6b59d69b8b98abd5459d07f2742c4df920b25aae33c6482091a2600080546001600160a01b0319169055565b6000806040516020840160008286518360008a6187965a03f19695505050505050565b6001600160a01b0381166110f757600080fd5b600080546040516001600160a01b03808516939216917f8be0079c531659141344cd1fd0a4f28419497f9722a3daafe3b4186f6b6457e091a3600080546001600160a01b0319166001600160a01b0392909216919091179055565b60008061117e6012600a0a6111726004548661124290919063ffffffff16565b9063ffffffff61126916565b905082841015801561119e57508061119c858563ffffffff61103916565b105b80610fe557508284108015610fe55750806111bf848663ffffffff61103916565b10949350505050565b60008183038183128015906111dd5750838113155b806111f257506000831280156111f257508381135b61103257600080fd5b6000828202600160ff1b8114158061121c5750600160ff1b84811690841614155b61122557600080fd5b8215806111f257508383828161123757fe5b051461103257600080fd5b60008261125157506000610fe9565b8282028284828161125e57fe5b041461103257600080fd5b600080821161127757600080fd5b600082848161128257fe5b04949350505050565b828054600181600116156101000203166002900490600052602060002090601f016020900481019282601f106112cc57805160ff19168380011785556112f9565b828001600101855582156112f9579182015b828111156112f95782518255916020019190600101906112de565b506110649291506113ab565b828054600181600116156101000203166002900490600052602060002090601f016020900481019282601f1061133e57805485556112f9565b828001600101855582156112f957600052602060002091601f016020900482015b828111156112f957825482559160010191906001019061135f565b8154818355818111156113a6576002028160020283600052602060002091820191016113a691906113c5565b505050565b61079d91905b8082111561106457600081556001016113b1565b61079d91905b808211156110645780546001600160a81b031916815560006113f060018301826113f9565b506002016113cb565b50805460018160011615610100020316600290046000825580601f1061141f5750610f0d565b601f016020900490600052602060002090810190610f0d91906113ab56fe696e646578206d75737420626520696e2072616e6765206f662073746f726564207478206c69737443616e6e6f742072656e6f756e6365206f776e65727368697020696620726562617365206973206c6f636b6564a265627a7a723158204425b78eaa0ddb1a2b4e641fa2174cd79c287fde72808a5dbc7c0920149130fb64736f6c63430005110032",
  "source": "// SPDX-License-Identifier: MIT\n\npragma solidity 0.5.17;\n\n/**\n * @title SafeMath\n * @dev Math operations with safety checks that revert on error\n */\nlibrary SafeMath {\n\n  /**\n  * @dev Multiplies two numbers, reverts on overflow.\n  */\n  function mul(uint256 a, uint256 b) internal pure returns (uint256) {\n    // Gas optimization: this is cheaper than requiring 'a' not being zero, but the\n    // benefit is lost if 'b' is also tested.\n    // See: https://github.com/OpenZeppelin/openzeppelin-solidity/pull/522\n    if (a == 0) {\n      return 0;\n    }\n\n    uint256 c = a * b;\n    require(c / a == b);\n\n    return c;\n  }\n\n  /**\n  * @dev Integer division of two numbers truncating the quotient, reverts on division by zero.\n  */\n  function div(uint256 a, uint256 b) internal pure returns (uint256) {\n    require(b > 0); // Solidity only automatically asserts when dividing by 0\n    uint256 c = a / b;\n    // assert(a == b * c + a % b); // There is no case in which this doesn't hold\n\n    return c;\n  }\n\n  /**\n  * @dev Subtracts two numbers, reverts on overflow (i.e. if subtrahend is greater than minuend).\n  */\n  function sub(uint256 a, uint256 b) internal pure returns (uint256) {\n    require(b <= a);\n    uint256 c = a - b;\n\n    return c;\n  }\n\n  /**\n  * @dev Adds two numbers, reverts on overflow.\n  */\n  function add(uint256 a, uint256 b) internal pure returns (uint256) {\n    uint256 c = a + b;\n    require(c >= a);\n\n    return c;\n  }\n\n  /**\n  * @dev Divides two numbers and returns the remainder (unsigned integer modulo),\n  * reverts when dividing by zero.\n  */\n  function mod(uint256 a, uint256 b) internal pure returns (uint256) {\n    require(b != 0);\n    return a % b;\n  }\n}\n\nlibrary SafeMathInt {\n    int256 private constant MIN_INT256 = int256(1) << 255;\n    int256 private constant MAX_INT256 = ~(int256(1) << 255);\n\n    /**\n     * @dev Multiplies two int256 variables and fails on overflow.\n     */\n    function mul(int256 a, int256 b)\n        internal\n        pure\n        returns (int256)\n    {\n        int256 c = a * b;\n\n        // Detect overflow when multiplying MIN_INT256 with -1\n        require(c != MIN_INT256 || (a & MIN_INT256) != (b & MIN_INT256));\n        require((b == 0) || (c / b == a));\n        return c;\n    }\n\n    /**\n     * @dev Division of two int256 variables and fails on overflow.\n     */\n    function div(int256 a, int256 b)\n        internal\n        pure\n        returns (int256)\n    {\n        // Prevent overflow when dividing MIN_INT256 by -1\n        require(b != -1 || a != MIN_INT256);\n\n        // Solidity already throws when dividing by 0.\n        return a / b;\n    }\n\n    /**\n     * @dev Subtracts two int256 variables and fails on overflow.\n     */\n    function sub(int256 a, int256 b)\n        internal\n        pure\n        returns (int256)\n    {\n        int256 c = a - b;\n        require((b >= 0 && c <= a) || (b < 0 && c > a));\n        return c;\n    }\n\n    /**\n     * @dev Adds two int256 variables and fails on overflow.\n     */\n    function add(int256 a, int256 b)\n        internal\n        pure\n        returns (int256)\n    {\n        int256 c = a + b;\n        require((b >= 0 && c >= a) || (b < 0 && c < a));\n        return c;\n    }\n\n    /**\n     * @dev Converts to absolute value, and fails on overflow.\n     */\n    function abs(int256 a)\n        internal\n        pure\n        returns (int256)\n    {\n        require(a != MIN_INT256);\n        return a < 0 ? -a : a;\n    }\n}\n\n/**\n * @title Various utilities useful for uint256.\n */\nlibrary UInt256Lib {\n\n    uint256 private constant MAX_INT256 = ~(uint256(1) << 255);\n\n    /**\n     * @dev Safely converts a uint256 to an int256.\n     */\n    function toInt256Safe(uint256 a)\n        internal\n        pure\n        returns (int256)\n    {\n        require(a <= MAX_INT256);\n        return int256(a);\n    }\n}\n\n/**\n * @title ERC20 interface\n * @dev see https://github.com/ethereum/EIPs/issues/20\n */\ninterface IERC20 {\n\n  function totalSupply() external view returns (uint256);\n\n  function balanceOf(address who) external view returns (uint256);\n\n  function allowance(address owner, address spender)\n    external view returns (uint256);\n\n  function transfer(address to, uint256 value) external returns (bool);\n\n  function approve(address spender, uint256 value)\n    external returns (bool);\n\n  function transferFrom(address from, address to, uint256 value)\n    external returns (bool);\n\n  event Transfer(\n    address indexed from,\n    address indexed to,\n    uint256 value\n  );\n\n  event Approval(\n    address indexed owner,\n    address indexed spender,\n    uint256 value\n  );\n}\n\ninterface IAtt {\n    function totalSupply() external view returns (uint256);\n    function rebase(uint256 epoch, int256 supplyDelta) external returns (uint256);\n}\n\ninterface IOracle {\n    function getData() external view returns (uint256);\n    function update() external;\n}\n\n\n/**\n * @title Ownable\n * @dev The Ownable contract has an owner address, and provides basic authorization control\n * functions, this simplifies the implementation of \"user permissions\".\n */\ncontract Ownable {\n  address private _owner;\n\n  event OwnershipRenounced(address indexed previousOwner);\n  \n  event OwnershipTransferred(\n    address indexed previousOwner,\n    address indexed newOwner\n  );\n\n\n  /**\n   * @dev The Ownable constructor sets the original `owner` of the contract to the sender\n   * account.\n   */\n  constructor() public {\n    _owner = msg.sender;\n  }\n\n  /**\n   * @return the address of the owner.\n   */\n  function owner() public view returns(address) {\n    return _owner;\n  }\n\n  /**\n   * @dev Throws if called by any account other than the owner.\n   */\n  modifier onlyOwner() {\n    require(isOwner());\n    _;\n  }\n\n  /**\n   * @return true if `msg.sender` is the owner of the contract.\n   */\n  function isOwner() public view returns(bool) {\n    return msg.sender == _owner;\n  }\n\n  /**\n   * @dev Allows the current owner to relinquish control of the contract.\n   * @notice Renouncing to ownership will leave the contract without an owner.\n   * It will not be possible to call the functions with the `onlyOwner`\n   * modifier anymore.\n   */\n  function renounceOwnership() public onlyOwner {\n    emit OwnershipRenounced(_owner);\n    _owner = address(0);\n  }\n\n  /**\n   * @dev Allows the current owner to transfer control of the contract to a newOwner.\n   * @param newOwner The address to transfer ownership to.\n   */\n  function transferOwnership(address newOwner) public onlyOwner {\n    _transferOwnership(newOwner);\n  }\n\n  /**\n   * @dev Transfers control of the contract to a newOwner.\n   * @param newOwner The address to transfer ownership to.\n   */\n  function _transferOwnership(address newOwner) internal {\n    require(newOwner != address(0));\n    emit OwnershipTransferred(_owner, newOwner);\n    _owner = newOwner;\n  }\n}\n\n/**\n * @title Att's Master\n * @dev Controller for an elastic supply currency based on the uFragments Ideal Money protocol a.k.a. Ampleforth.\n *      uFragments operates symmetrically on expansion and contraction. It will both split and\n *      combine coins to maintain a stable unit price.\n *\n *      This component regulates the token supply of the uFragments ERC20 token in response to\n *      market oracles.\n */\ncontract Master is Ownable {\n    using SafeMath for uint256;\n    using SafeMathInt for int256;\n    using UInt256Lib for uint256;\n\n    struct Transaction {\n        bool enabled;\n        address destination;\n        bytes data;\n    }\n\n    event TransactionFailed(address indexed destination, uint index, bytes data);\n\n    // Stable ordering is not guaranteed.\n    Transaction[] public transactions;\n\n    event LogRebase(\n        uint256 indexed epoch,\n        uint256 exchangeRate,\n        int256 requestedSupplyAdjustment,\n        uint256 timestampSec\n    );\n\n    IAtt public att;\n\n    // Market oracle provides the token/USD exchange rate as an 18 decimal fixed point number.\n    IOracle public marketOracle;\n\n    // If the current exchange rate is within this fractional distance from the target, no supply\n    // update is performed. Fixed point number--same format as the rate.\n    // (ie) abs(rate - targetRate) / targetRate < deviationThreshold, then no supply change.\n    // DECIMALS Fixed point number.\n    uint256 public deviationThreshold;\n\n    // More than this much time must pass between rebase operations.\n    uint256 public rebaseCooldown;\n\n    // Block timestamp of last rebase operation\n    uint256 public lastRebaseTimestampSec;\n\n    // The number of rebase cycles since inception\n    uint256 public epoch;\n\n    uint256 private constant DECIMALS = 18;\n\n    // Due to the expression in computeSupplyDelta(), MAX_RATE * MAX_SUPPLY must fit into an int256.\n    // Both are 18 decimals fixed point numbers.\n    uint256 private constant MAX_RATE = 10**6 * 10**DECIMALS;\n    // MAX_SUPPLY = MAX_INT256 / MAX_RATE\n    uint256 private constant MAX_SUPPLY = ~(uint256(1) << 255) / MAX_RATE;\n\n    // Rebase will remain restricted to the owner until the final Oracle is deployed and battle-tested.\n    // Ownership will be renounced after this inital period.     \n\n    bool public rebaseLocked; \n\n    constructor(address _att) public {\n        deviationThreshold = 5 * 10 ** (DECIMALS-2);\n\n        rebaseCooldown = 4 hours;\n        lastRebaseTimestampSec = 0;\n        epoch = 0;\n        rebaseLocked = true;\n        \n        att = IAtt(_att);\n    }\n    \n    /**\n     * @dev Allows the current owner to relinquish control of the contract.\n     * @notice Override to ensure that rebases aren't locked when this happens.\n     */\n     \n    function renounceOwnership() public onlyOwner {\n        require(!rebaseLocked, \"Cannot renounce ownership if rebase is locked\");\n        super.renounceOwnership();\n    }\n        \n    function setRebaseLocked(bool _locked) external onlyOwner {\n        rebaseLocked = _locked;\n    }\n\n    /**\n     * @notice Returns true if the cooldown timer has expired since the last rebase.\n     *\n     */\n     \n    function canRebase() public view returns (bool) {\n        return ((!rebaseLocked || isOwner()) && lastRebaseTimestampSec.add(rebaseCooldown) < now);\n    }\n    \n    function cooldownExpiryTimestamp() public view returns (uint256) {\n        return lastRebaseTimestampSec.add(rebaseCooldown);\n    }\n\n    /**\n     * @notice Initiates a new rebase operation, provided the minimum time period has elapsed.\n     *\n     */\n     \n    function rebase() external {\n\n        require(tx.origin == msg.sender);\n        require(canRebase(), \"Rebase not allowed\");\n\n        lastRebaseTimestampSec = now;\n\n        epoch = epoch.add(1);\n        \n        (uint256 exchangeRate, uint256 targetRate, int256 supplyDelta) = getRebaseValues();\n        \n        uint256 supplyAfterRebase = att.rebase(epoch, supplyDelta);\n        \n        assert(supplyAfterRebase <= MAX_SUPPLY);\n        \n        for (uint i = 0; i < transactions.length; i++) {\n            Transaction storage t = transactions[i];\n            if (t.enabled) {\n                bool result =\n                    externalCall(t.destination, t.data);\n                if (!result) {\n                    emit TransactionFailed(t.destination, i, t.data);\n                    revert(\"Transaction Failed\");\n                }\n            }\n        }\n        \n        marketOracle.update();\n        \n        emit LogRebase(epoch, exchangeRate, supplyDelta, now);\n    }\n    \n    /**\n     * @notice Calculates the supplyDelta and returns the current set of values for the rebase\n     *\n     * @dev The supply adjustment equals (_totalSupply * DeviationFromTargetRate) / rebaseLag\n     *      Where DeviationFromTargetRate is (MarketOracleRate - targetRate) / targetRate\n     * \n     */    \n    \n    function getRebaseValues() public view returns (uint256, uint256, int256) {\n\n        uint256 targetRate = 10 ** DECIMALS;\n        uint256 exchangeRate = marketOracle.getData();\n\n        if (exchangeRate > MAX_RATE) {\n            exchangeRate = MAX_RATE;\n        }\n\n        int256 supplyDelta = computeSupplyDelta(exchangeRate, targetRate);\n\n        // Apply the dampening factor.\n        if (supplyDelta < 0) {\n            supplyDelta = supplyDelta.div(2);\n        } else {\n            supplyDelta = supplyDelta.div(5);                   \n        }\n\n        if (supplyDelta > 0 && att.totalSupply().add(uint256(supplyDelta)) > MAX_SUPPLY) {\n            supplyDelta = (MAX_SUPPLY.sub(att.totalSupply())).toInt256Safe();\n        }\n\n        return (exchangeRate, targetRate, supplyDelta);\n    }\n\n\n    /**\n     * @return Computes the total supply adjustment in response to the exchange rate\n     *         and the targetRate.\n     */\n    function computeSupplyDelta(uint256 rate, uint256 targetRate)\n        internal\n        view\n        returns (int256)\n    {\n        if (withinDeviationThreshold(rate, targetRate)) {\n            return 0;\n        }\n\n        // supplyDelta = totalSupply * (rate - targetRate) / targetRate\n        int256 targetRateSigned = targetRate.toInt256Safe();\n        return att.totalSupply().toInt256Safe()\n            .mul(rate.toInt256Safe().sub(targetRateSigned))\n            .div(targetRateSigned);\n    }\n\n    /**\n     * @param rate The current exchange rate, an 18 decimal fixed point number.\n     * @param targetRate The target exchange rate, an 18 decimal fixed point number.\n     * @return If the rate is within the deviation threshold from the target rate, returns true.\n     *         Otherwise, returns false.\n     */\n    function withinDeviationThreshold(uint256 rate, uint256 targetRate)\n        internal\n        view\n        returns (bool)\n    {\n        uint256 absoluteDeviationThreshold = targetRate.mul(deviationThreshold)\n            .div(10 ** DECIMALS);\n\n        return (rate >= targetRate && rate.sub(targetRate) < absoluteDeviationThreshold)\n            || (rate < targetRate && targetRate.sub(rate) < absoluteDeviationThreshold);\n    }\n    \n    /**\n     * @notice Sets the reference to the market oracle.\n     * @param marketOracle_ The address of the market oracle contract.\n     */\n    function setMarketOracle(IOracle marketOracle_)\n        external\n        onlyOwner\n    {\n        marketOracle = marketOracle_;\n    }\n    \n    /**\n     * @notice Adds a transaction that gets called for a downstream receiver of rebases\n     * @param destination Address of contract destination\n     * @param data Transaction data payload\n     */\n    function addTransaction(address destination, bytes calldata data)\n        external\n        onlyOwner\n    {\n        transactions.push(Transaction({\n            enabled: true,\n            destination: destination,\n            data: data\n        }));\n    }\n\n    /**\n     * @param index Index of transaction to remove.\n     *              Transaction ordering may have changed since adding.\n     */\n    function removeTransaction(uint index)\n        external\n        onlyOwner\n    {\n        require(index < transactions.length, \"index out of bounds\");\n\n        if (index < transactions.length - 1) {\n            transactions[index] = transactions[transactions.length - 1];\n        }\n\n        transactions.length--;\n    }\n\n    /**\n     * @param index Index of transaction. Transaction ordering may have changed since adding.\n     * @param enabled True for enabled, false for disabled.\n     */\n    function setTransactionEnabled(uint index, bool enabled)\n        external\n        onlyOwner\n    {\n        require(index < transactions.length, \"index must be in range of stored tx list\");\n        transactions[index].enabled = enabled;\n    }\n\n    /**\n     * @return Number of transactions, both enabled and disabled, in transactions list.\n     */\n    function transactionsSize()\n        external\n        view\n        returns (uint256)\n    {\n        return transactions.length;\n    }\n\n    /**\n     * @dev wrapper to call the encoded transactions on downstream consumers.\n     * @param destination Address of destination contract.\n     * @param data The encoded data payload.\n     * @return True on success\n     */\n    function externalCall(address destination, bytes memory data)\n        internal\n        returns (bool)\n    {\n        bool result;\n        assembly {  // solhint-disable-line no-inline-assembly\n            // \"Allocate\" memory for output\n            // (0x40 is where \"free memory\" pointer is stored by convention)\n            let outputAddress := mload(0x40)\n\n            // First 32 bytes are the padded length of data, so exclude that\n            let dataAddress := add(data, 32)\n\n            result := call(\n                sub(gas(), 34710),\n                destination,\n                0, // transfer value in wei\n                dataAddress,\n                mload(data),  // Size of the input, in bytes. Stored in position 0 of the array.\n                outputAddress,\n                0  // Output is ignored, therefore the output size is zero\n            )\n        }\n        return result;\n    }    \n    \n}",
  "sourcePath": "/home/sagar/Desktop/projects/ATT/smart-contracts/Main/contracts/Master.sol",
  "compiler": {
    "name": "solc",
    "version": "0.5.17+commit.d19bba13.Emscripten.clang"
  },
  "schemaVersion": "3.3.2",
  "updatedAt": "2021-04-28T04:02:27.194Z",
  "devdoc": {
    "details": "Controller for an elastic supply currency based on the uFragments Ideal Money protocol a.k.a. Ampleforth.     uFragments operates symmetrically on expansion and contraction. It will both split and     combine coins to maintain a stable unit price. *      This component regulates the token supply of the uFragments ERC20 token in response to     market oracles.",
    "methods": {
      "addTransaction(address,bytes)": {
        "params": {
          "data": "Transaction data payload",
          "destination": "Address of contract destination"
        }
      },
      "getRebaseValues()": {
        "details": "The supply adjustment equals (_totalSupply * DeviationFromTargetRate) / rebaseLag     Where DeviationFromTargetRate is (MarketOracleRate - targetRate) / targetRate      "
      },
      "isOwner()": {
        "return": "true if `msg.sender` is the owner of the contract."
      },
      "owner()": {
        "return": "the address of the owner."
      },
      "removeTransaction(uint256)": {
        "params": {
          "index": "Index of transaction to remove.             Transaction ordering may have changed since adding."
        }
      },
      "renounceOwnership()": {
        "details": "Allows the current owner to relinquish control of the contract."
      },
      "setMarketOracle(address)": {
        "params": {
          "marketOracle_": "The address of the market oracle contract."
        }
      },
      "setTransactionEnabled(uint256,bool)": {
        "params": {
          "enabled": "True for enabled, false for disabled.",
          "index": "Index of transaction. Transaction ordering may have changed since adding."
        }
      },
      "transactionsSize()": {
        "return": "Number of transactions, both enabled and disabled, in transactions list."
      },
      "transferOwnership(address)": {
        "details": "Allows the current owner to transfer control of the contract to a newOwner.",
        "params": {
          "newOwner": "The address to transfer ownership to."
        }
      }
    },
    "title": "Att's Master"
  },
  "userdoc": {
    "methods": {
      "addTransaction(address,bytes)": {
        "notice": "Adds a transaction that gets called for a downstream receiver of rebases"
      },
      "canRebase()": {
        "notice": "Returns true if the cooldown timer has expired since the last rebase.     "
      },
      "getRebaseValues()": {
        "notice": "Calculates the supplyDelta and returns the current set of values for the rebase"
      },
      "rebase()": {
        "notice": "Initiates a new rebase operation, provided the minimum time period has elapsed.     "
      },
      "renounceOwnership()": {
        "notice": "Override to ensure that rebases aren't locked when this happens."
      },
      "setMarketOracle(address)": {
        "notice": "Sets the reference to the market oracle."
      }
    }
  }
}