{
  "contractName": "Zelda",
  "abi": [
    {
      "inputs": [
        {
          "internalType": "contract IERC20",
          "name": "_att",
          "type": "address"
        }
      ],
      "stateMutability": "nonpayable",
      "type": "constructor"
    },
    {
      "anonymous": false,
      "inputs": [
        {
          "indexed": true,
          "internalType": "address",
          "name": "user",
          "type": "address"
        },
        {
          "indexed": false,
          "internalType": "uint256",
          "name": "amount",
          "type": "uint256"
        }
      ],
      "name": "EmergencyWithdraw",
      "type": "event"
    },
    {
      "anonymous": false,
      "inputs": [
        {
          "indexed": true,
          "internalType": "address",
          "name": "previousOwner",
          "type": "address"
        },
        {
          "indexed": true,
          "internalType": "address",
          "name": "newOwner",
          "type": "address"
        }
      ],
      "name": "OwnershipTransferred",
      "type": "event"
    },
    {
      "anonymous": false,
      "inputs": [
        {
          "indexed": false,
          "internalType": "address",
          "name": "account",
          "type": "address"
        }
      ],
      "name": "Paused",
      "type": "event"
    },
    {
      "anonymous": false,
      "inputs": [
        {
          "indexed": true,
          "internalType": "uint256",
          "name": "position",
          "type": "uint256"
        },
        {
          "indexed": false,
          "internalType": "uint256",
          "name": "amount",
          "type": "uint256"
        }
      ],
      "name": "RewardSchemeUpdate",
      "type": "event"
    },
    {
      "anonymous": false,
      "inputs": [
        {
          "indexed": false,
          "internalType": "address",
          "name": "account",
          "type": "address"
        }
      ],
      "name": "Unpaused",
      "type": "event"
    },
    {
      "anonymous": false,
      "inputs": [
        {
          "indexed": true,
          "internalType": "address",
          "name": "user",
          "type": "address"
        },
        {
          "indexed": false,
          "internalType": "uint256",
          "name": "amount",
          "type": "uint256"
        }
      ],
      "name": "UserClaim",
      "type": "event"
    },
    {
      "anonymous": false,
      "inputs": [
        {
          "indexed": false,
          "internalType": "address[]",
          "name": "winners",
          "type": "address[]"
        },
        {
          "indexed": true,
          "internalType": "uint256",
          "name": "counter",
          "type": "uint256"
        }
      ],
      "name": "WinnerAnnouncement",
      "type": "event"
    },
    {
      "inputs": [],
      "name": "MAX_POSITIONS",
      "outputs": [
        {
          "internalType": "uint256",
          "name": "",
          "type": "uint256"
        }
      ],
      "stateMutability": "view",
      "type": "function"
    },
    {
      "inputs": [],
      "name": "att",
      "outputs": [
        {
          "internalType": "contract IERC20",
          "name": "",
          "type": "address"
        }
      ],
      "stateMutability": "view",
      "type": "function"
    },
    {
      "inputs": [],
      "name": "counter",
      "outputs": [
        {
          "internalType": "uint256",
          "name": "",
          "type": "uint256"
        }
      ],
      "stateMutability": "view",
      "type": "function"
    },
    {
      "inputs": [
        {
          "internalType": "address",
          "name": "",
          "type": "address"
        }
      ],
      "name": "nodes",
      "outputs": [
        {
          "internalType": "bool",
          "name": "",
          "type": "bool"
        }
      ],
      "stateMutability": "view",
      "type": "function"
    },
    {
      "inputs": [],
      "name": "owner",
      "outputs": [
        {
          "internalType": "address",
          "name": "",
          "type": "address"
        }
      ],
      "stateMutability": "view",
      "type": "function"
    },
    {
      "inputs": [],
      "name": "paused",
      "outputs": [
        {
          "internalType": "bool",
          "name": "",
          "type": "bool"
        }
      ],
      "stateMutability": "view",
      "type": "function"
    },
    {
      "inputs": [],
      "name": "renounceOwnership",
      "outputs": [],
      "stateMutability": "nonpayable",
      "type": "function"
    },
    {
      "inputs": [
        {
          "internalType": "uint256",
          "name": "",
          "type": "uint256"
        }
      ],
      "name": "rewardScheme",
      "outputs": [
        {
          "internalType": "uint256",
          "name": "",
          "type": "uint256"
        }
      ],
      "stateMutability": "view",
      "type": "function"
    },
    {
      "inputs": [],
      "name": "totalAllocation",
      "outputs": [
        {
          "internalType": "uint256",
          "name": "",
          "type": "uint256"
        }
      ],
      "stateMutability": "view",
      "type": "function"
    },
    {
      "inputs": [
        {
          "internalType": "address",
          "name": "newOwner",
          "type": "address"
        }
      ],
      "name": "transferOwnership",
      "outputs": [],
      "stateMutability": "nonpayable",
      "type": "function"
    },
    {
      "inputs": [
        {
          "internalType": "address",
          "name": "",
          "type": "address"
        }
      ],
      "name": "userRewards",
      "outputs": [
        {
          "internalType": "uint256",
          "name": "",
          "type": "uint256"
        }
      ],
      "stateMutability": "view",
      "type": "function"
    },
    {
      "inputs": [
        {
          "internalType": "uint256",
          "name": "",
          "type": "uint256"
        },
        {
          "internalType": "uint256",
          "name": "",
          "type": "uint256"
        }
      ],
      "name": "winners",
      "outputs": [
        {
          "internalType": "address",
          "name": "",
          "type": "address"
        }
      ],
      "stateMutability": "view",
      "type": "function"
    },
    {
      "inputs": [
        {
          "internalType": "address[]",
          "name": "_wList",
          "type": "address[]"
        }
      ],
      "name": "announceWinner",
      "outputs": [],
      "stateMutability": "nonpayable",
      "type": "function"
    },
    {
      "inputs": [],
      "name": "claim",
      "outputs": [],
      "stateMutability": "nonpayable",
      "type": "function"
    },
    {
      "inputs": [
        {
          "internalType": "address",
          "name": "_who",
          "type": "address"
        }
      ],
      "name": "pendingReward",
      "outputs": [
        {
          "internalType": "uint256",
          "name": "",
          "type": "uint256"
        }
      ],
      "stateMutability": "view",
      "type": "function"
    },
    {
      "inputs": [
        {
          "internalType": "uint256",
          "name": "_amount",
          "type": "uint256"
        }
      ],
      "name": "emergencyWithdraw",
      "outputs": [],
      "stateMutability": "nonpayable",
      "type": "function"
    },
    {
      "inputs": [
        {
          "internalType": "address",
          "name": "_node",
          "type": "address"
        },
        {
          "internalType": "bool",
          "name": "_status",
          "type": "bool"
        }
      ],
      "name": "setNodeStatus",
      "outputs": [],
      "stateMutability": "nonpayable",
      "type": "function"
    },
    {
      "inputs": [],
      "name": "getCurrentCounter",
      "outputs": [
        {
          "internalType": "uint256",
          "name": "",
          "type": "uint256"
        }
      ],
      "stateMutability": "view",
      "type": "function"
    },
    {
      "inputs": [
        {
          "internalType": "uint256",
          "name": "_count",
          "type": "uint256"
        }
      ],
      "name": "getWinners",
      "outputs": [
        {
          "internalType": "address[]",
          "name": "res",
          "type": "address[]"
        }
      ],
      "stateMutability": "view",
      "type": "function"
    },
    {
      "inputs": [
        {
          "internalType": "uint256",
          "name": "_position",
          "type": "uint256"
        },
        {
          "internalType": "uint256",
          "name": "_amount",
          "type": "uint256"
        }
      ],
      "name": "updateRewardScheme",
      "outputs": [],
      "stateMutability": "nonpayable",
      "type": "function"
    },
    {
      "inputs": [],
      "name": "getZeldaHolding",
      "outputs": [
        {
          "internalType": "uint256",
          "name": "",
          "type": "uint256"
        }
      ],
      "stateMutability": "view",
      "type": "function"
    },
    {
      "inputs": [],
      "name": "pause",
      "outputs": [],
      "stateMutability": "nonpayable",
      "type": "function"
    },
    {
      "inputs": [],
      "name": "unPause",
      "outputs": [],
      "stateMutability": "nonpayable",
      "type": "function"
    }
  ],
  "bytecode": "0x608060405234801561001057600080fd5b506040516115a63803806115a68339818101604052602081101561003357600080fd5b5051600061003f6100c3565b600080546001600160a01b0319166001600160a01b0383169081178255604051929350917f8be0079c531659141344cd1fd0a4f28419497f9722a3daafe3b4186f6b6457e0908290a3506000805460ff60a01b19169055600180546001600160a01b0319166001600160a01b039290921691909117815560035560056004556100c7565b3390565b6114d0806100d66000396000f3fe608060405234801561001057600080fd5b506004361061014d5760003560e01c80636c2b1548116100c35780638da5cb5b1161007c5780638da5cb5b146103e0578063ba36f423146103e8578063f2fde38b146103f0578063f40f0f5214610416578063f7b188a51461043c578063f7b24e08146104445761014d565b80636c2b15481461039b578063715018a6146103a357806373448c46146103ab57806375c49f1e146103b357806379203dc4146103d05780638456cb59146103d85761014d565b8063295893401161011557806329589340146102cb5780634e71d92d146102f95780635312ea8e146103015780635c975abb1461031e57806361bc221a146103265780636b1426a41461032e5761014d565b8063052216cf146101525780630660f1e8146101775780630efc8865146101af5780631465eb12146101ee578063189a5a1714610291575b600080fd5b6101756004803603604081101561016857600080fd5b508035906020013561044c565b005b61019d6004803603602081101561018d57600080fd5b50356001600160a01b0316610549565b60408051918252519081900360200190f35b6101d2600480360360408110156101c557600080fd5b508035906020013561055b565b604080516001600160a01b039092168252519081900360200190f35b6101756004803603602081101561020457600080fd5b81019060208101813564010000000081111561021f57600080fd5b82018360208201111561023157600080fd5b8035906020019184602083028401116401000000008311171561025357600080fd5b919080806020026020016040519081016040528093929190818152602001838360200280828437600092019190915250929550610581945050505050565b6102b7600480360360208110156102a757600080fd5b50356001600160a01b0316610819565b604080519115158252519081900360200190f35b610175600480360360408110156102e157600080fd5b506001600160a01b038135169060200135151561082e565b6101756108bb565b6101756004803603602081101561031757600080fd5b50356109cd565b6102b7610acf565b61019d610adf565b61034b6004803603602081101561034457600080fd5b5035610ae5565b60408051602080825283518183015283519192839290830191858101910280838360005b8381101561038757818101518382015260200161036f565b505050509050019250505060405180910390f35b61019d610b94565b610175610c10565b61019d610cbc565b61019d600480360360208110156103c957600080fd5b5035610cc2565b61019d610cd4565b610175610cda565b6101d2610d46565b6101d2610d55565b6101756004803603602081101561040657600080fd5b50356001600160a01b0316610d64565b61019d6004803603602081101561042c57600080fd5b50356001600160a01b0316610e66565b610175610e81565b61019d610eeb565b610454610ef1565b6001600160a01b0316610465610d46565b6001600160a01b0316146104ae576040805162461bcd60e51b81526020600482018190526024820152600080516020611451833981519152604482015290519081900360640190fd5b6104b6610acf565b6104fe576040805162461bcd60e51b815260206004820152601460248201527314185d5cd8589b194e881b9bdd081c185d5cd95960621b604482015290519081900360640190fd5b6000828152600760209081526040918290208390558151838152915184927fce92a90c6e8a59b46d7bbc89f53bd1e8d7a5e32d37e39088750efb439c07d5ed92908290030190a25050565b60066020526000908152604090205481565b60056020908152600092835260408084209091529082529020546001600160a01b031681565b3360009081526008602052604090205460ff1615156001146105df576040805162461bcd60e51b815260206004820152601260248201527116915311104e881055551217d1905253115160721b604482015290519081900360640190fd5b6105e7610acf565b1561062c576040805162461bcd60e51b815260206004820152601060248201526f14185d5cd8589b194e881c185d5cd95960821b604482015290519081900360640190fd5b60045481511461067a576040805162461bcd60e51b81526020600482015260146024820152735a454c44413a204d41585f504f534954494f4e5360601b604482015290519081900360640190fd5b60005b81518110156107985781818151811061069257fe5b6020908102919091018101516003546000908152600583526040808220858352845280822080546001600160a01b0319166001600160a01b039094169390931790925560079092528120548351610729926006918690869081106106f257fe5b60200260200101516001600160a01b03166001600160a01b0316815260200190815260200160002054610ef590919063ffffffff16565b6006600084848151811061073957fe5b60200260200101516001600160a01b03166001600160a01b031681526020019081526020016000208190555061078d6007600083815260200190815260200160002054600254610ef590919063ffffffff16565b60025560010161067d565b50600380546001019081905560408051602080825284518183015284517fa58db115264562101d9017b2759f4a452460342a78aadceb2acd1ee197b8ed5893869392839291830191818601910280838360005b838110156108035781810151838201526020016107eb565b505050509050019250505060405180910390a250565b60086020526000908152604090205460ff1681565b610836610ef1565b6001600160a01b0316610847610d46565b6001600160a01b031614610890576040805162461bcd60e51b81526020600482018190526024820152600080516020611451833981519152604482015290519081900360640190fd5b6001600160a01b03919091166000908152600860205260409020805460ff1916911515919091179055565b6108c3610acf565b15610908576040805162461bcd60e51b815260206004820152601060248201526f14185d5cd8589b194e881c185d5cd95960821b604482015290519081900360640190fd5b336000908152600660205260409020548061095d576040805162461bcd60e51b815260206004820152601060248201526f5a454c4441203a204e4f5f434c41494d60801b604482015290519081900360640190fd5b3360009081526006602052604081205560025461097a9082610f56565b600255600154610994906001600160a01b03163383610fb3565b60408051828152905133917fe2323fa72fc40846465d64f4b6ceb6716d38c6938c38fc238c4c07b7c3ecbb00919081900360200190a250565b6109d5610ef1565b6001600160a01b03166109e6610d46565b6001600160a01b031614610a2f576040805162461bcd60e51b81526020600482018190526024820152600080516020611451833981519152604482015290519081900360640190fd5b610a37610acf565b610a7f576040805162461bcd60e51b815260206004820152601460248201527314185d5cd8589b194e881b9bdd081c185d5cd95960621b604482015290519081900360640190fd5b600154610a96906001600160a01b03163383610fb3565b60408051828152905133917f5fafa99d0643513820be26656b45130b01e1c03062e1266bf36f88cbd3bd9695919081900360200190a250565b600054600160a01b900460ff1690565b60035481565b606060045467ffffffffffffffff81118015610b0057600080fd5b50604051908082528060200260200182016040528015610b2a578160200160208202803683370190505b50905060005b600454811015610b8e57600083815260056020908152604080832084845290915290205482516001600160a01b0390911690839083908110610b6e57fe5b6001600160a01b0390921660209283029190910190910152600101610b30565b50919050565b600154604080516370a0823160e01b815230600482015290516000926001600160a01b0316916370a08231916024808301926020929190829003018186803b158015610bdf57600080fd5b505afa158015610bf3573d6000803e3d6000fd5b505050506040513d6020811015610c0957600080fd5b5051905090565b610c18610ef1565b6001600160a01b0316610c29610d46565b6001600160a01b031614610c72576040805162461bcd60e51b81526020600482018190526024820152600080516020611451833981519152604482015290519081900360640190fd5b600080546040516001600160a01b03909116907f8be0079c531659141344cd1fd0a4f28419497f9722a3daafe3b4186f6b6457e0908390a3600080546001600160a01b0319169055565b60035490565b60076020526000908152604090205481565b60025481565b610ce2610ef1565b6001600160a01b0316610cf3610d46565b6001600160a01b031614610d3c576040805162461bcd60e51b81526020600482018190526024820152600080516020611451833981519152604482015290519081900360640190fd5b610d4461100a565b565b6000546001600160a01b031690565b6001546001600160a01b031681565b610d6c610ef1565b6001600160a01b0316610d7d610d46565b6001600160a01b031614610dc6576040805162461bcd60e51b81526020600482018190526024820152600080516020611451833981519152604482015290519081900360640190fd5b6001600160a01b038116610e0b5760405162461bcd60e51b81526004018080602001828103825260268152602001806114056026913960400191505060405180910390fd5b600080546040516001600160a01b03808516939216917f8be0079c531659141344cd1fd0a4f28419497f9722a3daafe3b4186f6b6457e091a3600080546001600160a01b0319166001600160a01b0392909216919091179055565b6001600160a01b031660009081526006602052604090205490565b610e89610ef1565b6001600160a01b0316610e9a610d46565b6001600160a01b031614610ee3576040805162461bcd60e51b81526020600482018190526024820152600080516020611451833981519152604482015290519081900360640190fd5b610d446110b0565b60045481565b3390565b600082820183811015610f4f576040805162461bcd60e51b815260206004820152601b60248201527f536166654d6174683a206164646974696f6e206f766572666c6f770000000000604482015290519081900360640190fd5b9392505050565b600082821115610fad576040805162461bcd60e51b815260206004820152601e60248201527f536166654d6174683a207375627472616374696f6e206f766572666c6f770000604482015290519081900360640190fd5b50900390565b604080516001600160a01b038416602482015260448082018490528251808303909101815260649091019091526020810180516001600160e01b031663a9059cbb60e01b179052611005908490611136565b505050565b611012610acf565b15611057576040805162461bcd60e51b815260206004820152601060248201526f14185d5cd8589b194e881c185d5cd95960821b604482015290519081900360640190fd5b6000805460ff60a01b1916600160a01b1790557f62e78cea01bee320cd4e420270b5ea74000d11b0c9f74754ebdbfc544b05a258611093610ef1565b604080516001600160a01b039092168252519081900360200190a1565b6110b8610acf565b611100576040805162461bcd60e51b815260206004820152601460248201527314185d5cd8589b194e881b9bdd081c185d5cd95960621b604482015290519081900360640190fd5b6000805460ff60a01b191690557f5db9ee0a495bf2e6ff9c91a7834c1ba4fdd244a5e8aa4e537bd38aeae4b073aa611093610ef1565b606061118b826040518060400160405280602081526020017f5361666545524332303a206c6f772d6c6576656c2063616c6c206661696c6564815250856001600160a01b03166111e79092919063ffffffff16565b805190915015611005578080602001905160208110156111aa57600080fd5b50516110055760405162461bcd60e51b815260040180806020018281038252602a815260200180611471602a913960400191505060405180910390fd5b60606111f684846000856111fe565b949350505050565b60608247101561123f5760405162461bcd60e51b815260040180806020018281038252602681526020018061142b6026913960400191505060405180910390fd5b6112488561135a565b611299576040805162461bcd60e51b815260206004820152601d60248201527f416464726573733a2063616c6c20746f206e6f6e2d636f6e7472616374000000604482015290519081900360640190fd5b60006060866001600160a01b031685876040518082805190602001908083835b602083106112d85780518252601f1990920191602091820191016112b9565b6001836020036101000a03801982511681845116808217855250505050505090500191505060006040518083038185875af1925050503d806000811461133a576040519150601f19603f3d011682016040523d82523d6000602084013e61133f565b606091505b509150915061134f828286611360565b979650505050505050565b3b151590565b6060831561136f575081610f4f565b82511561137f5782518084602001fd5b8160405162461bcd60e51b81526004018080602001828103825283818151815260200191508051906020019080838360005b838110156113c95781810151838201526020016113b1565b50505050905090810190601f1680156113f65780820380516001836020036101000a031916815260200191505b509250505060405180910390fdfe4f776e61626c653a206e6577206f776e657220697320746865207a65726f2061646472657373416464726573733a20696e73756666696369656e742062616c616e636520666f722063616c6c4f776e61626c653a2063616c6c6572206973206e6f7420746865206f776e65725361666545524332303a204552433230206f7065726174696f6e20646964206e6f742073756363656564a2646970667358221220155a91332b3a1ad36e6dccd7d8beee98f0dc8ef2bb08102a3735710c6230aa2c64736f6c634300060c0033",
  "immutableReferences": {},
  "source": "// SPDX-License-Identifier: MIT\npragma solidity 0.6.12;\n\nimport \"@openzeppelin/contracts/token/ERC20/IERC20.sol\";\nimport \"@openzeppelin/contracts/token/ERC20/SafeERC20.sol\";\nimport \"@openzeppelin/contracts/math/SafeMath.sol\";\nimport \"@openzeppelin/contracts/access/Ownable.sol\";\nimport \"@openzeppelin/contracts/utils/Pausable.sol\";\n\ncontract Zelda is Ownable, Pausable {\n    using SafeMath for uint256;\n    using SafeERC20 for IERC20;\n\n    IERC20 public att;\n    uint256 public totalAllocation;\n    uint256 public counter;\n    uint256 public MAX_POSITIONS;\n\n    // dayCount / position / address\n    mapping(uint256 => mapping(uint256 => address)) public winners;\n    mapping(address => uint256) public userRewards;\n    mapping(uint256 => uint256) public rewardScheme;\n    mapping(address => bool) public nodes;\n\n    constructor(IERC20 _att) public {\n        att = _att;\n        counter = 1;\n        MAX_POSITIONS = 5;\n    }\n\n    event WinnerAnnouncement(address[] winners, uint256 indexed counter);\n    event UserClaim(address indexed user, uint256 amount);\n    event EmergencyWithdraw(address indexed user, uint256 amount);\n    event RewardSchemeUpdate(uint256 indexed position, uint256 amount);\n\n    modifier onlyNode() {\n        require(nodes[msg.sender] == true, \"ZELDA: AUTH_FAILED\");\n        _;\n    }\n\n    function announceWinner(address[] memory _wList)\n        external\n        onlyNode\n        whenNotPaused\n    {\n        require(_wList.length == MAX_POSITIONS, \"ZELDA: MAX_POSITIONS\");\n        for (uint256 i = 0; i < _wList.length; i++) {\n            winners[counter][i] = _wList[i];\n            userRewards[_wList[i]] = userRewards[_wList[i]].add(\n                rewardScheme[i]\n            );\n            totalAllocation = totalAllocation.add((rewardScheme[i]));\n        }\n        counter++;\n        emit WinnerAnnouncement(_wList, counter);\n    }\n\n    function claim() external whenNotPaused {\n        uint256 claimAmount = userRewards[msg.sender];\n        require(claimAmount > 0, \"ZELDA : NO_CLAIM\");\n        userRewards[msg.sender] = 0;\n        totalAllocation = totalAllocation.sub(claimAmount);\n        att.safeTransfer(msg.sender, claimAmount);\n        emit UserClaim(msg.sender, claimAmount);\n    }\n\n    function pendingReward(address _who) public view returns (uint256) {\n        return userRewards[_who];\n    }\n\n    // EMERGENCY ONLY.\n    function emergencyWithdraw(uint256 _amount) external onlyOwner whenPaused {\n        att.safeTransfer(address(msg.sender), _amount);\n        emit EmergencyWithdraw(msg.sender, _amount);\n    }\n\n    function setNodeStatus(address _node, bool _status) external onlyOwner {\n        nodes[_node] = _status;\n    }\n\n    function getCurrentCounter() external view returns (uint256) {\n        return counter;\n    }\n\n    function getWinners(uint256 _count)\n        external\n        view\n        returns (address[] memory res)\n    {\n        res = new address[](MAX_POSITIONS);\n        for (uint256 i = 0; i < MAX_POSITIONS; i++) {\n            res[i] = winners[_count][i];\n        }\n        return res;\n    }\n\n    function updateRewardScheme(uint256 _position, uint256 _amount)\n        external\n        onlyOwner\n        whenPaused\n    {\n        rewardScheme[_position] = _amount;\n        emit RewardSchemeUpdate(_position, _amount);\n    }\n\n    function getZeldaHolding() public view returns (uint256) {\n        return att.balanceOf(address(this));\n    }\n\n    // pause & unpause\n\n    function pause() external onlyOwner {\n        _pause();\n    }\n\n    function unPause() external onlyOwner {\n        _unpause();\n    }\n}\n",
  "sourcePath": "/home/sagar/Desktop/projects/ATT/smart-contracts/Zelda/contracts/Zelda.sol",
  "compiler": {
    "name": "solc",
    "version": "0.6.12+commit.27d51765.Emscripten.clang"
  },
  "schemaVersion": "3.3.2",
  "updatedAt": "2021-04-29T08:51:28.298Z",
  "devdoc": {
    "kind": "dev",
    "methods": {
      "owner()": {
        "details": "Returns the address of the current owner."
      },
      "paused()": {
        "details": "Returns true if the contract is paused, and false otherwise."
      },
      "renounceOwnership()": {
        "details": "Leaves the contract without owner. It will not be possible to call `onlyOwner` functions anymore. Can only be called by the current owner. NOTE: Renouncing ownership will leave the contract without an owner, thereby removing any functionality that is only available to the owner."
      },
      "transferOwnership(address)": {
        "details": "Transfers ownership of the contract to a new account (`newOwner`). Can only be called by the current owner."
      }
    },
    "version": 1
  },
  "userdoc": {
    "kind": "user",
    "methods": {},
    "version": 1
  }
}