{
  "contractName": "Zelda",
  "abi": [
    {
      "inputs": [
        {
          "internalType": "contract IERC20",
          "name": "_att",
          "type": "address"
        }
      ],
      "stateMutability": "nonpayable",
      "type": "constructor"
    },
    {
      "anonymous": false,
      "inputs": [
        {
          "indexed": true,
          "internalType": "address",
          "name": "user",
          "type": "address"
        },
        {
          "indexed": false,
          "internalType": "uint256",
          "name": "amount",
          "type": "uint256"
        }
      ],
      "name": "Claim",
      "type": "event"
    },
    {
      "anonymous": false,
      "inputs": [
        {
          "indexed": true,
          "internalType": "address",
          "name": "previousOwner",
          "type": "address"
        },
        {
          "indexed": true,
          "internalType": "address",
          "name": "newOwner",
          "type": "address"
        }
      ],
      "name": "OwnershipTransferred",
      "type": "event"
    },
    {
      "anonymous": false,
      "inputs": [
        {
          "indexed": false,
          "internalType": "address",
          "name": "account",
          "type": "address"
        }
      ],
      "name": "Paused",
      "type": "event"
    },
    {
      "anonymous": false,
      "inputs": [
        {
          "indexed": true,
          "internalType": "uint256",
          "name": "position",
          "type": "uint256"
        },
        {
          "indexed": false,
          "internalType": "uint256",
          "name": "amount",
          "type": "uint256"
        }
      ],
      "name": "RewardSchemeUpdate",
      "type": "event"
    },
    {
      "anonymous": false,
      "inputs": [
        {
          "indexed": false,
          "internalType": "address",
          "name": "account",
          "type": "address"
        }
      ],
      "name": "Unpaused",
      "type": "event"
    },
    {
      "anonymous": false,
      "inputs": [
        {
          "indexed": false,
          "internalType": "address[]",
          "name": "winners",
          "type": "address[]"
        },
        {
          "indexed": true,
          "internalType": "uint256",
          "name": "counter",
          "type": "uint256"
        }
      ],
      "name": "WinnerAnnouncement",
      "type": "event"
    },
    {
      "inputs": [],
      "name": "MAX_POSITIONS",
      "outputs": [
        {
          "internalType": "uint256",
          "name": "",
          "type": "uint256"
        }
      ],
      "stateMutability": "view",
      "type": "function"
    },
    {
      "inputs": [],
      "name": "att",
      "outputs": [
        {
          "internalType": "contract IERC20",
          "name": "",
          "type": "address"
        }
      ],
      "stateMutability": "view",
      "type": "function"
    },
    {
      "inputs": [],
      "name": "counter",
      "outputs": [
        {
          "internalType": "uint256",
          "name": "",
          "type": "uint256"
        }
      ],
      "stateMutability": "view",
      "type": "function"
    },
    {
      "inputs": [
        {
          "internalType": "address",
          "name": "",
          "type": "address"
        }
      ],
      "name": "nodes",
      "outputs": [
        {
          "internalType": "bool",
          "name": "",
          "type": "bool"
        }
      ],
      "stateMutability": "view",
      "type": "function"
    },
    {
      "inputs": [],
      "name": "owner",
      "outputs": [
        {
          "internalType": "address",
          "name": "",
          "type": "address"
        }
      ],
      "stateMutability": "view",
      "type": "function"
    },
    {
      "inputs": [],
      "name": "paused",
      "outputs": [
        {
          "internalType": "bool",
          "name": "",
          "type": "bool"
        }
      ],
      "stateMutability": "view",
      "type": "function"
    },
    {
      "inputs": [],
      "name": "renounceOwnership",
      "outputs": [],
      "stateMutability": "nonpayable",
      "type": "function"
    },
    {
      "inputs": [
        {
          "internalType": "uint256",
          "name": "",
          "type": "uint256"
        }
      ],
      "name": "rewardScheme",
      "outputs": [
        {
          "internalType": "uint256",
          "name": "",
          "type": "uint256"
        }
      ],
      "stateMutability": "view",
      "type": "function"
    },
    {
      "inputs": [],
      "name": "totalAllocation",
      "outputs": [
        {
          "internalType": "uint256",
          "name": "",
          "type": "uint256"
        }
      ],
      "stateMutability": "view",
      "type": "function"
    },
    {
      "inputs": [
        {
          "internalType": "address",
          "name": "newOwner",
          "type": "address"
        }
      ],
      "name": "transferOwnership",
      "outputs": [],
      "stateMutability": "nonpayable",
      "type": "function"
    },
    {
      "inputs": [
        {
          "internalType": "address",
          "name": "",
          "type": "address"
        }
      ],
      "name": "userRewards",
      "outputs": [
        {
          "internalType": "uint256",
          "name": "",
          "type": "uint256"
        }
      ],
      "stateMutability": "view",
      "type": "function"
    },
    {
      "inputs": [
        {
          "internalType": "uint256",
          "name": "",
          "type": "uint256"
        },
        {
          "internalType": "uint256",
          "name": "",
          "type": "uint256"
        }
      ],
      "name": "winners",
      "outputs": [
        {
          "internalType": "address",
          "name": "",
          "type": "address"
        }
      ],
      "stateMutability": "view",
      "type": "function"
    },
    {
      "inputs": [
        {
          "internalType": "address[]",
          "name": "_wList",
          "type": "address[]"
        }
      ],
      "name": "announceWinner",
      "outputs": [],
      "stateMutability": "nonpayable",
      "type": "function"
    },
    {
      "inputs": [],
      "name": "claim",
      "outputs": [],
      "stateMutability": "nonpayable",
      "type": "function"
    },
    {
      "inputs": [
        {
          "internalType": "address",
          "name": "_node",
          "type": "address"
        },
        {
          "internalType": "bool",
          "name": "_status",
          "type": "bool"
        }
      ],
      "name": "setNode",
      "outputs": [],
      "stateMutability": "nonpayable",
      "type": "function"
    },
    {
      "inputs": [
        {
          "internalType": "uint256",
          "name": "_position",
          "type": "uint256"
        },
        {
          "internalType": "uint256",
          "name": "_amount",
          "type": "uint256"
        }
      ],
      "name": "updateRewardScheme",
      "outputs": [],
      "stateMutability": "nonpayable",
      "type": "function"
    },
    {
      "inputs": [],
      "name": "balance",
      "outputs": [
        {
          "internalType": "uint256",
          "name": "",
          "type": "uint256"
        }
      ],
      "stateMutability": "view",
      "type": "function"
    },
    {
      "inputs": [
        {
          "internalType": "address",
          "name": "_who",
          "type": "address"
        }
      ],
      "name": "pendingReward",
      "outputs": [
        {
          "internalType": "uint256",
          "name": "",
          "type": "uint256"
        }
      ],
      "stateMutability": "view",
      "type": "function"
    },
    {
      "inputs": [],
      "name": "getCurrentCounter",
      "outputs": [
        {
          "internalType": "uint256",
          "name": "",
          "type": "uint256"
        }
      ],
      "stateMutability": "view",
      "type": "function"
    },
    {
      "inputs": [
        {
          "internalType": "uint256",
          "name": "_count",
          "type": "uint256"
        }
      ],
      "name": "getWinners",
      "outputs": [
        {
          "internalType": "address[]",
          "name": "res",
          "type": "address[]"
        }
      ],
      "stateMutability": "view",
      "type": "function"
    },
    {
      "inputs": [
        {
          "internalType": "uint256",
          "name": "_amount",
          "type": "uint256"
        }
      ],
      "name": "emergencyWithdraw",
      "outputs": [],
      "stateMutability": "nonpayable",
      "type": "function"
    },
    {
      "inputs": [],
      "name": "pause",
      "outputs": [],
      "stateMutability": "nonpayable",
      "type": "function"
    },
    {
      "inputs": [],
      "name": "unPause",
      "outputs": [],
      "stateMutability": "nonpayable",
      "type": "function"
    }
  ],
  "bytecode": "0x608060405234801561001057600080fd5b506040516113513803806113518339818101604052602081101561003357600080fd5b5051600061003f61018f565b600080546001600160a01b0319166001600160a01b0383169081178255604051929350917f8be0079c531659141344cd1fd0a4f28419497f9722a3daafe3b4186f6b6457e0908290a3506000805460ff60a01b19168155600180546001600160a01b0319166001600160a01b039390931692909217825560039190915560056004819055600760205264746a5288007fb39221ace053465ec3453ce2b36430bd138b997ecea25c1043da0c366812b82855642e90edd0007fb7c774451310d1be4108bc180d1b52823cb0ee0274a6c0081bcaf94f115fb96d5564174876e8007f3be6fd20d5acfde5b873b48692cd31f4d3c7e8ee8a813af4696af8859e5ca6c68190557fb805995a7ec585a251200611a61d179cfd7fb105e1ab17dc415a7336783786f781905591527fbcdda56b5d08466ec462cbbe0adfa57cb0a15fcc8940ef68f702f21b787bc93555610193565b3390565b6111af806101a26000396000f3fe608060405234801561001057600080fd5b506004361061014d5760003560e01c8063715018a6116100c3578063b69ef8a81161007c578063b69ef8a8146103e0578063ba36f423146103e8578063f2fde38b146103f0578063f40f0f5214610416578063f7b188a51461043c578063f7b24e08146104445761014d565b8063715018a61461039b57806373448c46146103a357806375c49f1e146103ab57806379203dc4146103c85780638456cb59146103d05780638da5cb5b146103d85761014d565b806341addb7b1161011557806341addb7b146102cb5780634e71d92d146102f95780635312ea8e146103015780635c975abb1461031e57806361bc221a146103265780636b1426a41461032e5761014d565b8063052216cf146101525780630660f1e8146101775780630efc8865146101af5780631465eb12146101ee578063189a5a1714610291575b600080fd5b6101756004803603604081101561016857600080fd5b508035906020013561044c565b005b61019d6004803603602081101561018d57600080fd5b50356001600160a01b0316610549565b60408051918252519081900360200190f35b6101d2600480360360408110156101c557600080fd5b508035906020013561055b565b604080516001600160a01b039092168252519081900360200190f35b6101756004803603602081101561020457600080fd5b81019060208101813564010000000081111561021f57600080fd5b82018360208201111561023157600080fd5b8035906020019184602083028401116401000000008311171561025357600080fd5b919080806020026020016040519081016040528093929190818152602001838360200280828437600092019190915250929550610581945050505050565b6102b7600480360360208110156102a757600080fd5b50356001600160a01b0316610819565b604080519115158252519081900360200190f35b610175600480360360408110156102e157600080fd5b506001600160a01b038135169060200135151561082e565b6101756108bb565b6101756004803603602081101561031757600080fd5b503561098a565b6102b7610a46565b61019d610a56565b61034b6004803603602081101561034457600080fd5b5035610a5c565b60408051602080825283518183015283519192839290830191858101910280838360005b8381101561038757818101518382015260200161036f565b505050509050019250505060405180910390f35b610175610b0a565b61019d610bb6565b61019d600480360360208110156103c157600080fd5b5035610bbc565b61019d610bce565b610175610bd4565b6101d2610c40565b61019d610c4f565b6101d2610ccb565b6101756004803603602081101561040657600080fd5b50356001600160a01b0316610cda565b61019d6004803603602081101561042c57600080fd5b50356001600160a01b0316610ddc565b610175610df7565b61019d610e61565b610454610e67565b6001600160a01b0316610465610c40565b6001600160a01b0316146104ae576040805162461bcd60e51b8152602060048201819052602482015260008051602061115a833981519152604482015290519081900360640190fd5b6104b6610a46565b6104fe576040805162461bcd60e51b815260206004820152601460248201527314185d5cd8589b194e881b9bdd081c185d5cd95960621b604482015290519081900360640190fd5b6000828152600760209081526040918290208390558151838152915184927fce92a90c6e8a59b46d7bbc89f53bd1e8d7a5e32d37e39088750efb439c07d5ed92908290030190a25050565b60066020526000908152604090205481565b60056020908152600092835260408084209091529082529020546001600160a01b031681565b3360009081526008602052604090205460ff1615156001146105df576040805162461bcd60e51b815260206004820152601260248201527116915311104e881055551217d1905253115160721b604482015290519081900360640190fd5b6105e7610a46565b1561062c576040805162461bcd60e51b815260206004820152601060248201526f14185d5cd8589b194e881c185d5cd95960821b604482015290519081900360640190fd5b60045481511461067a576040805162461bcd60e51b81526020600482015260146024820152735a454c44413a204d41585f504f534954494f4e5360601b604482015290519081900360640190fd5b60015b60045481116107985781818151811061069257fe5b6020908102919091018101516003546000908152600583526040808220858352845280822080546001600160a01b0319166001600160a01b039094169390931790925560079092528120548351610729926006918690869081106106f257fe5b60200260200101516001600160a01b03166001600160a01b0316815260200190815260200160002054610e6b90919063ffffffff16565b6006600084848151811061073957fe5b60200260200101516001600160a01b03166001600160a01b031681526020019081526020016000208190555061078d6007600083815260200190815260200160002054600254610e6b90919063ffffffff16565b60025560010161067d565b50600380546001019081905560408051602080825284518183015284517fa58db115264562101d9017b2759f4a452460342a78aadceb2acd1ee197b8ed5893869392839291830191818601910280838360005b838110156108035781810151838201526020016107eb565b505050509050019250505060405180910390a250565b60086020526000908152604090205460ff1681565b610836610e67565b6001600160a01b0316610847610c40565b6001600160a01b031614610890576040805162461bcd60e51b8152602060048201819052602482015260008051602061115a833981519152604482015290519081900360640190fd5b6001600160a01b03919091166000908152600860205260409020805460ff1916911515919091179055565b6108c3610a46565b15610908576040805162461bcd60e51b815260206004820152601060248201526f14185d5cd8589b194e881c185d5cd95960821b604482015290519081900360640190fd5b336000908152600660205260409020548061095d576040805162461bcd60e51b815260206004820152601060248201526f5a454c4441203a204e4f5f434c41494d60801b604482015290519081900360640190fd5b3360009081526006602052604081205560025461097a9082610ecc565b6002556109873382610f29565b50565b610992610e67565b6001600160a01b03166109a3610c40565b6001600160a01b0316146109ec576040805162461bcd60e51b8152602060048201819052602482015260008051602061115a833981519152604482015290519081900360640190fd5b6109f4610a46565b610a3c576040805162461bcd60e51b815260206004820152601460248201527314185d5cd8589b194e881b9bdd081c185d5cd95960621b604482015290519081900360640190fd5b6109873382610f29565b600054600160a01b900460ff1690565b60035481565b606060045467ffffffffffffffff81118015610a7757600080fd5b50604051908082528060200260200182016040528015610aa1578160200160208202803683370190505b50905060015b6004548111610b0457600083815260056020908152604080832084845290915290205482516001600160a01b0390911690839083908110610ae457fe5b6001600160a01b0390921660209283029190910190910152600101610aa7565b50919050565b610b12610e67565b6001600160a01b0316610b23610c40565b6001600160a01b031614610b6c576040805162461bcd60e51b8152602060048201819052602482015260008051602061115a833981519152604482015290519081900360640190fd5b600080546040516001600160a01b03909116907f8be0079c531659141344cd1fd0a4f28419497f9722a3daafe3b4186f6b6457e0908390a3600080546001600160a01b0319169055565b60035490565b60076020526000908152604090205481565b60025481565b610bdc610e67565b6001600160a01b0316610bed610c40565b6001600160a01b031614610c36576040805162461bcd60e51b8152602060048201819052602482015260008051602061115a833981519152604482015290519081900360640190fd5b610c3e611007565b565b6000546001600160a01b031690565b600154604080516370a0823160e01b815230600482015290516000926001600160a01b0316916370a08231916024808301926020929190829003018186803b158015610c9a57600080fd5b505afa158015610cae573d6000803e3d6000fd5b505050506040513d6020811015610cc457600080fd5b5051905090565b6001546001600160a01b031681565b610ce2610e67565b6001600160a01b0316610cf3610c40565b6001600160a01b031614610d3c576040805162461bcd60e51b8152602060048201819052602482015260008051602061115a833981519152604482015290519081900360640190fd5b6001600160a01b038116610d815760405162461bcd60e51b81526004018080602001828103825260268152602001806111346026913960400191505060405180910390fd5b600080546040516001600160a01b03808516939216917f8be0079c531659141344cd1fd0a4f28419497f9722a3daafe3b4186f6b6457e091a3600080546001600160a01b0319166001600160a01b0392909216919091179055565b6001600160a01b031660009081526006602052604090205490565b610dff610e67565b6001600160a01b0316610e10610c40565b6001600160a01b031614610e59576040805162461bcd60e51b8152602060048201819052602482015260008051602061115a833981519152604482015290519081900360640190fd5b610c3e6110ad565b60045481565b3390565b600082820183811015610ec5576040805162461bcd60e51b815260206004820152601b60248201527f536166654d6174683a206164646974696f6e206f766572666c6f770000000000604482015290519081900360640190fd5b9392505050565b600082821115610f23576040805162461bcd60e51b815260206004820152601e60248201527f536166654d6174683a207375627472616374696f6e206f766572666c6f770000604482015290519081900360640190fd5b50900390565b6000610f33610c4f565b905080821115610f41578091505b6001546040805163a9059cbb60e01b81526001600160a01b038681166004830152602482018690529151919092169163a9059cbb9160448083019260209291908290030181600087803b158015610f9757600080fd5b505af1158015610fab573d6000803e3d6000fd5b505050506040513d6020811015610fc157600080fd5b50506040805183815290516001600160a01b038516917f47cee97cb7acd717b3c0aa1435d004cd5b3c8c57d70dbceb4e4458bbd60e39d4919081900360200190a2505050565b61100f610a46565b15611054576040805162461bcd60e51b815260206004820152601060248201526f14185d5cd8589b194e881c185d5cd95960821b604482015290519081900360640190fd5b6000805460ff60a01b1916600160a01b1790557f62e78cea01bee320cd4e420270b5ea74000d11b0c9f74754ebdbfc544b05a258611090610e67565b604080516001600160a01b039092168252519081900360200190a1565b6110b5610a46565b6110fd576040805162461bcd60e51b815260206004820152601460248201527314185d5cd8589b194e881b9bdd081c185d5cd95960621b604482015290519081900360640190fd5b6000805460ff60a01b191690557f5db9ee0a495bf2e6ff9c91a7834c1ba4fdd244a5e8aa4e537bd38aeae4b073aa611090610e6756fe4f776e61626c653a206e6577206f776e657220697320746865207a65726f20616464726573734f776e61626c653a2063616c6c6572206973206e6f7420746865206f776e6572a2646970667358221220799008910fd2355a86591741806f1ad54c750e8c714b6020b074db8103d6666e64736f6c634300060c0033",
  "immutableReferences": {},
  "source": "// SPDX-License-Identifier: MIT\npragma solidity 0.6.12;\n\nimport \"@openzeppelin/contracts/token/ERC20/IERC20.sol\";\nimport \"@openzeppelin/contracts/token/ERC20/SafeERC20.sol\";\nimport \"@openzeppelin/contracts/math/SafeMath.sol\";\nimport \"@openzeppelin/contracts/access/Ownable.sol\";\nimport \"@openzeppelin/contracts/utils/Pausable.sol\";\n\n/**\n * @title Zelda lottery contract\n */\n\ncontract Zelda is Ownable, Pausable {\n    using SafeMath for uint256;\n    using SafeERC20 for IERC20;\n\n    IERC20 public att;\n    uint256 public totalAllocation;\n    uint256 public counter;\n    uint256 public MAX_POSITIONS;\n\n    // dayCount / position / address\n    mapping(uint256 => mapping(uint256 => address)) public winners;\n    mapping(address => uint256) public userRewards;\n    mapping(uint256 => uint256) public rewardScheme;\n    mapping(address => bool) public nodes;\n\n    constructor(IERC20 _att) public {\n        att = _att;\n        counter = 1;\n        MAX_POSITIONS = 5;\n        rewardScheme[1] = 500000000000; //$500\n        rewardScheme[2] = 200000000000; //$200\n        rewardScheme[3] = 100000000000; //$100\n        rewardScheme[4] = 100000000000; //$100\n        rewardScheme[5] = 100000000000; //$100\n    }\n\n    event WinnerAnnouncement(address[] winners, uint256 indexed counter);\n    event Claim(address indexed user, uint256 amount);\n    event RewardSchemeUpdate(uint256 indexed position, uint256 amount);\n\n    modifier onlyNode() {\n        require(nodes[msg.sender] == true, \"ZELDA: AUTH_FAILED\");\n        _;\n    }\n\n  /**\n     * @dev Notifies Zelda daily lottery winners.\n     * Can only be called by trusted nodes.\n     * @param _wList List of winners.\n     */\n    function announceWinner(address[] memory _wList)\n        external\n        onlyNode\n        whenNotPaused\n    {\n        require(_wList.length == MAX_POSITIONS, \"ZELDA: MAX_POSITIONS\");\n        for (uint256 i = 1; i <= MAX_POSITIONS; i++) {\n            winners[counter][i] = _wList[i];\n            userRewards[_wList[i]] = userRewards[_wList[i]].add(\n                rewardScheme[i]\n            );\n            totalAllocation = totalAllocation.add((rewardScheme[i]));\n        }\n        counter++;\n        emit WinnerAnnouncement(_wList, counter);\n    }\n\n  /**\n     * @dev Transfers user win amount.\n     */\n    function claim() external whenNotPaused {\n        uint256 claimAmount = userRewards[msg.sender]; // gas optimization\n        require(claimAmount > 0, \"ZELDA : NO_CLAIM\");\n        userRewards[msg.sender] = 0;\n        totalAllocation = totalAllocation.sub(claimAmount);\n        safeAttTransfer(msg.sender, claimAmount);\n    }\n\n     function safeAttTransfer(address _to, uint256 _amount) internal {\n        uint256 Bal = balance();\n        if (_amount > Bal) {\n            _amount = Bal;\n        }\n        att.transfer(_to, _amount);\n        emit Claim(_to,_amount);\n    }\n\n    /**\n     * @dev Sets nodes status.\n     * @param _node node address.\n     * @param _status node status.\n     */\n    function setNode(address _node, bool _status) external onlyOwner {\n        nodes[_node] = _status;\n    }\n\n    /**\n     * @dev Updates reward allocation on specific position.\n     * @param _position position on which reward is updated.\n     * @param _amount new amount.\n     */\n    function updateRewardScheme(uint256 _position, uint256 _amount)\n        external\n        onlyOwner\n        whenPaused\n    {\n        rewardScheme[_position] = _amount;\n        emit RewardSchemeUpdate(_position, _amount);\n    }\n\n\n  /**\n     * @dev Returns ATT balance of zelda.\n     */\n    function balance() public view returns (uint256) {\n        return att.balanceOf(address(this));\n    }\n\n  /**\n     * @dev Returns user's claimable ATT balance.\n     * @param _who user's wallet address.\n     */\n    function pendingReward(address _who) public view returns (uint256) {\n        return userRewards[_who];\n    }\n\n  /**\n     * @dev Returns last zelda announcement count.\n     */\n    function getCurrentCounter() external view returns (uint256) {\n        return counter;\n    }\n\n  /**\n     * @dev Returns zelda winners.\n     * @param _count zelda announcement count.\n     */\n    function getWinners(uint256 _count)\n        external\n        view\n        returns (address[] memory res)\n    {\n        res = new address[](MAX_POSITIONS);\n        for (uint256 i = 1; i <= MAX_POSITIONS; i++) {\n            res[i] = winners[_count][i];\n        }\n    }\n\n\n    /**\n     * @dev EMERGENCY ONLY. Withdraw ATT amount from zelda. \n     * @param _amount amount to be withdrawn.\n     */\n    function emergencyWithdraw(uint256 _amount) external onlyOwner whenPaused {\n        safeAttTransfer(address(msg.sender), _amount);\n    }\n\n  /**\n     * @dev Pause zelda state\n     */\n    function pause() external onlyOwner {\n        _pause();\n    }\n\n    /**\n     * @dev Unpause zelda state\n     */\n    function unPause() external onlyOwner {\n        _unpause();\n    }\n}\n",
  "sourcePath": "/home/sagar/Desktop/projects/ATT/smart-contracts/Zelda/contracts/Zelda.sol",
  "compiler": {
    "name": "solc",
    "version": "0.6.12+commit.27d51765.Emscripten.clang"
  },
  "schemaVersion": "3.3.2",
  "updatedAt": "2021-05-01T12:04:37.571Z",
  "devdoc": {
    "kind": "dev",
    "methods": {
      "announceWinner(address[])": {
        "details": "Notifies Zelda daily lottery winners. Can only be called by trusted nodes.",
        "params": {
          "_wList": "List of winners."
        }
      },
      "balance()": {
        "details": "Returns ATT balance of zelda."
      },
      "claim()": {
        "details": "Transfers user win amount."
      },
      "emergencyWithdraw(uint256)": {
        "details": "EMERGENCY ONLY. Withdraw ATT amount from zelda. ",
        "params": {
          "_amount": "amount to be withdrawn."
        }
      },
      "getCurrentCounter()": {
        "details": "Returns last zelda announcement count."
      },
      "getWinners(uint256)": {
        "details": "Returns zelda winners.",
        "params": {
          "_count": "zelda announcement count."
        }
      },
      "owner()": {
        "details": "Returns the address of the current owner."
      },
      "pause()": {
        "details": "Pause zelda state"
      },
      "paused()": {
        "details": "Returns true if the contract is paused, and false otherwise."
      },
      "pendingReward(address)": {
        "details": "Returns user's claimable ATT balance.",
        "params": {
          "_who": "user's wallet address."
        }
      },
      "renounceOwnership()": {
        "details": "Leaves the contract without owner. It will not be possible to call `onlyOwner` functions anymore. Can only be called by the current owner. NOTE: Renouncing ownership will leave the contract without an owner, thereby removing any functionality that is only available to the owner."
      },
      "setNode(address,bool)": {
        "details": "Sets nodes status.",
        "params": {
          "_node": "node address.",
          "_status": "node status."
        }
      },
      "transferOwnership(address)": {
        "details": "Transfers ownership of the contract to a new account (`newOwner`). Can only be called by the current owner."
      },
      "unPause()": {
        "details": "Unpause zelda state"
      },
      "updateRewardScheme(uint256,uint256)": {
        "details": "Updates reward allocation on specific position.",
        "params": {
          "_amount": "new amount.",
          "_position": "position on which reward is updated."
        }
      }
    },
    "title": "Zelda lottery contract",
    "version": 1
  },
  "userdoc": {
    "kind": "user",
    "methods": {},
    "version": 1
  }
}