{
  "contractName": "Zelda",
  "abi": [
    {
      "inputs": [
        {
          "internalType": "contract IERC20",
          "name": "_att",
          "type": "address"
        }
      ],
      "stateMutability": "nonpayable",
      "type": "constructor"
    },
    {
      "anonymous": false,
      "inputs": [
        {
          "indexed": true,
          "internalType": "address",
          "name": "user",
          "type": "address"
        },
        {
          "indexed": false,
          "internalType": "uint256",
          "name": "amount",
          "type": "uint256"
        }
      ],
      "name": "EmergencyWithdraw",
      "type": "event"
    },
    {
      "anonymous": false,
      "inputs": [
        {
          "indexed": true,
          "internalType": "address",
          "name": "previousOwner",
          "type": "address"
        },
        {
          "indexed": true,
          "internalType": "address",
          "name": "newOwner",
          "type": "address"
        }
      ],
      "name": "OwnershipTransferred",
      "type": "event"
    },
    {
      "anonymous": false,
      "inputs": [
        {
          "indexed": false,
          "internalType": "address",
          "name": "account",
          "type": "address"
        }
      ],
      "name": "Paused",
      "type": "event"
    },
    {
      "anonymous": false,
      "inputs": [
        {
          "indexed": true,
          "internalType": "uint256",
          "name": "position",
          "type": "uint256"
        },
        {
          "indexed": false,
          "internalType": "uint256",
          "name": "amount",
          "type": "uint256"
        }
      ],
      "name": "RewardSchemeUpdate",
      "type": "event"
    },
    {
      "anonymous": false,
      "inputs": [
        {
          "indexed": false,
          "internalType": "address",
          "name": "account",
          "type": "address"
        }
      ],
      "name": "Unpaused",
      "type": "event"
    },
    {
      "anonymous": false,
      "inputs": [
        {
          "indexed": true,
          "internalType": "address",
          "name": "user",
          "type": "address"
        },
        {
          "indexed": false,
          "internalType": "uint256",
          "name": "amount",
          "type": "uint256"
        }
      ],
      "name": "UserClaim",
      "type": "event"
    },
    {
      "anonymous": false,
      "inputs": [
        {
          "indexed": false,
          "internalType": "address[]",
          "name": "winners",
          "type": "address[]"
        },
        {
          "indexed": true,
          "internalType": "uint256",
          "name": "counter",
          "type": "uint256"
        }
      ],
      "name": "WinnerAnnouncement",
      "type": "event"
    },
    {
      "inputs": [],
      "name": "MAX_POSITIONS",
      "outputs": [
        {
          "internalType": "uint256",
          "name": "",
          "type": "uint256"
        }
      ],
      "stateMutability": "view",
      "type": "function"
    },
    {
      "inputs": [],
      "name": "att",
      "outputs": [
        {
          "internalType": "contract IERC20",
          "name": "",
          "type": "address"
        }
      ],
      "stateMutability": "view",
      "type": "function"
    },
    {
      "inputs": [],
      "name": "counter",
      "outputs": [
        {
          "internalType": "uint256",
          "name": "",
          "type": "uint256"
        }
      ],
      "stateMutability": "view",
      "type": "function"
    },
    {
      "inputs": [
        {
          "internalType": "address",
          "name": "",
          "type": "address"
        }
      ],
      "name": "nodes",
      "outputs": [
        {
          "internalType": "bool",
          "name": "",
          "type": "bool"
        }
      ],
      "stateMutability": "view",
      "type": "function"
    },
    {
      "inputs": [],
      "name": "owner",
      "outputs": [
        {
          "internalType": "address",
          "name": "",
          "type": "address"
        }
      ],
      "stateMutability": "view",
      "type": "function"
    },
    {
      "inputs": [],
      "name": "paused",
      "outputs": [
        {
          "internalType": "bool",
          "name": "",
          "type": "bool"
        }
      ],
      "stateMutability": "view",
      "type": "function"
    },
    {
      "inputs": [],
      "name": "renounceOwnership",
      "outputs": [],
      "stateMutability": "nonpayable",
      "type": "function"
    },
    {
      "inputs": [
        {
          "internalType": "uint256",
          "name": "",
          "type": "uint256"
        }
      ],
      "name": "rewardScheme",
      "outputs": [
        {
          "internalType": "uint256",
          "name": "",
          "type": "uint256"
        }
      ],
      "stateMutability": "view",
      "type": "function"
    },
    {
      "inputs": [],
      "name": "totalAllocation",
      "outputs": [
        {
          "internalType": "uint256",
          "name": "",
          "type": "uint256"
        }
      ],
      "stateMutability": "view",
      "type": "function"
    },
    {
      "inputs": [
        {
          "internalType": "address",
          "name": "newOwner",
          "type": "address"
        }
      ],
      "name": "transferOwnership",
      "outputs": [],
      "stateMutability": "nonpayable",
      "type": "function"
    },
    {
      "inputs": [
        {
          "internalType": "address",
          "name": "",
          "type": "address"
        }
      ],
      "name": "userRewards",
      "outputs": [
        {
          "internalType": "uint256",
          "name": "",
          "type": "uint256"
        }
      ],
      "stateMutability": "view",
      "type": "function"
    },
    {
      "inputs": [
        {
          "internalType": "uint256",
          "name": "",
          "type": "uint256"
        },
        {
          "internalType": "uint256",
          "name": "",
          "type": "uint256"
        }
      ],
      "name": "winners",
      "outputs": [
        {
          "internalType": "address",
          "name": "",
          "type": "address"
        }
      ],
      "stateMutability": "view",
      "type": "function"
    },
    {
      "inputs": [
        {
          "internalType": "address[]",
          "name": "_wList",
          "type": "address[]"
        }
      ],
      "name": "announceWinner",
      "outputs": [],
      "stateMutability": "nonpayable",
      "type": "function"
    },
    {
      "inputs": [],
      "name": "claim",
      "outputs": [],
      "stateMutability": "nonpayable",
      "type": "function"
    },
    {
      "inputs": [
        {
          "internalType": "address",
          "name": "_who",
          "type": "address"
        }
      ],
      "name": "pendingReward",
      "outputs": [
        {
          "internalType": "uint256",
          "name": "",
          "type": "uint256"
        }
      ],
      "stateMutability": "view",
      "type": "function"
    },
    {
      "inputs": [
        {
          "internalType": "uint256",
          "name": "_amount",
          "type": "uint256"
        }
      ],
      "name": "emergencyWithdraw",
      "outputs": [],
      "stateMutability": "nonpayable",
      "type": "function"
    },
    {
      "inputs": [
        {
          "internalType": "address",
          "name": "_node",
          "type": "address"
        },
        {
          "internalType": "bool",
          "name": "_status",
          "type": "bool"
        }
      ],
      "name": "setNodeStatus",
      "outputs": [],
      "stateMutability": "nonpayable",
      "type": "function"
    },
    {
      "inputs": [],
      "name": "getCurrentCounter",
      "outputs": [
        {
          "internalType": "uint256",
          "name": "",
          "type": "uint256"
        }
      ],
      "stateMutability": "view",
      "type": "function"
    },
    {
      "inputs": [
        {
          "internalType": "uint256",
          "name": "_count",
          "type": "uint256"
        }
      ],
      "name": "getWinners",
      "outputs": [
        {
          "internalType": "address[]",
          "name": "res",
          "type": "address[]"
        }
      ],
      "stateMutability": "view",
      "type": "function"
    },
    {
      "inputs": [
        {
          "internalType": "uint256",
          "name": "_position",
          "type": "uint256"
        },
        {
          "internalType": "uint256",
          "name": "_amount",
          "type": "uint256"
        }
      ],
      "name": "updateRewardScheme",
      "outputs": [],
      "stateMutability": "nonpayable",
      "type": "function"
    },
    {
      "inputs": [],
      "name": "getZeldaHolding",
      "outputs": [
        {
          "internalType": "uint256",
          "name": "",
          "type": "uint256"
        }
      ],
      "stateMutability": "view",
      "type": "function"
    }
  ],
  "bytecode": "0x608060405234801561001057600080fd5b506040516112443803806112448339818101604052602081101561003357600080fd5b5051600061003f6100c3565b600080546001600160a01b0319166001600160a01b0383169081178255604051929350917f8be0079c531659141344cd1fd0a4f28419497f9722a3daafe3b4186f6b6457e0908290a3506000805460ff60a01b19169055600180546001600160a01b0319166001600160a01b039290921691909117815560035560056004556100c7565b3390565b61116e806100d66000396000f3fe608060405234801561001057600080fd5b50600436106101375760003560e01c80636b1426a4116100b857806379203dc41161007c57806379203dc4146103ba5780638da5cb5b146103c2578063ba36f423146103ca578063f2fde38b146103d2578063f40f0f52146103f8578063f7b24e081461041e57610137565b80636b1426a4146103185780636c2b154814610385578063715018a61461038d57806373448c461461039557806375c49f1e1461039d57610137565b806329589340116100ff57806329589340146102b55780634e71d92d146102e35780635312ea8e146102eb5780635c975abb1461030857806361bc221a1461031057610137565b8063052216cf1461013c5780630660f1e8146101615780630efc8865146101995780631465eb12146101d8578063189a5a171461027b575b600080fd5b61015f6004803603604081101561015257600080fd5b5080359060200135610426565b005b6101876004803603602081101561017757600080fd5b50356001600160a01b03166104d3565b60408051918252519081900360200190f35b6101bc600480360360408110156101af57600080fd5b50803590602001356104e5565b604080516001600160a01b039092168252519081900360200190f35b61015f600480360360208110156101ee57600080fd5b81019060208101813564010000000081111561020957600080fd5b82018360208201111561021b57600080fd5b8035906020019184602083028401116401000000008311171561023d57600080fd5b91908080602002602001604051908101604052809392919081815260200183836020028082843760009201919091525092955061050b945050505050565b6102a16004803603602081101561029157600080fd5b50356001600160a01b0316610756565b604080519115158252519081900360200190f35b61015f600480360360408110156102cb57600080fd5b506001600160a01b038135169060200135151561076b565b61015f6107f8565b61015f6004803603602081101561030157600080fd5b50356108bd565b6102a161096f565b61018761097f565b6103356004803603602081101561032e57600080fd5b5035610985565b60408051602080825283518183015283519192839290830191858101910280838360005b83811015610371578181015183820152602001610359565b505050509050019250505060405180910390f35b610187610a34565b61015f610ab0565b610187610b5c565b610187600480360360208110156103b357600080fd5b5035610b62565b610187610b74565b6101bc610b7a565b6101bc610b89565b61015f600480360360208110156103e857600080fd5b50356001600160a01b0316610b98565b6101876004803603602081101561040e57600080fd5b50356001600160a01b0316610c9a565b610187610cb5565b61042e610cbb565b6001600160a01b031661043f610b7a565b6001600160a01b031614610488576040805162461bcd60e51b815260206004820181905260248201526000805160206110ef833981519152604482015290519081900360640190fd5b6000828152600760209081526040918290208390558151838152915184927fce92a90c6e8a59b46d7bbc89f53bd1e8d7a5e32d37e39088750efb439c07d5ed92908290030190a25050565b60066020526000908152604090205481565b60056020908152600092835260408084209091529082529020546001600160a01b031681565b3360009081526008602052604090205460ff161515600114610569576040805162461bcd60e51b815260206004820152601260248201527116915311104e881055551217d1905253115160721b604482015290519081900360640190fd5b6004548151146105b7576040805162461bcd60e51b81526020600482015260146024820152735a454c44413a204d41585f504f534954494f4e5360601b604482015290519081900360640190fd5b60005b81518110156106d5578181815181106105cf57fe5b6020908102919091018101516003546000908152600583526040808220858352845280822080546001600160a01b0319166001600160a01b0390941693909317909255600790925281205483516106669260069186908690811061062f57fe5b60200260200101516001600160a01b03166001600160a01b0316815260200190815260200160002054610cbf90919063ffffffff16565b6006600084848151811061067657fe5b60200260200101516001600160a01b03166001600160a01b03168152602001908152602001600020819055506106ca6007600083815260200190815260200160002054600254610cbf90919063ffffffff16565b6002556001016105ba565b50600380546001019081905560408051602080825284518183015284517fa58db115264562101d9017b2759f4a452460342a78aadceb2acd1ee197b8ed5893869392839291830191818601910280838360005b83811015610740578181015183820152602001610728565b505050509050019250505060405180910390a250565b60086020526000908152604090205460ff1681565b610773610cbb565b6001600160a01b0316610784610b7a565b6001600160a01b0316146107cd576040805162461bcd60e51b815260206004820181905260248201526000805160206110ef833981519152604482015290519081900360640190fd5b6001600160a01b03919091166000908152600860205260409020805460ff1916911515919091179055565b336000908152600660205260409020548061084d576040805162461bcd60e51b815260206004820152601060248201526f5a454c4441203a204e4f5f434c41494d60801b604482015290519081900360640190fd5b3360009081526006602052604081205560025461086a9082610d20565b600255600154610884906001600160a01b03163383610d7d565b60408051828152905133917fe2323fa72fc40846465d64f4b6ceb6716d38c6938c38fc238c4c07b7c3ecbb00919081900360200190a250565b6108c5610cbb565b6001600160a01b03166108d6610b7a565b6001600160a01b03161461091f576040805162461bcd60e51b815260206004820181905260248201526000805160206110ef833981519152604482015290519081900360640190fd5b600154610936906001600160a01b03163383610d7d565b60408051828152905133917f5fafa99d0643513820be26656b45130b01e1c03062e1266bf36f88cbd3bd9695919081900360200190a250565b600054600160a01b900460ff1690565b60035481565b606060045467ffffffffffffffff811180156109a057600080fd5b506040519080825280602002602001820160405280156109ca578160200160208202803683370190505b50905060005b600454811015610a2e57600083815260056020908152604080832084845290915290205482516001600160a01b0390911690839083908110610a0e57fe5b6001600160a01b03909216602092830291909101909101526001016109d0565b50919050565b600154604080516370a0823160e01b815230600482015290516000926001600160a01b0316916370a08231916024808301926020929190829003018186803b158015610a7f57600080fd5b505afa158015610a93573d6000803e3d6000fd5b505050506040513d6020811015610aa957600080fd5b5051905090565b610ab8610cbb565b6001600160a01b0316610ac9610b7a565b6001600160a01b031614610b12576040805162461bcd60e51b815260206004820181905260248201526000805160206110ef833981519152604482015290519081900360640190fd5b600080546040516001600160a01b03909116907f8be0079c531659141344cd1fd0a4f28419497f9722a3daafe3b4186f6b6457e0908390a3600080546001600160a01b0319169055565b60035490565b60076020526000908152604090205481565b60025481565b6000546001600160a01b031690565b6001546001600160a01b031681565b610ba0610cbb565b6001600160a01b0316610bb1610b7a565b6001600160a01b031614610bfa576040805162461bcd60e51b815260206004820181905260248201526000805160206110ef833981519152604482015290519081900360640190fd5b6001600160a01b038116610c3f5760405162461bcd60e51b81526004018080602001828103825260268152602001806110a36026913960400191505060405180910390fd5b600080546040516001600160a01b03808516939216917f8be0079c531659141344cd1fd0a4f28419497f9722a3daafe3b4186f6b6457e091a3600080546001600160a01b0319166001600160a01b0392909216919091179055565b6001600160a01b031660009081526006602052604090205490565b60045481565b3390565b600082820183811015610d19576040805162461bcd60e51b815260206004820152601b60248201527f536166654d6174683a206164646974696f6e206f766572666c6f770000000000604482015290519081900360640190fd5b9392505050565b600082821115610d77576040805162461bcd60e51b815260206004820152601e60248201527f536166654d6174683a207375627472616374696f6e206f766572666c6f770000604482015290519081900360640190fd5b50900390565b604080516001600160a01b038416602482015260448082018490528251808303909101815260649091019091526020810180516001600160e01b031663a9059cbb60e01b179052610dcf908490610dd4565b505050565b6060610e29826040518060400160405280602081526020017f5361666545524332303a206c6f772d6c6576656c2063616c6c206661696c6564815250856001600160a01b0316610e859092919063ffffffff16565b805190915015610dcf57808060200190516020811015610e4857600080fd5b5051610dcf5760405162461bcd60e51b815260040180806020018281038252602a81526020018061110f602a913960400191505060405180910390fd5b6060610e948484600085610e9c565b949350505050565b606082471015610edd5760405162461bcd60e51b81526004018080602001828103825260268152602001806110c96026913960400191505060405180910390fd5b610ee685610ff8565b610f37576040805162461bcd60e51b815260206004820152601d60248201527f416464726573733a2063616c6c20746f206e6f6e2d636f6e7472616374000000604482015290519081900360640190fd5b60006060866001600160a01b031685876040518082805190602001908083835b60208310610f765780518252601f199092019160209182019101610f57565b6001836020036101000a03801982511681845116808217855250505050505090500191505060006040518083038185875af1925050503d8060008114610fd8576040519150601f19603f3d011682016040523d82523d6000602084013e610fdd565b606091505b5091509150610fed828286610ffe565b979650505050505050565b3b151590565b6060831561100d575081610d19565b82511561101d5782518084602001fd5b8160405162461bcd60e51b81526004018080602001828103825283818151815260200191508051906020019080838360005b8381101561106757818101518382015260200161104f565b50505050905090810190601f1680156110945780820380516001836020036101000a031916815260200191505b509250505060405180910390fdfe4f776e61626c653a206e6577206f776e657220697320746865207a65726f2061646472657373416464726573733a20696e73756666696369656e742062616c616e636520666f722063616c6c4f776e61626c653a2063616c6c6572206973206e6f7420746865206f776e65725361666545524332303a204552433230206f7065726174696f6e20646964206e6f742073756363656564a2646970667358221220dd350af333d1888d8e81b1e1a7d43f3a8d51080e563bdd0305183e9a07900ee664736f6c634300060c0033",
  "immutableReferences": {},
  "source": "// SPDX-License-Identifier: MIT\npragma solidity 0.6.12;\n\nimport \"@openzeppelin/contracts/token/ERC20/IERC20.sol\";\nimport \"@openzeppelin/contracts/token/ERC20/SafeERC20.sol\";\nimport \"@openzeppelin/contracts/math/SafeMath.sol\";\nimport \"@openzeppelin/contracts/access/Ownable.sol\";\nimport \"@openzeppelin/contracts/utils/Pausable.sol\";\n\ncontract Zelda is Ownable , Pausable{\n    using SafeMath for uint256;\n    using SafeERC20 for IERC20;\n\n    IERC20 public att;\n    uint256 public totalAllocation;\n    uint256 public counter;\n    uint256 public MAX_POSITIONS;\n\n\n  // day / position / address\n    mapping(uint256 => mapping(uint256 => address)) public winners;\n    mapping(address => uint256) public userRewards;\n    mapping(uint256 => uint256) public rewardScheme;\n    mapping(address => bool) public nodes;\n\n    constructor(\n        IERC20 _att\n    ) public {\n        att = _att;\n        counter = 1;\n        MAX_POSITIONS = 5;\n    }\n\n    event WinnerAnnouncement(address[] winners, uint256 indexed counter);\n    event UserClaim(address indexed user, uint256 amount);\n    event EmergencyWithdraw(address indexed user, uint256 amount);\n    event RewardSchemeUpdate(uint256 indexed position, uint256 amount);\n\n    modifier onlyNode() {\n        require(nodes[msg.sender] == true, \"ZELDA: AUTH_FAILED\");\n        _;\n    }\n\n    function announceWinner(address[] memory _wList) external onlyNode {\n      require(_wList.length == MAX_POSITIONS, \"ZELDA: MAX_POSITIONS\");\n      for(uint256 i=0;i< _wList.length ; i++){\n          winners[counter][i]=_wList[i];\n          userRewards[_wList[i]] = userRewards[_wList[i]].add(rewardScheme[i]);\n          totalAllocation = totalAllocation.add((rewardScheme[i]));\n      }\n      counter++;\n      emit WinnerAnnouncement(_wList,counter);\n    }\n\n    function  claim() external {\n      uint256 claimAmount = userRewards[msg.sender];\n      require(claimAmount >0, \"ZELDA : NO_CLAIM\");\n      userRewards[msg.sender] = 0;\n      totalAllocation = totalAllocation.sub(claimAmount);\n      att.safeTransfer(msg.sender, claimAmount);\n      emit UserClaim(msg.sender, claimAmount);\n    }\n\n\n    function  pendingReward(address _who) public view returns (uint256) {\n      return userRewards[_who];\n    }\n\n    // EMERGENCY ONLY.\n    function emergencyWithdraw(uint256 _amount) external  onlyOwner{\n      att.safeTransfer(address(msg.sender), _amount);\n      emit EmergencyWithdraw(msg.sender, _amount);\n    }\n\n    function setNodeStatus(address _node, bool _status) external onlyOwner{\n      nodes[_node] = _status;\n    }\n\n    function getCurrentCounter() external view returns(uint256){\n      return counter;\n    }\n\n    function getWinners(uint256 _count) external view returns(address[] memory res){\n      res  = new address[](MAX_POSITIONS);\n      for (uint256 i= 0 ; i < MAX_POSITIONS ; i++){\n        res[i] = winners[_count][i];\n      }\n      return res;\n    }\n\n    function updateRewardScheme(uint256 _position, uint256 _amount) external onlyOwner {\n      rewardScheme[_position] = _amount;\n      emit RewardSchemeUpdate(_position, _amount);\n    }\n\n    function getZeldaHolding() public view returns(uint256){\n      return att.balanceOf(address(this));\n    }\n\n  // pause & unpause\n}",
  "sourcePath": "/home/sagar/Desktop/projects/ATT/smart-contracts/Zelda/contracts/Zelda.sol",
  "compiler": {
    "name": "solc",
    "version": "0.6.12+commit.27d51765.Emscripten.clang"
  },
  "schemaVersion": "3.3.2",
  "updatedAt": "2021-04-29T08:19:27.833Z",
  "devdoc": {
    "kind": "dev",
    "methods": {
      "owner()": {
        "details": "Returns the address of the current owner."
      },
      "paused()": {
        "details": "Returns true if the contract is paused, and false otherwise."
      },
      "renounceOwnership()": {
        "details": "Leaves the contract without owner. It will not be possible to call `onlyOwner` functions anymore. Can only be called by the current owner. NOTE: Renouncing ownership will leave the contract without an owner, thereby removing any functionality that is only available to the owner."
      },
      "transferOwnership(address)": {
        "details": "Transfers ownership of the contract to a new account (`newOwner`). Can only be called by the current owner."
      }
    },
    "version": 1
  },
  "userdoc": {
    "kind": "user",
    "methods": {},
    "version": 1
  }
}