{
  "contractName": "xSafe",
  "abi": [
    {
      "inputs": [
        {
          "internalType": "contract IERC20",
          "name": "_att",
          "type": "address"
        },
        {
          "internalType": "uint256",
          "name": "_attPerBlock",
          "type": "uint256"
        }
      ],
      "stateMutability": "nonpayable",
      "type": "constructor"
    },
    {
      "anonymous": false,
      "inputs": [
        {
          "indexed": true,
          "internalType": "address",
          "name": "previousOwner",
          "type": "address"
        },
        {
          "indexed": true,
          "internalType": "address",
          "name": "newOwner",
          "type": "address"
        }
      ],
      "name": "OwnershipTransferred",
      "type": "event"
    },
    {
      "anonymous": false,
      "inputs": [
        {
          "indexed": true,
          "internalType": "address",
          "name": "pool",
          "type": "address"
        },
        {
          "indexed": false,
          "internalType": "uint256",
          "name": "releasedAmount",
          "type": "uint256"
        },
        {
          "indexed": false,
          "internalType": "uint256",
          "name": "blockNumber",
          "type": "uint256"
        }
      ],
      "name": "Release",
      "type": "event"
    },
    {
      "inputs": [],
      "name": "att",
      "outputs": [
        {
          "internalType": "contract IERC20",
          "name": "",
          "type": "address"
        }
      ],
      "stateMutability": "view",
      "type": "function"
    },
    {
      "inputs": [],
      "name": "attPerBlock",
      "outputs": [
        {
          "internalType": "uint256",
          "name": "",
          "type": "uint256"
        }
      ],
      "stateMutability": "view",
      "type": "function"
    },
    {
      "inputs": [],
      "name": "attPool",
      "outputs": [
        {
          "internalType": "address",
          "name": "",
          "type": "address"
        }
      ],
      "stateMutability": "view",
      "type": "function"
    },
    {
      "inputs": [],
      "name": "kLast",
      "outputs": [
        {
          "internalType": "uint256",
          "name": "",
          "type": "uint256"
        }
      ],
      "stateMutability": "view",
      "type": "function"
    },
    {
      "inputs": [],
      "name": "owner",
      "outputs": [
        {
          "internalType": "address",
          "name": "",
          "type": "address"
        }
      ],
      "stateMutability": "view",
      "type": "function"
    },
    {
      "inputs": [],
      "name": "renounceOwnership",
      "outputs": [],
      "stateMutability": "nonpayable",
      "type": "function"
    },
    {
      "inputs": [
        {
          "internalType": "address",
          "name": "newOwner",
          "type": "address"
        }
      ],
      "name": "transferOwnership",
      "outputs": [],
      "stateMutability": "nonpayable",
      "type": "function"
    },
    {
      "inputs": [],
      "name": "xAtt",
      "outputs": [
        {
          "internalType": "contract IERC20",
          "name": "",
          "type": "address"
        }
      ],
      "stateMutability": "view",
      "type": "function"
    },
    {
      "inputs": [],
      "name": "releaseRewards",
      "outputs": [],
      "stateMutability": "nonpayable",
      "type": "function"
    },
    {
      "inputs": [
        {
          "internalType": "uint256",
          "name": "_amount",
          "type": "uint256"
        }
      ],
      "name": "emergencyWithdraw",
      "outputs": [],
      "stateMutability": "nonpayable",
      "type": "function"
    },
    {
      "inputs": [
        {
          "internalType": "contract IERC20",
          "name": "_xAtt",
          "type": "address"
        }
      ],
      "name": "setXAtt",
      "outputs": [],
      "stateMutability": "nonpayable",
      "type": "function"
    },
    {
      "inputs": [
        {
          "internalType": "address",
          "name": "_attPool",
          "type": "address"
        }
      ],
      "name": "setAttPool",
      "outputs": [],
      "stateMutability": "nonpayable",
      "type": "function"
    },
    {
      "inputs": [
        {
          "internalType": "uint256",
          "name": "_attPerBlock",
          "type": "uint256"
        }
      ],
      "name": "setAttPerBlock",
      "outputs": [],
      "stateMutability": "nonpayable",
      "type": "function"
    },
    {
      "inputs": [
        {
          "internalType": "address",
          "name": "_who",
          "type": "address"
        }
      ],
      "name": "getUserStat",
      "outputs": [
        {
          "internalType": "uint256",
          "name": "xBal",
          "type": "uint256"
        },
        {
          "internalType": "uint256",
          "name": "bal",
          "type": "uint256"
        }
      ],
      "stateMutability": "view",
      "type": "function"
    },
    {
      "inputs": [],
      "name": "getEstimatedExchangeRate",
      "outputs": [
        {
          "internalType": "uint256",
          "name": "estimatedSupply",
          "type": "uint256"
        },
        {
          "internalType": "uint256",
          "name": "totalShares",
          "type": "uint256"
        }
      ],
      "stateMutability": "view",
      "type": "function"
    },
    {
      "inputs": [
        {
          "internalType": "uint256",
          "name": "_xAttAmount",
          "type": "uint256"
        }
      ],
      "name": "toAtt",
      "outputs": [
        {
          "internalType": "uint256",
          "name": "attAmount",
          "type": "uint256"
        }
      ],
      "stateMutability": "view",
      "type": "function"
    },
    {
      "inputs": [
        {
          "internalType": "uint256",
          "name": "_attAmount",
          "type": "uint256"
        }
      ],
      "name": "toXAtt",
      "outputs": [
        {
          "internalType": "uint256",
          "name": "xAttAmount",
          "type": "uint256"
        }
      ],
      "stateMutability": "view",
      "type": "function"
    },
    {
      "inputs": [],
      "name": "getAttPoolBalance",
      "outputs": [
        {
          "internalType": "uint256",
          "name": "",
          "type": "uint256"
        }
      ],
      "stateMutability": "view",
      "type": "function"
    },
    {
      "inputs": [],
      "name": "getXsafeBalance",
      "outputs": [
        {
          "internalType": "uint256",
          "name": "",
          "type": "uint256"
        }
      ],
      "stateMutability": "view",
      "type": "function"
    },
    {
      "inputs": [],
      "name": "xattSupply",
      "outputs": [
        {
          "internalType": "uint256",
          "name": "",
          "type": "uint256"
        }
      ],
      "stateMutability": "view",
      "type": "function"
    }
  ],
  "bytecode": "0x608060405234801561001057600080fd5b50604051610d45380380610d458339818101604052604081101561003357600080fd5b50805160209091015160006100466100b9565b600080546001600160a01b0319166001600160a01b0383169081178255604051929350917f8be0079c531659141344cd1fd0a4f28419497f9722a3daafe3b4186f6b6457e0908290a350600180546001600160a01b0319166001600160a01b0393909316929092179091556005556100bd565b3390565b610c79806100cc6000396000f3fe608060405234801561001057600080fd5b506004361061012c5760003560e01c806378f7a3a7116100ad578063c275bbb611610071578063c275bbb614610264578063c528d53c1461026c578063d0fab3ca14610292578063e52cf09a1461029a578063f2fde38b146102c05761012c565b806378f7a3a71461020b5780638da5cb5b14610228578063b3a1eddf1461024c578063ba36f42314610254578063bbfbf81a1461025c5761012c565b806363f6d099116100f457806363f6d099146101ac57806370535366146101b4578063715018a6146101f35780637464fc3d146101fb57806377975561146102035761012c565b806344d4dd7d14610131578063491d783f1461014b5780634f2683ae146101685780635312ea8e1461017057806362fa7ec91461018f575b600080fd5b6101396102e6565b60408051918252519081900360200190f35b6101396004803603602081101561016157600080fd5b503561035c565b61013961038a565b61018d6004803603602081101561018657600080fd5b5035610390565b005b61018d600480360360208110156101a557600080fd5b50356103ff565b610139610466565b6101da600480360360208110156101ca57600080fd5b50356001600160a01b03166104b1565b6040805192835260208301919091528051918290030190f35b61018d610555565b610139610601565b610139610607565b6101396004803603602081101561022157600080fd5b503561065b565b61023061067b565b604080516001600160a01b039092168252519081900360200190f35b6101da61068a565b6102306106ed565b6102306106fc565b61023061070b565b61018d6004803603602081101561028257600080fd5b50356001600160a01b031661071a565b61018d61079e565b61018d600480360360208110156102b057600080fd5b50356001600160a01b03166107f1565b61018d600480360360208110156102d657600080fd5b50356001600160a01b0316610875565b600254604080516318160ddd60e01b815290516000926001600160a01b0316916318160ddd916004808301926020929190829003018186803b15801561032b57600080fd5b505afa15801561033f573d6000803e3d6000fd5b505050506040513d602081101561035557600080fd5b5051905090565b600080600061036961068a565b90925090506103828261037c8684610977565b906109d9565b949350505050565b60055481565b610398610a40565b6001600160a01b03166103a961067b565b6001600160a01b0316146103f2576040805162461bcd60e51b81526020600482018190526024820152600080516020610c24833981519152604482015290519081900360640190fd5b6103fc3382610a44565b50565b610407610a40565b6001600160a01b031661041861067b565b6001600160a01b031614610461576040805162461bcd60e51b81526020600482018190526024820152600080516020610c24833981519152604482015290519081900360640190fd5b600555565b600154604080516370a0823160e01b815230600482015290516000926001600160a01b0316916370a08231916024808301926020929190829003018186803b15801561032b57600080fd5b600254604080516370a0823160e01b81526001600160a01b0384811660048301529151600093849316916370a08231916024808301926020929190829003018186803b15801561050057600080fd5b505afa158015610514573d6000803e3d6000fd5b505050506040513d602081101561052a57600080fd5b5051915060008061053961068a565b909250905061054c8161037c8685610977565b92505050915091565b61055d610a40565b6001600160a01b031661056e61067b565b6001600160a01b0316146105b7576040805162461bcd60e51b81526020600482018190526024820152600080516020610c24833981519152604482015290519081900360640190fd5b600080546040516001600160a01b03909116907f8be0079c531659141344cd1fd0a4f28419497f9722a3daafe3b4186f6b6457e0908390a3600080546001600160a01b0319169055565b60045481565b600154600354604080516370a0823160e01b81526001600160a01b039283166004820152905160009392909216916370a0823191602480820192602092909190829003018186803b15801561032b57600080fd5b600080600061066861068a565b90925090506103828161037c8685610977565b6000546001600160a01b031690565b6000806106956102e6565b905060006106a1610466565b905060006106c66005546106c060045443610b2590919063ffffffff16565b90610977565b9050818111156106d35750805b6106e5816106df610607565b90610b82565b935050509091565b6001546001600160a01b031681565b6002546001600160a01b031681565b6003546001600160a01b031681565b610722610a40565b6001600160a01b031661073361067b565b6001600160a01b03161461077c576040805162461bcd60e51b81526020600482018190526024820152600080516020610c24833981519152604482015290519081900360640190fd5b600280546001600160a01b0319166001600160a01b0392909216919091179055565b600454158015906107b0575043600454105b156107ef5760006107d26005546106c060045443610b2590919063ffffffff16565b436004556003549091506103fc906001600160a01b031682610a44565b565b6107f9610a40565b6001600160a01b031661080a61067b565b6001600160a01b031614610853576040805162461bcd60e51b81526020600482018190526024820152600080516020610c24833981519152604482015290519081900360640190fd5b600380546001600160a01b0319166001600160a01b0392909216919091179055565b61087d610a40565b6001600160a01b031661088e61067b565b6001600160a01b0316146108d7576040805162461bcd60e51b81526020600482018190526024820152600080516020610c24833981519152604482015290519081900360640190fd5b6001600160a01b03811661091c5760405162461bcd60e51b8152600401808060200182810382526026815260200180610bdd6026913960400191505060405180910390fd5b600080546040516001600160a01b03808516939216917f8be0079c531659141344cd1fd0a4f28419497f9722a3daafe3b4186f6b6457e091a3600080546001600160a01b0319166001600160a01b0392909216919091179055565b600082610986575060006109d3565b8282028284828161099357fe5b04146109d05760405162461bcd60e51b8152600401808060200182810382526021815260200180610c036021913960400191505060405180910390fd5b90505b92915050565b6000808211610a2f576040805162461bcd60e51b815260206004820152601a60248201527f536166654d6174683a206469766973696f6e206279207a65726f000000000000604482015290519081900360640190fd5b818381610a3857fe5b049392505050565b3390565b6000610a4e610466565b905080821115610a5c578091505b6001546040805163a9059cbb60e01b81526001600160a01b038681166004830152602482018690529151919092169163a9059cbb9160448083019260209291908290030181600087803b158015610ab257600080fd5b505af1158015610ac6573d6000803e3d6000fd5b505050506040513d6020811015610adc57600080fd5b50506040805183815243602082015281516001600160a01b038616927f2c57dec1db0095a6b800c2698d5bbceef2c180c6ac43429769a719658983f677928290030190a2505050565b600082821115610b7c576040805162461bcd60e51b815260206004820152601e60248201527f536166654d6174683a207375627472616374696f6e206f766572666c6f770000604482015290519081900360640190fd5b50900390565b6000828201838110156109d0576040805162461bcd60e51b815260206004820152601b60248201527f536166654d6174683a206164646974696f6e206f766572666c6f770000000000604482015290519081900360640190fdfe4f776e61626c653a206e6577206f776e657220697320746865207a65726f2061646472657373536166654d6174683a206d756c7469706c69636174696f6e206f766572666c6f774f776e61626c653a2063616c6c6572206973206e6f7420746865206f776e6572a2646970667358221220402d24675a815aa13afbeae8b41512b6ec5f1a6a9125e1ba551bba248f7ab8e664736f6c634300060c0033",
  "immutableReferences": {},
  "source": "// SPDX-License-Identifier: UNLICENSED\n\npragma solidity 0.6.12;\n\nimport \"@openzeppelin/contracts/token/ERC20/IERC20.sol\";\nimport \"@openzeppelin/contracts/token/ERC20/SafeERC20.sol\";\nimport \"@openzeppelin/contracts/math/SafeMath.sol\";\nimport \"@openzeppelin/contracts/access/Ownable.sol\";\n\n/**\n * @title xSafe contract\n */\ncontract xSafe is Ownable{\n    using SafeMath for uint256;\n    using SafeERC20 for IERC20;\n\n    IERC20 public att;\n    IERC20 public xAtt;\n    address public attPool;\n    uint256 public kLast;\n    uint256 public attPerBlock;\n\n    event Release(address indexed pool, uint256 releasedAmount, uint256 blockNumber);\n\n    constructor(IERC20 _att, uint256 _attPerBlock) public {\n        att = _att;\n        attPerBlock = _attPerBlock;\n    }\n\n    /**\n     * @dev Release reward as per the blocks passed.\n     */\n    function releaseRewards() external {\n        if (kLast != 0 && kLast < block.number) {\n            uint256 amount = block.number.sub(kLast).mul(attPerBlock);\n            kLast = block.number;\n            safeTransfer(attPool, amount);\n        }\n    }\n\n    /**\n     * @dev Facilitates safe token transfer.\n     */\n    function safeTransfer(address _to, uint256 _amount) internal {\n        uint256 Bal = getXsafeBalance();\n        if (_amount > Bal) {\n            _amount = Bal;\n        }\n        att.transfer(_to, _amount);\n        emit Release(_to,_amount, block.number);\n    }\n\n    /**\n     * @dev EMERGENCY ONLY. Withdraw ATT amount from zelda. \n     * @param _amount amount to be withdrawn.\n     */\n    function emergencyWithdraw(uint256 _amount) external onlyOwner {\n        safeTransfer(address(msg.sender), _amount);\n    }\n\n    /**\n     * @dev Sets xAtt token.\n     * @param _xAtt xAtt token address.\n     */\n    function setXAtt(IERC20 _xAtt) external onlyOwner {\n        xAtt = _xAtt;\n    }\n\n    /**\n     * @dev Sets Token pool.\n     * @param _attPool token pool address.\n     */\n    function setAttPool(address _attPool) external onlyOwner{\n        attPool = _attPool;\n    }\n\n    /**\n     * @dev Sets ATT distribution.\n     * @param _attPerBlock amount of ATT distributed per block.\n     */\n    function setAttPerBlock(uint256 _attPerBlock) external onlyOwner{\n        attPerBlock = _attPerBlock;\n    }\n    \n    /**\n     * @dev Returns user stats.\n     * @param _who user's wallet address.\n     */\n    function getUserStat(address _who)\n        external\n        view\n        returns (uint256 xBal, uint256 bal)\n    {    \n        xBal = xAtt.balanceOf(_who);\n        (uint256 estimatedSupply,uint256 totalShares) = getEstimatedExchangeRate();\n        bal = xBal.mul(estimatedSupply).div(totalShares);\n    }\n   \n    /**\n     * @dev Calculates & return estimated rates.\n     */\n    function getEstimatedExchangeRate() public view returns (uint256 estimatedSupply, uint256 totalShares) {\n        totalShares = xattSupply();\n        uint256 attBal = getXsafeBalance();\n        uint256 distribution = (block.number.sub(kLast)).mul(attPerBlock);\n        if (distribution > attBal) {\n            distribution = attBal;\n        }\n        estimatedSupply = (getAttPoolBalance()).add(distribution);\n    }\n\n    /**\n     * @dev Returns expected ATT for given XATT.\n     * @param _xAttAmount amount.\n     */\n    function toAtt(uint256 _xAttAmount) external view returns (uint256 attAmount) {\n        (uint256 estimatedSupply,uint256 totalShares) = getEstimatedExchangeRate();\n        attAmount = (_xAttAmount.mul(estimatedSupply)).div(totalShares);\n    }\n\n    /**\n     * @dev Returns expected XATT for given ATT.\n     * @param _attAmount amount.\n     */\n    function toXAtt(uint256 _attAmount) external view returns (uint256 xAttAmount) {\n        (uint256 estimatedSupply,uint256 totalShares) = getEstimatedExchangeRate();\n        xAttAmount = (_attAmount.mul(totalShares)).div(estimatedSupply);\n    }\n\n    /**\n     * @dev Returns Token pool balance.\n     */\n    function getAttPoolBalance() public view returns(uint256){\n        return att.balanceOf(attPool);\n    }\n\n    /**\n     * @dev Returns safe ATT balance.\n     */\n    function getXsafeBalance() public view returns(uint256){\n        return att.balanceOf(address(this));\n    }\n\n    /**\n     * @dev Returns xAtt supply.\n     */\n    function xattSupply() public view returns(uint256){\n        return xAtt.totalSupply();\n    }\n\n}\n",
  "sourcePath": "/home/sagar/Desktop/projects/ATT/smart-contracts/Stake/contracts/xSafe.sol",
  "compiler": {
    "name": "solc",
    "version": "0.6.12+commit.27d51765.Emscripten.clang"
  },
  "schemaVersion": "3.3.2",
  "updatedAt": "2021-05-01T12:47:21.785Z",
  "devdoc": {
    "kind": "dev",
    "methods": {
      "emergencyWithdraw(uint256)": {
        "details": "EMERGENCY ONLY. Withdraw ATT amount from zelda. ",
        "params": {
          "_amount": "amount to be withdrawn."
        }
      },
      "getAttPoolBalance()": {
        "details": "Returns Token pool balance."
      },
      "getEstimatedExchangeRate()": {
        "details": "Calculates & return estimated rates."
      },
      "getUserStat(address)": {
        "details": "Returns user stats.",
        "params": {
          "_who": "user's wallet address."
        }
      },
      "getXsafeBalance()": {
        "details": "Returns safe ATT balance."
      },
      "owner()": {
        "details": "Returns the address of the current owner."
      },
      "releaseRewards()": {
        "details": "Release reward as per the blocks passed."
      },
      "renounceOwnership()": {
        "details": "Leaves the contract without owner. It will not be possible to call `onlyOwner` functions anymore. Can only be called by the current owner. NOTE: Renouncing ownership will leave the contract without an owner, thereby removing any functionality that is only available to the owner."
      },
      "setAttPerBlock(uint256)": {
        "details": "Sets ATT distribution.",
        "params": {
          "_attPerBlock": "amount of ATT distributed per block."
        }
      },
      "setAttPool(address)": {
        "details": "Sets Token pool.",
        "params": {
          "_attPool": "token pool address."
        }
      },
      "setXAtt(address)": {
        "details": "Sets xAtt token.",
        "params": {
          "_xAtt": "xAtt token address."
        }
      },
      "toAtt(uint256)": {
        "details": "Returns expected ATT for given XATT.",
        "params": {
          "_xAttAmount": "amount."
        }
      },
      "toXAtt(uint256)": {
        "details": "Returns expected XATT for given ATT.",
        "params": {
          "_attAmount": "amount."
        }
      },
      "transferOwnership(address)": {
        "details": "Transfers ownership of the contract to a new account (`newOwner`). Can only be called by the current owner."
      },
      "xattSupply()": {
        "details": "Returns xAtt supply."
      }
    },
    "title": "xSafe contract",
    "version": 1
  },
  "userdoc": {
    "kind": "user",
    "methods": {},
    "version": 1
  }
}