{
  "contractName": "xSafe",
  "abi": [
    {
      "inputs": [
        {
          "internalType": "contract IERC20",
          "name": "_att",
          "type": "address"
        },
        {
          "internalType": "contract IERC20",
          "name": "_xAtt",
          "type": "address"
        },
        {
          "internalType": "uint256",
          "name": "_attPerBlock",
          "type": "uint256"
        },
        {
          "internalType": "address",
          "name": "_devAddr",
          "type": "address"
        },
        {
          "internalType": "address",
          "name": "_attPool",
          "type": "address"
        }
      ],
      "stateMutability": "nonpayable",
      "type": "constructor"
    },
    {
      "anonymous": false,
      "inputs": [
        {
          "indexed": true,
          "internalType": "address",
          "name": "user",
          "type": "address"
        },
        {
          "indexed": false,
          "internalType": "uint256",
          "name": "amount",
          "type": "uint256"
        }
      ],
      "name": "EmergencyWithdraw",
      "type": "event"
    },
    {
      "anonymous": false,
      "inputs": [
        {
          "indexed": true,
          "internalType": "address",
          "name": "previousOwner",
          "type": "address"
        },
        {
          "indexed": true,
          "internalType": "address",
          "name": "newOwner",
          "type": "address"
        }
      ],
      "name": "OwnershipTransferred",
      "type": "event"
    },
    {
      "anonymous": false,
      "inputs": [
        {
          "indexed": true,
          "internalType": "address",
          "name": "pool",
          "type": "address"
        },
        {
          "indexed": false,
          "internalType": "uint256",
          "name": "releasedAmount",
          "type": "uint256"
        },
        {
          "indexed": false,
          "internalType": "uint256",
          "name": "blockNumber",
          "type": "uint256"
        }
      ],
      "name": "Release",
      "type": "event"
    },
    {
      "inputs": [],
      "name": "att",
      "outputs": [
        {
          "internalType": "contract IERC20",
          "name": "",
          "type": "address"
        }
      ],
      "stateMutability": "view",
      "type": "function"
    },
    {
      "inputs": [],
      "name": "attPerBlock",
      "outputs": [
        {
          "internalType": "uint256",
          "name": "",
          "type": "uint256"
        }
      ],
      "stateMutability": "view",
      "type": "function"
    },
    {
      "inputs": [],
      "name": "attPool",
      "outputs": [
        {
          "internalType": "address",
          "name": "",
          "type": "address"
        }
      ],
      "stateMutability": "view",
      "type": "function"
    },
    {
      "inputs": [],
      "name": "devAddr",
      "outputs": [
        {
          "internalType": "address",
          "name": "",
          "type": "address"
        }
      ],
      "stateMutability": "view",
      "type": "function"
    },
    {
      "inputs": [],
      "name": "kLast",
      "outputs": [
        {
          "internalType": "uint256",
          "name": "",
          "type": "uint256"
        }
      ],
      "stateMutability": "view",
      "type": "function"
    },
    {
      "inputs": [],
      "name": "owner",
      "outputs": [
        {
          "internalType": "address",
          "name": "",
          "type": "address"
        }
      ],
      "stateMutability": "view",
      "type": "function"
    },
    {
      "inputs": [],
      "name": "renounceOwnership",
      "outputs": [],
      "stateMutability": "nonpayable",
      "type": "function"
    },
    {
      "inputs": [
        {
          "internalType": "address",
          "name": "newOwner",
          "type": "address"
        }
      ],
      "name": "transferOwnership",
      "outputs": [],
      "stateMutability": "nonpayable",
      "type": "function"
    },
    {
      "inputs": [],
      "name": "xAtt",
      "outputs": [
        {
          "internalType": "contract IERC20",
          "name": "",
          "type": "address"
        }
      ],
      "stateMutability": "view",
      "type": "function"
    },
    {
      "inputs": [],
      "name": "releaseRewards",
      "outputs": [],
      "stateMutability": "nonpayable",
      "type": "function"
    },
    {
      "inputs": [
        {
          "internalType": "uint256",
          "name": "_amount",
          "type": "uint256"
        }
      ],
      "name": "emergencyWithdraw",
      "outputs": [],
      "stateMutability": "nonpayable",
      "type": "function"
    },
    {
      "inputs": [
        {
          "internalType": "address",
          "name": "_devaddr",
          "type": "address"
        }
      ],
      "name": "updateDev",
      "outputs": [],
      "stateMutability": "nonpayable",
      "type": "function"
    },
    {
      "inputs": [
        {
          "internalType": "address",
          "name": "_attPool",
          "type": "address"
        }
      ],
      "name": "updateAttPool",
      "outputs": [],
      "stateMutability": "nonpayable",
      "type": "function"
    },
    {
      "inputs": [
        {
          "internalType": "uint256",
          "name": "_attPerBlock",
          "type": "uint256"
        }
      ],
      "name": "updateAttPerBlock",
      "outputs": [],
      "stateMutability": "nonpayable",
      "type": "function"
    },
    {
      "inputs": [
        {
          "internalType": "address",
          "name": "who",
          "type": "address"
        }
      ],
      "name": "getUserStat",
      "outputs": [
        {
          "internalType": "uint256",
          "name": "xBal",
          "type": "uint256"
        },
        {
          "internalType": "uint256",
          "name": "bal",
          "type": "uint256"
        }
      ],
      "stateMutability": "view",
      "type": "function"
    },
    {
      "inputs": [],
      "name": "getSafeBalance",
      "outputs": [
        {
          "internalType": "uint256",
          "name": "",
          "type": "uint256"
        }
      ],
      "stateMutability": "view",
      "type": "function"
    },
    {
      "inputs": [],
      "name": "getEstimatedExchangeRate",
      "outputs": [
        {
          "internalType": "uint256",
          "name": "estimatedSupply",
          "type": "uint256"
        },
        {
          "internalType": "uint256",
          "name": "totalShares",
          "type": "uint256"
        }
      ],
      "stateMutability": "view",
      "type": "function"
    },
    {
      "inputs": [
        {
          "internalType": "uint256",
          "name": "xAttAmount",
          "type": "uint256"
        }
      ],
      "name": "toAtt",
      "outputs": [
        {
          "internalType": "uint256",
          "name": "attAmount",
          "type": "uint256"
        }
      ],
      "stateMutability": "view",
      "type": "function"
    },
    {
      "inputs": [
        {
          "internalType": "uint256",
          "name": "attAmount",
          "type": "uint256"
        }
      ],
      "name": "toXAtt",
      "outputs": [
        {
          "internalType": "uint256",
          "name": "xAttAmount",
          "type": "uint256"
        }
      ],
      "stateMutability": "view",
      "type": "function"
    }
  ],
  "bytecode": "0x608060405234801561001057600080fd5b50604051611127380380611127833981810160405260a081101561003357600080fd5b50805160208201516040830151606084015160809094015192939192909190600061005c6100ff565b600080546001600160a01b0319166001600160a01b0383169081178255604051929350917f8be0079c531659141344cd1fd0a4f28419497f9722a3daafe3b4186f6b6457e0908290a350600180546001600160a01b039687166001600160a01b0319918216179091556002805495871695821695909517909455600380549286169285169290921790915560069190915560048054919093169116179055610103565b3390565b611015806101126000396000f3fe608060405234801561001057600080fd5b50600436106101215760003560e01c8063791b4d4e116100ad578063bbfbf81a11610071578063bbfbf81a1461028d578063c275bbb614610295578063d0fab3ca1461029d578063da09c72c146102a5578063f2fde38b146102ad57610121565b8063791b4d4e1461022b5780638da5cb5b14610233578063934c193814610257578063b3a1eddf1461027d578063ba36f4231461028557610121565b80635312ea8e116100f45780635312ea8e146101a257806370535366146101bf578063715018a6146101fe5780637464fc3d1461020657806378f7a3a71461020e57610121565b80630c59fab51461012657806320b47ab614610145578063491d783f1461016b5780634f2683ae1461019a575b600080fd5b6101436004803603602081101561013c57600080fd5b50356102d3565b005b6101436004803603602081101561015b57600080fd5b50356001600160a01b031661032c565b6101886004803603602081101561018157600080fd5b50356103a2565b60408051918252519081900360200190f35b6101886103d0565b610143600480360360208110156101b857600080fd5b50356103d6565b6101e5600480360360208110156101d557600080fd5b50356001600160a01b0316610488565b6040805192835260208301919091528051918290030190f35b61014361052c565b6101886105d8565b6101886004803603602081101561022457600080fd5b50356105de565b6101886105fe565b61023b61067a565b604080516001600160a01b039092168252519081900360200190f35b6101436004803603602081101561026d57600080fd5b50356001600160a01b0316610689565b6101e561070d565b61023b610858565b61023b610867565b61023b610876565b610143610885565b61023b6108cc565b610143600480360360208110156102c357600080fd5b50356001600160a01b03166108db565b6003546001600160a01b03163314610327576040805162461bcd60e51b81526020600482015260126024820152711614d051914e881055551217d1905253115160721b604482015290519081900360640190fd5b600655565b6003546001600160a01b03163314610380576040805162461bcd60e51b81526020600482015260126024820152711614d051914e881055551217d1905253115160721b604482015290519081900360640190fd5b600480546001600160a01b0319166001600160a01b0392909216919091179055565b60008060006103af61070d565b90925090506103c8826103c286846109dd565b90610a3f565b949350505050565b60065481565b6103de610aa6565b6001600160a01b03166103ef61067a565b6001600160a01b031614610438576040805162461bcd60e51b81526020600482018190526024820152600080516020610f96833981519152604482015290519081900360640190fd5b60015461044f906001600160a01b03163383610aaa565b60408051828152905133917f5fafa99d0643513820be26656b45130b01e1c03062e1266bf36f88cbd3bd9695919081900360200190a250565b600254604080516370a0823160e01b81526001600160a01b0384811660048301529151600093849316916370a08231916024808301926020929190829003018186803b1580156104d757600080fd5b505afa1580156104eb573d6000803e3d6000fd5b505050506040513d602081101561050157600080fd5b5051915060008061051061070d565b9092509050610523816103c286856109dd565b92505050915091565b610534610aa6565b6001600160a01b031661054561067a565b6001600160a01b03161461058e576040805162461bcd60e51b81526020600482018190526024820152600080516020610f96833981519152604482015290519081900360640190fd5b600080546040516001600160a01b03909116907f8be0079c531659141344cd1fd0a4f28419497f9722a3daafe3b4186f6b6457e0908390a3600080546001600160a01b0319169055565b60055481565b60008060006105eb61070d565b90925090506103c8816103c286856109dd565b600154604080516370a0823160e01b815230600482015290516000926001600160a01b0316916370a08231916024808301926020929190829003018186803b15801561064957600080fd5b505afa15801561065d573d6000803e3d6000fd5b505050506040513d602081101561067357600080fd5b5051905090565b6000546001600160a01b031690565b610691610aa6565b6001600160a01b03166106a261067a565b6001600160a01b0316146106eb576040805162461bcd60e51b81526020600482018190526024820152600080516020610f96833981519152604482015290519081900360640190fd5b600380546001600160a01b0319166001600160a01b0392909216919091179055565b600080600260009054906101000a90046001600160a01b03166001600160a01b03166318160ddd6040518163ffffffff1660e01b815260040160206040518083038186803b15801561075e57600080fd5b505afa158015610772573d6000803e3d6000fd5b505050506040513d602081101561078857600080fd5b5051905060006107966105fe565b905060006107bb6006546107b560055443610b0190919063ffffffff16565b906109dd565b9050818111156107c85750805b60015460048054604080516370a0823160e01b81526001600160a01b0392831693810193909352516108509385939216916370a08231916024808301926020929190829003018186803b15801561081e57600080fd5b505afa158015610832573d6000803e3d6000fd5b505050506040513d602081101561084857600080fd5b505190610b5e565b935050509091565b6001546001600160a01b031681565b6002546001600160a01b031681565b6004546001600160a01b031681565b60055415801590610897575043600554105b156108ca5760006108b96006546107b560055443610b0190919063ffffffff16565b90506108c481610bb8565b50436005555b565b6003546001600160a01b031681565b6108e3610aa6565b6001600160a01b03166108f461067a565b6001600160a01b03161461093d576040805162461bcd60e51b81526020600482018190526024820152600080516020610f96833981519152604482015290519081900360640190fd5b6001600160a01b0381166109825760405162461bcd60e51b8152600401808060200182810382526026815260200180610f296026913960400191505060405180910390fd5b600080546040516001600160a01b03808516939216917f8be0079c531659141344cd1fd0a4f28419497f9722a3daafe3b4186f6b6457e091a3600080546001600160a01b0319166001600160a01b0392909216919091179055565b6000826109ec57506000610a39565b828202828482816109f957fe5b0414610a365760405162461bcd60e51b8152600401808060200182810382526021815260200180610f756021913960400191505060405180910390fd5b90505b92915050565b6000808211610a95576040805162461bcd60e51b815260206004820152601a60248201527f536166654d6174683a206469766973696f6e206279207a65726f000000000000604482015290519081900360640190fd5b818381610a9e57fe5b049392505050565b3390565b604080516001600160a01b038416602482015260448082018490528251808303909101815260649091019091526020810180516001600160e01b031663a9059cbb60e01b179052610afc908490610c58565b505050565b600082821115610b58576040805162461bcd60e51b815260206004820152601e60248201527f536166654d6174683a207375627472616374696f6e206f766572666c6f770000604482015290519081900360640190fd5b50900390565b600082820183811015610a36576040805162461bcd60e51b815260206004820152601b60248201527f536166654d6174683a206164646974696f6e206f766572666c6f770000000000604482015290519081900360640190fd5b6000610bc26105fe565b905080821115610bee57600454600154610be9916001600160a01b03918216911683610aaa565b610c0b565b600454600154610c0b916001600160a01b03918216911684610aaa565b6004546040805184815243602082015281516001600160a01b03909316927f2c57dec1db0095a6b800c2698d5bbceef2c180c6ac43429769a719658983f677929181900390910190a25050565b6060610cad826040518060400160405280602081526020017f5361666545524332303a206c6f772d6c6576656c2063616c6c206661696c6564815250856001600160a01b0316610d099092919063ffffffff16565b805190915015610afc57808060200190516020811015610ccc57600080fd5b5051610afc5760405162461bcd60e51b815260040180806020018281038252602a815260200180610fb6602a913960400191505060405180910390fd5b6060610d188484600085610d22565b90505b9392505050565b606082471015610d635760405162461bcd60e51b8152600401808060200182810382526026815260200180610f4f6026913960400191505060405180910390fd5b610d6c85610e7e565b610dbd576040805162461bcd60e51b815260206004820152601d60248201527f416464726573733a2063616c6c20746f206e6f6e2d636f6e7472616374000000604482015290519081900360640190fd5b60006060866001600160a01b031685876040518082805190602001908083835b60208310610dfc5780518252601f199092019160209182019101610ddd565b6001836020036101000a03801982511681845116808217855250505050505090500191505060006040518083038185875af1925050503d8060008114610e5e576040519150601f19603f3d011682016040523d82523d6000602084013e610e63565b606091505b5091509150610e73828286610e84565b979650505050505050565b3b151590565b60608315610e93575081610d1b565b825115610ea35782518084602001fd5b8160405162461bcd60e51b81526004018080602001828103825283818151815260200191508051906020019080838360005b83811015610eed578181015183820152602001610ed5565b50505050905090810190601f168015610f1a5780820380516001836020036101000a031916815260200191505b509250505060405180910390fdfe4f776e61626c653a206e6577206f776e657220697320746865207a65726f2061646472657373416464726573733a20696e73756666696369656e742062616c616e636520666f722063616c6c536166654d6174683a206d756c7469706c69636174696f6e206f766572666c6f774f776e61626c653a2063616c6c6572206973206e6f7420746865206f776e65725361666545524332303a204552433230206f7065726174696f6e20646964206e6f742073756363656564a2646970667358221220adffbd38ed444d14ebdc4afff2e78314e304913e4d689bc7298d177c7f07ac7f64736f6c634300060c0033",
  "immutableReferences": {},
  "source": "// SPDX-License-Identifier: UNLICENSED\n\npragma solidity 0.6.12;\n\nimport \"@openzeppelin/contracts/token/ERC20/IERC20.sol\";\nimport \"@openzeppelin/contracts/token/ERC20/SafeERC20.sol\";\nimport \"@openzeppelin/contracts/math/SafeMath.sol\";\nimport \"@openzeppelin/contracts/access/Ownable.sol\";\n\ncontract xSafe is Ownable{\n    using SafeMath for uint256;\n    using SafeERC20 for IERC20;\n\n    IERC20 public att;\n    IERC20 public xAtt;\n    address public devAddr;\n    address public attPool;\n    uint256 public kLast;\n    uint256 public attPerBlock;\n\n    event Release(address indexed pool, uint256 releasedAmount, uint256 blockNumber);\n    event EmergencyWithdraw(address indexed user, uint256 amount);\n\n    constructor(IERC20 _att, IERC20 _xAtt, uint256 _attPerBlock, address _devAddr, address _attPool) public {\n        att = _att;\n        xAtt = _xAtt;\n        devAddr = _devAddr;\n        attPerBlock = _attPerBlock;\n        attPool = _attPool;\n    }\n\n    function releaseRewards() external {\n        if (kLast != 0 && kLast < block.number) {\n            uint256 amount = block.number.sub(kLast).mul(attPerBlock);\n            _safeRelease(amount);\n            kLast = block.number;\n        }\n    }\n\n    // EMERGENCY ONLY.\n    function emergencyWithdraw(uint256 _amount) external onlyOwner {\n        att.safeTransfer(address(msg.sender), _amount);\n        emit EmergencyWithdraw(msg.sender, _amount);\n    }\n\n    function updateDev(address _devaddr) external onlyOwner {\n        devAddr = _devaddr;\n    }\n\n    function updateAttPool(address _attPool) external {\n        require(devAddr == msg.sender, \"XSAFE: AUTH_FAILED\");\n        attPool = _attPool;\n    }\n\n    function updateAttPerBlock(uint256 _attPerBlock) external {\n        require(devAddr == msg.sender, \"XSAFE: AUTH_FAILED\");\n        attPerBlock = _attPerBlock;\n    }\n\n    function _safeRelease(uint256 _amount) internal {\n        uint256 attBal = getSafeBalance();\n        if (_amount > attBal) {\n            att.safeTransfer(attPool, attBal);\n        } else {\n            att.safeTransfer(attPool, _amount);\n        }\n        emit Release(attPool, _amount, block.number);\n    }\n    \n    // View functions for frontend.\n    function getUserStat(address who)\n        external\n        view\n        returns (uint256 xBal, uint256 bal)\n    {    \n        xBal = xAtt.balanceOf(who);\n        (uint256 estimatedSupply,uint256 totalShares) = getEstimatedExchangeRate();\n        bal = xBal.mul(estimatedSupply).div(totalShares);\n    }\n\n    function getSafeBalance() public view returns(uint256){\n        return att.balanceOf(address(this));\n    }\n    \n    function getEstimatedExchangeRate() public view returns (uint256 estimatedSupply, uint256 totalShares) {\n        totalShares = xAtt.totalSupply();\n        uint256 attBal = getSafeBalance();\n        uint256 distribution = (block.number.sub(kLast)).mul(attPerBlock);\n        if (distribution > attBal) {\n            distribution = attBal;\n        }\n        estimatedSupply = att.balanceOf(attPool).add(distribution);\n    }\n\n    function toAtt(uint256 xAttAmount) external view returns (uint256 attAmount) {\n        (uint256 estimatedSupply,uint256 totalShares) = getEstimatedExchangeRate();\n        attAmount = (xAttAmount.mul(estimatedSupply)).div(totalShares);\n    }\n\n    function toXAtt(uint256 attAmount) external view returns (uint256 xAttAmount) {\n        (uint256 estimatedSupply,uint256 totalShares) = getEstimatedExchangeRate();\n        xAttAmount = (attAmount.mul(totalShares)).div(estimatedSupply);\n    }\n}\n",
  "sourcePath": "/home/sagar/Desktop/projects/ATT/smart-contracts/Stake/contracts/xSafe.sol",
  "compiler": {
    "name": "solc",
    "version": "0.6.12+commit.27d51765.Emscripten.clang"
  },
  "schemaVersion": "3.3.2",
  "updatedAt": "2021-04-29T12:50:28.570Z",
  "devdoc": {
    "kind": "dev",
    "methods": {
      "owner()": {
        "details": "Returns the address of the current owner."
      },
      "renounceOwnership()": {
        "details": "Leaves the contract without owner. It will not be possible to call `onlyOwner` functions anymore. Can only be called by the current owner. NOTE: Renouncing ownership will leave the contract without an owner, thereby removing any functionality that is only available to the owner."
      },
      "transferOwnership(address)": {
        "details": "Transfers ownership of the contract to a new account (`newOwner`). Can only be called by the current owner."
      }
    },
    "version": 1
  },
  "userdoc": {
    "kind": "user",
    "methods": {},
    "version": 1
  }
}