{
  "contractName": "xSafe",
  "abi": [
    {
      "inputs": [
        {
          "internalType": "uint256",
          "name": "_attPerBlock",
          "type": "uint256"
        }
      ],
      "stateMutability": "nonpayable",
      "type": "constructor"
    },
    {
      "anonymous": false,
      "inputs": [
        {
          "indexed": true,
          "internalType": "address",
          "name": "user",
          "type": "address"
        },
        {
          "indexed": false,
          "internalType": "uint256",
          "name": "amount",
          "type": "uint256"
        }
      ],
      "name": "EmergencyWithdraw",
      "type": "event"
    },
    {
      "anonymous": false,
      "inputs": [
        {
          "indexed": true,
          "internalType": "address",
          "name": "previousOwner",
          "type": "address"
        },
        {
          "indexed": true,
          "internalType": "address",
          "name": "newOwner",
          "type": "address"
        }
      ],
      "name": "OwnershipTransferred",
      "type": "event"
    },
    {
      "anonymous": false,
      "inputs": [
        {
          "indexed": true,
          "internalType": "address",
          "name": "pool",
          "type": "address"
        },
        {
          "indexed": false,
          "internalType": "uint256",
          "name": "releasedAmount",
          "type": "uint256"
        },
        {
          "indexed": false,
          "internalType": "uint256",
          "name": "blockNumber",
          "type": "uint256"
        }
      ],
      "name": "Release",
      "type": "event"
    },
    {
      "inputs": [],
      "name": "att",
      "outputs": [
        {
          "internalType": "contract IERC20",
          "name": "",
          "type": "address"
        }
      ],
      "stateMutability": "view",
      "type": "function"
    },
    {
      "inputs": [],
      "name": "attPerBlock",
      "outputs": [
        {
          "internalType": "uint256",
          "name": "",
          "type": "uint256"
        }
      ],
      "stateMutability": "view",
      "type": "function"
    },
    {
      "inputs": [],
      "name": "attPool",
      "outputs": [
        {
          "internalType": "address",
          "name": "",
          "type": "address"
        }
      ],
      "stateMutability": "view",
      "type": "function"
    },
    {
      "inputs": [],
      "name": "kLast",
      "outputs": [
        {
          "internalType": "uint256",
          "name": "",
          "type": "uint256"
        }
      ],
      "stateMutability": "view",
      "type": "function"
    },
    {
      "inputs": [],
      "name": "owner",
      "outputs": [
        {
          "internalType": "address",
          "name": "",
          "type": "address"
        }
      ],
      "stateMutability": "view",
      "type": "function"
    },
    {
      "inputs": [],
      "name": "renounceOwnership",
      "outputs": [],
      "stateMutability": "nonpayable",
      "type": "function"
    },
    {
      "inputs": [
        {
          "internalType": "address",
          "name": "newOwner",
          "type": "address"
        }
      ],
      "name": "transferOwnership",
      "outputs": [],
      "stateMutability": "nonpayable",
      "type": "function"
    },
    {
      "inputs": [],
      "name": "xAtt",
      "outputs": [
        {
          "internalType": "contract IERC20",
          "name": "",
          "type": "address"
        }
      ],
      "stateMutability": "view",
      "type": "function"
    },
    {
      "inputs": [],
      "name": "releaseRewards",
      "outputs": [],
      "stateMutability": "nonpayable",
      "type": "function"
    },
    {
      "inputs": [
        {
          "internalType": "uint256",
          "name": "_amount",
          "type": "uint256"
        }
      ],
      "name": "emergencyWithdraw",
      "outputs": [],
      "stateMutability": "nonpayable",
      "type": "function"
    },
    {
      "inputs": [
        {
          "internalType": "contract IERC20",
          "name": "_att",
          "type": "address"
        }
      ],
      "name": "updateAtt",
      "outputs": [],
      "stateMutability": "nonpayable",
      "type": "function"
    },
    {
      "inputs": [
        {
          "internalType": "contract IERC20",
          "name": "_xAtt",
          "type": "address"
        }
      ],
      "name": "updateXAtt",
      "outputs": [],
      "stateMutability": "nonpayable",
      "type": "function"
    },
    {
      "inputs": [
        {
          "internalType": "address",
          "name": "_attPool",
          "type": "address"
        }
      ],
      "name": "updateAttPool",
      "outputs": [],
      "stateMutability": "nonpayable",
      "type": "function"
    },
    {
      "inputs": [
        {
          "internalType": "uint256",
          "name": "_attPerBlock",
          "type": "uint256"
        }
      ],
      "name": "updateAttPerBlock",
      "outputs": [],
      "stateMutability": "nonpayable",
      "type": "function"
    },
    {
      "inputs": [
        {
          "internalType": "address",
          "name": "who",
          "type": "address"
        }
      ],
      "name": "getUserStat",
      "outputs": [
        {
          "internalType": "uint256",
          "name": "xBal",
          "type": "uint256"
        },
        {
          "internalType": "uint256",
          "name": "bal",
          "type": "uint256"
        }
      ],
      "stateMutability": "view",
      "type": "function"
    },
    {
      "inputs": [],
      "name": "getEstimatedExchangeRate",
      "outputs": [
        {
          "internalType": "uint256",
          "name": "estimatedSupply",
          "type": "uint256"
        },
        {
          "internalType": "uint256",
          "name": "totalShares",
          "type": "uint256"
        }
      ],
      "stateMutability": "view",
      "type": "function"
    },
    {
      "inputs": [
        {
          "internalType": "uint256",
          "name": "xAttAmount",
          "type": "uint256"
        }
      ],
      "name": "toAtt",
      "outputs": [
        {
          "internalType": "uint256",
          "name": "attAmount",
          "type": "uint256"
        }
      ],
      "stateMutability": "view",
      "type": "function"
    },
    {
      "inputs": [
        {
          "internalType": "uint256",
          "name": "attAmount",
          "type": "uint256"
        }
      ],
      "name": "toXAtt",
      "outputs": [
        {
          "internalType": "uint256",
          "name": "xAttAmount",
          "type": "uint256"
        }
      ],
      "stateMutability": "view",
      "type": "function"
    },
    {
      "inputs": [],
      "name": "getAttPoolBalance",
      "outputs": [
        {
          "internalType": "uint256",
          "name": "",
          "type": "uint256"
        }
      ],
      "stateMutability": "view",
      "type": "function"
    },
    {
      "inputs": [],
      "name": "getXsafeBalance",
      "outputs": [
        {
          "internalType": "uint256",
          "name": "",
          "type": "uint256"
        }
      ],
      "stateMutability": "view",
      "type": "function"
    },
    {
      "inputs": [],
      "name": "xattSupply",
      "outputs": [
        {
          "internalType": "uint256",
          "name": "",
          "type": "uint256"
        }
      ],
      "stateMutability": "view",
      "type": "function"
    }
  ],
  "bytecode": "0x608060405234801561001057600080fd5b5060405161113f38038061113f8339818101604052602081101561003357600080fd5b5051600061003f610091565b600080546001600160a01b0319166001600160a01b0383169081178255604051929350917f8be0079c531659141344cd1fd0a4f28419497f9722a3daafe3b4186f6b6457e0908290a350600555610095565b3390565b61109b806100a46000396000f3fe608060405234801561001057600080fd5b50600436106101375760003560e01c806377975561116100b8578063ba36f4231161007c578063ba36f423146102ab578063bbfbf81a146102b3578063c275bbb6146102bb578063cb4e8a03146102c3578063d0fab3ca146102e9578063f2fde38b146102f157610137565b8063779755611461023457806378f7a3a71461023c5780638da5cb5b14610259578063a48c0c441461027d578063b3a1eddf146102a357610137565b80635312ea8e116100ff5780635312ea8e146101c057806363f6d099146101dd57806370535366146101e5578063715018a6146102245780637464fc3d1461022c57610137565b80630c59fab51461013c57806320b47ab61461015b57806344d4dd7d14610181578063491d783f1461019b5780634f2683ae146101b8575b600080fd5b6101596004803603602081101561015257600080fd5b5035610317565b005b6101596004803603602081101561017157600080fd5b50356001600160a01b031661037e565b610189610402565b60408051918252519081900360200190f35b610189600480360360208110156101b157600080fd5b5035610478565b6101896104a6565b610159600480360360208110156101d657600080fd5b50356104ac565b61018961055e565b61020b600480360360208110156101fb57600080fd5b50356001600160a01b03166105a9565b6040805192835260208301919091528051918290030190f35b61015961064d565b6101896106f9565b6101896106ff565b6101896004803603602081101561025257600080fd5b5035610753565b610261610773565b604080516001600160a01b039092168252519081900360200190f35b6101596004803603602081101561029357600080fd5b50356001600160a01b0316610782565b61020b610806565b610261610869565b610261610878565b610261610887565b610159600480360360208110156102d957600080fd5b50356001600160a01b0316610896565b61015961091a565b6101596004803603602081101561030757600080fd5b50356001600160a01b0316610961565b61031f610a63565b6001600160a01b0316610330610773565b6001600160a01b031614610379576040805162461bcd60e51b8152602060048201819052602482015260008051602061101c833981519152604482015290519081900360640190fd5b600555565b610386610a63565b6001600160a01b0316610397610773565b6001600160a01b0316146103e0576040805162461bcd60e51b8152602060048201819052602482015260008051602061101c833981519152604482015290519081900360640190fd5b600380546001600160a01b0319166001600160a01b0392909216919091179055565b600254604080516318160ddd60e01b815290516000926001600160a01b0316916318160ddd916004808301926020929190829003018186803b15801561044757600080fd5b505afa15801561045b573d6000803e3d6000fd5b505050506040513d602081101561047157600080fd5b5051905090565b6000806000610485610806565b909250905061049e826104988684610a67565b90610ac9565b949350505050565b60055481565b6104b4610a63565b6001600160a01b03166104c5610773565b6001600160a01b03161461050e576040805162461bcd60e51b8152602060048201819052602482015260008051602061101c833981519152604482015290519081900360640190fd5b600154610525906001600160a01b03163383610b30565b60408051828152905133917f5fafa99d0643513820be26656b45130b01e1c03062e1266bf36f88cbd3bd9695919081900360200190a250565b600154604080516370a0823160e01b815230600482015290516000926001600160a01b0316916370a08231916024808301926020929190829003018186803b15801561044757600080fd5b600254604080516370a0823160e01b81526001600160a01b0384811660048301529151600093849316916370a08231916024808301926020929190829003018186803b1580156105f857600080fd5b505afa15801561060c573d6000803e3d6000fd5b505050506040513d602081101561062257600080fd5b50519150600080610631610806565b9092509050610644816104988685610a67565b92505050915091565b610655610a63565b6001600160a01b0316610666610773565b6001600160a01b0316146106af576040805162461bcd60e51b8152602060048201819052602482015260008051602061101c833981519152604482015290519081900360640190fd5b600080546040516001600160a01b03909116907f8be0079c531659141344cd1fd0a4f28419497f9722a3daafe3b4186f6b6457e0908390a3600080546001600160a01b0319169055565b60045481565b600154600354604080516370a0823160e01b81526001600160a01b039283166004820152905160009392909216916370a0823191602480820192602092909190829003018186803b15801561044757600080fd5b6000806000610760610806565b909250905061049e816104988685610a67565b6000546001600160a01b031690565b61078a610a63565b6001600160a01b031661079b610773565b6001600160a01b0316146107e4576040805162461bcd60e51b8152602060048201819052602482015260008051602061101c833981519152604482015290519081900360640190fd5b600180546001600160a01b0319166001600160a01b0392909216919091179055565b600080610811610402565b9050600061081d61055e565b9050600061084260055461083c60045443610b8790919063ffffffff16565b90610a67565b90508181111561084f5750805b6108618161085b6106ff565b90610be4565b935050509091565b6001546001600160a01b031681565b6002546001600160a01b031681565b6003546001600160a01b031681565b61089e610a63565b6001600160a01b03166108af610773565b6001600160a01b0316146108f8576040805162461bcd60e51b8152602060048201819052602482015260008051602061101c833981519152604482015290519081900360640190fd5b600280546001600160a01b0319166001600160a01b0392909216919091179055565b6004541580159061092c575043600454105b1561095f57600061094e60055461083c60045443610b8790919063ffffffff16565b905061095981610c3e565b50436004555b565b610969610a63565b6001600160a01b031661097a610773565b6001600160a01b0316146109c3576040805162461bcd60e51b8152602060048201819052602482015260008051602061101c833981519152604482015290519081900360640190fd5b6001600160a01b038116610a085760405162461bcd60e51b8152600401808060200182810382526026815260200180610faf6026913960400191505060405180910390fd5b600080546040516001600160a01b03808516939216917f8be0079c531659141344cd1fd0a4f28419497f9722a3daafe3b4186f6b6457e091a3600080546001600160a01b0319166001600160a01b0392909216919091179055565b3390565b600082610a7657506000610ac3565b82820282848281610a8357fe5b0414610ac05760405162461bcd60e51b8152600401808060200182810382526021815260200180610ffb6021913960400191505060405180910390fd5b90505b92915050565b6000808211610b1f576040805162461bcd60e51b815260206004820152601a60248201527f536166654d6174683a206469766973696f6e206279207a65726f000000000000604482015290519081900360640190fd5b818381610b2857fe5b049392505050565b604080516001600160a01b038416602482015260448082018490528251808303909101815260649091019091526020810180516001600160e01b031663a9059cbb60e01b179052610b82908490610cde565b505050565b600082821115610bde576040805162461bcd60e51b815260206004820152601e60248201527f536166654d6174683a207375627472616374696f6e206f766572666c6f770000604482015290519081900360640190fd5b50900390565b600082820183811015610ac0576040805162461bcd60e51b815260206004820152601b60248201527f536166654d6174683a206164646974696f6e206f766572666c6f770000000000604482015290519081900360640190fd5b6000610c4861055e565b905080821115610c7457600354600154610c6f916001600160a01b03918216911683610b30565b610c91565b600354600154610c91916001600160a01b03918216911684610b30565b6003546040805184815243602082015281516001600160a01b03909316927f2c57dec1db0095a6b800c2698d5bbceef2c180c6ac43429769a719658983f677929181900390910190a25050565b6060610d33826040518060400160405280602081526020017f5361666545524332303a206c6f772d6c6576656c2063616c6c206661696c6564815250856001600160a01b0316610d8f9092919063ffffffff16565b805190915015610b8257808060200190516020811015610d5257600080fd5b5051610b825760405162461bcd60e51b815260040180806020018281038252602a81526020018061103c602a913960400191505060405180910390fd5b6060610d9e8484600085610da8565b90505b9392505050565b606082471015610de95760405162461bcd60e51b8152600401808060200182810382526026815260200180610fd56026913960400191505060405180910390fd5b610df285610f04565b610e43576040805162461bcd60e51b815260206004820152601d60248201527f416464726573733a2063616c6c20746f206e6f6e2d636f6e7472616374000000604482015290519081900360640190fd5b60006060866001600160a01b031685876040518082805190602001908083835b60208310610e825780518252601f199092019160209182019101610e63565b6001836020036101000a03801982511681845116808217855250505050505090500191505060006040518083038185875af1925050503d8060008114610ee4576040519150601f19603f3d011682016040523d82523d6000602084013e610ee9565b606091505b5091509150610ef9828286610f0a565b979650505050505050565b3b151590565b60608315610f19575081610da1565b825115610f295782518084602001fd5b8160405162461bcd60e51b81526004018080602001828103825283818151815260200191508051906020019080838360005b83811015610f73578181015183820152602001610f5b565b50505050905090810190601f168015610fa05780820380516001836020036101000a031916815260200191505b509250505060405180910390fdfe4f776e61626c653a206e6577206f776e657220697320746865207a65726f2061646472657373416464726573733a20696e73756666696369656e742062616c616e636520666f722063616c6c536166654d6174683a206d756c7469706c69636174696f6e206f766572666c6f774f776e61626c653a2063616c6c6572206973206e6f7420746865206f776e65725361666545524332303a204552433230206f7065726174696f6e20646964206e6f742073756363656564a26469706673582212200134669048a7ab9aeaa39a63372c03e1aa7ba9bcc37f0b3548ff57e051b4e15364736f6c634300060c0033",
  "immutableReferences": {},
  "source": "// SPDX-License-Identifier: UNLICENSED\n\npragma solidity 0.6.12;\n\nimport \"@openzeppelin/contracts/token/ERC20/IERC20.sol\";\nimport \"@openzeppelin/contracts/token/ERC20/SafeERC20.sol\";\nimport \"@openzeppelin/contracts/math/SafeMath.sol\";\nimport \"@openzeppelin/contracts/access/Ownable.sol\";\n\ncontract xSafe is Ownable{\n    using SafeMath for uint256;\n    using SafeERC20 for IERC20;\n\n    IERC20 public att;\n    IERC20 public xAtt;\n    address public attPool;\n    uint256 public kLast;\n    uint256 public attPerBlock;\n\n    event Release(address indexed pool, uint256 releasedAmount, uint256 blockNumber);\n    event EmergencyWithdraw(address indexed user, uint256 amount);\n\n    constructor(  uint256 _attPerBlock) public {\n        attPerBlock = _attPerBlock;\n    }\n\n    function releaseRewards() external {\n        if (kLast != 0 && kLast < block.number) {\n            uint256 amount = block.number.sub(kLast).mul(attPerBlock);\n            _safeRelease(amount);\n            kLast = block.number;\n        }\n    }\n\n    function _safeRelease(uint256 _amount) internal {\n        uint256 attBal = getXsafeBalance();\n        if (_amount > attBal) {\n            att.safeTransfer(attPool, attBal);\n        } else {\n            att.safeTransfer(attPool, _amount);\n        }\n        emit Release(attPool, _amount, block.number);\n    }\n\n    // EMERGENCY ONLY.\n    function emergencyWithdraw(uint256 _amount) external onlyOwner {\n        att.safeTransfer(address(msg.sender), _amount);\n        emit EmergencyWithdraw(msg.sender, _amount);\n    }\n\n    function updateAtt(IERC20 _att) external onlyOwner {\n        att = _att;\n    }\n\n    function updateXAtt(IERC20 _xAtt) external onlyOwner {\n        xAtt = _xAtt;\n    }\n\n    function updateAttPool(address _attPool) external onlyOwner{\n        attPool = _attPool;\n    }\n\n    function updateAttPerBlock(uint256 _attPerBlock) external onlyOwner{\n        attPerBlock = _attPerBlock;\n    }\n    \n    // View functions for frontend.\n    function getUserStat(address who)\n        external\n        view\n        returns (uint256 xBal, uint256 bal)\n    {    \n        xBal = xAtt.balanceOf(who);\n        (uint256 estimatedSupply,uint256 totalShares) = getEstimatedExchangeRate();\n        bal = xBal.mul(estimatedSupply).div(totalShares);\n    }\n    \n    function getEstimatedExchangeRate() public view returns (uint256 estimatedSupply, uint256 totalShares) {\n        totalShares = xattSupply();\n        uint256 attBal = getXsafeBalance();\n        uint256 distribution = (block.number.sub(kLast)).mul(attPerBlock);\n        if (distribution > attBal) {\n            distribution = attBal;\n        }\n        estimatedSupply = (getAttPoolBalance()).add(distribution);\n    }\n\n    function toAtt(uint256 xAttAmount) external view returns (uint256 attAmount) {\n        (uint256 estimatedSupply,uint256 totalShares) = getEstimatedExchangeRate();\n        attAmount = (xAttAmount.mul(estimatedSupply)).div(totalShares);\n    }\n\n    function toXAtt(uint256 attAmount) external view returns (uint256 xAttAmount) {\n        (uint256 estimatedSupply,uint256 totalShares) = getEstimatedExchangeRate();\n        xAttAmount = (attAmount.mul(totalShares)).div(estimatedSupply);\n    }\n\n    function getAttPoolBalance() public view returns(uint256){\n        return att.balanceOf(attPool);\n    }\n\n    function getXsafeBalance() public view returns(uint256){\n        return att.balanceOf(address(this));\n    }\n\n    function xattSupply() public view returns(uint256){\n        return xAtt.totalSupply();\n    }\n\n}\n",
  "sourcePath": "/home/sagar/Desktop/projects/ATT/smart-contracts/Stake/contracts/xSafe.sol",
  "compiler": {
    "name": "solc",
    "version": "0.6.12+commit.27d51765.Emscripten.clang"
  },
  "schemaVersion": "3.3.2",
  "updatedAt": "2021-04-30T20:24:10.265Z",
  "devdoc": {
    "kind": "dev",
    "methods": {
      "owner()": {
        "details": "Returns the address of the current owner."
      },
      "renounceOwnership()": {
        "details": "Leaves the contract without owner. It will not be possible to call `onlyOwner` functions anymore. Can only be called by the current owner. NOTE: Renouncing ownership will leave the contract without an owner, thereby removing any functionality that is only available to the owner."
      },
      "transferOwnership(address)": {
        "details": "Transfers ownership of the contract to a new account (`newOwner`). Can only be called by the current owner."
      }
    },
    "version": 1
  },
  "userdoc": {
    "kind": "user",
    "methods": {},
    "version": 1
  }
}