{
  "contractName": "xSafe",
  "abi": [
    {
      "inputs": [
        {
          "internalType": "contract IERC20",
          "name": "_att",
          "type": "address"
        },
        {
          "internalType": "contract IERC20",
          "name": "_xAtt",
          "type": "address"
        },
        {
          "internalType": "uint256",
          "name": "_attPerBlock",
          "type": "uint256"
        },
        {
          "internalType": "address",
          "name": "_devAddr",
          "type": "address"
        },
        {
          "internalType": "address",
          "name": "_attPool",
          "type": "address"
        }
      ],
      "stateMutability": "nonpayable",
      "type": "constructor"
    },
    {
      "anonymous": false,
      "inputs": [
        {
          "indexed": true,
          "internalType": "address",
          "name": "user",
          "type": "address"
        },
        {
          "indexed": false,
          "internalType": "uint256",
          "name": "amount",
          "type": "uint256"
        }
      ],
      "name": "EmergencyWithdraw",
      "type": "event"
    },
    {
      "anonymous": false,
      "inputs": [
        {
          "indexed": true,
          "internalType": "address",
          "name": "previousOwner",
          "type": "address"
        },
        {
          "indexed": true,
          "internalType": "address",
          "name": "newOwner",
          "type": "address"
        }
      ],
      "name": "OwnershipTransferred",
      "type": "event"
    },
    {
      "anonymous": false,
      "inputs": [
        {
          "indexed": true,
          "internalType": "address",
          "name": "pool",
          "type": "address"
        },
        {
          "indexed": false,
          "internalType": "uint256",
          "name": "releasedAmount",
          "type": "uint256"
        },
        {
          "indexed": false,
          "internalType": "uint256",
          "name": "blockNumber",
          "type": "uint256"
        }
      ],
      "name": "Release",
      "type": "event"
    },
    {
      "inputs": [],
      "name": "att",
      "outputs": [
        {
          "internalType": "contract IERC20",
          "name": "",
          "type": "address"
        }
      ],
      "stateMutability": "view",
      "type": "function"
    },
    {
      "inputs": [],
      "name": "attPerBlock",
      "outputs": [
        {
          "internalType": "uint256",
          "name": "",
          "type": "uint256"
        }
      ],
      "stateMutability": "view",
      "type": "function"
    },
    {
      "inputs": [],
      "name": "attPool",
      "outputs": [
        {
          "internalType": "address",
          "name": "",
          "type": "address"
        }
      ],
      "stateMutability": "view",
      "type": "function"
    },
    {
      "inputs": [],
      "name": "devAddr",
      "outputs": [
        {
          "internalType": "address",
          "name": "",
          "type": "address"
        }
      ],
      "stateMutability": "view",
      "type": "function"
    },
    {
      "inputs": [],
      "name": "kLast",
      "outputs": [
        {
          "internalType": "uint256",
          "name": "",
          "type": "uint256"
        }
      ],
      "stateMutability": "view",
      "type": "function"
    },
    {
      "inputs": [],
      "name": "owner",
      "outputs": [
        {
          "internalType": "address",
          "name": "",
          "type": "address"
        }
      ],
      "stateMutability": "view",
      "type": "function"
    },
    {
      "inputs": [],
      "name": "renounceOwnership",
      "outputs": [],
      "stateMutability": "nonpayable",
      "type": "function"
    },
    {
      "inputs": [
        {
          "internalType": "address",
          "name": "newOwner",
          "type": "address"
        }
      ],
      "name": "transferOwnership",
      "outputs": [],
      "stateMutability": "nonpayable",
      "type": "function"
    },
    {
      "inputs": [],
      "name": "xAtt",
      "outputs": [
        {
          "internalType": "contract IERC20",
          "name": "",
          "type": "address"
        }
      ],
      "stateMutability": "view",
      "type": "function"
    },
    {
      "inputs": [],
      "name": "releaseRewards",
      "outputs": [],
      "stateMutability": "nonpayable",
      "type": "function"
    },
    {
      "inputs": [
        {
          "internalType": "uint256",
          "name": "_amount",
          "type": "uint256"
        }
      ],
      "name": "emergencyWithdraw",
      "outputs": [],
      "stateMutability": "nonpayable",
      "type": "function"
    },
    {
      "inputs": [
        {
          "internalType": "address",
          "name": "_devaddr",
          "type": "address"
        }
      ],
      "name": "updateDev",
      "outputs": [],
      "stateMutability": "nonpayable",
      "type": "function"
    },
    {
      "inputs": [
        {
          "internalType": "address",
          "name": "_attPool",
          "type": "address"
        }
      ],
      "name": "updateAttPool",
      "outputs": [],
      "stateMutability": "nonpayable",
      "type": "function"
    },
    {
      "inputs": [
        {
          "internalType": "uint256",
          "name": "_attPerBlock",
          "type": "uint256"
        }
      ],
      "name": "updateAttPerBlock",
      "outputs": [],
      "stateMutability": "nonpayable",
      "type": "function"
    },
    {
      "inputs": [
        {
          "internalType": "address",
          "name": "who",
          "type": "address"
        }
      ],
      "name": "getUserStat",
      "outputs": [
        {
          "internalType": "uint256",
          "name": "xBal",
          "type": "uint256"
        },
        {
          "internalType": "uint256",
          "name": "bal",
          "type": "uint256"
        }
      ],
      "stateMutability": "view",
      "type": "function"
    },
    {
      "inputs": [],
      "name": "getXsafeBalance",
      "outputs": [
        {
          "internalType": "uint256",
          "name": "",
          "type": "uint256"
        }
      ],
      "stateMutability": "view",
      "type": "function"
    },
    {
      "inputs": [],
      "name": "getEstimatedExchangeRate",
      "outputs": [
        {
          "internalType": "uint256",
          "name": "estimatedSupply",
          "type": "uint256"
        },
        {
          "internalType": "uint256",
          "name": "totalShares",
          "type": "uint256"
        }
      ],
      "stateMutability": "view",
      "type": "function"
    },
    {
      "inputs": [
        {
          "internalType": "uint256",
          "name": "xAttAmount",
          "type": "uint256"
        }
      ],
      "name": "toAtt",
      "outputs": [
        {
          "internalType": "uint256",
          "name": "attAmount",
          "type": "uint256"
        }
      ],
      "stateMutability": "view",
      "type": "function"
    },
    {
      "inputs": [
        {
          "internalType": "uint256",
          "name": "attAmount",
          "type": "uint256"
        }
      ],
      "name": "toXAtt",
      "outputs": [
        {
          "internalType": "uint256",
          "name": "xAttAmount",
          "type": "uint256"
        }
      ],
      "stateMutability": "view",
      "type": "function"
    },
    {
      "inputs": [],
      "name": "getAttPoolBalance",
      "outputs": [
        {
          "internalType": "uint256",
          "name": "",
          "type": "uint256"
        }
      ],
      "stateMutability": "view",
      "type": "function"
    },
    {
      "inputs": [],
      "name": "xattSupply",
      "outputs": [
        {
          "internalType": "uint256",
          "name": "",
          "type": "uint256"
        }
      ],
      "stateMutability": "view",
      "type": "function"
    }
  ],
  "bytecode": "0x608060405234801561001057600080fd5b506040516110ff3803806110ff833981810160405260a081101561003357600080fd5b50805160208201516040830151606084015160809094015192939192909190600061005c6100ff565b600080546001600160a01b0319166001600160a01b0383169081178255604051929350917f8be0079c531659141344cd1fd0a4f28419497f9722a3daafe3b4186f6b6457e0908290a350600180546001600160a01b039687166001600160a01b0319918216179091556002805495871695821695909517909455600380549286169285169290921790915560069190915560048054919093169116179055610103565b3390565b610fed806101126000396000f3fe608060405234801561001057600080fd5b50600436106101375760003560e01c806377975561116100b8578063ba36f4231161007c578063ba36f423146102ab578063bbfbf81a146102b3578063c275bbb6146102bb578063d0fab3ca146102c3578063da09c72c146102cb578063f2fde38b146102d357610137565b8063779755611461023457806378f7a3a71461023c5780638da5cb5b14610259578063934c19381461027d578063b3a1eddf146102a357610137565b80635312ea8e116100ff5780635312ea8e146101c057806363f6d099146101dd57806370535366146101e5578063715018a6146102245780637464fc3d1461022c57610137565b80630c59fab51461013c57806320b47ab61461015b57806344d4dd7d14610181578063491d783f1461019b5780634f2683ae146101b8575b600080fd5b6101596004803603602081101561015257600080fd5b50356102f9565b005b6101596004803603602081101561017157600080fd5b50356001600160a01b0316610352565b6101896103c8565b60408051918252519081900360200190f35b610189600480360360208110156101b157600080fd5b503561043e565b61018961046c565b610159600480360360208110156101d657600080fd5b5035610472565b610189610524565b61020b600480360360208110156101fb57600080fd5b50356001600160a01b031661056f565b6040805192835260208301919091528051918290030190f35b610159610613565b6101896106bf565b6101896106c5565b6101896004803603602081101561025257600080fd5b503561071a565b61026161073a565b604080516001600160a01b039092168252519081900360200190f35b6101596004803603602081101561029357600080fd5b50356001600160a01b0316610749565b61020b6107cd565b610261610830565b61026161083f565b61026161084e565b61015961085d565b6102616108a4565b610159600480360360208110156102e957600080fd5b50356001600160a01b03166108b3565b6003546001600160a01b0316331461034d576040805162461bcd60e51b81526020600482015260126024820152711614d051914e881055551217d1905253115160721b604482015290519081900360640190fd5b600655565b6003546001600160a01b031633146103a6576040805162461bcd60e51b81526020600482015260126024820152711614d051914e881055551217d1905253115160721b604482015290519081900360640190fd5b600480546001600160a01b0319166001600160a01b0392909216919091179055565b600254604080516318160ddd60e01b815290516000926001600160a01b0316916318160ddd916004808301926020929190829003018186803b15801561040d57600080fd5b505afa158015610421573d6000803e3d6000fd5b505050506040513d602081101561043757600080fd5b5051905090565b600080600061044b6107cd565b90925090506104648261045e86846109b5565b90610a17565b949350505050565b60065481565b61047a610a7e565b6001600160a01b031661048b61073a565b6001600160a01b0316146104d4576040805162461bcd60e51b81526020600482018190526024820152600080516020610f6e833981519152604482015290519081900360640190fd5b6001546104eb906001600160a01b03163383610a82565b60408051828152905133917f5fafa99d0643513820be26656b45130b01e1c03062e1266bf36f88cbd3bd9695919081900360200190a250565b600154604080516370a0823160e01b815230600482015290516000926001600160a01b0316916370a08231916024808301926020929190829003018186803b15801561040d57600080fd5b600254604080516370a0823160e01b81526001600160a01b0384811660048301529151600093849316916370a08231916024808301926020929190829003018186803b1580156105be57600080fd5b505afa1580156105d2573d6000803e3d6000fd5b505050506040513d60208110156105e857600080fd5b505191506000806105f76107cd565b909250905061060a8161045e86856109b5565b92505050915091565b61061b610a7e565b6001600160a01b031661062c61073a565b6001600160a01b031614610675576040805162461bcd60e51b81526020600482018190526024820152600080516020610f6e833981519152604482015290519081900360640190fd5b600080546040516001600160a01b03909116907f8be0079c531659141344cd1fd0a4f28419497f9722a3daafe3b4186f6b6457e0908390a3600080546001600160a01b0319169055565b60055481565b60015460048054604080516370a0823160e01b81526001600160a01b03928316938101939093525160009391909116916370a08231916024808301926020929190829003018186803b15801561040d57600080fd5b60008060006107276107cd565b90925090506104648161045e86856109b5565b6000546001600160a01b031690565b610751610a7e565b6001600160a01b031661076261073a565b6001600160a01b0316146107ab576040805162461bcd60e51b81526020600482018190526024820152600080516020610f6e833981519152604482015290519081900360640190fd5b600380546001600160a01b0319166001600160a01b0392909216919091179055565b6000806107d86103c8565b905060006107e4610524565b9050600061080960065461080360055443610ad990919063ffffffff16565b906109b5565b9050818111156108165750805b610828816108226106c5565b90610b36565b935050509091565b6001546001600160a01b031681565b6002546001600160a01b031681565b6004546001600160a01b031681565b6005541580159061086f575043600554105b156108a257600061089160065461080360055443610ad990919063ffffffff16565b905061089c81610b90565b50436005555b565b6003546001600160a01b031681565b6108bb610a7e565b6001600160a01b03166108cc61073a565b6001600160a01b031614610915576040805162461bcd60e51b81526020600482018190526024820152600080516020610f6e833981519152604482015290519081900360640190fd5b6001600160a01b03811661095a5760405162461bcd60e51b8152600401808060200182810382526026815260200180610f016026913960400191505060405180910390fd5b600080546040516001600160a01b03808516939216917f8be0079c531659141344cd1fd0a4f28419497f9722a3daafe3b4186f6b6457e091a3600080546001600160a01b0319166001600160a01b0392909216919091179055565b6000826109c457506000610a11565b828202828482816109d157fe5b0414610a0e5760405162461bcd60e51b8152600401808060200182810382526021815260200180610f4d6021913960400191505060405180910390fd5b90505b92915050565b6000808211610a6d576040805162461bcd60e51b815260206004820152601a60248201527f536166654d6174683a206469766973696f6e206279207a65726f000000000000604482015290519081900360640190fd5b818381610a7657fe5b049392505050565b3390565b604080516001600160a01b038416602482015260448082018490528251808303909101815260649091019091526020810180516001600160e01b031663a9059cbb60e01b179052610ad4908490610c30565b505050565b600082821115610b30576040805162461bcd60e51b815260206004820152601e60248201527f536166654d6174683a207375627472616374696f6e206f766572666c6f770000604482015290519081900360640190fd5b50900390565b600082820183811015610a0e576040805162461bcd60e51b815260206004820152601b60248201527f536166654d6174683a206164646974696f6e206f766572666c6f770000000000604482015290519081900360640190fd5b6000610b9a610524565b905080821115610bc657600454600154610bc1916001600160a01b03918216911683610a82565b610be3565b600454600154610be3916001600160a01b03918216911684610a82565b6004546040805184815243602082015281516001600160a01b03909316927f2c57dec1db0095a6b800c2698d5bbceef2c180c6ac43429769a719658983f677929181900390910190a25050565b6060610c85826040518060400160405280602081526020017f5361666545524332303a206c6f772d6c6576656c2063616c6c206661696c6564815250856001600160a01b0316610ce19092919063ffffffff16565b805190915015610ad457808060200190516020811015610ca457600080fd5b5051610ad45760405162461bcd60e51b815260040180806020018281038252602a815260200180610f8e602a913960400191505060405180910390fd5b6060610cf08484600085610cfa565b90505b9392505050565b606082471015610d3b5760405162461bcd60e51b8152600401808060200182810382526026815260200180610f276026913960400191505060405180910390fd5b610d4485610e56565b610d95576040805162461bcd60e51b815260206004820152601d60248201527f416464726573733a2063616c6c20746f206e6f6e2d636f6e7472616374000000604482015290519081900360640190fd5b60006060866001600160a01b031685876040518082805190602001908083835b60208310610dd45780518252601f199092019160209182019101610db5565b6001836020036101000a03801982511681845116808217855250505050505090500191505060006040518083038185875af1925050503d8060008114610e36576040519150601f19603f3d011682016040523d82523d6000602084013e610e3b565b606091505b5091509150610e4b828286610e5c565b979650505050505050565b3b151590565b60608315610e6b575081610cf3565b825115610e7b5782518084602001fd5b8160405162461bcd60e51b81526004018080602001828103825283818151815260200191508051906020019080838360005b83811015610ec5578181015183820152602001610ead565b50505050905090810190601f168015610ef25780820380516001836020036101000a031916815260200191505b509250505060405180910390fdfe4f776e61626c653a206e6577206f776e657220697320746865207a65726f2061646472657373416464726573733a20696e73756666696369656e742062616c616e636520666f722063616c6c536166654d6174683a206d756c7469706c69636174696f6e206f766572666c6f774f776e61626c653a2063616c6c6572206973206e6f7420746865206f776e65725361666545524332303a204552433230206f7065726174696f6e20646964206e6f742073756363656564a2646970667358221220e09b973c1269e3a6de61c4ac6d4acb47d21d10a1a29646826be6f16b503f7a9864736f6c634300060c0033",
  "immutableReferences": {},
  "source": "// SPDX-License-Identifier: UNLICENSED\n\npragma solidity 0.6.12;\n\nimport \"@openzeppelin/contracts/token/ERC20/IERC20.sol\";\nimport \"@openzeppelin/contracts/token/ERC20/SafeERC20.sol\";\nimport \"@openzeppelin/contracts/math/SafeMath.sol\";\nimport \"@openzeppelin/contracts/access/Ownable.sol\";\n\ncontract xSafe is Ownable{\n    using SafeMath for uint256;\n    using SafeERC20 for IERC20;\n\n    IERC20 public att;\n    IERC20 public xAtt;\n    address public devAddr;\n    address public attPool;\n    uint256 public kLast;\n    uint256 public attPerBlock;\n\n    event Release(address indexed pool, uint256 releasedAmount, uint256 blockNumber);\n    event EmergencyWithdraw(address indexed user, uint256 amount);\n\n    constructor(IERC20 _att, IERC20 _xAtt, uint256 _attPerBlock, address _devAddr, address _attPool) public {\n        att = _att;\n        xAtt = _xAtt;\n        devAddr = _devAddr;\n        attPerBlock = _attPerBlock;\n        attPool = _attPool;\n    }\n\n    function releaseRewards() external {\n        if (kLast != 0 && kLast < block.number) {\n            uint256 amount = block.number.sub(kLast).mul(attPerBlock);\n            _safeRelease(amount);\n            kLast = block.number;\n        }\n    }\n\n    // EMERGENCY ONLY.\n    function emergencyWithdraw(uint256 _amount) external onlyOwner {\n        att.safeTransfer(address(msg.sender), _amount);\n        emit EmergencyWithdraw(msg.sender, _amount);\n    }\n\n    function updateDev(address _devaddr) external onlyOwner {\n        devAddr = _devaddr;\n    }\n\n    function updateAttPool(address _attPool) external {\n        require(devAddr == msg.sender, \"XSAFE: AUTH_FAILED\");\n        attPool = _attPool;\n    }\n\n    function updateAttPerBlock(uint256 _attPerBlock) external {\n        require(devAddr == msg.sender, \"XSAFE: AUTH_FAILED\");\n        attPerBlock = _attPerBlock;\n    }\n\n    function _safeRelease(uint256 _amount) internal {\n        uint256 attBal = getXsafeBalance();\n        if (_amount > attBal) {\n            att.safeTransfer(attPool, attBal);\n        } else {\n            att.safeTransfer(attPool, _amount);\n        }\n        emit Release(attPool, _amount, block.number);\n    }\n    \n    // View functions for frontend.\n    function getUserStat(address who)\n        external\n        view\n        returns (uint256 xBal, uint256 bal)\n    {    \n        xBal = xAtt.balanceOf(who);\n        (uint256 estimatedSupply,uint256 totalShares) = getEstimatedExchangeRate();\n        bal = xBal.mul(estimatedSupply).div(totalShares);\n    }\n\n    function getXsafeBalance() public view returns(uint256){\n        return att.balanceOf(address(this));\n    }\n    \n    function getEstimatedExchangeRate() public view returns (uint256 estimatedSupply, uint256 totalShares) {\n        totalShares = xattSupply();\n        uint256 attBal = getXsafeBalance();\n        uint256 distribution = (block.number.sub(kLast)).mul(attPerBlock);\n        if (distribution > attBal) {\n            distribution = attBal;\n        }\n        estimatedSupply = (getAttPoolBalance()).add(distribution);\n    }\n\n    function toAtt(uint256 xAttAmount) external view returns (uint256 attAmount) {\n        (uint256 estimatedSupply,uint256 totalShares) = getEstimatedExchangeRate();\n        attAmount = (xAttAmount.mul(estimatedSupply)).div(totalShares);\n    }\n\n    function toXAtt(uint256 attAmount) external view returns (uint256 xAttAmount) {\n        (uint256 estimatedSupply,uint256 totalShares) = getEstimatedExchangeRate();\n        xAttAmount = (attAmount.mul(totalShares)).div(estimatedSupply);\n    }\n\n    function getAttPoolBalance() public view returns(uint256){\n        return att.balanceOf(attPool);\n    }\n\n    function xattSupply() public view returns(uint256){\n        return xAtt.totalSupply();\n    }\n\n\n}\n",
  "sourcePath": "/home/sagar/Desktop/projects/ATT/smart-contracts/Stake/contracts/xSafe.sol",
  "compiler": {
    "name": "solc",
    "version": "0.6.12+commit.27d51765.Emscripten.clang"
  },
  "schemaVersion": "3.3.2",
  "updatedAt": "2021-04-30T07:18:52.418Z",
  "devdoc": {
    "kind": "dev",
    "methods": {
      "owner()": {
        "details": "Returns the address of the current owner."
      },
      "renounceOwnership()": {
        "details": "Leaves the contract without owner. It will not be possible to call `onlyOwner` functions anymore. Can only be called by the current owner. NOTE: Renouncing ownership will leave the contract without an owner, thereby removing any functionality that is only available to the owner."
      },
      "transferOwnership(address)": {
        "details": "Transfers ownership of the contract to a new account (`newOwner`). Can only be called by the current owner."
      }
    },
    "version": 1
  },
  "userdoc": {
    "kind": "user",
    "methods": {},
    "version": 1
  }
}