{
  "contractName": "LiquidFarm",
  "abi": [
    {
      "inputs": [
        {
          "internalType": "contract IERC20",
          "name": "_ATT",
          "type": "address"
        },
        {
          "internalType": "uint256",
          "name": "_attPerBlock",
          "type": "uint256"
        },
        {
          "internalType": "uint256",
          "name": "_startBlock",
          "type": "uint256"
        },
        {
          "internalType": "uint256",
          "name": "_endBlock",
          "type": "uint256"
        }
      ],
      "stateMutability": "nonpayable",
      "type": "constructor"
    },
    {
      "anonymous": false,
      "inputs": [
        {
          "indexed": true,
          "internalType": "address",
          "name": "user",
          "type": "address"
        },
        {
          "indexed": true,
          "internalType": "uint256",
          "name": "pid",
          "type": "uint256"
        },
        {
          "indexed": false,
          "internalType": "uint256",
          "name": "amount",
          "type": "uint256"
        }
      ],
      "name": "Deposit",
      "type": "event"
    },
    {
      "anonymous": false,
      "inputs": [
        {
          "indexed": true,
          "internalType": "address",
          "name": "user",
          "type": "address"
        },
        {
          "indexed": true,
          "internalType": "uint256",
          "name": "pid",
          "type": "uint256"
        },
        {
          "indexed": false,
          "internalType": "uint256",
          "name": "amount",
          "type": "uint256"
        }
      ],
      "name": "EmergencyWithdraw",
      "type": "event"
    },
    {
      "anonymous": false,
      "inputs": [
        {
          "indexed": true,
          "internalType": "address",
          "name": "previousOwner",
          "type": "address"
        },
        {
          "indexed": true,
          "internalType": "address",
          "name": "newOwner",
          "type": "address"
        }
      ],
      "name": "OwnershipTransferred",
      "type": "event"
    },
    {
      "anonymous": false,
      "inputs": [
        {
          "indexed": true,
          "internalType": "address",
          "name": "user",
          "type": "address"
        },
        {
          "indexed": true,
          "internalType": "uint256",
          "name": "pid",
          "type": "uint256"
        },
        {
          "indexed": false,
          "internalType": "uint256",
          "name": "amount",
          "type": "uint256"
        }
      ],
      "name": "Withdraw",
      "type": "event"
    },
    {
      "inputs": [],
      "name": "ATT",
      "outputs": [
        {
          "internalType": "contract IERC20",
          "name": "",
          "type": "address"
        }
      ],
      "stateMutability": "view",
      "type": "function"
    },
    {
      "inputs": [],
      "name": "attPerBlock",
      "outputs": [
        {
          "internalType": "uint256",
          "name": "",
          "type": "uint256"
        }
      ],
      "stateMutability": "view",
      "type": "function"
    },
    {
      "inputs": [],
      "name": "endBlock",
      "outputs": [
        {
          "internalType": "uint256",
          "name": "",
          "type": "uint256"
        }
      ],
      "stateMutability": "view",
      "type": "function"
    },
    {
      "inputs": [],
      "name": "owner",
      "outputs": [
        {
          "internalType": "address",
          "name": "",
          "type": "address"
        }
      ],
      "stateMutability": "view",
      "type": "function"
    },
    {
      "inputs": [
        {
          "internalType": "uint256",
          "name": "",
          "type": "uint256"
        }
      ],
      "name": "poolInfo",
      "outputs": [
        {
          "internalType": "contract IERC20",
          "name": "lpToken",
          "type": "address"
        },
        {
          "internalType": "uint256",
          "name": "allocPoint",
          "type": "uint256"
        },
        {
          "internalType": "uint256",
          "name": "lastRewardBlock",
          "type": "uint256"
        },
        {
          "internalType": "uint256",
          "name": "accAttPerShare",
          "type": "uint256"
        }
      ],
      "stateMutability": "view",
      "type": "function"
    },
    {
      "inputs": [],
      "name": "renounceOwnership",
      "outputs": [],
      "stateMutability": "nonpayable",
      "type": "function"
    },
    {
      "inputs": [],
      "name": "startBlock",
      "outputs": [
        {
          "internalType": "uint256",
          "name": "",
          "type": "uint256"
        }
      ],
      "stateMutability": "view",
      "type": "function"
    },
    {
      "inputs": [],
      "name": "totalAllocPoint",
      "outputs": [
        {
          "internalType": "uint256",
          "name": "",
          "type": "uint256"
        }
      ],
      "stateMutability": "view",
      "type": "function"
    },
    {
      "inputs": [
        {
          "internalType": "address",
          "name": "newOwner",
          "type": "address"
        }
      ],
      "name": "transferOwnership",
      "outputs": [],
      "stateMutability": "nonpayable",
      "type": "function"
    },
    {
      "inputs": [
        {
          "internalType": "uint256",
          "name": "",
          "type": "uint256"
        },
        {
          "internalType": "address",
          "name": "",
          "type": "address"
        }
      ],
      "name": "userInfo",
      "outputs": [
        {
          "internalType": "uint256",
          "name": "amount",
          "type": "uint256"
        },
        {
          "internalType": "uint256",
          "name": "rewardDebt",
          "type": "uint256"
        }
      ],
      "stateMutability": "view",
      "type": "function"
    },
    {
      "inputs": [
        {
          "internalType": "uint256",
          "name": "_allocPoint",
          "type": "uint256"
        },
        {
          "internalType": "contract IERC20",
          "name": "_lpToken",
          "type": "address"
        },
        {
          "internalType": "bool",
          "name": "_withUpdate",
          "type": "bool"
        }
      ],
      "name": "add",
      "outputs": [],
      "stateMutability": "nonpayable",
      "type": "function"
    },
    {
      "inputs": [
        {
          "internalType": "uint256",
          "name": "_pid",
          "type": "uint256"
        },
        {
          "internalType": "uint256",
          "name": "_allocPoint",
          "type": "uint256"
        },
        {
          "internalType": "bool",
          "name": "_withUpdate",
          "type": "bool"
        }
      ],
      "name": "set",
      "outputs": [],
      "stateMutability": "nonpayable",
      "type": "function"
    },
    {
      "inputs": [
        {
          "internalType": "uint256",
          "name": "_pid",
          "type": "uint256"
        },
        {
          "internalType": "address",
          "name": "_user",
          "type": "address"
        }
      ],
      "name": "pendingAtt",
      "outputs": [
        {
          "internalType": "uint256",
          "name": "",
          "type": "uint256"
        }
      ],
      "stateMutability": "view",
      "type": "function"
    },
    {
      "inputs": [],
      "name": "massUpdatePools",
      "outputs": [],
      "stateMutability": "nonpayable",
      "type": "function"
    },
    {
      "inputs": [
        {
          "internalType": "uint256",
          "name": "_pid",
          "type": "uint256"
        }
      ],
      "name": "updatePool",
      "outputs": [],
      "stateMutability": "nonpayable",
      "type": "function"
    },
    {
      "inputs": [
        {
          "internalType": "uint256",
          "name": "_pid",
          "type": "uint256"
        },
        {
          "internalType": "uint256",
          "name": "_amount",
          "type": "uint256"
        }
      ],
      "name": "deposit",
      "outputs": [],
      "stateMutability": "nonpayable",
      "type": "function"
    },
    {
      "inputs": [
        {
          "internalType": "uint256",
          "name": "_pid",
          "type": "uint256"
        },
        {
          "internalType": "uint256",
          "name": "_amount",
          "type": "uint256"
        }
      ],
      "name": "withdraw",
      "outputs": [],
      "stateMutability": "nonpayable",
      "type": "function"
    },
    {
      "inputs": [
        {
          "internalType": "uint256",
          "name": "_pid",
          "type": "uint256"
        }
      ],
      "name": "emergencyWithdraw",
      "outputs": [],
      "stateMutability": "nonpayable",
      "type": "function"
    },
    {
      "inputs": [],
      "name": "poolLength",
      "outputs": [
        {
          "internalType": "uint256",
          "name": "",
          "type": "uint256"
        }
      ],
      "stateMutability": "view",
      "type": "function"
    },
    {
      "inputs": [],
      "name": "balance",
      "outputs": [
        {
          "internalType": "uint256",
          "name": "",
          "type": "uint256"
        }
      ],
      "stateMutability": "view",
      "type": "function"
    },
    {
      "inputs": [
        {
          "internalType": "address",
          "name": "to",
          "type": "address"
        },
        {
          "internalType": "uint256",
          "name": "value",
          "type": "uint256"
        }
      ],
      "name": "rescueAttTokens",
      "outputs": [
        {
          "internalType": "bool",
          "name": "",
          "type": "bool"
        }
      ],
      "stateMutability": "nonpayable",
      "type": "function"
    },
    {
      "inputs": [
        {
          "internalType": "uint256",
          "name": "_endBlock",
          "type": "uint256"
        }
      ],
      "name": "updateRewardBlockExtension",
      "outputs": [
        {
          "internalType": "uint256",
          "name": "",
          "type": "uint256"
        }
      ],
      "stateMutability": "nonpayable",
      "type": "function"
    }
  ],
  "bytecode": "0x6080604052600060065534801561001557600080fd5b506040516119363803806119368339818101604052608081101561003857600080fd5b508051602082015160408301516060909301519192909160006100596100d5565b600080546001600160a01b0319166001600160a01b0383169081178255604051929350917f8be0079c531659141344cd1fd0a4f28419497f9722a3daafe3b4186f6b6457e0908290a350600180546001600160a01b0319166001600160a01b0395909516949094179093556003919091556004556005556100d9565b3390565b61184e806100e86000396000f3fe608060405234801561001057600080fd5b50600436106101425760003560e01c8063630b5ba1116100b857806393f1a40b1161007c57806393f1a40b1461032c578063a009687d14610371578063a1ee78551461038e578063b69ef8a814610396578063e2bbb1581461039e578063f2fde38b146103c157610142565b8063630b5ba11461028d57806364482f7914610295578063715018a6146102c05780637b1ccc4e146102c85780638da5cb5b1461030857610142565b80631eaaa0451161010a5780631eaaa045146101ea578063441a3e701461022057806348cd4cb1146102435780634f2683ae1461024b57806351eb05a6146102535780635312ea8e1461027057610142565b8063081e3eda14610147578063083c63231461016157806313c4e0db146101695780631526fe271461019557806317caf6f1146101e2575b600080fd5b61014f6103e7565b60408051918252519081900360200190f35b61014f6103ed565b61014f6004803603604081101561017f57600080fd5b50803590602001356001600160a01b03166103f3565b6101b2600480360360208110156101ab57600080fd5b5035610569565b604080516001600160a01b0390951685526020850193909352838301919091526060830152519081900360800190f35b61014f6105aa565b61021e6004803603606081101561020057600080fd5b508035906001600160a01b03602082013516906040013515156105b0565b005b61021e6004803603604081101561023657600080fd5b5080359060200135610735565b61014f610871565b61014f610877565b61021e6004803603602081101561026957600080fd5b503561087d565b61021e6004803603602081101561028657600080fd5b50356109a7565b61021e610a42565b61021e600480360360608110156102ab57600080fd5b50803590602081013590604001351515610a65565b61021e610b40565b6102f4600480360360408110156102de57600080fd5b506001600160a01b038135169060200135610bec565b604080519115158252519081900360200190f35b610310610cd9565b604080516001600160a01b039092168252519081900360200190f35b6103586004803603604081101561034257600080fd5b50803590602001356001600160a01b0316610ce8565b6040805192835260208301919091528051918290030190f35b61014f6004803603602081101561038757600080fd5b5035610d0c565b610310610dcd565b61014f610ddc565b61021e600480360360408110156103b457600080fd5b5080359060200135610e58565b61021e600480360360208110156103d757600080fd5b50356001600160a01b0316610f5d565b60025490565b60055481565b6000806002848154811061040357fe5b600091825260208083208784526007825260408085206001600160a01b03898116875290845281862060049586029093016003810154815484516370a0823160e01b81523098810198909852935191985093969395939492909116926370a08231926024808301939192829003018186803b15801561048157600080fd5b505afa158015610495573d6000803e3d6000fd5b505050506040513d60208110156104ab57600080fd5b50516002850154909150431180156104c257508015155b1561052e5760006104d785600201544361105f565b9050600061050a60065461050488600101546104fe6003548761109a90919063ffffffff16565b9061109a565b906110fa565b9050610529610522846105048464e8d4a5100061109a565b8590611161565b935050505b61055c836001015461055664e8d4a5100061050486886000015461109a90919063ffffffff16565b906111bb565b9450505050505b92915050565b6002818154811061057657fe5b600091825260209091206004909102018054600182015460028301546003909301546001600160a01b039092169350919084565b60065481565b6105b8611218565b6001600160a01b03166105c9610cd9565b6001600160a01b031614610612576040805162461bcd60e51b815260206004820181905260248201526000805160206117cf833981519152604482015290519081900360640190fd5b801561062057610620610a42565b6000600454431161063357600454610635565b435b6006549091506106459085611161565b600655604080516080810182526001600160a01b0394851681526020810195865290810191825260006060820181815260028054600181018255925291517f405787fa12a823e0f2b7631cc41b3ba8828b3321ca811111fa75cd3aa3bb5ace600490920291820180546001600160a01b031916919096161790945593517f405787fa12a823e0f2b7631cc41b3ba8828b3321ca811111fa75cd3aa3bb5acf840155517f405787fa12a823e0f2b7631cc41b3ba8828b3321ca811111fa75cd3aa3bb5ad08301555090517f405787fa12a823e0f2b7631cc41b3ba8828b3321ca811111fa75cd3aa3bb5ad190910155565b60006002838154811061074457fe5b6000918252602080832086845260078252604080852033865290925292208054600490920290920192508311156107ac5760405162461bcd60e51b815260040180806020018281038252603481526020018061172e6034913960400191505060405180910390fd5b6107b58461087d565b60006107e3826001015461055664e8d4a510006105048760030154876000015461109a90919063ffffffff16565b90506107ef338261121c565b81546107fb90856111bb565b80835560038401546108189164e8d4a5100091610504919061109a565b60018301558254610833906001600160a01b031633866113ad565b604080518581529051869133917ff279e6a1f5e320cca91135676d9cb6e44ca8a08c0b88342bcdb1144f6511b5689181900360200190a35050505050565b60045481565b60035481565b60006002828154811061088c57fe5b90600052602060002090600402019050806002015443116108ad57506109a4565b8054604080516370a0823160e01b815230600482015290516000926001600160a01b0316916370a08231916024808301926020929190829003018186803b1580156108f757600080fd5b505afa15801561090b573d6000803e3d6000fd5b505050506040513d602081101561092157600080fd5b50519050806109375750436002909101556109a4565b600061094783600201544361105f565b9050600061096e60065461050486600101546104fe6003548761109a90919063ffffffff16565b9050610991610986846105048464e8d4a5100061109a565b600386015490611161565b6003850155505043600290920191909155505b50565b6000600282815481106109b657fe5b600091825260208083208584526007825260408085203380875293529093208054600490930290930180549094506109fb926001600160a01b039190911691906113ad565b80546040805191825251849133917fbb757047c2b5f3974fe26b7c10f732e7bce710b0952a71082702781e62ae05959181900360200190a360008082556001909101555050565b60025460005b81811015610a6157610a598161087d565b600101610a48565b5050565b610a6d611218565b6001600160a01b0316610a7e610cd9565b6001600160a01b031614610ac7576040805162461bcd60e51b815260206004820181905260248201526000805160206117cf833981519152604482015290519081900360640190fd5b8015610ad557610ad5610a42565b610b1282610b0c60028681548110610ae957fe5b9060005260206000209060040201600101546006546111bb90919063ffffffff16565b90611161565b6006819055508160028481548110610b2657fe5b906000526020600020906004020160010181905550505050565b610b48611218565b6001600160a01b0316610b59610cd9565b6001600160a01b031614610ba2576040805162461bcd60e51b815260206004820181905260248201526000805160206117cf833981519152604482015290519081900360640190fd5b600080546040516001600160a01b03909116907f8be0079c531659141344cd1fd0a4f28419497f9722a3daafe3b4186f6b6457e0908390a3600080546001600160a01b0319169055565b6000610bf6611218565b6001600160a01b0316610c07610cd9565b6001600160a01b031614610c50576040805162461bcd60e51b815260206004820181905260248201526000805160206117cf833981519152604482015290519081900360640190fd5b6001546040805163a9059cbb60e01b81526001600160a01b038681166004830152602482018690529151919092169163a9059cbb9160448083019260209291908290030181600087803b158015610ca657600080fd5b505af1158015610cba573d6000803e3d6000fd5b505050506040513d6020811015610cd057600080fd5b50519392505050565b6000546001600160a01b031690565b60076020908152600092835260408084209091529082529020805460019091015482565b6000610d16611218565b6001600160a01b0316610d27610cd9565b6001600160a01b031614610d70576040805162461bcd60e51b815260206004820181905260248201526000805160206117cf833981519152604482015290519081900360640190fd5b438211610dc4576040805162461bcd60e51b815260206004820181905260248201527f426c6f636b206e6565647320746f20626520696e20746865206675747572652e604482015290519081900360640190fd5b50600581905590565b6001546001600160a01b031681565b600154604080516370a0823160e01b815230600482015290516000926001600160a01b0316916370a08231916024808301926020929190829003018186803b158015610e2757600080fd5b505afa158015610e3b573d6000803e3d6000fd5b505050506040513d6020811015610e5157600080fd5b5051905090565b600060028381548110610e6757fe5b60009182526020808320868452600782526040808520338652909252922060049091029091019150610e988461087d565b805415610edb576000610ecd826001015461055664e8d4a510006105048760030154876000015461109a90919063ffffffff16565b9050610ed9338261121c565b505b8154610ef2906001600160a01b03163330866113ff565b8054610efe9084611161565b8082556003830154610f1b9164e8d4a5100091610504919061109a565b6001820155604080518481529051859133917f90890809c654f11d6e72a28fa60149770a0d11ec6c92319d6ceb2bb0a4ea1a159181900360200190a350505050565b610f65611218565b6001600160a01b0316610f76610cd9565b6001600160a01b031614610fbf576040805162461bcd60e51b815260206004820181905260248201526000805160206117cf833981519152604482015290519081900360640190fd5b6001600160a01b0381166110045760405162461bcd60e51b81526004018080602001828103825260268152602001806117626026913960400191505060405180910390fd5b600080546040516001600160a01b03808516939216917f8be0079c531659141344cd1fd0a4f28419497f9722a3daafe3b4186f6b6457e091a3600080546001600160a01b0319166001600160a01b0392909216919091179055565b600060055482101561107c5761107582846111bb565b9050610563565b600554831061108d57506000610563565b60055461107590846111bb565b6000826110a957506000610563565b828202828482816110b657fe5b04146110f35760405162461bcd60e51b81526004018080602001828103825260218152602001806117ae6021913960400191505060405180910390fd5b9392505050565b6000808211611150576040805162461bcd60e51b815260206004820152601a60248201527f536166654d6174683a206469766973696f6e206279207a65726f000000000000604482015290519081900360640190fd5b81838161115957fe5b049392505050565b6000828201838110156110f3576040805162461bcd60e51b815260206004820152601b60248201527f536166654d6174683a206164646974696f6e206f766572666c6f770000000000604482015290519081900360640190fd5b600082821115611212576040805162461bcd60e51b815260206004820152601e60248201527f536166654d6174683a207375627472616374696f6e206f766572666c6f770000604482015290519081900360640190fd5b50900390565b3390565b600154604080516370a0823160e01b815230600482015290516000926001600160a01b0316916370a08231916024808301926020929190829003018186803b15801561126757600080fd5b505afa15801561127b573d6000803e3d6000fd5b505050506040513d602081101561129157600080fd5b5051905080821115611325576001546040805163a9059cbb60e01b81526001600160a01b038681166004830152602482018590529151919092169163a9059cbb9160448083019260209291908290030181600087803b1580156112f357600080fd5b505af1158015611307573d6000803e3d6000fd5b505050506040513d602081101561131d57600080fd5b506113a89050565b6001546040805163a9059cbb60e01b81526001600160a01b038681166004830152602482018690529151919092169163a9059cbb9160448083019260209291908290030181600087803b15801561137b57600080fd5b505af115801561138f573d6000803e3d6000fd5b505050506040513d60208110156113a557600080fd5b50505b505050565b604080516001600160a01b038416602482015260448082018490528251808303909101815260649091019091526020810180516001600160e01b031663a9059cbb60e01b1790526113a890849061145f565b604080516001600160a01b0380861660248301528416604482015260648082018490528251808303909101815260849091019091526020810180516001600160e01b03166323b872dd60e01b17905261145990859061145f565b50505050565b60606114b4826040518060400160405280602081526020017f5361666545524332303a206c6f772d6c6576656c2063616c6c206661696c6564815250856001600160a01b03166115109092919063ffffffff16565b8051909150156113a8578080602001905160208110156114d357600080fd5b50516113a85760405162461bcd60e51b815260040180806020018281038252602a8152602001806117ef602a913960400191505060405180910390fd5b606061151f8484600085611527565b949350505050565b6060824710156115685760405162461bcd60e51b81526004018080602001828103825260268152602001806117886026913960400191505060405180910390fd5b61157185611683565b6115c2576040805162461bcd60e51b815260206004820152601d60248201527f416464726573733a2063616c6c20746f206e6f6e2d636f6e7472616374000000604482015290519081900360640190fd5b60006060866001600160a01b031685876040518082805190602001908083835b602083106116015780518252601f1990920191602091820191016115e2565b6001836020036101000a03801982511681845116808217855250505050505090500191505060006040518083038185875af1925050503d8060008114611663576040519150601f19603f3d011682016040523d82523d6000602084013e611668565b606091505b5091509150611678828286611689565b979650505050505050565b3b151590565b606083156116985750816110f3565b8251156116a85782518084602001fd5b8160405162461bcd60e51b81526004018080602001828103825283818151815260200191508051906020019080838360005b838110156116f25781810151838201526020016116da565b50505050905090810190601f16801561171f5780820380516001836020036101000a031916815260200191505b509250505060405180910390fdfe43616e2774207769746864726177206d6f726520746f6b656e207468616e2070726576696f75736c79206465706f73697465642e4f776e61626c653a206e6577206f776e657220697320746865207a65726f2061646472657373416464726573733a20696e73756666696369656e742062616c616e636520666f722063616c6c536166654d6174683a206d756c7469706c69636174696f6e206f766572666c6f774f776e61626c653a2063616c6c6572206973206e6f7420746865206f776e65725361666545524332303a204552433230206f7065726174696f6e20646964206e6f742073756363656564a26469706673582212200972fb12360fbff38b3bdaa69963073a4891a39277f4bb6cfce439c16483724264736f6c634300060c0033",
  "immutableReferences": {},
  "source": "// SPDX-License-Identifier: MIT\n\npragma solidity 0.6.12;\n\nimport \"@openzeppelin/contracts/token/ERC20/IERC20.sol\";\nimport \"@openzeppelin/contracts/token/ERC20/SafeERC20.sol\";\nimport \"@openzeppelin/contracts/utils/EnumerableSet.sol\";\nimport \"@openzeppelin/contracts/math/SafeMath.sol\";\nimport \"@openzeppelin/contracts/access/Ownable.sol\";\n\n\ncontract LiquidFarm is Ownable {\n    \n    using SafeMath for uint256;\n    using SafeERC20 for IERC20;\n\n    struct UserInfo \n    {\n        uint256 amount;                 // How many LP tokens the user has provided.\n        uint256 rewardDebt;             // Reward debt.\n    }\n\n    struct PoolInfo \n    {\n        IERC20 lpToken;                 // Address of LP token contract.\n        uint256 allocPoint;             // How many allocation points assigned to this pool.\n        uint256 lastRewardBlock;        // Last block number that ATT distribution occured.\n        uint256 accAttPerShare;        // Accumulated ATT per share, times 1e12.\n    }\n\n    IERC20 public ATT;                 // ATT token\n    PoolInfo[] public poolInfo;         // Info of each pool.\n    uint256 public attPerBlock;        // ATT tokens created per block.\n    uint256 public startBlock;          // The block number at which ATT distribution starts.\n    uint256 public endBlock;            // The block number at which ATT distribution ends.\n    uint256 public totalAllocPoint = 0; // Total allocation poitns. Must be the sum of all allocation points in all pools.\n\n    mapping (uint256 => mapping (address => UserInfo)) public userInfo;     // Info of each user that stakes LP tokens.\n\n    event Deposit(address indexed user, uint256 indexed pid, uint256 amount);\n    event Withdraw(address indexed user, uint256 indexed pid, uint256 amount);\n    event EmergencyWithdraw(address indexed user, uint256 indexed pid, uint256 amount);\n\n    constructor(IERC20 _ATT, uint256 _attPerBlock, uint256 _startBlock, uint256 _endBlock) public {\n        ATT = _ATT;\n        attPerBlock = _attPerBlock;\n        startBlock = _startBlock;\n        endBlock = _endBlock;\n    }\n\n    /**\n     * @dev Adds a new lp to the pool. Can only be called by the owner. DO NOT add the same LP token more than once.\n     * @param _allocPoint How many allocation points to assign to this pool.\n     * @param _lpToken Address of LP token contract.\n     * @param _withUpdate Whether to update all LP token contracts. Should be true if ATT distribution has already begun.\n     */\n    function add(uint256 _allocPoint, IERC20 _lpToken, bool _withUpdate) public onlyOwner {\n        if (_withUpdate) {\n            massUpdatePools();\n        }\n        uint256 lastRewardBlock = block.number > startBlock ? block.number : startBlock;\n        totalAllocPoint = totalAllocPoint.add(_allocPoint);\n        poolInfo.push(PoolInfo({\n            lpToken: _lpToken,\n            allocPoint: _allocPoint,\n            lastRewardBlock: lastRewardBlock,\n            accAttPerShare: 0\n        }));\n    }\n\n    /**\n     * @dev Update the given pool's ATT allocation point. Can only be called by the owner.\n     * @param _pid ID of a specific LP token pool. See index of PoolInfo[].\n     * @param _allocPoint How many allocation points to assign to this pool.\n     * @param _withUpdate Whether to update all LP token contracts. Should be true if ATT distribution has already begun.\n     */\n    function set(uint256 _pid, uint256 _allocPoint, bool _withUpdate) public onlyOwner {\n        if (_withUpdate) {\n            massUpdatePools();\n        }\n        totalAllocPoint = totalAllocPoint.sub(poolInfo[_pid].allocPoint).add(_allocPoint);\n        poolInfo[_pid].allocPoint = _allocPoint;\n    }\n\n    /**\n     * @dev Return reward multiplier over the given _from to _to blocks based on block count.\n     * @param _from First block.\n     * @param _to Last block.\n     * @return Number of blocks.\n     */\n    function getMultiplier(uint256 _from, uint256 _to) internal view returns (uint256) {\n        if (_to < endBlock) {\n            return _to.sub(_from);\n        } else if (_from >= endBlock) {\n            return 0;\n        } else {\n            return endBlock.sub(_from);\n        }     \n    }\n\n    /**\n     * @dev View function to see pending ATT on frontend.\n     * @param _pid ID of a specific LP token pool. See index of PoolInfo[].\n     * @param _user Address of a specific user.\n     * @return Pending ATT.\n     */\n    function pendingAtt(uint256 _pid, address _user) external view returns (uint256) {\n        PoolInfo storage pool = poolInfo[_pid];\n        UserInfo storage user = userInfo[_pid][_user];\n        uint256 accAttPerShare = pool.accAttPerShare;\n        uint256 lpSupply = pool.lpToken.balanceOf(address(this));\n        if (block.number > pool.lastRewardBlock && lpSupply != 0) {\n            uint256 multiplier = getMultiplier(pool.lastRewardBlock, block.number);\n            uint256 attReward = multiplier.mul(attPerBlock).mul(pool.allocPoint).div(totalAllocPoint);\n            accAttPerShare = accAttPerShare.add(attReward.mul(1e12).div(lpSupply));\n        }\n        return user.amount.mul(accAttPerShare).div(1e12).sub(user.rewardDebt);\n    }\n\n    /**\n     * @dev Update reward vairables for all pools. Be careful of gas spending!\n     */\n    function massUpdatePools() public {\n        uint256 length = poolInfo.length;\n        for (uint256 pid = 0; pid < length; ++pid) {\n            updatePool(pid);\n        }\n    }\n\n    /**\n     * @dev Update reward variables of the given pool to be up-to-date.\n     * @param _pid ID of a specific LP token pool. See index of PoolInfo[].\n     */\n    function updatePool(uint256 _pid) public {\n        PoolInfo storage pool = poolInfo[_pid];\n        if (block.number <= pool.lastRewardBlock) {\n            return;\n        }\n        uint256 lpSupply = pool.lpToken.balanceOf(address(this));\n        if (lpSupply == 0) {\n            pool.lastRewardBlock = block.number;\n            return;\n        }\n        uint256 multiplier = getMultiplier(pool.lastRewardBlock, block.number);\n        uint256 attReward = multiplier.mul(attPerBlock).mul(pool.allocPoint).div(totalAllocPoint);\n        pool.accAttPerShare = pool.accAttPerShare.add(attReward.mul(1e12).div(lpSupply));\n        pool.lastRewardBlock = block.number;\n    }\n\n    /**\n     * @dev Deposit LP tokens to Faucet for ATT allocation.\n     * @param _pid ID of a specific LP token pool. See index of PoolInfo[].\n     * @param _amount Amount of LP tokens to deposit.\n     */\n    function deposit(uint256 _pid, uint256 _amount) public {\n        PoolInfo storage pool = poolInfo[_pid];\n        UserInfo storage user = userInfo[_pid][msg.sender];\n        updatePool(_pid);\n        if (user.amount > 0) {\n            uint256 pending = user.amount.mul(pool.accAttPerShare).div(1e12).sub(user.rewardDebt);\n            safeAttTransfer(msg.sender, pending);\n        }\n        pool.lpToken.safeTransferFrom(address(msg.sender), address(this), _amount);\n        user.amount = user.amount.add(_amount);\n        user.rewardDebt = user.amount.mul(pool.accAttPerShare).div(1e12);\n        emit Deposit(msg.sender, _pid, _amount);\n    }\n\n    /**\n     * @dev Withdraw LP tokens from MasterChef.\n     * @param _pid ID of a specific LP token pool. See index of PoolInfo[].\n     * @param _amount Amount of LP tokens to withdraw.\n     */\n    function withdraw(uint256 _pid, uint256 _amount) public {\n        PoolInfo storage pool = poolInfo[_pid];\n        UserInfo storage user = userInfo[_pid][msg.sender];\n        require(user.amount >= _amount, \"Can't withdraw more token than previously deposited.\");\n        updatePool(_pid);\n        uint256 pending = user.amount.mul(pool.accAttPerShare).div(1e12).sub(user.rewardDebt);\n        safeAttTransfer(msg.sender, pending);\n        user.amount = user.amount.sub(_amount);\n        user.rewardDebt = user.amount.mul(pool.accAttPerShare).div(1e12);\n        pool.lpToken.safeTransfer(address(msg.sender), _amount);\n        emit Withdraw(msg.sender, _pid, _amount);\n    }\n\n    /**\n     * @dev Withdraw without caring about rewards. EMERGENCY ONLY.\n     * @param _pid ID of a specific LP token pool. See index of PoolInfo[].\n     */\n    function emergencyWithdraw(uint256 _pid) public {\n        PoolInfo storage pool = poolInfo[_pid];\n        UserInfo storage user = userInfo[_pid][msg.sender];\n        pool.lpToken.safeTransfer(address(msg.sender), user.amount);\n        emit EmergencyWithdraw(msg.sender, _pid, user.amount);\n        user.amount = 0;\n        user.rewardDebt = 0;\n    }\n\n    /**\n     * @dev Safe att transfer function, just in case if rounding error causes faucet to not have enough ATT.\n     * @param _to Target address.\n     * @param _amount Amount of ATT to transfer.\n     */\n    function safeAttTransfer(address _to, uint256 _amount) internal {\n        uint256 attBalance = ATT.balanceOf(address(this));\n        if (_amount > attBalance) {\n            ATT.transfer(_to, attBalance);\n        } else {\n            ATT.transfer(_to, _amount);\n        }\n    }\n\n    /**\n     * @dev Views total number of LP token pools.\n     * @return Size of poolInfo array.\n     */\n    function poolLength() external view returns (uint256) {\n        return poolInfo.length;\n    }\n    \n    /**\n     * @dev Views total number of ATT tokens deposited for rewards.\n     * @return ATT token balance of the faucet.\n     */\n    function balance() public view returns (uint256) {\n        return ATT.balanceOf(address(this));\n    }\n\n    /**\n     * @dev Transfer ATT tokens.\n     * @return Success.\n     */\n    function rescueAttTokens(address to, uint256 value) external onlyOwner returns (bool) {\n        return ATT.transfer(to, value);\n    }\n\n    /**\n     * @dev Define last block on which ATT reward distribution occurs.\n     * @return Last block number.\n     */\n    function updateRewardBlockExtension(uint256 _endBlock) external onlyOwner returns (uint256) {\n        require(_endBlock > block.number, \"Block needs to be in the future.\");\n        endBlock = _endBlock;\n        return endBlock;\n    }\n\n}",
  "sourcePath": "/home/sagar/Desktop/projects/ATT/smart-contracts/Farm/contracts/LiquidFarm.sol",
  "compiler": {
    "name": "solc",
    "version": "0.6.12+commit.27d51765.Emscripten.clang"
  },
  "schemaVersion": "3.3.2",
  "updatedAt": "2021-04-29T17:12:09.403Z",
  "devdoc": {
    "kind": "dev",
    "methods": {
      "add(uint256,address,bool)": {
        "details": "Adds a new lp to the pool. Can only be called by the owner. DO NOT add the same LP token more than once.",
        "params": {
          "_allocPoint": "How many allocation points to assign to this pool.",
          "_lpToken": "Address of LP token contract.",
          "_withUpdate": "Whether to update all LP token contracts. Should be true if ATT distribution has already begun."
        }
      },
      "balance()": {
        "details": "Views total number of ATT tokens deposited for rewards.",
        "returns": {
          "_0": "ATT token balance of the faucet."
        }
      },
      "deposit(uint256,uint256)": {
        "details": "Deposit LP tokens to Faucet for ATT allocation.",
        "params": {
          "_amount": "Amount of LP tokens to deposit.",
          "_pid": "ID of a specific LP token pool. See index of PoolInfo[]."
        }
      },
      "emergencyWithdraw(uint256)": {
        "details": "Withdraw without caring about rewards. EMERGENCY ONLY.",
        "params": {
          "_pid": "ID of a specific LP token pool. See index of PoolInfo[]."
        }
      },
      "massUpdatePools()": {
        "details": "Update reward vairables for all pools. Be careful of gas spending!"
      },
      "owner()": {
        "details": "Returns the address of the current owner."
      },
      "pendingAtt(uint256,address)": {
        "details": "View function to see pending ATT on frontend.",
        "params": {
          "_pid": "ID of a specific LP token pool. See index of PoolInfo[].",
          "_user": "Address of a specific user."
        },
        "returns": {
          "_0": "Pending ATT."
        }
      },
      "poolLength()": {
        "details": "Views total number of LP token pools.",
        "returns": {
          "_0": "Size of poolInfo array."
        }
      },
      "renounceOwnership()": {
        "details": "Leaves the contract without owner. It will not be possible to call `onlyOwner` functions anymore. Can only be called by the current owner. NOTE: Renouncing ownership will leave the contract without an owner, thereby removing any functionality that is only available to the owner."
      },
      "rescueAttTokens(address,uint256)": {
        "details": "Transfer ATT tokens.",
        "returns": {
          "_0": "Success."
        }
      },
      "set(uint256,uint256,bool)": {
        "details": "Update the given pool's ATT allocation point. Can only be called by the owner.",
        "params": {
          "_allocPoint": "How many allocation points to assign to this pool.",
          "_pid": "ID of a specific LP token pool. See index of PoolInfo[].",
          "_withUpdate": "Whether to update all LP token contracts. Should be true if ATT distribution has already begun."
        }
      },
      "transferOwnership(address)": {
        "details": "Transfers ownership of the contract to a new account (`newOwner`). Can only be called by the current owner."
      },
      "updatePool(uint256)": {
        "details": "Update reward variables of the given pool to be up-to-date.",
        "params": {
          "_pid": "ID of a specific LP token pool. See index of PoolInfo[]."
        }
      },
      "updateRewardBlockExtension(uint256)": {
        "details": "Define last block on which ATT reward distribution occurs.",
        "returns": {
          "_0": "Last block number."
        }
      },
      "withdraw(uint256,uint256)": {
        "details": "Withdraw LP tokens from MasterChef.",
        "params": {
          "_amount": "Amount of LP tokens to withdraw.",
          "_pid": "ID of a specific LP token pool. See index of PoolInfo[]."
        }
      }
    },
    "version": 1
  },
  "userdoc": {
    "kind": "user",
    "methods": {},
    "version": 1
  }
}