{
  "contractName": "PledgeFarm",
  "abi": [
    {
      "inputs": [
        {
          "internalType": "contract IERC20",
          "name": "_ATT",
          "type": "address"
        },
        {
          "internalType": "contract IERC20",
          "name": "_BUSD",
          "type": "address"
        },
        {
          "internalType": "uint256",
          "name": "_attPerBlock",
          "type": "uint256"
        },
        {
          "internalType": "uint256",
          "name": "_busdPerBlock",
          "type": "uint256"
        },
        {
          "internalType": "uint256",
          "name": "_startBlock",
          "type": "uint256"
        },
        {
          "internalType": "uint256",
          "name": "_endBlock",
          "type": "uint256"
        }
      ],
      "stateMutability": "nonpayable",
      "type": "constructor"
    },
    {
      "anonymous": false,
      "inputs": [
        {
          "indexed": true,
          "internalType": "address",
          "name": "user",
          "type": "address"
        },
        {
          "indexed": true,
          "internalType": "uint256",
          "name": "pid",
          "type": "uint256"
        },
        {
          "indexed": false,
          "internalType": "uint256",
          "name": "amount",
          "type": "uint256"
        }
      ],
      "name": "Deposit",
      "type": "event"
    },
    {
      "anonymous": false,
      "inputs": [
        {
          "indexed": true,
          "internalType": "address",
          "name": "user",
          "type": "address"
        },
        {
          "indexed": true,
          "internalType": "uint256",
          "name": "pid",
          "type": "uint256"
        },
        {
          "indexed": false,
          "internalType": "uint256",
          "name": "amount",
          "type": "uint256"
        }
      ],
      "name": "EmergencyWithdraw",
      "type": "event"
    },
    {
      "anonymous": false,
      "inputs": [
        {
          "indexed": true,
          "internalType": "address",
          "name": "previousOwner",
          "type": "address"
        },
        {
          "indexed": true,
          "internalType": "address",
          "name": "newOwner",
          "type": "address"
        }
      ],
      "name": "OwnershipTransferred",
      "type": "event"
    },
    {
      "anonymous": false,
      "inputs": [
        {
          "indexed": true,
          "internalType": "address",
          "name": "user",
          "type": "address"
        },
        {
          "indexed": true,
          "internalType": "uint256",
          "name": "pid",
          "type": "uint256"
        },
        {
          "indexed": false,
          "internalType": "uint256",
          "name": "amount",
          "type": "uint256"
        }
      ],
      "name": "Withdraw",
      "type": "event"
    },
    {
      "inputs": [],
      "name": "ATT",
      "outputs": [
        {
          "internalType": "contract IERC20",
          "name": "",
          "type": "address"
        }
      ],
      "stateMutability": "view",
      "type": "function"
    },
    {
      "inputs": [],
      "name": "BUSD",
      "outputs": [
        {
          "internalType": "contract IERC20",
          "name": "",
          "type": "address"
        }
      ],
      "stateMutability": "view",
      "type": "function"
    },
    {
      "inputs": [],
      "name": "attPerBlock",
      "outputs": [
        {
          "internalType": "uint256",
          "name": "",
          "type": "uint256"
        }
      ],
      "stateMutability": "view",
      "type": "function"
    },
    {
      "inputs": [],
      "name": "busdPerBlock",
      "outputs": [
        {
          "internalType": "uint256",
          "name": "",
          "type": "uint256"
        }
      ],
      "stateMutability": "view",
      "type": "function"
    },
    {
      "inputs": [],
      "name": "endBlock",
      "outputs": [
        {
          "internalType": "uint256",
          "name": "",
          "type": "uint256"
        }
      ],
      "stateMutability": "view",
      "type": "function"
    },
    {
      "inputs": [],
      "name": "owner",
      "outputs": [
        {
          "internalType": "address",
          "name": "",
          "type": "address"
        }
      ],
      "stateMutability": "view",
      "type": "function"
    },
    {
      "inputs": [
        {
          "internalType": "uint256",
          "name": "",
          "type": "uint256"
        }
      ],
      "name": "poolInfo",
      "outputs": [
        {
          "internalType": "contract IERC20",
          "name": "lpToken",
          "type": "address"
        },
        {
          "internalType": "uint256",
          "name": "allocPoint",
          "type": "uint256"
        },
        {
          "internalType": "uint256",
          "name": "lastRewardBlock",
          "type": "uint256"
        },
        {
          "internalType": "uint256",
          "name": "accAttPerShare",
          "type": "uint256"
        },
        {
          "internalType": "uint256",
          "name": "accBusdPerShare",
          "type": "uint256"
        }
      ],
      "stateMutability": "view",
      "type": "function"
    },
    {
      "inputs": [],
      "name": "renounceOwnership",
      "outputs": [],
      "stateMutability": "nonpayable",
      "type": "function"
    },
    {
      "inputs": [],
      "name": "startBlock",
      "outputs": [
        {
          "internalType": "uint256",
          "name": "",
          "type": "uint256"
        }
      ],
      "stateMutability": "view",
      "type": "function"
    },
    {
      "inputs": [],
      "name": "totalAllocPoint",
      "outputs": [
        {
          "internalType": "uint256",
          "name": "",
          "type": "uint256"
        }
      ],
      "stateMutability": "view",
      "type": "function"
    },
    {
      "inputs": [
        {
          "internalType": "address",
          "name": "newOwner",
          "type": "address"
        }
      ],
      "name": "transferOwnership",
      "outputs": [],
      "stateMutability": "nonpayable",
      "type": "function"
    },
    {
      "inputs": [
        {
          "internalType": "uint256",
          "name": "",
          "type": "uint256"
        },
        {
          "internalType": "address",
          "name": "",
          "type": "address"
        }
      ],
      "name": "userInfo",
      "outputs": [
        {
          "internalType": "uint256",
          "name": "amount",
          "type": "uint256"
        },
        {
          "internalType": "uint256",
          "name": "attRewardDebt",
          "type": "uint256"
        },
        {
          "internalType": "uint256",
          "name": "busdRewardDebt",
          "type": "uint256"
        }
      ],
      "stateMutability": "view",
      "type": "function"
    },
    {
      "inputs": [
        {
          "internalType": "uint256",
          "name": "_allocPoint",
          "type": "uint256"
        },
        {
          "internalType": "contract IERC20",
          "name": "_lpToken",
          "type": "address"
        },
        {
          "internalType": "bool",
          "name": "_withUpdate",
          "type": "bool"
        }
      ],
      "name": "add",
      "outputs": [],
      "stateMutability": "nonpayable",
      "type": "function"
    },
    {
      "inputs": [
        {
          "internalType": "uint256",
          "name": "_pid",
          "type": "uint256"
        },
        {
          "internalType": "uint256",
          "name": "_allocPoint",
          "type": "uint256"
        },
        {
          "internalType": "bool",
          "name": "_withUpdate",
          "type": "bool"
        }
      ],
      "name": "set",
      "outputs": [],
      "stateMutability": "nonpayable",
      "type": "function"
    },
    {
      "inputs": [
        {
          "internalType": "uint256",
          "name": "_pid",
          "type": "uint256"
        },
        {
          "internalType": "address",
          "name": "_user",
          "type": "address"
        }
      ],
      "name": "pendingRewards",
      "outputs": [
        {
          "internalType": "uint256",
          "name": "",
          "type": "uint256"
        },
        {
          "internalType": "uint256",
          "name": "",
          "type": "uint256"
        },
        {
          "internalType": "uint256",
          "name": "",
          "type": "uint256"
        }
      ],
      "stateMutability": "view",
      "type": "function"
    },
    {
      "inputs": [],
      "name": "massUpdatePools",
      "outputs": [],
      "stateMutability": "nonpayable",
      "type": "function"
    },
    {
      "inputs": [
        {
          "internalType": "uint256",
          "name": "_pid",
          "type": "uint256"
        }
      ],
      "name": "updatePool",
      "outputs": [],
      "stateMutability": "nonpayable",
      "type": "function"
    },
    {
      "inputs": [
        {
          "internalType": "uint256",
          "name": "_pid",
          "type": "uint256"
        },
        {
          "internalType": "uint256",
          "name": "_amount",
          "type": "uint256"
        }
      ],
      "name": "deposit",
      "outputs": [],
      "stateMutability": "nonpayable",
      "type": "function"
    },
    {
      "inputs": [
        {
          "internalType": "uint256",
          "name": "_pid",
          "type": "uint256"
        },
        {
          "internalType": "address",
          "name": "_user",
          "type": "address"
        }
      ],
      "name": "userLpBalance",
      "outputs": [
        {
          "internalType": "uint256",
          "name": "",
          "type": "uint256"
        }
      ],
      "stateMutability": "view",
      "type": "function"
    },
    {
      "inputs": [
        {
          "internalType": "uint256",
          "name": "_pid",
          "type": "uint256"
        },
        {
          "internalType": "uint256",
          "name": "_amount",
          "type": "uint256"
        }
      ],
      "name": "withdraw",
      "outputs": [],
      "stateMutability": "nonpayable",
      "type": "function"
    },
    {
      "inputs": [
        {
          "internalType": "uint256",
          "name": "_pid",
          "type": "uint256"
        }
      ],
      "name": "emergencyWithdraw",
      "outputs": [],
      "stateMutability": "nonpayable",
      "type": "function"
    },
    {
      "inputs": [],
      "name": "poolLength",
      "outputs": [
        {
          "internalType": "uint256",
          "name": "",
          "type": "uint256"
        }
      ],
      "stateMutability": "view",
      "type": "function"
    },
    {
      "inputs": [],
      "name": "balance",
      "outputs": [
        {
          "internalType": "uint256",
          "name": "",
          "type": "uint256"
        }
      ],
      "stateMutability": "view",
      "type": "function"
    },
    {
      "inputs": [],
      "name": "balanceBusd",
      "outputs": [
        {
          "internalType": "uint256",
          "name": "",
          "type": "uint256"
        }
      ],
      "stateMutability": "view",
      "type": "function"
    },
    {
      "inputs": [
        {
          "internalType": "address",
          "name": "to",
          "type": "address"
        },
        {
          "internalType": "uint256",
          "name": "value0",
          "type": "uint256"
        },
        {
          "internalType": "uint256",
          "name": "value1",
          "type": "uint256"
        }
      ],
      "name": "rescueTokens",
      "outputs": [],
      "stateMutability": "nonpayable",
      "type": "function"
    }
  ],
  "bytecode": "0x6080604052600060085534801561001557600080fd5b50604051611dfd380380611dfd833981810160405260c081101561003857600080fd5b508051602082015160408301516060840151608085015160a090950151939492939192909160006100676100f8565b600080546001600160a01b0319166001600160a01b0383169081178255604051929350917f8be0079c531659141344cd1fd0a4f28419497f9722a3daafe3b4186f6b6457e0908290a350600180546001600160a01b039788166001600160a01b03199182161790915560028054969097169516949094179094556004919091556005556006919091556007556100fc565b3390565b611cf28061010b6000396000f3fe608060405234801561001057600080fd5b50600436106101735760003560e01c8063630b5ba1116100de578063a1ee785511610097578063da85ae1811610071578063da85ae18146103be578063dd473dda146103c6578063e2bbb158146103f2578063f2fde38b1461041557610173565b8063a1ee785514610382578063b69ef8a81461038a578063d18df53c1461039257610173565b8063630b5ba1146102ed57806364482f79146102f5578063715018a614610320578063734f2a9c146103285780638da5cb5b1461033057806393f1a40b1461033857610173565b8063441a3e7011610130578063441a3e701461025c578063484f4ea91461027f57806348cd4cb1146102a35780634f2683ae146102ab57806351eb05a6146102b35780635312ea8e146102d057610173565b8063081e3eda14610178578063083c6323146101925780631526fe271461019a57806317caf6f1146101ec5780631eaaa045146101f45780632316040b1461022a575b600080fd5b61018061043b565b60408051918252519081900360200190f35b610180610441565b6101b7600480360360208110156101b057600080fd5b5035610447565b604080516001600160a01b03909616865260208601949094528484019290925260608401526080830152519081900360a00190f35b61018061048f565b6102286004803603606081101561020a57600080fd5b508035906001600160a01b0360208201351690604001351515610495565b005b6102286004803603606081101561024057600080fd5b506001600160a01b038135169060208101359060400135610647565b6102286004803603604081101561027257600080fd5b50803590602001356107f6565b6102876109dd565b604080516001600160a01b039092168252519081900360200190f35b6101806109ec565b6101806109f2565b610228600480360360208110156102c957600080fd5b50356109f8565b610228600480360360208110156102e657600080fd5b5035610b79565b610228610c1b565b6102286004803603606081101561030b57600080fd5b50803590602081013590604001351515610c3e565b610228610d19565b610180610dc5565b610287610dcb565b6103646004803603604081101561034e57600080fd5b50803590602001356001600160a01b0316610dda565b60408051938452602084019290925282820152519081900360600190f35b610287610e06565b610180610e15565b610364600480360360408110156103a857600080fd5b50803590602001356001600160a01b0316610e91565b610180611062565b610180600480360360408110156103dc57600080fd5b50803590602001356001600160a01b03166110ad565b6102286004803603604081101561040857600080fd5b508035906020013561114c565b6102286004803603602081101561042b57600080fd5b50356001600160a01b0316611301565b60035490565b60075481565b6003818154811061045457fe5b6000918252602090912060059091020180546001820154600283015460038401546004909401546001600160a01b0390931694509092909185565b60085481565b61049d611403565b6001600160a01b03166104ae610dcb565b6001600160a01b0316146104f7576040805162461bcd60e51b81526020600482018190526024820152600080516020611c73833981519152604482015290519081900360640190fd5b801561050557610505610c1b565b600060065443116105185760065461051a565b435b60085490915061052a9085611407565b6008556040805160a0810182526001600160a01b039485168152602081019586529081019182526000606082018181526080830182815260038054600181018255935292517fc2575a0e9e593c00f959f8c92f12db2869c3395a3b0502d05e2516446f71f85b600590930292830180546001600160a01b031916919097161790955594517fc2575a0e9e593c00f959f8c92f12db2869c3395a3b0502d05e2516446f71f85c86015590517fc2575a0e9e593c00f959f8c92f12db2869c3395a3b0502d05e2516446f71f85d85015591517fc2575a0e9e593c00f959f8c92f12db2869c3395a3b0502d05e2516446f71f85e84015550517fc2575a0e9e593c00f959f8c92f12db2869c3395a3b0502d05e2516446f71f85f90910155565b61064f611403565b6001600160a01b0316610660610dcb565b6001600160a01b0316146106a9576040805162461bcd60e51b81526020600482018190526024820152600080516020611c73833981519152604482015290519081900360640190fd5b60075443116106ed576040805162461bcd60e51b815260206004820152600b60248201526a756e646572626f756e647360a81b604482015290519081900360640190fd5b6001546040805163a9059cbb60e01b81526001600160a01b038681166004830152602482018690529151919092169163a9059cbb9160448083019260209291908290030181600087803b15801561074357600080fd5b505af1158015610757573d6000803e3d6000fd5b505050506040513d602081101561076d57600080fd5b50506002546040805163a9059cbb60e01b81526001600160a01b038681166004830152602482018590529151919092169163a9059cbb9160448083019260209291908290030181600087803b1580156107c557600080fd5b505af11580156107d9573d6000803e3d6000fd5b505050506040513d60208110156107ef57600080fd5b5050505050565b600754431161083a576040805162461bcd60e51b815260206004820152600b60248201526a756e646572626f756e647360a81b604482015290519081900360640190fd5b60006003838154811061084957fe5b6000918252602080832086845260098252604080852033865290925292208054600590920290920192508311156108b15760405162461bcd60e51b8152600401808060200182810382526034815260200180611bd26034913960400191505060405180910390fd5b6108ba846109f8565b60006108f482600101546108ee64e8d4a510006108e88760030154876000015461146890919063ffffffff16565b906114c1565b90611528565b90506109003382611585565b600061092e83600201546108ee64e8d4a510006108e88860040154886000015461146890919063ffffffff16565b905061093a33826116e9565b82546109469086611528565b80845560038501546109639164e8d4a51000916108e89190611468565b6001840155600484015483546109839164e8d4a51000916108e891611468565b6002840155835461099e906001600160a01b03163387611816565b604080518681529051879133917ff279e6a1f5e320cca91135676d9cb6e44ca8a08c0b88342bcdb1144f6511b5689181900360200190a3505050505050565b6002546001600160a01b031681565b60065481565b60045481565b600060038281548110610a0757fe5b9060005260206000209060050201905080600201544311610a285750610b76565b8054604080516370a0823160e01b815230600482015290516000926001600160a01b0316916370a08231916024808301926020929190829003018186803b158015610a7257600080fd5b505afa158015610a86573d6000803e3d6000fd5b505050506040513d6020811015610a9c57600080fd5b5051905080610ab2575043600290910155610b76565b6000610ac2836002015443611868565b90506000610aef6008546108e88660010154610ae96004548761146890919063ffffffff16565b90611468565b9050610b12610b07846108e88464e8d4a51000611468565b600386015490611407565b84600301819055506000610b3f6008546108e88760010154610ae96005548861146890919063ffffffff16565b9050610b62610b57856108e88464e8d4a51000611468565b600487015490611407565b600486015550504360029093019290925550505b50565b600060038281548110610b8857fe5b60009182526020808320858452600982526040808520338087529352909320805460059093029093018054909450610bcd926001600160a01b03919091169190611816565b80546040805191825251849133917fbb757047c2b5f3974fe26b7c10f732e7bce710b0952a71082702781e62ae05959181900360200190a36000808255600182018190556002909101555050565b60035460005b81811015610c3a57610c32816109f8565b600101610c21565b5050565b610c46611403565b6001600160a01b0316610c57610dcb565b6001600160a01b031614610ca0576040805162461bcd60e51b81526020600482018190526024820152600080516020611c73833981519152604482015290519081900360640190fd5b8015610cae57610cae610c1b565b610ceb82610ce560038681548110610cc257fe5b90600052602060002090600502016001015460085461152890919063ffffffff16565b90611407565b6008819055508160038481548110610cff57fe5b906000526020600020906005020160010181905550505050565b610d21611403565b6001600160a01b0316610d32610dcb565b6001600160a01b031614610d7b576040805162461bcd60e51b81526020600482018190526024820152600080516020611c73833981519152604482015290519081900360640190fd5b600080546040516001600160a01b03909116907f8be0079c531659141344cd1fd0a4f28419497f9722a3daafe3b4186f6b6457e0908390a3600080546001600160a01b0319169055565b60055481565b6000546001600160a01b031690565b600960209081526000928352604080842090915290825290208054600182015460029092015490919083565b6001546001600160a01b031681565b600154604080516370a0823160e01b815230600482015290516000926001600160a01b0316916370a08231916024808301926020929190829003018186803b158015610e6057600080fd5b505afa158015610e74573d6000803e3d6000fd5b505050506040513d6020811015610e8a57600080fd5b5051905090565b60008060008060038681548110610ea457fe5b600091825260208083208984526009825260408085206001600160a01b038b811687529084528186206005959095029092016003810154600480830154835485516370a0823160e01b8152309381019390935294519399509697919695919493909316926370a082319260248083019392829003018186803b158015610f2957600080fd5b505afa158015610f3d573d6000803e3d6000fd5b505050506040513d6020811015610f5357600080fd5b5051600286015490915043118015610f6a57508015155b1561100a576000610f7f866002015443611868565b90506000610fa66008546108e88960010154610ae96004548761146890919063ffffffff16565b9050610fc5610fbe846108e88464e8d4a51000611468565b8690611407565b94506000610fec6008546108e88a60010154610ae96005548861146890919063ffffffff16565b9050611004610fbe856108e88464e8d4a51000611468565b94505050505b83546001850154611028906108ee64e8d4a510006108e88589611468565b61105086600201546108ee64e8d4a510006108e8888b6000015461146890919063ffffffff16565b97509750975050505050509250925092565b600254604080516370a0823160e01b815230600482015290516000926001600160a01b0316916370a08231916024808301926020929190829003018186803b158015610e6057600080fd5b600080600384815481106110bd57fe5b60009182526020918290206005909102018054604080516370a0823160e01b81526001600160a01b03888116600483015291519395509116926370a0823192602480840193829003018186803b15801561111657600080fd5b505afa15801561112a573d6000803e3d6000fd5b505050506040513d602081101561114057600080fd5b50519150505b92915050565b61115682336110ad565b8111156111a1576040805162461bcd60e51b8152602060048201526014602482015273494e53554646494349454e545f42414c414e434560601b604482015290519081900360640190fd5b6000600383815481106111b057fe5b600091825260208083208684526009825260408085203386529092529220600590910290910191506111e1846109f8565b80541561125f57600061121682600101546108ee64e8d4a510006108e88760030154876000015461146890919063ffffffff16565b90506112223382611585565b600061125083600201546108ee64e8d4a510006108e88860040154886000015461146890919063ffffffff16565b905061125c33826116e9565b50505b8154611276906001600160a01b03163330866118a3565b80546112829084611407565b808255600383015461129f9164e8d4a51000916108e89190611468565b6001820155600482015481546112bf9164e8d4a51000916108e891611468565b6002820155604080518481529051859133917f90890809c654f11d6e72a28fa60149770a0d11ec6c92319d6ceb2bb0a4ea1a159181900360200190a350505050565b611309611403565b6001600160a01b031661131a610dcb565b6001600160a01b031614611363576040805162461bcd60e51b81526020600482018190526024820152600080516020611c73833981519152604482015290519081900360640190fd5b6001600160a01b0381166113a85760405162461bcd60e51b8152600401808060200182810382526026815260200180611c066026913960400191505060405180910390fd5b600080546040516001600160a01b03808516939216917f8be0079c531659141344cd1fd0a4f28419497f9722a3daafe3b4186f6b6457e091a3600080546001600160a01b0319166001600160a01b0392909216919091179055565b3390565b600082820183811015611461576040805162461bcd60e51b815260206004820152601b60248201527f536166654d6174683a206164646974696f6e206f766572666c6f770000000000604482015290519081900360640190fd5b9392505050565b60008261147757506000611146565b8282028284828161148457fe5b04146114615760405162461bcd60e51b8152600401808060200182810382526021815260200180611c526021913960400191505060405180910390fd5b6000808211611517576040805162461bcd60e51b815260206004820152601a60248201527f536166654d6174683a206469766973696f6e206279207a65726f000000000000604482015290519081900360640190fd5b81838161152057fe5b049392505050565b60008282111561157f576040805162461bcd60e51b815260206004820152601e60248201527f536166654d6174683a207375627472616374696f6e206f766572666c6f770000604482015290519081900360640190fd5b50900390565b600154604080516370a0823160e01b815230600482015290516000926001600160a01b0316916370a08231916024808301926020929190829003018186803b1580156115d057600080fd5b505afa1580156115e4573d6000803e3d6000fd5b505050506040513d60208110156115fa57600080fd5b505190508082111561168e576001546040805163a9059cbb60e01b81526001600160a01b038681166004830152602482018590529151919092169163a9059cbb9160448083019260209291908290030181600087803b15801561165c57600080fd5b505af1158015611670573d6000803e3d6000fd5b505050506040513d602081101561168657600080fd5b506116e49050565b6001546040805163a9059cbb60e01b81526001600160a01b038681166004830152602482018690529151919092169163a9059cbb9160448083019260209291908290030181600087803b1580156107c557600080fd5b505050565b600254604080516370a0823160e01b815230600482015290516000926001600160a01b0316916370a08231916024808301926020929190829003018186803b15801561173457600080fd5b505afa158015611748573d6000803e3d6000fd5b505050506040513d602081101561175e57600080fd5b50519050808211156117c0576002546040805163a9059cbb60e01b81526001600160a01b038681166004830152602482018590529151919092169163a9059cbb9160448083019260209291908290030181600087803b15801561165c57600080fd5b6002546040805163a9059cbb60e01b81526001600160a01b038681166004830152602482018690529151919092169163a9059cbb9160448083019260209291908290030181600087803b1580156107c557600080fd5b604080516001600160a01b038416602482015260448082018490528251808303909101815260649091019091526020810180516001600160e01b031663a9059cbb60e01b1790526116e4908490611903565b60006007548210156118855761187e8284611528565b9050611146565b600754831061189657506000611146565b60075461187e9084611528565b604080516001600160a01b0380861660248301528416604482015260648082018490528251808303909101815260849091019091526020810180516001600160e01b03166323b872dd60e01b1790526118fd908590611903565b50505050565b6060611958826040518060400160405280602081526020017f5361666545524332303a206c6f772d6c6576656c2063616c6c206661696c6564815250856001600160a01b03166119b49092919063ffffffff16565b8051909150156116e45780806020019051602081101561197757600080fd5b50516116e45760405162461bcd60e51b815260040180806020018281038252602a815260200180611c93602a913960400191505060405180910390fd5b60606119c384846000856119cb565b949350505050565b606082471015611a0c5760405162461bcd60e51b8152600401808060200182810382526026815260200180611c2c6026913960400191505060405180910390fd5b611a1585611b27565b611a66576040805162461bcd60e51b815260206004820152601d60248201527f416464726573733a2063616c6c20746f206e6f6e2d636f6e7472616374000000604482015290519081900360640190fd5b60006060866001600160a01b031685876040518082805190602001908083835b60208310611aa55780518252601f199092019160209182019101611a86565b6001836020036101000a03801982511681845116808217855250505050505090500191505060006040518083038185875af1925050503d8060008114611b07576040519150601f19603f3d011682016040523d82523d6000602084013e611b0c565b606091505b5091509150611b1c828286611b2d565b979650505050505050565b3b151590565b60608315611b3c575081611461565b825115611b4c5782518084602001fd5b8160405162461bcd60e51b81526004018080602001828103825283818151815260200191508051906020019080838360005b83811015611b96578181015183820152602001611b7e565b50505050905090810190601f168015611bc35780820380516001836020036101000a031916815260200191505b509250505060405180910390fdfe43616e2774207769746864726177206d6f726520746f6b656e207468616e2070726576696f75736c79206465706f73697465642e4f776e61626c653a206e6577206f776e657220697320746865207a65726f2061646472657373416464726573733a20696e73756666696369656e742062616c616e636520666f722063616c6c536166654d6174683a206d756c7469706c69636174696f6e206f766572666c6f774f776e61626c653a2063616c6c6572206973206e6f7420746865206f776e65725361666545524332303a204552433230206f7065726174696f6e20646964206e6f742073756363656564a264697066735822122051f65eb4dd8c1c0e3d80d0ff0377ab6ff1bf578be2b6e7aaf53c314c2d9e812564736f6c634300060c0033",
  "immutableReferences": {},
  "source": "// SPDX-License-Identifier: MIT\n\npragma solidity 0.6.12;\n\nimport \"@openzeppelin/contracts/token/ERC20/IERC20.sol\";\nimport \"@openzeppelin/contracts/token/ERC20/SafeERC20.sol\";\nimport \"@openzeppelin/contracts/utils/EnumerableSet.sol\";\nimport \"@openzeppelin/contracts/math/SafeMath.sol\";\nimport \"@openzeppelin/contracts/access/Ownable.sol\";\n\n\ncontract PledgeFarm is Ownable {\n    \n    using SafeMath for uint256;\n    using SafeERC20 for IERC20;\n\n    struct UserInfo \n    {\n        uint256 amount;                 // How many LP tokens the user has provided.\n        uint256 attRewardDebt;             // Reward debt.\n        uint256 busdRewardDebt;\n    }\n\n    struct PoolInfo \n    {\n        IERC20 lpToken;                 // Address of LP token contract.\n        uint256 allocPoint;             // How many allocation points assigned to this pool.\n        uint256 lastRewardBlock;        // Last block number that ATT distribution occured.\n        uint256 accAttPerShare;        // Accumulated ATT per share, times 1e12.\n        uint256 accBusdPerShare;\n    }\n\n    IERC20 public ATT;                 // ATT token\n    IERC20 public BUSD;  \n    PoolInfo[] public poolInfo;         // Info of each pool.\n    uint256 public attPerBlock;        // ATT tokens created per block.\n    uint256 public busdPerBlock; \n    uint256 public startBlock;          // The block number at which ATT distribution starts.\n    uint256 public endBlock;            // The block number at which ATT distribution ends.\n    uint256 public totalAllocPoint = 0; // Total allocation poitns. Must be the sum of all allocation points in all pools.\n\n    mapping (uint256 => mapping (address => UserInfo)) public userInfo;     // Info of each user that stakes LP tokens.\n\n    event Deposit(address indexed user, uint256 indexed pid, uint256 amount);\n    event Withdraw(address indexed user, uint256 indexed pid, uint256 amount);\n    event EmergencyWithdraw(address indexed user, uint256 indexed pid, uint256 amount);\n\n    constructor(IERC20 _ATT, IERC20 _BUSD, uint256 _attPerBlock, uint256 _busdPerBlock, uint256 _startBlock, uint256 _endBlock) public {\n        ATT = _ATT;\n        BUSD = _BUSD;\n        attPerBlock = _attPerBlock;\n        busdPerBlock = _busdPerBlock;\n        startBlock = _startBlock;\n        endBlock = _endBlock;\n    }\n\n    /**\n     * @dev Adds a new lp to the pool. Can only be called by the owner. DO NOT add the same LP token more than once.\n     * @param _allocPoint How many allocation points to assign to this pool.\n     * @param _lpToken Address of LP token contract.\n     * @param _withUpdate Whether to update all LP token contracts. Should be true if ATT distribution has already begun.\n     */\n    function add(uint256 _allocPoint, IERC20 _lpToken, bool _withUpdate) public onlyOwner {\n        if (_withUpdate) {\n            massUpdatePools();\n        }\n        uint256 lastRewardBlock = block.number > startBlock ? block.number : startBlock;\n        totalAllocPoint = totalAllocPoint.add(_allocPoint);\n        poolInfo.push(PoolInfo({\n            lpToken: _lpToken,\n            allocPoint: _allocPoint,\n            lastRewardBlock: lastRewardBlock,\n            accAttPerShare: 0,\n            accBusdPerShare: 0\n        }));\n    }\n\n    /**\n     * @dev Update the given pool's ATT allocation point. Can only be called by the owner.\n     * @param _pid ID of a specific LP token pool. See index of PoolInfo[].\n     * @param _allocPoint How many allocation points to assign to this pool.\n     * @param _withUpdate Whether to update all LP token contracts. Should be true if ATT distribution has already begun.\n     */\n    function set(uint256 _pid, uint256 _allocPoint, bool _withUpdate) public onlyOwner {\n        if (_withUpdate) {\n            massUpdatePools();\n        }\n        totalAllocPoint = totalAllocPoint.sub(poolInfo[_pid].allocPoint).add(_allocPoint);\n        poolInfo[_pid].allocPoint = _allocPoint;\n    }\n\n    /**\n     * @dev Return reward multiplier over the given _from to _to blocks based on block count.\n     * @param _from First block.\n     * @param _to Last block.\n     * @return Number of blocks.\n     */\n    function getMultiplier(uint256 _from, uint256 _to) internal view returns (uint256) {\n        if (_to < endBlock) {\n            return _to.sub(_from);\n        } else if (_from >= endBlock) {\n            return 0;\n        } else {\n            return endBlock.sub(_from);\n        }     \n    }\n\n    /**\n     * @dev View function to see pending ATT on frontend.\n     * @param _pid ID of a specific LP token pool. See index of PoolInfo[].\n     * @param _user Address of a specific user.\n     * @return Pending ATT & BUSD.\n     */\n    function pendingRewards(uint256 _pid, address _user) external view returns (uint256, uint256, uint256) {\n        PoolInfo storage pool = poolInfo[_pid];\n        UserInfo storage user = userInfo[_pid][_user];\n        uint256 accAttPerShare = pool.accAttPerShare;\n        uint256 accBusdPerShare = pool.accBusdPerShare;\n        uint256 lpSupply = pool.lpToken.balanceOf(address(this));\n        if (block.number > pool.lastRewardBlock && lpSupply != 0) {\n            uint256 multiplier = getMultiplier(pool.lastRewardBlock, block.number);\n            uint256 attReward = multiplier.mul(attPerBlock).mul(pool.allocPoint).div(totalAllocPoint);\n            accAttPerShare = accAttPerShare.add(attReward.mul(1e12).div(lpSupply));\n            uint256 busdReward = multiplier.mul(busdPerBlock).mul(pool.allocPoint).div(totalAllocPoint);\n            accBusdPerShare = accBusdPerShare.add(busdReward.mul(1e12).div(lpSupply));\n            \n        }\n        return (user.amount, user.amount.mul(accAttPerShare).div(1e12).sub(user.attRewardDebt),\n        user.amount.mul(accBusdPerShare).div(1e12).sub(user.busdRewardDebt));\n    }\n\n    /**\n     * @dev Update reward vairables for all pools. Be careful of gas spending!\n     */\n    function massUpdatePools() public {\n        uint256 length = poolInfo.length;\n        for (uint256 pid = 0; pid < length; ++pid) {\n            updatePool(pid);\n        }\n    }\n\n    /**\n     * @dev Update reward variables of the given pool to be up-to-date.\n     * @param _pid ID of a specific LP token pool. See index of PoolInfo[].\n     */\n    function updatePool(uint256 _pid) public {\n        PoolInfo storage pool = poolInfo[_pid];\n        if (block.number <= pool.lastRewardBlock) {\n            return;\n        }\n        uint256 lpSupply = pool.lpToken.balanceOf(address(this));\n        if (lpSupply == 0) {\n            pool.lastRewardBlock = block.number;\n            return;\n        }\n        uint256 multiplier = getMultiplier(pool.lastRewardBlock, block.number);\n        uint256 attReward = multiplier.mul(attPerBlock).mul(pool.allocPoint).div(totalAllocPoint);\n        pool.accAttPerShare = pool.accAttPerShare.add(attReward.mul(1e12).div(lpSupply));\n        uint256 busdReward = multiplier.mul(busdPerBlock).mul(pool.allocPoint).div(totalAllocPoint);\n        pool.accBusdPerShare = pool.accBusdPerShare.add(busdReward.mul(1e12).div(lpSupply));\n        pool.lastRewardBlock = block.number;\n    }\n\n    /**\n     * @dev Deposit LP tokens to Faucet for ATT allocation.\n     * @param _pid ID of a specific LP token pool. See index of PoolInfo[].\n     * @param _amount Amount of LP tokens to deposit.\n     */\n    function deposit(uint256 _pid, uint256 _amount) public {\n        require(_amount <= userLpBalance(_pid, msg.sender), \"INSUFFICIENT_BALANCE\");\n        PoolInfo storage pool = poolInfo[_pid];\n        UserInfo storage user = userInfo[_pid][msg.sender];\n        updatePool(_pid);\n        if (user.amount > 0) {\n            uint256 pending = user.amount.mul(pool.accAttPerShare).div(1e12).sub(user.attRewardDebt);\n            safeAttTransfer(msg.sender, pending);\n            uint256 pendingBusd = user.amount.mul(pool.accBusdPerShare).div(1e12).sub(user.busdRewardDebt);\n            safeBusdTransfer(msg.sender, pendingBusd);\n        }\n        pool.lpToken.safeTransferFrom(address(msg.sender), address(this), _amount);\n        user.amount = user.amount.add(_amount);\n        user.attRewardDebt = user.amount.mul(pool.accAttPerShare).div(1e12);\n        user.busdRewardDebt = user.amount.mul(pool.accBusdPerShare).div(1e12);\n        emit Deposit(msg.sender, _pid, _amount);\n    }\n\n    function userLpBalance(uint256 _pid, address _user ) public view returns(uint256){\n        PoolInfo storage pool = poolInfo[_pid];\n        return pool.lpToken.balanceOf(_user);\n    }\n\n    /**\n     * @dev Withdraw LP tokens from MasterChef.\n     * @param _pid ID of a specific LP token pool. See index of PoolInfo[].\n     * @param _amount Amount of LP tokens to withdraw.\n     */\n    function withdraw(uint256 _pid, uint256 _amount) public {\n        require(block.number > endBlock, \"underbounds\");\n        PoolInfo storage pool = poolInfo[_pid];\n        UserInfo storage user = userInfo[_pid][msg.sender];\n        require(user.amount >= _amount, \"Can't withdraw more token than previously deposited.\");\n        updatePool(_pid);\n        uint256 pending = user.amount.mul(pool.accAttPerShare).div(1e12).sub(user.attRewardDebt);\n        safeAttTransfer(msg.sender, pending);\n        uint256 pendingBusd = user.amount.mul(pool.accBusdPerShare).div(1e12).sub(user.busdRewardDebt);\n        safeBusdTransfer(msg.sender, pendingBusd);\n        user.amount = user.amount.sub(_amount);\n        user.attRewardDebt = user.amount.mul(pool.accAttPerShare).div(1e12);\n        user.busdRewardDebt = user.amount.mul(pool.accBusdPerShare).div(1e12);\n        pool.lpToken.safeTransfer(address(msg.sender), _amount);\n        emit Withdraw(msg.sender, _pid, _amount);\n    }\n\n    /**\n     * @dev Withdraw without caring about rewards. EMERGENCY ONLY.\n     * @param _pid ID of a specific LP token pool. See index of PoolInfo[].\n     */\n    function emergencyWithdraw(uint256 _pid) public {\n        PoolInfo storage pool = poolInfo[_pid];\n        UserInfo storage user = userInfo[_pid][msg.sender];\n        pool.lpToken.safeTransfer(address(msg.sender), user.amount);\n        emit EmergencyWithdraw(msg.sender, _pid, user.amount);\n        user.amount = 0;\n        user.attRewardDebt = 0;\n        user.busdRewardDebt = 0;\n    }\n\n    /**\n     * @dev Safe att transfer function, just in case if rounding error causes faucet to not have enough ATT.\n     * @param _to Target address.\n     * @param _amount Amount of ATT to transfer.\n     */\n    function safeAttTransfer(address _to, uint256 _amount) internal {\n        uint256 attBalance = ATT.balanceOf(address(this));\n        if (_amount > attBalance) {\n            ATT.transfer(_to, attBalance);\n        } else {\n            ATT.transfer(_to, _amount);\n        }\n    }\n\n    function safeBusdTransfer(address _to, uint256 _amount) internal {\n        uint256 busdBalance = BUSD.balanceOf(address(this));\n        if (_amount > busdBalance) {\n            BUSD.transfer(_to, busdBalance);\n        } else {\n            BUSD.transfer(_to, _amount);\n        }\n    }\n\n    /**\n     * @dev Views total number of LP token pools.\n     * @return Size of poolInfo array.\n     */\n    function poolLength() external view returns (uint256) {\n        return poolInfo.length;\n    }\n    \n    /**\n     * @dev Views total number of ATT tokens deposited for rewards.\n     * @return ATT token balance of the faucet.\n     */\n    function balance() public view returns (uint256) {\n        return ATT.balanceOf(address(this));\n    }\n\n    function balanceBusd() public view returns (uint256) {\n        return BUSD.balanceOf(address(this));\n    }\n\n    /**\n     * @dev Rescue reward tokens.\n     */\n    function rescueTokens(address to, uint256 value0, uint256 value1) external onlyOwner  {\n        require(block.number > endBlock, \"underbounds\");\n         ATT.transfer(to, value0);\n         BUSD.transfer(to, value1);\n    }\n\n}",
  "sourcePath": "/home/sagar/Desktop/projects/ATT/smart-contracts/Farm/contracts/PledgeFarm.sol",
  "compiler": {
    "name": "solc",
    "version": "0.6.12+commit.27d51765.Emscripten.clang"
  },
  "schemaVersion": "3.3.2",
  "updatedAt": "2021-04-30T15:45:06.921Z",
  "devdoc": {
    "kind": "dev",
    "methods": {
      "add(uint256,address,bool)": {
        "details": "Adds a new lp to the pool. Can only be called by the owner. DO NOT add the same LP token more than once.",
        "params": {
          "_allocPoint": "How many allocation points to assign to this pool.",
          "_lpToken": "Address of LP token contract.",
          "_withUpdate": "Whether to update all LP token contracts. Should be true if ATT distribution has already begun."
        }
      },
      "balance()": {
        "details": "Views total number of ATT tokens deposited for rewards.",
        "returns": {
          "_0": "ATT token balance of the faucet."
        }
      },
      "deposit(uint256,uint256)": {
        "details": "Deposit LP tokens to Faucet for ATT allocation.",
        "params": {
          "_amount": "Amount of LP tokens to deposit.",
          "_pid": "ID of a specific LP token pool. See index of PoolInfo[]."
        }
      },
      "emergencyWithdraw(uint256)": {
        "details": "Withdraw without caring about rewards. EMERGENCY ONLY.",
        "params": {
          "_pid": "ID of a specific LP token pool. See index of PoolInfo[]."
        }
      },
      "massUpdatePools()": {
        "details": "Update reward vairables for all pools. Be careful of gas spending!"
      },
      "owner()": {
        "details": "Returns the address of the current owner."
      },
      "pendingRewards(uint256,address)": {
        "details": "View function to see pending ATT on frontend.",
        "params": {
          "_pid": "ID of a specific LP token pool. See index of PoolInfo[].",
          "_user": "Address of a specific user."
        },
        "returns": {
          "_0": "Pending ATT & BUSD."
        }
      },
      "poolLength()": {
        "details": "Views total number of LP token pools.",
        "returns": {
          "_0": "Size of poolInfo array."
        }
      },
      "renounceOwnership()": {
        "details": "Leaves the contract without owner. It will not be possible to call `onlyOwner` functions anymore. Can only be called by the current owner. NOTE: Renouncing ownership will leave the contract without an owner, thereby removing any functionality that is only available to the owner."
      },
      "rescueTokens(address,uint256,uint256)": {
        "details": "Rescue reward tokens."
      },
      "set(uint256,uint256,bool)": {
        "details": "Update the given pool's ATT allocation point. Can only be called by the owner.",
        "params": {
          "_allocPoint": "How many allocation points to assign to this pool.",
          "_pid": "ID of a specific LP token pool. See index of PoolInfo[].",
          "_withUpdate": "Whether to update all LP token contracts. Should be true if ATT distribution has already begun."
        }
      },
      "transferOwnership(address)": {
        "details": "Transfers ownership of the contract to a new account (`newOwner`). Can only be called by the current owner."
      },
      "updatePool(uint256)": {
        "details": "Update reward variables of the given pool to be up-to-date.",
        "params": {
          "_pid": "ID of a specific LP token pool. See index of PoolInfo[]."
        }
      },
      "withdraw(uint256,uint256)": {
        "details": "Withdraw LP tokens from MasterChef.",
        "params": {
          "_amount": "Amount of LP tokens to withdraw.",
          "_pid": "ID of a specific LP token pool. See index of PoolInfo[]."
        }
      }
    },
    "version": 1
  },
  "userdoc": {
    "kind": "user",
    "methods": {},
    "version": 1
  }
}