{
  "contractName": "PledgeFarm",
  "abi": [
    {
      "inputs": [
        {
          "internalType": "contract IERC20",
          "name": "_ATT",
          "type": "address"
        },
        {
          "internalType": "contract IERC20",
          "name": "_BUSD",
          "type": "address"
        },
        {
          "internalType": "uint256",
          "name": "_attPerBlock",
          "type": "uint256"
        },
        {
          "internalType": "uint256",
          "name": "_busdPerBlock",
          "type": "uint256"
        },
        {
          "internalType": "uint256",
          "name": "_startBlock",
          "type": "uint256"
        },
        {
          "internalType": "uint256",
          "name": "_endBlock",
          "type": "uint256"
        }
      ],
      "stateMutability": "nonpayable",
      "type": "constructor"
    },
    {
      "anonymous": false,
      "inputs": [
        {
          "indexed": true,
          "internalType": "address",
          "name": "user",
          "type": "address"
        },
        {
          "indexed": true,
          "internalType": "uint256",
          "name": "pid",
          "type": "uint256"
        },
        {
          "indexed": false,
          "internalType": "uint256",
          "name": "amount",
          "type": "uint256"
        }
      ],
      "name": "Deposit",
      "type": "event"
    },
    {
      "anonymous": false,
      "inputs": [
        {
          "indexed": true,
          "internalType": "address",
          "name": "user",
          "type": "address"
        },
        {
          "indexed": true,
          "internalType": "uint256",
          "name": "pid",
          "type": "uint256"
        },
        {
          "indexed": false,
          "internalType": "uint256",
          "name": "amount",
          "type": "uint256"
        }
      ],
      "name": "EmergencyWithdraw",
      "type": "event"
    },
    {
      "anonymous": false,
      "inputs": [
        {
          "indexed": true,
          "internalType": "address",
          "name": "previousOwner",
          "type": "address"
        },
        {
          "indexed": true,
          "internalType": "address",
          "name": "newOwner",
          "type": "address"
        }
      ],
      "name": "OwnershipTransferred",
      "type": "event"
    },
    {
      "anonymous": false,
      "inputs": [
        {
          "indexed": true,
          "internalType": "address",
          "name": "user",
          "type": "address"
        },
        {
          "indexed": true,
          "internalType": "uint256",
          "name": "pid",
          "type": "uint256"
        },
        {
          "indexed": false,
          "internalType": "uint256",
          "name": "amount",
          "type": "uint256"
        }
      ],
      "name": "Withdraw",
      "type": "event"
    },
    {
      "inputs": [],
      "name": "ATT",
      "outputs": [
        {
          "internalType": "contract IERC20",
          "name": "",
          "type": "address"
        }
      ],
      "stateMutability": "view",
      "type": "function"
    },
    {
      "inputs": [],
      "name": "BUSD",
      "outputs": [
        {
          "internalType": "contract IERC20",
          "name": "",
          "type": "address"
        }
      ],
      "stateMutability": "view",
      "type": "function"
    },
    {
      "inputs": [],
      "name": "attPerBlock",
      "outputs": [
        {
          "internalType": "uint256",
          "name": "",
          "type": "uint256"
        }
      ],
      "stateMutability": "view",
      "type": "function"
    },
    {
      "inputs": [],
      "name": "busdPerBlock",
      "outputs": [
        {
          "internalType": "uint256",
          "name": "",
          "type": "uint256"
        }
      ],
      "stateMutability": "view",
      "type": "function"
    },
    {
      "inputs": [],
      "name": "endBlock",
      "outputs": [
        {
          "internalType": "uint256",
          "name": "",
          "type": "uint256"
        }
      ],
      "stateMutability": "view",
      "type": "function"
    },
    {
      "inputs": [],
      "name": "owner",
      "outputs": [
        {
          "internalType": "address",
          "name": "",
          "type": "address"
        }
      ],
      "stateMutability": "view",
      "type": "function"
    },
    {
      "inputs": [
        {
          "internalType": "uint256",
          "name": "",
          "type": "uint256"
        }
      ],
      "name": "poolInfo",
      "outputs": [
        {
          "internalType": "contract IERC20",
          "name": "lpToken",
          "type": "address"
        },
        {
          "internalType": "uint256",
          "name": "allocPoint",
          "type": "uint256"
        },
        {
          "internalType": "uint256",
          "name": "lastRewardBlock",
          "type": "uint256"
        },
        {
          "internalType": "uint256",
          "name": "accAttPerShare",
          "type": "uint256"
        },
        {
          "internalType": "uint256",
          "name": "accBusdPerShare",
          "type": "uint256"
        }
      ],
      "stateMutability": "view",
      "type": "function"
    },
    {
      "inputs": [],
      "name": "renounceOwnership",
      "outputs": [],
      "stateMutability": "nonpayable",
      "type": "function"
    },
    {
      "inputs": [],
      "name": "startBlock",
      "outputs": [
        {
          "internalType": "uint256",
          "name": "",
          "type": "uint256"
        }
      ],
      "stateMutability": "view",
      "type": "function"
    },
    {
      "inputs": [],
      "name": "totalAllocPoint",
      "outputs": [
        {
          "internalType": "uint256",
          "name": "",
          "type": "uint256"
        }
      ],
      "stateMutability": "view",
      "type": "function"
    },
    {
      "inputs": [
        {
          "internalType": "address",
          "name": "newOwner",
          "type": "address"
        }
      ],
      "name": "transferOwnership",
      "outputs": [],
      "stateMutability": "nonpayable",
      "type": "function"
    },
    {
      "inputs": [
        {
          "internalType": "uint256",
          "name": "",
          "type": "uint256"
        },
        {
          "internalType": "address",
          "name": "",
          "type": "address"
        }
      ],
      "name": "userInfo",
      "outputs": [
        {
          "internalType": "uint256",
          "name": "amount",
          "type": "uint256"
        },
        {
          "internalType": "uint256",
          "name": "attRewardDebt",
          "type": "uint256"
        },
        {
          "internalType": "uint256",
          "name": "busdRewardDebt",
          "type": "uint256"
        }
      ],
      "stateMutability": "view",
      "type": "function"
    },
    {
      "inputs": [
        {
          "internalType": "uint256",
          "name": "_allocPoint",
          "type": "uint256"
        },
        {
          "internalType": "contract IERC20",
          "name": "_lpToken",
          "type": "address"
        },
        {
          "internalType": "bool",
          "name": "_withUpdate",
          "type": "bool"
        }
      ],
      "name": "add",
      "outputs": [],
      "stateMutability": "nonpayable",
      "type": "function"
    },
    {
      "inputs": [
        {
          "internalType": "uint256",
          "name": "_pid",
          "type": "uint256"
        },
        {
          "internalType": "uint256",
          "name": "_allocPoint",
          "type": "uint256"
        },
        {
          "internalType": "bool",
          "name": "_withUpdate",
          "type": "bool"
        }
      ],
      "name": "set",
      "outputs": [],
      "stateMutability": "nonpayable",
      "type": "function"
    },
    {
      "inputs": [
        {
          "internalType": "uint256",
          "name": "_pid",
          "type": "uint256"
        },
        {
          "internalType": "address",
          "name": "_user",
          "type": "address"
        }
      ],
      "name": "pendingAtt",
      "outputs": [
        {
          "internalType": "uint256",
          "name": "",
          "type": "uint256"
        },
        {
          "internalType": "uint256",
          "name": "",
          "type": "uint256"
        }
      ],
      "stateMutability": "view",
      "type": "function"
    },
    {
      "inputs": [],
      "name": "massUpdatePools",
      "outputs": [],
      "stateMutability": "nonpayable",
      "type": "function"
    },
    {
      "inputs": [
        {
          "internalType": "uint256",
          "name": "_pid",
          "type": "uint256"
        }
      ],
      "name": "updatePool",
      "outputs": [],
      "stateMutability": "nonpayable",
      "type": "function"
    },
    {
      "inputs": [
        {
          "internalType": "uint256",
          "name": "_pid",
          "type": "uint256"
        },
        {
          "internalType": "uint256",
          "name": "_amount",
          "type": "uint256"
        }
      ],
      "name": "deposit",
      "outputs": [],
      "stateMutability": "nonpayable",
      "type": "function"
    },
    {
      "inputs": [
        {
          "internalType": "uint256",
          "name": "_pid",
          "type": "uint256"
        },
        {
          "internalType": "uint256",
          "name": "_amount",
          "type": "uint256"
        }
      ],
      "name": "withdraw",
      "outputs": [],
      "stateMutability": "nonpayable",
      "type": "function"
    },
    {
      "inputs": [
        {
          "internalType": "uint256",
          "name": "_pid",
          "type": "uint256"
        }
      ],
      "name": "emergencyWithdraw",
      "outputs": [],
      "stateMutability": "nonpayable",
      "type": "function"
    },
    {
      "inputs": [],
      "name": "poolLength",
      "outputs": [
        {
          "internalType": "uint256",
          "name": "",
          "type": "uint256"
        }
      ],
      "stateMutability": "view",
      "type": "function"
    },
    {
      "inputs": [],
      "name": "balance",
      "outputs": [
        {
          "internalType": "uint256",
          "name": "",
          "type": "uint256"
        }
      ],
      "stateMutability": "view",
      "type": "function"
    },
    {
      "inputs": [],
      "name": "balanceBusd",
      "outputs": [
        {
          "internalType": "uint256",
          "name": "",
          "type": "uint256"
        }
      ],
      "stateMutability": "view",
      "type": "function"
    },
    {
      "inputs": [
        {
          "internalType": "address",
          "name": "to",
          "type": "address"
        },
        {
          "internalType": "uint256",
          "name": "value0",
          "type": "uint256"
        },
        {
          "internalType": "uint256",
          "name": "value1",
          "type": "uint256"
        }
      ],
      "name": "rescueTokens",
      "outputs": [],
      "stateMutability": "nonpayable",
      "type": "function"
    }
  ],
  "bytecode": "0x6080604052600060085534801561001557600080fd5b50604051611ce8380380611ce8833981810160405260c081101561003857600080fd5b508051602082015160408301516060840151608085015160a090950151939492939192909160006100676100f8565b600080546001600160a01b0319166001600160a01b0383169081178255604051929350917f8be0079c531659141344cd1fd0a4f28419497f9722a3daafe3b4186f6b6457e0908290a350600180546001600160a01b039788166001600160a01b03199182161790915560028054969097169516949094179094556004919091556005556006919091556007556100fc565b3390565b611bdd8061010b6000396000f3fe608060405234801561001057600080fd5b50600436106101585760003560e01c80635312ea8e116100c357806393f1a40b1161007c57806393f1a40b14610362578063a1ee7855146103ac578063b69ef8a8146103b4578063da85ae18146103bc578063e2bbb158146103c4578063f2fde38b146103e757610158565b80635312ea8e146102fa578063630b5ba11461031757806364482f791461031f578063715018a61461034a578063734f2a9c146103525780638da5cb5b1461035a57610158565b80632316040b116101155780632316040b14610254578063441a3e7014610286578063484f4ea9146102a957806348cd4cb1146102cd5780634f2683ae146102d557806351eb05a6146102dd57610158565b8063081e3eda1461015d578063083c63231461017757806313c4e0db1461017f5780631526fe27146101c457806317caf6f1146102165780631eaaa0451461021e575b600080fd5b61016561040d565b60408051918252519081900360200190f35b610165610413565b6101ab6004803603604081101561019557600080fd5b50803590602001356001600160a01b0316610419565b6040805192835260208301919091528051918290030190f35b6101e1600480360360208110156101da57600080fd5b5035610603565b604080516001600160a01b03909616865260208601949094528484019290925260608401526080830152519081900360a00190f35b61016561064b565b6102526004803603606081101561023457600080fd5b508035906001600160a01b0360208201351690604001351515610651565b005b6102526004803603606081101561026a57600080fd5b506001600160a01b038135169060208101359060400135610803565b6102526004803603604081101561029c57600080fd5b50803590602001356109b2565b6102b1610b8d565b604080516001600160a01b039092168252519081900360200190f35b610165610b9c565b610165610ba2565b610252600480360360208110156102f357600080fd5b5035610ba8565b6102526004803603602081101561031057600080fd5b5035610d23565b610252610dc5565b6102526004803603606081101561033557600080fd5b50803590602081013590604001351515610de8565b610252610ec3565b610165610f6f565b6102b1610f75565b61038e6004803603604081101561037857600080fd5b50803590602001356001600160a01b0316610f84565b60408051938452602084019290925282820152519081900360600190f35b6102b1610fb0565b610165610fbf565b61016561103b565b610252600480360360408110156103da57600080fd5b5080359060200135611086565b610252600480360360208110156103fd57600080fd5b50356001600160a01b03166111e6565b60035490565b60075481565b60008060006003858154811061042b57fe5b600091825260208083208884526009825260408085206001600160a01b038a811687529084528186206005959095029092016003810154600480830154835485516370a0823160e01b8152309381019390935294519399509697919695919493909316926370a082319260248083019392829003018186803b1580156104b057600080fd5b505afa1580156104c4573d6000803e3d6000fd5b505050506040513d60208110156104da57600080fd5b50516002860154909150431180156104f157508015155b1561059d5760006105068660020154436112e8565b90506000610539600854610533896001015461052d6004548761132990919063ffffffff16565b90611329565b90611389565b9050610558610551846105338464e8d4a51000611329565b86906113f0565b9450600061057f6008546105338a6001015461052d6005548861132990919063ffffffff16565b9050610597610551856105338464e8d4a51000611329565b94505050505b6105cb84600101546105c564e8d4a5100061053387896000015461132990919063ffffffff16565b9061144a565b6105f385600201546105c564e8d4a51000610533878a6000015461132990919063ffffffff16565b9650965050505050509250929050565b6003818154811061061057fe5b6000918252602090912060059091020180546001820154600283015460038401546004909401546001600160a01b0390931694509092909185565b60085481565b6106596114a7565b6001600160a01b031661066a610f75565b6001600160a01b0316146106b3576040805162461bcd60e51b81526020600482018190526024820152600080516020611b5e833981519152604482015290519081900360640190fd5b80156106c1576106c1610dc5565b600060065443116106d4576006546106d6565b435b6008549091506106e690856113f0565b6008556040805160a0810182526001600160a01b039485168152602081019586529081019182526000606082018181526080830182815260038054600181018255935292517fc2575a0e9e593c00f959f8c92f12db2869c3395a3b0502d05e2516446f71f85b600590930292830180546001600160a01b031916919097161790955594517fc2575a0e9e593c00f959f8c92f12db2869c3395a3b0502d05e2516446f71f85c86015590517fc2575a0e9e593c00f959f8c92f12db2869c3395a3b0502d05e2516446f71f85d85015591517fc2575a0e9e593c00f959f8c92f12db2869c3395a3b0502d05e2516446f71f85e84015550517fc2575a0e9e593c00f959f8c92f12db2869c3395a3b0502d05e2516446f71f85f90910155565b61080b6114a7565b6001600160a01b031661081c610f75565b6001600160a01b031614610865576040805162461bcd60e51b81526020600482018190526024820152600080516020611b5e833981519152604482015290519081900360640190fd5b60075443116108a9576040805162461bcd60e51b815260206004820152600b60248201526a756e646572626f756e647360a81b604482015290519081900360640190fd5b6001546040805163a9059cbb60e01b81526001600160a01b038681166004830152602482018690529151919092169163a9059cbb9160448083019260209291908290030181600087803b1580156108ff57600080fd5b505af1158015610913573d6000803e3d6000fd5b505050506040513d602081101561092957600080fd5b50506002546040805163a9059cbb60e01b81526001600160a01b038681166004830152602482018590529151919092169163a9059cbb9160448083019260209291908290030181600087803b15801561098157600080fd5b505af1158015610995573d6000803e3d6000fd5b505050506040513d60208110156109ab57600080fd5b5050505050565b60075443116109f6576040805162461bcd60e51b815260206004820152600b60248201526a756e646572626f756e647360a81b604482015290519081900360640190fd5b600060038381548110610a0557fe5b600091825260208083208684526009825260408085203386529092529220805460059092029092019250831115610a6d5760405162461bcd60e51b8152600401808060200182810382526034815260200180611abd6034913960400191505060405180910390fd5b610a7684610ba8565b6000610aa482600101546105c564e8d4a510006105338760030154876000015461132990919063ffffffff16565b9050610ab033826114ab565b6000610ade83600201546105c564e8d4a510006105338860040154886000015461132990919063ffffffff16565b9050610aea338261160f565b8254610af6908661144a565b8084556003850154610b139164e8d4a51000916105339190611329565b600184015560048401548354610b339164e8d4a510009161053391611329565b60028401558354610b4e906001600160a01b0316338761173c565b604080518681529051879133917ff279e6a1f5e320cca91135676d9cb6e44ca8a08c0b88342bcdb1144f6511b5689181900360200190a3505050505050565b6002546001600160a01b031681565b60065481565b60045481565b600060038281548110610bb757fe5b9060005260206000209060050201905080600201544311610bd85750610d20565b8054604080516370a0823160e01b815230600482015290516000926001600160a01b0316916370a08231916024808301926020929190829003018186803b158015610c2257600080fd5b505afa158015610c36573d6000803e3d6000fd5b505050506040513d6020811015610c4c57600080fd5b5051905080610c62575043600290910155610d20565b6000610c728360020154436112e8565b90506000610c99600854610533866001015461052d6004548761132990919063ffffffff16565b9050610cbc610cb1846105338464e8d4a51000611329565b6003860154906113f0565b84600301819055506000610ce9600854610533876001015461052d6005548861132990919063ffffffff16565b9050610d0c610d01856105338464e8d4a51000611329565b6004870154906113f0565b600486015550504360029093019290925550505b50565b600060038281548110610d3257fe5b60009182526020808320858452600982526040808520338087529352909320805460059093029093018054909450610d77926001600160a01b0391909116919061173c565b80546040805191825251849133917fbb757047c2b5f3974fe26b7c10f732e7bce710b0952a71082702781e62ae05959181900360200190a36000808255600182018190556002909101555050565b60035460005b81811015610de457610ddc81610ba8565b600101610dcb565b5050565b610df06114a7565b6001600160a01b0316610e01610f75565b6001600160a01b031614610e4a576040805162461bcd60e51b81526020600482018190526024820152600080516020611b5e833981519152604482015290519081900360640190fd5b8015610e5857610e58610dc5565b610e9582610e8f60038681548110610e6c57fe5b90600052602060002090600502016001015460085461144a90919063ffffffff16565b906113f0565b6008819055508160038481548110610ea957fe5b906000526020600020906005020160010181905550505050565b610ecb6114a7565b6001600160a01b0316610edc610f75565b6001600160a01b031614610f25576040805162461bcd60e51b81526020600482018190526024820152600080516020611b5e833981519152604482015290519081900360640190fd5b600080546040516001600160a01b03909116907f8be0079c531659141344cd1fd0a4f28419497f9722a3daafe3b4186f6b6457e0908390a3600080546001600160a01b0319169055565b60055481565b6000546001600160a01b031690565b600960209081526000928352604080842090915290825290208054600182015460029092015490919083565b6001546001600160a01b031681565b600154604080516370a0823160e01b815230600482015290516000926001600160a01b0316916370a08231916024808301926020929190829003018186803b15801561100a57600080fd5b505afa15801561101e573d6000803e3d6000fd5b505050506040513d602081101561103457600080fd5b5051905090565b600254604080516370a0823160e01b815230600482015290516000926001600160a01b0316916370a08231916024808301926020929190829003018186803b15801561100a57600080fd5b60006003838154811061109557fe5b600091825260208083208684526009825260408085203386529092529220600590910290910191506110c684610ba8565b8054156111445760006110fb82600101546105c564e8d4a510006105338760030154876000015461132990919063ffffffff16565b905061110733826114ab565b600061113583600201546105c564e8d4a510006105338860040154886000015461132990919063ffffffff16565b9050611141338261160f565b50505b815461115b906001600160a01b031633308661178e565b805461116790846113f0565b80825560038301546111849164e8d4a51000916105339190611329565b6001820155600482015481546111a49164e8d4a510009161053391611329565b6002820155604080518481529051859133917f90890809c654f11d6e72a28fa60149770a0d11ec6c92319d6ceb2bb0a4ea1a159181900360200190a350505050565b6111ee6114a7565b6001600160a01b03166111ff610f75565b6001600160a01b031614611248576040805162461bcd60e51b81526020600482018190526024820152600080516020611b5e833981519152604482015290519081900360640190fd5b6001600160a01b03811661128d5760405162461bcd60e51b8152600401808060200182810382526026815260200180611af16026913960400191505060405180910390fd5b600080546040516001600160a01b03808516939216917f8be0079c531659141344cd1fd0a4f28419497f9722a3daafe3b4186f6b6457e091a3600080546001600160a01b0319166001600160a01b0392909216919091179055565b6000600754821015611305576112fe828461144a565b9050611323565b600754831061131657506000611323565b6007546112fe908461144a565b92915050565b60008261133857506000611323565b8282028284828161134557fe5b04146113825760405162461bcd60e51b8152600401808060200182810382526021815260200180611b3d6021913960400191505060405180910390fd5b9392505050565b60008082116113df576040805162461bcd60e51b815260206004820152601a60248201527f536166654d6174683a206469766973696f6e206279207a65726f000000000000604482015290519081900360640190fd5b8183816113e857fe5b049392505050565b600082820183811015611382576040805162461bcd60e51b815260206004820152601b60248201527f536166654d6174683a206164646974696f6e206f766572666c6f770000000000604482015290519081900360640190fd5b6000828211156114a1576040805162461bcd60e51b815260206004820152601e60248201527f536166654d6174683a207375627472616374696f6e206f766572666c6f770000604482015290519081900360640190fd5b50900390565b3390565b600154604080516370a0823160e01b815230600482015290516000926001600160a01b0316916370a08231916024808301926020929190829003018186803b1580156114f657600080fd5b505afa15801561150a573d6000803e3d6000fd5b505050506040513d602081101561152057600080fd5b50519050808211156115b4576001546040805163a9059cbb60e01b81526001600160a01b038681166004830152602482018590529151919092169163a9059cbb9160448083019260209291908290030181600087803b15801561158257600080fd5b505af1158015611596573d6000803e3d6000fd5b505050506040513d60208110156115ac57600080fd5b5061160a9050565b6001546040805163a9059cbb60e01b81526001600160a01b038681166004830152602482018690529151919092169163a9059cbb9160448083019260209291908290030181600087803b15801561098157600080fd5b505050565b600254604080516370a0823160e01b815230600482015290516000926001600160a01b0316916370a08231916024808301926020929190829003018186803b15801561165a57600080fd5b505afa15801561166e573d6000803e3d6000fd5b505050506040513d602081101561168457600080fd5b50519050808211156116e6576002546040805163a9059cbb60e01b81526001600160a01b038681166004830152602482018590529151919092169163a9059cbb9160448083019260209291908290030181600087803b15801561158257600080fd5b6002546040805163a9059cbb60e01b81526001600160a01b038681166004830152602482018690529151919092169163a9059cbb9160448083019260209291908290030181600087803b15801561098157600080fd5b604080516001600160a01b038416602482015260448082018490528251808303909101815260649091019091526020810180516001600160e01b031663a9059cbb60e01b17905261160a9084906117ee565b604080516001600160a01b0380861660248301528416604482015260648082018490528251808303909101815260849091019091526020810180516001600160e01b03166323b872dd60e01b1790526117e89085906117ee565b50505050565b6060611843826040518060400160405280602081526020017f5361666545524332303a206c6f772d6c6576656c2063616c6c206661696c6564815250856001600160a01b031661189f9092919063ffffffff16565b80519091501561160a5780806020019051602081101561186257600080fd5b505161160a5760405162461bcd60e51b815260040180806020018281038252602a815260200180611b7e602a913960400191505060405180910390fd5b60606118ae84846000856118b6565b949350505050565b6060824710156118f75760405162461bcd60e51b8152600401808060200182810382526026815260200180611b176026913960400191505060405180910390fd5b61190085611a12565b611951576040805162461bcd60e51b815260206004820152601d60248201527f416464726573733a2063616c6c20746f206e6f6e2d636f6e7472616374000000604482015290519081900360640190fd5b60006060866001600160a01b031685876040518082805190602001908083835b602083106119905780518252601f199092019160209182019101611971565b6001836020036101000a03801982511681845116808217855250505050505090500191505060006040518083038185875af1925050503d80600081146119f2576040519150601f19603f3d011682016040523d82523d6000602084013e6119f7565b606091505b5091509150611a07828286611a18565b979650505050505050565b3b151590565b60608315611a27575081611382565b825115611a375782518084602001fd5b8160405162461bcd60e51b81526004018080602001828103825283818151815260200191508051906020019080838360005b83811015611a81578181015183820152602001611a69565b50505050905090810190601f168015611aae5780820380516001836020036101000a031916815260200191505b509250505060405180910390fdfe43616e2774207769746864726177206d6f726520746f6b656e207468616e2070726576696f75736c79206465706f73697465642e4f776e61626c653a206e6577206f776e657220697320746865207a65726f2061646472657373416464726573733a20696e73756666696369656e742062616c616e636520666f722063616c6c536166654d6174683a206d756c7469706c69636174696f6e206f766572666c6f774f776e61626c653a2063616c6c6572206973206e6f7420746865206f776e65725361666545524332303a204552433230206f7065726174696f6e20646964206e6f742073756363656564a2646970667358221220e2cb431808f016560c2b3ded873b105c7d55f0ce034aefdfe2a702911493bb8b64736f6c634300060c0033",
  "immutableReferences": {},
  "source": "// SPDX-License-Identifier: MIT\n\npragma solidity 0.6.12;\n\nimport \"@openzeppelin/contracts/token/ERC20/IERC20.sol\";\nimport \"@openzeppelin/contracts/token/ERC20/SafeERC20.sol\";\nimport \"@openzeppelin/contracts/utils/EnumerableSet.sol\";\nimport \"@openzeppelin/contracts/math/SafeMath.sol\";\nimport \"@openzeppelin/contracts/access/Ownable.sol\";\n\n\ncontract PledgeFarm is Ownable {\n    \n    using SafeMath for uint256;\n    using SafeERC20 for IERC20;\n\n    struct UserInfo \n    {\n        uint256 amount;                 // How many LP tokens the user has provided.\n        uint256 attRewardDebt;             // Reward debt.\n        uint256 busdRewardDebt;\n    }\n\n    struct PoolInfo \n    {\n        IERC20 lpToken;                 // Address of LP token contract.\n        uint256 allocPoint;             // How many allocation points assigned to this pool.\n        uint256 lastRewardBlock;        // Last block number that ATT distribution occured.\n        uint256 accAttPerShare;        // Accumulated ATT per share, times 1e12.\n        uint256 accBusdPerShare;\n    }\n\n    IERC20 public ATT;                 // ATT token\n    IERC20 public BUSD;  \n    PoolInfo[] public poolInfo;         // Info of each pool.\n    uint256 public attPerBlock;        // ATT tokens created per block.\n    uint256 public busdPerBlock; \n    uint256 public startBlock;          // The block number at which ATT distribution starts.\n    uint256 public endBlock;            // The block number at which ATT distribution ends.\n    uint256 public totalAllocPoint = 0; // Total allocation poitns. Must be the sum of all allocation points in all pools.\n\n    mapping (uint256 => mapping (address => UserInfo)) public userInfo;     // Info of each user that stakes LP tokens.\n\n    event Deposit(address indexed user, uint256 indexed pid, uint256 amount);\n    event Withdraw(address indexed user, uint256 indexed pid, uint256 amount);\n    event EmergencyWithdraw(address indexed user, uint256 indexed pid, uint256 amount);\n\n    constructor(IERC20 _ATT, IERC20 _BUSD, uint256 _attPerBlock, uint256 _busdPerBlock, uint256 _startBlock, uint256 _endBlock) public {\n        ATT = _ATT;\n        BUSD = _BUSD;\n        attPerBlock = _attPerBlock;\n        busdPerBlock = _busdPerBlock;\n        startBlock = _startBlock;\n        endBlock = _endBlock;\n    }\n\n    /**\n     * @dev Adds a new lp to the pool. Can only be called by the owner. DO NOT add the same LP token more than once.\n     * @param _allocPoint How many allocation points to assign to this pool.\n     * @param _lpToken Address of LP token contract.\n     * @param _withUpdate Whether to update all LP token contracts. Should be true if ATT distribution has already begun.\n     */\n    function add(uint256 _allocPoint, IERC20 _lpToken, bool _withUpdate) public onlyOwner {\n        if (_withUpdate) {\n            massUpdatePools();\n        }\n        uint256 lastRewardBlock = block.number > startBlock ? block.number : startBlock;\n        totalAllocPoint = totalAllocPoint.add(_allocPoint);\n        poolInfo.push(PoolInfo({\n            lpToken: _lpToken,\n            allocPoint: _allocPoint,\n            lastRewardBlock: lastRewardBlock,\n            accAttPerShare: 0,\n            accBusdPerShare: 0\n        }));\n    }\n\n    /**\n     * @dev Update the given pool's ATT allocation point. Can only be called by the owner.\n     * @param _pid ID of a specific LP token pool. See index of PoolInfo[].\n     * @param _allocPoint How many allocation points to assign to this pool.\n     * @param _withUpdate Whether to update all LP token contracts. Should be true if ATT distribution has already begun.\n     */\n    function set(uint256 _pid, uint256 _allocPoint, bool _withUpdate) public onlyOwner {\n        if (_withUpdate) {\n            massUpdatePools();\n        }\n        totalAllocPoint = totalAllocPoint.sub(poolInfo[_pid].allocPoint).add(_allocPoint);\n        poolInfo[_pid].allocPoint = _allocPoint;\n    }\n\n    /**\n     * @dev Return reward multiplier over the given _from to _to blocks based on block count.\n     * @param _from First block.\n     * @param _to Last block.\n     * @return Number of blocks.\n     */\n    function getMultiplier(uint256 _from, uint256 _to) internal view returns (uint256) {\n        if (_to < endBlock) {\n            return _to.sub(_from);\n        } else if (_from >= endBlock) {\n            return 0;\n        } else {\n            return endBlock.sub(_from);\n        }     \n    }\n\n    /**\n     * @dev View function to see pending ATT on frontend.\n     * @param _pid ID of a specific LP token pool. See index of PoolInfo[].\n     * @param _user Address of a specific user.\n     * @return Pending ATT & BUSD.\n     */\n    function pendingAtt(uint256 _pid, address _user) external view returns (uint256, uint256) {\n        PoolInfo storage pool = poolInfo[_pid];\n        UserInfo storage user = userInfo[_pid][_user];\n        uint256 accAttPerShare = pool.accAttPerShare;\n        uint256 accBusdPerShare = pool.accBusdPerShare;\n        uint256 lpSupply = pool.lpToken.balanceOf(address(this));\n        if (block.number > pool.lastRewardBlock && lpSupply != 0) {\n            uint256 multiplier = getMultiplier(pool.lastRewardBlock, block.number);\n            uint256 attReward = multiplier.mul(attPerBlock).mul(pool.allocPoint).div(totalAllocPoint);\n            accAttPerShare = accAttPerShare.add(attReward.mul(1e12).div(lpSupply));\n            uint256 busdReward = multiplier.mul(busdPerBlock).mul(pool.allocPoint).div(totalAllocPoint);\n            accBusdPerShare = accBusdPerShare.add(busdReward.mul(1e12).div(lpSupply));\n            \n        }\n        return (user.amount.mul(accAttPerShare).div(1e12).sub(user.attRewardDebt),\n        user.amount.mul(accBusdPerShare).div(1e12).sub(user.busdRewardDebt));\n    }\n\n    /**\n     * @dev Update reward vairables for all pools. Be careful of gas spending!\n     */\n    function massUpdatePools() public {\n        uint256 length = poolInfo.length;\n        for (uint256 pid = 0; pid < length; ++pid) {\n            updatePool(pid);\n        }\n    }\n\n    /**\n     * @dev Update reward variables of the given pool to be up-to-date.\n     * @param _pid ID of a specific LP token pool. See index of PoolInfo[].\n     */\n    function updatePool(uint256 _pid) public {\n        PoolInfo storage pool = poolInfo[_pid];\n        if (block.number <= pool.lastRewardBlock) {\n            return;\n        }\n        uint256 lpSupply = pool.lpToken.balanceOf(address(this));\n        if (lpSupply == 0) {\n            pool.lastRewardBlock = block.number;\n            return;\n        }\n        uint256 multiplier = getMultiplier(pool.lastRewardBlock, block.number);\n        uint256 attReward = multiplier.mul(attPerBlock).mul(pool.allocPoint).div(totalAllocPoint);\n        pool.accAttPerShare = pool.accAttPerShare.add(attReward.mul(1e12).div(lpSupply));\n        uint256 busdReward = multiplier.mul(busdPerBlock).mul(pool.allocPoint).div(totalAllocPoint);\n        pool.accBusdPerShare = pool.accBusdPerShare.add(busdReward.mul(1e12).div(lpSupply));\n        pool.lastRewardBlock = block.number;\n    }\n\n    /**\n     * @dev Deposit LP tokens to Faucet for ATT allocation.\n     * @param _pid ID of a specific LP token pool. See index of PoolInfo[].\n     * @param _amount Amount of LP tokens to deposit.\n     */\n    function deposit(uint256 _pid, uint256 _amount) public {\n        PoolInfo storage pool = poolInfo[_pid];\n        UserInfo storage user = userInfo[_pid][msg.sender];\n        updatePool(_pid);\n        if (user.amount > 0) {\n            uint256 pending = user.amount.mul(pool.accAttPerShare).div(1e12).sub(user.attRewardDebt);\n            safeAttTransfer(msg.sender, pending);\n            uint256 pendingBusd = user.amount.mul(pool.accBusdPerShare).div(1e12).sub(user.busdRewardDebt);\n            safeBusdTransfer(msg.sender, pendingBusd);\n        }\n        pool.lpToken.safeTransferFrom(address(msg.sender), address(this), _amount);\n        user.amount = user.amount.add(_amount);\n        user.attRewardDebt = user.amount.mul(pool.accAttPerShare).div(1e12);\n        user.busdRewardDebt = user.amount.mul(pool.accBusdPerShare).div(1e12);\n        emit Deposit(msg.sender, _pid, _amount);\n    }\n\n    /**\n     * @dev Withdraw LP tokens from MasterChef.\n     * @param _pid ID of a specific LP token pool. See index of PoolInfo[].\n     * @param _amount Amount of LP tokens to withdraw.\n     */\n    function withdraw(uint256 _pid, uint256 _amount) public {\n        require(block.number > endBlock, \"underbounds\");\n        PoolInfo storage pool = poolInfo[_pid];\n        UserInfo storage user = userInfo[_pid][msg.sender];\n        require(user.amount >= _amount, \"Can't withdraw more token than previously deposited.\");\n        updatePool(_pid);\n        uint256 pending = user.amount.mul(pool.accAttPerShare).div(1e12).sub(user.attRewardDebt);\n        safeAttTransfer(msg.sender, pending);\n        uint256 pendingBusd = user.amount.mul(pool.accBusdPerShare).div(1e12).sub(user.busdRewardDebt);\n        safeBusdTransfer(msg.sender, pendingBusd);\n        user.amount = user.amount.sub(_amount);\n        user.attRewardDebt = user.amount.mul(pool.accAttPerShare).div(1e12);\n        user.busdRewardDebt = user.amount.mul(pool.accBusdPerShare).div(1e12);\n        pool.lpToken.safeTransfer(address(msg.sender), _amount);\n        emit Withdraw(msg.sender, _pid, _amount);\n    }\n\n    /**\n     * @dev Withdraw without caring about rewards. EMERGENCY ONLY.\n     * @param _pid ID of a specific LP token pool. See index of PoolInfo[].\n     */\n    function emergencyWithdraw(uint256 _pid) public {\n        PoolInfo storage pool = poolInfo[_pid];\n        UserInfo storage user = userInfo[_pid][msg.sender];\n        pool.lpToken.safeTransfer(address(msg.sender), user.amount);\n        emit EmergencyWithdraw(msg.sender, _pid, user.amount);\n        user.amount = 0;\n        user.attRewardDebt = 0;\n        user.busdRewardDebt = 0;\n    }\n\n    /**\n     * @dev Safe att transfer function, just in case if rounding error causes faucet to not have enough ATT.\n     * @param _to Target address.\n     * @param _amount Amount of ATT to transfer.\n     */\n    function safeAttTransfer(address _to, uint256 _amount) internal {\n        uint256 attBalance = ATT.balanceOf(address(this));\n        if (_amount > attBalance) {\n            ATT.transfer(_to, attBalance);\n        } else {\n            ATT.transfer(_to, _amount);\n        }\n    }\n\n    function safeBusdTransfer(address _to, uint256 _amount) internal {\n        uint256 busdBalance = BUSD.balanceOf(address(this));\n        if (_amount > busdBalance) {\n            BUSD.transfer(_to, busdBalance);\n        } else {\n            BUSD.transfer(_to, _amount);\n        }\n    }\n\n    /**\n     * @dev Views total number of LP token pools.\n     * @return Size of poolInfo array.\n     */\n    function poolLength() external view returns (uint256) {\n        return poolInfo.length;\n    }\n    \n    /**\n     * @dev Views total number of ATT tokens deposited for rewards.\n     * @return ATT token balance of the faucet.\n     */\n    function balance() public view returns (uint256) {\n        return ATT.balanceOf(address(this));\n    }\n\n    function balanceBusd() public view returns (uint256) {\n        return BUSD.balanceOf(address(this));\n    }\n\n    /**\n     * @dev Rescue reward tokens.\n     */\n    function rescueTokens(address to, uint256 value0, uint256 value1) external onlyOwner  {\n        require(block.number > endBlock, \"underbounds\");\n         ATT.transfer(to, value0);\n         BUSD.transfer(to, value1);\n    }\n\n}",
  "sourcePath": "/home/sagar/Desktop/projects/ATT/smart-contracts/Farm/contracts/PledgeFarm.sol",
  "compiler": {
    "name": "solc",
    "version": "0.6.12+commit.27d51765.Emscripten.clang"
  },
  "schemaVersion": "3.3.2",
  "updatedAt": "2021-04-30T10:47:43.172Z",
  "devdoc": {
    "kind": "dev",
    "methods": {
      "add(uint256,address,bool)": {
        "details": "Adds a new lp to the pool. Can only be called by the owner. DO NOT add the same LP token more than once.",
        "params": {
          "_allocPoint": "How many allocation points to assign to this pool.",
          "_lpToken": "Address of LP token contract.",
          "_withUpdate": "Whether to update all LP token contracts. Should be true if ATT distribution has already begun."
        }
      },
      "balance()": {
        "details": "Views total number of ATT tokens deposited for rewards.",
        "returns": {
          "_0": "ATT token balance of the faucet."
        }
      },
      "deposit(uint256,uint256)": {
        "details": "Deposit LP tokens to Faucet for ATT allocation.",
        "params": {
          "_amount": "Amount of LP tokens to deposit.",
          "_pid": "ID of a specific LP token pool. See index of PoolInfo[]."
        }
      },
      "emergencyWithdraw(uint256)": {
        "details": "Withdraw without caring about rewards. EMERGENCY ONLY.",
        "params": {
          "_pid": "ID of a specific LP token pool. See index of PoolInfo[]."
        }
      },
      "massUpdatePools()": {
        "details": "Update reward vairables for all pools. Be careful of gas spending!"
      },
      "owner()": {
        "details": "Returns the address of the current owner."
      },
      "pendingAtt(uint256,address)": {
        "details": "View function to see pending ATT on frontend.",
        "params": {
          "_pid": "ID of a specific LP token pool. See index of PoolInfo[].",
          "_user": "Address of a specific user."
        },
        "returns": {
          "_0": "Pending ATT & BUSD."
        }
      },
      "poolLength()": {
        "details": "Views total number of LP token pools.",
        "returns": {
          "_0": "Size of poolInfo array."
        }
      },
      "renounceOwnership()": {
        "details": "Leaves the contract without owner. It will not be possible to call `onlyOwner` functions anymore. Can only be called by the current owner. NOTE: Renouncing ownership will leave the contract without an owner, thereby removing any functionality that is only available to the owner."
      },
      "rescueTokens(address,uint256,uint256)": {
        "details": "Rescue reward tokens."
      },
      "set(uint256,uint256,bool)": {
        "details": "Update the given pool's ATT allocation point. Can only be called by the owner.",
        "params": {
          "_allocPoint": "How many allocation points to assign to this pool.",
          "_pid": "ID of a specific LP token pool. See index of PoolInfo[].",
          "_withUpdate": "Whether to update all LP token contracts. Should be true if ATT distribution has already begun."
        }
      },
      "transferOwnership(address)": {
        "details": "Transfers ownership of the contract to a new account (`newOwner`). Can only be called by the current owner."
      },
      "updatePool(uint256)": {
        "details": "Update reward variables of the given pool to be up-to-date.",
        "params": {
          "_pid": "ID of a specific LP token pool. See index of PoolInfo[]."
        }
      },
      "withdraw(uint256,uint256)": {
        "details": "Withdraw LP tokens from MasterChef.",
        "params": {
          "_amount": "Amount of LP tokens to withdraw.",
          "_pid": "ID of a specific LP token pool. See index of PoolInfo[]."
        }
      }
    },
    "version": 1
  },
  "userdoc": {
    "kind": "user",
    "methods": {},
    "version": 1
  }
}