{
  "contractName": "WatchTower",
  "abi": [
    {
      "inputs": [
        {
          "internalType": "address",
          "name": "_zelda",
          "type": "address"
        },
        {
          "internalType": "address",
          "name": "_xsafe",
          "type": "address"
        }
      ],
      "stateMutability": "nonpayable",
      "type": "constructor"
    },
    {
      "inputs": [],
      "name": "xsafe",
      "outputs": [
        {
          "internalType": "contract IXsafe",
          "name": "",
          "type": "address"
        }
      ],
      "stateMutability": "view",
      "type": "function"
    },
    {
      "inputs": [],
      "name": "zelda",
      "outputs": [
        {
          "internalType": "contract IZelda",
          "name": "",
          "type": "address"
        }
      ],
      "stateMutability": "view",
      "type": "function"
    },
    {
      "inputs": [],
      "name": "getCurrentBlock",
      "outputs": [
        {
          "internalType": "uint256",
          "name": "",
          "type": "uint256"
        }
      ],
      "stateMutability": "view",
      "type": "function"
    },
    {
      "inputs": [],
      "name": "getCurrentTimestamp",
      "outputs": [
        {
          "internalType": "uint256",
          "name": "",
          "type": "uint256"
        }
      ],
      "stateMutability": "view",
      "type": "function"
    },
    {
      "inputs": [
        {
          "internalType": "address",
          "name": "_user",
          "type": "address"
        }
      ],
      "name": "userClaim",
      "outputs": [
        {
          "internalType": "bool",
          "name": "hasClaim",
          "type": "bool"
        },
        {
          "internalType": "uint256",
          "name": "amount",
          "type": "uint256"
        }
      ],
      "stateMutability": "view",
      "type": "function"
    },
    {
      "inputs": [
        {
          "internalType": "uint256",
          "name": "_count",
          "type": "uint256"
        }
      ],
      "name": "winHistory",
      "outputs": [
        {
          "components": [
            {
              "internalType": "address",
              "name": "winnerAddress",
              "type": "address"
            },
            {
              "internalType": "uint256",
              "name": "claimAmount",
              "type": "uint256"
            },
            {
              "internalType": "uint256",
              "name": "position",
              "type": "uint256"
            },
            {
              "internalType": "bool",
              "name": "hasPendingClaim",
              "type": "bool"
            }
          ],
          "internalType": "struct WatchTower.winnerStruct[]",
          "name": "winners",
          "type": "tuple[]"
        }
      ],
      "stateMutability": "view",
      "type": "function"
    },
    {
      "inputs": [],
      "name": "currentZeldaCount",
      "outputs": [
        {
          "internalType": "uint256",
          "name": "",
          "type": "uint256"
        }
      ],
      "stateMutability": "view",
      "type": "function"
    },
    {
      "inputs": [],
      "name": "currentWin",
      "outputs": [
        {
          "components": [
            {
              "internalType": "address",
              "name": "winnerAddress",
              "type": "address"
            },
            {
              "internalType": "uint256",
              "name": "claimAmount",
              "type": "uint256"
            },
            {
              "internalType": "uint256",
              "name": "position",
              "type": "uint256"
            },
            {
              "internalType": "bool",
              "name": "hasPendingClaim",
              "type": "bool"
            }
          ],
          "internalType": "struct WatchTower.winnerStruct[]",
          "name": "winners",
          "type": "tuple[]"
        }
      ],
      "stateMutability": "view",
      "type": "function"
    },
    {
      "inputs": [
        {
          "internalType": "address",
          "name": "_user",
          "type": "address"
        }
      ],
      "name": "userUnStake",
      "outputs": [
        {
          "internalType": "uint256",
          "name": "xBal",
          "type": "uint256"
        },
        {
          "internalType": "uint256",
          "name": "price",
          "type": "uint256"
        },
        {
          "internalType": "uint256",
          "name": "estimatedValue",
          "type": "uint256"
        }
      ],
      "stateMutability": "view",
      "type": "function"
    },
    {
      "inputs": [
        {
          "internalType": "address",
          "name": "_user",
          "type": "address"
        }
      ],
      "name": "userStake",
      "outputs": [
        {
          "internalType": "uint256",
          "name": "bal",
          "type": "uint256"
        },
        {
          "internalType": "uint256",
          "name": "price",
          "type": "uint256"
        },
        {
          "internalType": "uint256",
          "name": "estimatedValue",
          "type": "uint256"
        }
      ],
      "stateMutability": "view",
      "type": "function"
    },
    {
      "inputs": [],
      "name": "stakeStats",
      "outputs": [
        {
          "internalType": "uint256",
          "name": "supply",
          "type": "uint256"
        },
        {
          "internalType": "uint256",
          "name": "price",
          "type": "uint256"
        },
        {
          "internalType": "uint256",
          "name": "xSafeBalance",
          "type": "uint256"
        },
        {
          "internalType": "uint256",
          "name": "attLocked",
          "type": "uint256"
        }
      ],
      "stateMutability": "view",
      "type": "function"
    }
  ],
  "bytecode": "0x6080604052600560005534801561001557600080fd5b50604051610c0d380380610c0d83398101604081905261003491610065565b600180546001600160a01b039384166001600160a01b031991821617909155600280549290931691161790556100b6565b60008060408385031215610077578182fd5b82516100828161009e565b60208401519092506100938161009e565b809150509250929050565b6001600160a01b03811681146100b357600080fd5b50565b610b48806100c56000396000f3fe608060405234801561001057600080fd5b50600436106100a95760003560e01c80636c9230db116100715780636c9230db14610139578063811386d31461014157806391fbae871461015957806392fb019b14610161578063988f940514610174578063ab1062fe14610187576100a9565b80630a6b433f146100ae5780630c5a57a0146100d85780633418170b146100ed578063672d5d3b1461010257806368e5585d14610117575b600080fd5b6100c16100bc3660046108e5565b61018f565b6040516100cf929190610a89565b60405180910390f35b6100e0610226565b6040516100cf9190610a06565b6100f5610235565b6040516100cf9190610a1a565b61010a610252565b6040516100cf9190610a99565b61012a6101253660046108e5565b610256565b6040516100cf93929190610aa2565b61010a61036a565b61014961036e565b6040516100cf9493929190610ab8565b61010a610594565b6100f561016f3660046109b3565b610616565b61012a6101823660046108e5565b6107db565b6100e0610892565b600154604051637a0787a960e11b815260009182916001600160a01b039091169063f40f0f52906101c4908690600401610a06565b60206040518083038186803b1580156101dc57600080fd5b505afa1580156101f0573d6000803e3d6000fd5b505050506040513d601f19601f8201168201806040525081019061021491906109cb565b9050801561022157600191505b915091565b6001546001600160a01b031681565b60606000610241610594565b905061024c81610616565b91505090565b4390565b600254604051633829a9b360e11b8152600091829182916001600160a01b03169063705353669061028b908790600401610a06565b604080518083038186803b1580156102a257600080fd5b505afa1580156102b6573d6000803e3d6000fd5b505050506040513d601f19601f820116820180604052508101906102da91906109e3565b60025460405163491d783f60e01b81529195506001600160a01b0316915063491d783f9061030d90600190600401610a99565b60206040518083038186803b15801561032557600080fd5b505afa158015610339573d6000803e3d6000fd5b505050506040513d601f19601f8201168201806040525081019061035d91906109cb565b9294929350505082820290565b4290565b600080600080600260009054906101000a90046001600160a01b03166001600160a01b03166344d4dd7d6040518163ffffffff1660e01b815260040160206040518083038186803b1580156103c257600080fd5b505afa1580156103d6573d6000803e3d6000fd5b505050506040513d601f19601f820116820180604052508101906103fa91906109cb565b6002546040516378f7a3a760e01b81529195506001600160a01b0316906378f7a3a79061042c90600190600401610a99565b60206040518083038186803b15801561044457600080fd5b505afa158015610458573d6000803e3d6000fd5b505050506040513d601f19601f8201168201806040525081019061047c91906109cb565b9250600260009054906101000a90046001600160a01b03166001600160a01b03166363f6d0996040518163ffffffff1660e01b815260040160206040518083038186803b1580156104cc57600080fd5b505afa1580156104e0573d6000803e3d6000fd5b505050506040513d601f19601f8201168201806040525081019061050491906109cb565b9150600260009054906101000a90046001600160a01b03166001600160a01b031663779755616040518163ffffffff1660e01b815260040160206040518083038186803b15801561055457600080fd5b505afa158015610568573d6000803e3d6000fd5b505050506040513d601f19601f8201168201806040525081019061058c91906109cb565b905090919293565b600154604080516339a2462360e11b815290516000926001600160a01b0316916373448c46916004808301926020929190829003018186803b1580156105d957600080fd5b505afa1580156105ed573d6000803e3d6000fd5b505050506040513d601f19601f8201168201806040525081019061061191906109cb565b905090565b606060005467ffffffffffffffff8111801561063157600080fd5b5060405190808252806020026020018201604052801561066b57816020015b6106586108a1565b8152602001906001900390816106505790505b50600154604051631ac509a960e21b81529192506060916001600160a01b0390911690636b1426a4906106a2908690600401610a99565b60006040518083038186803b1580156106ba57600080fd5b505afa1580156106ce573d6000803e3d6000fd5b505050506040513d6000823e601f3d908101601f191682016040526106f69190810190610908565b905060005b6000548110156107d45760008061072484848151811061071757fe5b602002602001015161018f565b9150915083838151811061073457fe5b602002602001015185848151811061074857fe5b6020026020010151600001906001600160a01b031690816001600160a01b0316815250508085848151811061077957fe5b602002602001015160200181815250508260010185848151811061079957fe5b60200260200101516040018181525050818584815181106107b657fe5b602090810291909101015190151560609091015250506001016106fb565b5050919050565b600254604051633829a9b360e11b8152600091829182916001600160a01b031690637053536690610810908790600401610a06565b604080518083038186803b15801561082757600080fd5b505afa15801561083b573d6000803e3d6000fd5b505050506040513d601f19601f8201168201806040525081019061085f91906109e3565b506002546040516378f7a3a760e01b81529194506001600160a01b0316906378f7a3a79061030d90600190600401610a99565b6002546001600160a01b031681565b604051806080016040528060006001600160a01b0316815260200160008152602001600081526020016000151581525090565b80516108df81610afa565b92915050565b6000602082840312156108f6578081fd5b813561090181610afa565b9392505050565b6000602080838503121561091a578182fd5b825167ffffffffffffffff80821115610931578384fd5b818501915085601f830112610944578384fd5b815181811115610952578485fd5b8381029150610962848301610ad3565b8181528481019084860184860187018a101561097c578788fd5b8795505b838610156109a6576109928a826108d4565b835260019590950194918601918601610980565b5098975050505050505050565b6000602082840312156109c4578081fd5b5035919050565b6000602082840312156109dc578081fd5b5051919050565b600080604083850312156109f5578081fd5b505080516020909101519092909150565b6001600160a01b0391909116815260200190565b602080825282518282018190526000919060409081850190868401855b82811015610a7c57815180516001600160a01b031685528681015187860152858101518686015260609081015115159085015260809093019290850190600101610a37565b5091979650505050505050565b9115158252602082015260400190565b90815260200190565b9283526020830191909152604082015260600190565b93845260208401929092526040830152606082015260800190565b60405181810167ffffffffffffffff81118282101715610af257600080fd5b604052919050565b6001600160a01b0381168114610b0f57600080fd5b5056fea2646970667358221220028ee7bddace7d007f7b40339b8d5ca69017d50c54ca48aadee4bf18cce8514064736f6c634300060c0033",
  "immutableReferences": {},
  "source": "// SPDX-License-Identifier: MIT\npragma solidity 0.6.12;\npragma experimental ABIEncoderV2;\n\nimport \"./interfaces/IZelda.sol\";\nimport \"./interfaces/IXsafe.sol\";\n\ncontract WatchTower {\n\n    uint256 private maxRetPerStance = 5;\n    IZelda public zelda;\n    IXsafe public xsafe;\n\n    struct winnerStruct {\n        address winnerAddress;\n        uint256 claimAmount;\n        uint256 position;\n        bool hasPendingClaim;\n    }\n\n    constructor(\n        address _zelda,\n        address _xsafe\n    ) public {\n        zelda = IZelda(_zelda);\n        xsafe = IXsafe(_xsafe);\n    }\n\n    function getCurrentBlock() public view returns (uint256) {\n        return block.number;\n    }\n\n    function getCurrentTimestamp() public view returns (uint256) {\n        return block.timestamp;\n    }\n\n    function userClaim(address _user) public view returns(bool hasClaim, uint256 amount){\n        amount = zelda.pendingReward(_user);\n        if(amount > 0 ){\n            hasClaim = true;\n        }\n    }\n\n    function winHistory(uint256 _count) public view returns(winnerStruct[] memory winners){\n        winners = new winnerStruct[](maxRetPerStance);\n        address[] memory winArr = zelda.getWinners(_count);\n        for (uint256 i = 0; i < maxRetPerStance; i++) {\n            (bool hasClaim, uint256 amount) = userClaim(winArr[i]);\n            winners[i].winnerAddress = winArr[i];\n            winners[i].claimAmount = amount;\n            winners[i].position = i+1;\n            winners[i].hasPendingClaim = hasClaim;\n    }\n    }\n\n    function currentZeldaCount() public view returns(uint256){\n        return  zelda.getCurrentCounter();\n    }\n\n    function currentWin() public view returns (winnerStruct[] memory winners){\n        uint256 currentCount = currentZeldaCount();\n        winners = winHistory(currentCount);\n    }\n\n    function userUnStake(address _user) public view returns (uint256 xBal, uint256 price, uint256 estimatedValue){\n       (xBal, ) = xsafe.getUserStat(_user);\n       price = xsafe.toAtt(1);\n       estimatedValue = xBal*price;\n    }\n\n    function userStake(address _user) public view returns (uint256 bal, uint256 price, uint256 estimatedValue){\n       (, bal ) = xsafe.getUserStat(_user);\n       price = xsafe.toXAtt(1);\n       estimatedValue = bal*price;\n    }\n\n    function stakeStats() public view returns (uint256 supply, uint256 price, uint256 xSafeBalance, uint256 attLocked){\n       supply = xsafe.xattSupply();\n       price = xsafe.toAtt(1);\n       xSafeBalance = xsafe.getXsafeBalance();\n       attLocked = xsafe.getAttPoolBalance();\n    }\n\n\n}\n",
  "sourcePath": "/home/sagar/Desktop/projects/ATT/smart-contracts/WatchTower/contracts/WatchTower.sol",
  "compiler": {
    "name": "solc",
    "version": "0.6.12+commit.27d51765.Emscripten.clang"
  },
  "schemaVersion": "3.3.2",
  "updatedAt": "2021-04-30T07:15:02.937Z",
  "devdoc": {
    "kind": "dev",
    "methods": {},
    "version": 1
  },
  "userdoc": {
    "kind": "user",
    "methods": {},
    "version": 1
  }
}