{
  "contractName": "WatchTower",
  "abi": [
    {
      "inputs": [
        {
          "internalType": "address",
          "name": "_zelda",
          "type": "address"
        },
        {
          "internalType": "address",
          "name": "_xsafe",
          "type": "address"
        },
        {
          "internalType": "address",
          "name": "_liquid",
          "type": "address"
        },
        {
          "internalType": "address",
          "name": "_pledge",
          "type": "address"
        }
      ],
      "stateMutability": "nonpayable",
      "type": "constructor"
    },
    {
      "inputs": [],
      "name": "liquid",
      "outputs": [
        {
          "internalType": "contract ILiquidFarm",
          "name": "",
          "type": "address"
        }
      ],
      "stateMutability": "view",
      "type": "function"
    },
    {
      "inputs": [],
      "name": "pledge",
      "outputs": [
        {
          "internalType": "contract IPledgeFarm",
          "name": "",
          "type": "address"
        }
      ],
      "stateMutability": "view",
      "type": "function"
    },
    {
      "inputs": [],
      "name": "xsafe",
      "outputs": [
        {
          "internalType": "contract IXsafe",
          "name": "",
          "type": "address"
        }
      ],
      "stateMutability": "view",
      "type": "function"
    },
    {
      "inputs": [],
      "name": "zelda",
      "outputs": [
        {
          "internalType": "contract IZelda",
          "name": "",
          "type": "address"
        }
      ],
      "stateMutability": "view",
      "type": "function"
    },
    {
      "inputs": [],
      "name": "getCurrentBlock",
      "outputs": [
        {
          "internalType": "uint256",
          "name": "",
          "type": "uint256"
        }
      ],
      "stateMutability": "view",
      "type": "function"
    },
    {
      "inputs": [],
      "name": "getCurrentTimestamp",
      "outputs": [
        {
          "internalType": "uint256",
          "name": "",
          "type": "uint256"
        }
      ],
      "stateMutability": "view",
      "type": "function"
    },
    {
      "inputs": [
        {
          "internalType": "address",
          "name": "_user",
          "type": "address"
        }
      ],
      "name": "userClaim",
      "outputs": [
        {
          "internalType": "bool",
          "name": "hasClaim",
          "type": "bool"
        },
        {
          "internalType": "uint256",
          "name": "amount",
          "type": "uint256"
        }
      ],
      "stateMutability": "view",
      "type": "function"
    },
    {
      "inputs": [
        {
          "internalType": "uint256",
          "name": "_count",
          "type": "uint256"
        }
      ],
      "name": "winHistory",
      "outputs": [
        {
          "components": [
            {
              "internalType": "address",
              "name": "winnerAddress",
              "type": "address"
            },
            {
              "internalType": "uint256",
              "name": "claimAmount",
              "type": "uint256"
            },
            {
              "internalType": "uint256",
              "name": "position",
              "type": "uint256"
            },
            {
              "internalType": "bool",
              "name": "hasPendingClaim",
              "type": "bool"
            }
          ],
          "internalType": "struct WatchTower.winnerStruct[]",
          "name": "winners",
          "type": "tuple[]"
        }
      ],
      "stateMutability": "view",
      "type": "function"
    },
    {
      "inputs": [],
      "name": "currentZeldaCount",
      "outputs": [
        {
          "internalType": "uint256",
          "name": "",
          "type": "uint256"
        }
      ],
      "stateMutability": "view",
      "type": "function"
    },
    {
      "inputs": [],
      "name": "currentWin",
      "outputs": [
        {
          "components": [
            {
              "internalType": "address",
              "name": "winnerAddress",
              "type": "address"
            },
            {
              "internalType": "uint256",
              "name": "claimAmount",
              "type": "uint256"
            },
            {
              "internalType": "uint256",
              "name": "position",
              "type": "uint256"
            },
            {
              "internalType": "bool",
              "name": "hasPendingClaim",
              "type": "bool"
            }
          ],
          "internalType": "struct WatchTower.winnerStruct[]",
          "name": "winners",
          "type": "tuple[]"
        }
      ],
      "stateMutability": "view",
      "type": "function"
    },
    {
      "inputs": [
        {
          "internalType": "address",
          "name": "_user",
          "type": "address"
        }
      ],
      "name": "userUnStake",
      "outputs": [
        {
          "internalType": "uint256",
          "name": "xBal",
          "type": "uint256"
        },
        {
          "internalType": "uint256",
          "name": "price",
          "type": "uint256"
        },
        {
          "internalType": "uint256",
          "name": "estimatedValue",
          "type": "uint256"
        }
      ],
      "stateMutability": "view",
      "type": "function"
    },
    {
      "inputs": [
        {
          "internalType": "address",
          "name": "_user",
          "type": "address"
        }
      ],
      "name": "userStake",
      "outputs": [
        {
          "internalType": "uint256",
          "name": "bal",
          "type": "uint256"
        },
        {
          "internalType": "uint256",
          "name": "price",
          "type": "uint256"
        },
        {
          "internalType": "uint256",
          "name": "estimatedValue",
          "type": "uint256"
        }
      ],
      "stateMutability": "view",
      "type": "function"
    },
    {
      "inputs": [],
      "name": "stakeStats",
      "outputs": [
        {
          "internalType": "uint256",
          "name": "supply",
          "type": "uint256"
        },
        {
          "internalType": "uint256",
          "name": "price",
          "type": "uint256"
        },
        {
          "internalType": "uint256",
          "name": "xSafeBalance",
          "type": "uint256"
        },
        {
          "internalType": "uint256",
          "name": "attLocked",
          "type": "uint256"
        }
      ],
      "stateMutability": "view",
      "type": "function"
    },
    {
      "inputs": [
        {
          "internalType": "uint256",
          "name": "_pid",
          "type": "uint256"
        },
        {
          "internalType": "address",
          "name": "_user",
          "type": "address"
        }
      ],
      "name": "userUnstakeLiquid",
      "outputs": [
        {
          "internalType": "uint256",
          "name": "stake",
          "type": "uint256"
        },
        {
          "internalType": "uint256",
          "name": "estReturn",
          "type": "uint256"
        }
      ],
      "stateMutability": "view",
      "type": "function"
    },
    {
      "inputs": [
        {
          "internalType": "uint256",
          "name": "_pid",
          "type": "uint256"
        },
        {
          "internalType": "address",
          "name": "_user",
          "type": "address"
        }
      ],
      "name": "userStakeLiquid",
      "outputs": [
        {
          "internalType": "uint256",
          "name": "stake",
          "type": "uint256"
        },
        {
          "internalType": "uint256",
          "name": "balance",
          "type": "uint256"
        }
      ],
      "stateMutability": "view",
      "type": "function"
    },
    {
      "inputs": [
        {
          "internalType": "uint256",
          "name": "_pid",
          "type": "uint256"
        }
      ],
      "name": "statsLiquid",
      "outputs": [
        {
          "internalType": "uint256",
          "name": "totalStaked",
          "type": "uint256"
        },
        {
          "internalType": "uint256",
          "name": "totalRewardLeft",
          "type": "uint256"
        },
        {
          "internalType": "uint256",
          "name": "resetblock",
          "type": "uint256"
        }
      ],
      "stateMutability": "view",
      "type": "function"
    },
    {
      "inputs": [
        {
          "internalType": "uint256",
          "name": "_pid",
          "type": "uint256"
        },
        {
          "internalType": "address",
          "name": "_user",
          "type": "address"
        }
      ],
      "name": "userUnstakePledge",
      "outputs": [
        {
          "internalType": "uint256",
          "name": "stake",
          "type": "uint256"
        },
        {
          "internalType": "uint256",
          "name": "estReturnAtt",
          "type": "uint256"
        },
        {
          "internalType": "uint256",
          "name": "estReturnBusd",
          "type": "uint256"
        }
      ],
      "stateMutability": "view",
      "type": "function"
    },
    {
      "inputs": [
        {
          "internalType": "uint256",
          "name": "_pid",
          "type": "uint256"
        },
        {
          "internalType": "address",
          "name": "_user",
          "type": "address"
        }
      ],
      "name": "userStakePledge",
      "outputs": [
        {
          "internalType": "uint256",
          "name": "stake",
          "type": "uint256"
        },
        {
          "internalType": "uint256",
          "name": "balance",
          "type": "uint256"
        }
      ],
      "stateMutability": "view",
      "type": "function"
    },
    {
      "inputs": [
        {
          "internalType": "uint256",
          "name": "_pid",
          "type": "uint256"
        }
      ],
      "name": "statsPledge",
      "outputs": [
        {
          "internalType": "uint256",
          "name": "totalStaked",
          "type": "uint256"
        },
        {
          "internalType": "uint256",
          "name": "totalRewardLeftAtt",
          "type": "uint256"
        },
        {
          "internalType": "uint256",
          "name": "totalRewardLeftBusd",
          "type": "uint256"
        },
        {
          "internalType": "uint256",
          "name": "endblock",
          "type": "uint256"
        }
      ],
      "stateMutability": "view",
      "type": "function"
    }
  ],
  "bytecode": "0x608060405260056000553480156200001657600080fd5b5060405162001525380380620015258339810160408190526200003991620000ab565b600180546001600160a01b039586166001600160a01b03199182161790915560028054948616948216949094179093556003805492851692841692909217909155600480549190931691161790556200010b565b80516001600160a01b0381168114620000a557600080fd5b92915050565b60008060008060808587031215620000c1578384fd5b620000cd86866200008d565b9350620000de86602087016200008d565b9250620000ef86604087016200008d565b91506200010086606087016200008d565b905092959194509250565b61140a806200011b6000396000f3fe608060405234801561001057600080fd5b50600436106101215760003560e01c806388ffe867116100ad5780639c831e1d116100715780639c831e1d1461024e578063a68fee8714610261578063ab1062fe14610269578063af6f347f14610271578063cb3ce4b81461028457610121565b806388ffe8671461020557806391d77fd61461020d57806391fbae871461022057806392fb019b14610228578063988f94051461023b57610121565b80633418170b116100f45780633418170b146101a9578063672d5d3b146101be57806368e5585d146101d35780636c9230db146101f5578063811386d3146101fd57610121565b80630a6b433f146101265780630c5a57a0146101505780631b51ddc01461016557806325b62e5e14610186575b600080fd5b610139610134366004611126565b610297565b604051610147929190611326565b60405180910390f35b61015861032e565b60405161014791906112a3565b610178610173366004611224565b61033d565b604051610147929190611356565b6101996101943660046111f4565b6103ce565b604051610147949392919061137a565b6101b16105fd565b60405161014791906112b7565b6101c661061a565b6040516101479190611336565b6101e66101e1366004611126565b61061e565b60405161014793929190611364565b6101c6610732565b610199610736565b61015861095c565b61017861021b366004611224565b61096b565b6101c6610a7e565b6101b16102363660046111f4565b610b00565b6101e6610249366004611126565b610cc5565b61017861025c366004611224565b610d7c565b610158610e8f565b610158610e9e565b6101e661027f366004611224565b610ead565b6101e66102923660046111f4565b610f43565b600154604051637a0787a960e11b815260009182916001600160a01b039091169063f40f0f52906102cc9086906004016112a3565b60206040518083038186803b1580156102e457600080fd5b505afa1580156102f8573d6000803e3d6000fd5b505050506040513d601f19601f8201168201806040525081019061031c919061120c565b9050801561032957600191505b915091565b6001546001600160a01b031681565b6003546040516313c4e0db60e01b815260009182916001600160a01b03909116906313c4e0db90610374908790879060040161133f565b604080518083038186803b15801561038b57600080fd5b505afa15801561039f573d6000803e3d6000fd5b505050506040513d601f19601f820116820180604052508101906103c39190611253565b909590945092505050565b60048054600354604051636ea39eed60e11b81526000938493849384936001600160a01b039283169363dd473dda9361040c938b939116910161133f565b60206040518083038186803b15801561042457600080fd5b505afa158015610438573d6000803e3d6000fd5b505050506040513d601f19601f8201168201806040525081019061045c919061120c565b9350600460009054906101000a90046001600160a01b03166001600160a01b031663b69ef8a86040518163ffffffff1660e01b815260040160206040518083038186803b1580156104ac57600080fd5b505afa1580156104c0573d6000803e3d6000fd5b505050506040513d601f19601f820116820180604052508101906104e4919061120c565b9250600460009054906101000a90046001600160a01b03166001600160a01b031663da85ae186040518163ffffffff1660e01b815260040160206040518083038186803b15801561053457600080fd5b505afa158015610548573d6000803e3d6000fd5b505050506040513d601f19601f8201168201806040525081019061056c919061120c565b9150600460009054906101000a90046001600160a01b03166001600160a01b031663083c63236040518163ffffffff1660e01b815260040160206040518083038186803b1580156105bc57600080fd5b505afa1580156105d0573d6000803e3d6000fd5b505050506040513d601f19601f820116820180604052508101906105f4919061120c565b90509193509193565b60606000610609610a7e565b905061061481610b00565b91505090565b4390565b600254604051633829a9b360e11b8152600091829182916001600160a01b0316906370535366906106539087906004016112a3565b604080518083038186803b15801561066a57600080fd5b505afa15801561067e573d6000803e3d6000fd5b505050506040513d601f19601f820116820180604052508101906106a29190611253565b60025460405163491d783f60e01b81529195506001600160a01b0316915063491d783f906106d590600190600401611336565b60206040518083038186803b1580156106ed57600080fd5b505afa158015610701573d6000803e3d6000fd5b505050506040513d601f19601f82011682018060405250810190610725919061120c565b9294929350505082820290565b4290565b600080600080600260009054906101000a90046001600160a01b03166001600160a01b03166344d4dd7d6040518163ffffffff1660e01b815260040160206040518083038186803b15801561078a57600080fd5b505afa15801561079e573d6000803e3d6000fd5b505050506040513d601f19601f820116820180604052508101906107c2919061120c565b6002546040516378f7a3a760e01b81529195506001600160a01b0316906378f7a3a7906107f490600190600401611336565b60206040518083038186803b15801561080c57600080fd5b505afa158015610820573d6000803e3d6000fd5b505050506040513d601f19601f82011682018060405250810190610844919061120c565b9250600260009054906101000a90046001600160a01b03166001600160a01b03166363f6d0996040518163ffffffff1660e01b815260040160206040518083038186803b15801561089457600080fd5b505afa1580156108a8573d6000803e3d6000fd5b505050506040513d601f19601f820116820180604052508101906108cc919061120c565b9150600260009054906101000a90046001600160a01b03166001600160a01b031663779755616040518163ffffffff1660e01b815260040160206040518083038186803b15801561091c57600080fd5b505afa158015610930573d6000803e3d6000fd5b505050506040513d601f19601f82011682018060405250810190610954919061120c565b905090919293565b6004546001600160a01b031681565b60048054604051636ea39eed60e11b815260009283926001600160a01b03169163dd473dda9161099f91889188910161133f565b60206040518083038186803b1580156109b757600080fd5b505afa1580156109cb573d6000803e3d6000fd5b505050506040513d601f19601f820116820180604052508101906109ef919061120c565b600480546040516334637d4f60e21b81529293506001600160a01b03169163d18df53c91610a2191889188910161133f565b60606040518083038186803b158015610a3957600080fd5b505afa158015610a4d573d6000803e3d6000fd5b505050506040513d601f19601f82011682018060405250810190610a719190611276565b5090959194509092505050565b600154604080516339a2462360e11b815290516000926001600160a01b0316916373448c46916004808301926020929190829003018186803b158015610ac357600080fd5b505afa158015610ad7573d6000803e3d6000fd5b505050506040513d601f19601f82011682018060405250810190610afb919061120c565b905090565b606060005467ffffffffffffffff81118015610b1b57600080fd5b50604051908082528060200260200182016040528015610b5557816020015b610b426110e2565b815260200190600190039081610b3a5790505b50600154604051631ac509a960e21b81529192506060916001600160a01b0390911690636b1426a490610b8c908690600401611336565b60006040518083038186803b158015610ba457600080fd5b505afa158015610bb8573d6000803e3d6000fd5b505050506040513d6000823e601f3d908101601f19168201604052610be09190810190611149565b905060005b600054811015610cbe57600080610c0e848481518110610c0157fe5b6020026020010151610297565b91509150838381518110610c1e57fe5b6020026020010151858481518110610c3257fe5b6020026020010151600001906001600160a01b031690816001600160a01b03168152505080858481518110610c6357fe5b6020026020010151602001818152505082600101858481518110610c8357fe5b6020026020010151604001818152505081858481518110610ca057fe5b60209081029190910101519015156060909101525050600101610be5565b5050919050565b600254604051633829a9b360e11b8152600091829182916001600160a01b031690637053536690610cfa9087906004016112a3565b604080518083038186803b158015610d1157600080fd5b505afa158015610d25573d6000803e3d6000fd5b505050506040513d601f19601f82011682018060405250810190610d499190611253565b506002546040516378f7a3a760e01b81529194506001600160a01b0316906378f7a3a7906106d590600190600401611336565b600354604051636ea39eed60e11b815260009182916001600160a01b039091169063dd473dda90610db3908790879060040161133f565b60206040518083038186803b158015610dcb57600080fd5b505afa158015610ddf573d6000803e3d6000fd5b505050506040513d601f19601f82011682018060405250810190610e03919061120c565b6003546040516313c4e0db60e01b81529192506001600160a01b0316906313c4e0db90610e36908790879060040161133f565b604080518083038186803b158015610e4d57600080fd5b505afa158015610e61573d6000803e3d6000fd5b505050506040513d601f19601f82011682018060405250810190610e859190611253565b5094909350915050565b6003546001600160a01b031681565b6002546001600160a01b031681565b600480546040516334637d4f60e21b8152600092839283926001600160a01b039091169163d18df53c91610ee591899189910161133f565b60606040518083038186803b158015610efd57600080fd5b505afa158015610f11573d6000803e3d6000fd5b505050506040513d601f19601f82011682018060405250810190610f359190611276565b919790965090945092505050565b600354604051636ea39eed60e11b8152600091829182916001600160a01b03169063dd473dda90610f7a908790849060040161133f565b60206040518083038186803b158015610f9257600080fd5b505afa158015610fa6573d6000803e3d6000fd5b505050506040513d601f19601f82011682018060405250810190610fca919061120c565b9250600360009054906101000a90046001600160a01b03166001600160a01b031663b69ef8a86040518163ffffffff1660e01b815260040160206040518083038186803b15801561101a57600080fd5b505afa15801561102e573d6000803e3d6000fd5b505050506040513d601f19601f82011682018060405250810190611052919061120c565b9150600360009054906101000a90046001600160a01b03166001600160a01b031663083c63236040518163ffffffff1660e01b815260040160206040518083038186803b1580156110a257600080fd5b505afa1580156110b6573d6000803e3d6000fd5b505050506040513d601f19601f820116820180604052508101906110da919061120c565b929491935050565b604051806080016040528060006001600160a01b0316815260200160008152602001600081526020016000151581525090565b8051611120816113bc565b92915050565b600060208284031215611137578081fd5b8135611142816113bc565b9392505050565b6000602080838503121561115b578182fd5b825167ffffffffffffffff80821115611172578384fd5b818501915085601f830112611185578384fd5b815181811115611193578485fd5b83810291506111a3848301611395565b8181528481019084860184860187018a10156111bd578788fd5b8795505b838610156111e7576111d38a82611115565b8352600195909501949186019186016111c1565b5098975050505050505050565b600060208284031215611205578081fd5b5035919050565b60006020828403121561121d578081fd5b5051919050565b60008060408385031215611236578081fd5b823591506020830135611248816113bc565b809150509250929050565b60008060408385031215611265578182fd5b505080516020909101519092909150565b60008060006060848603121561128a578081fd5b8351925060208401519150604084015190509250925092565b6001600160a01b0391909116815260200190565b602080825282518282018190526000919060409081850190868401855b8281101561131957815180516001600160a01b0316855286810151878601528581015186860152606090810151151590850152608090930192908501906001016112d4565b5091979650505050505050565b9115158252602082015260400190565b90815260200190565b9182526001600160a01b0316602082015260400190565b918252602082015260400190565b9283526020830191909152604082015260600190565b93845260208401929092526040830152606082015260800190565b60405181810167ffffffffffffffff811182821017156113b457600080fd5b604052919050565b6001600160a01b03811681146113d157600080fd5b5056fea2646970667358221220c66ed9ed792af09a7a92ee7a43b94624b0b619fb1dd136de8dcfb94a9eb27b7764736f6c634300060c0033",
  "immutableReferences": {},
  "source": "// SPDX-License-Identifier: MIT\npragma solidity 0.6.12;\npragma experimental ABIEncoderV2;\n\nimport \"./interfaces/IZelda.sol\";\nimport \"./interfaces/IXsafe.sol\";\nimport \"./interfaces/ILiquidFarm.sol\";\nimport \"./interfaces/IPledgeFarm.sol\";\n\ncontract WatchTower {\n\n    uint256 private maxRetPerStance = 5;\n    IZelda public zelda;\n    IXsafe public xsafe;\n    ILiquidFarm public liquid;\n    IPledgeFarm public pledge;\n\n    struct winnerStruct {\n        address winnerAddress;\n        uint256 claimAmount;\n        uint256 position;\n        bool hasPendingClaim;\n    }\n\n    constructor(\n        address _zelda,\n        address _xsafe,\n        address _liquid,\n        address _pledge\n    ) public {\n        zelda = IZelda(_zelda);\n        xsafe = IXsafe(_xsafe);\n        liquid = ILiquidFarm(_liquid);\n        pledge = IPledgeFarm(_pledge);\n    }\n\n    function getCurrentBlock() public view returns (uint256) {\n        return block.number;\n    }\n\n    function getCurrentTimestamp() public view returns (uint256) {\n        return block.timestamp;\n    }\n\n    function userClaim(address _user) public view returns(bool hasClaim, uint256 amount){\n        amount = zelda.pendingReward(_user);\n        if(amount > 0 ){\n            hasClaim = true;\n        }\n    }\n\n    function winHistory(uint256 _count) public view returns(winnerStruct[] memory winners){\n        winners = new winnerStruct[](maxRetPerStance);\n        address[] memory winArr = zelda.getWinners(_count);\n        for (uint256 i = 0; i < maxRetPerStance; i++) {\n            (bool hasClaim, uint256 amount) = userClaim(winArr[i]);\n            winners[i].winnerAddress = winArr[i];\n            winners[i].claimAmount = amount;\n            winners[i].position = i+1;\n            winners[i].hasPendingClaim = hasClaim;\n    }\n    }\n\n    function currentZeldaCount() public view returns(uint256){\n        return  zelda.getCurrentCounter();\n    }\n\n    function currentWin() public view returns (winnerStruct[] memory winners){\n        uint256 currentCount = currentZeldaCount();\n        winners = winHistory(currentCount);\n    }\n\n    function userUnStake(address _user) public view returns (uint256 xBal, uint256 price, uint256 estimatedValue){\n       (xBal, ) = xsafe.getUserStat(_user);\n       price = xsafe.toAtt(1);\n       estimatedValue = xBal*price;\n    }\n\n    function userStake(address _user) public view returns (uint256 bal, uint256 price, uint256 estimatedValue){\n       (, bal ) = xsafe.getUserStat(_user);\n       price = xsafe.toXAtt(1);\n       estimatedValue = bal*price;\n    }\n\n    function stakeStats() public view returns (uint256 supply, uint256 price, uint256 xSafeBalance, uint256 attLocked){\n       supply = xsafe.xattSupply();\n       price = xsafe.toAtt(1);\n       xSafeBalance = xsafe.getXsafeBalance();\n       attLocked = xsafe.getAttPoolBalance();\n    }\n\n    function userUnstakeLiquid(uint256 _pid, address _user) public view returns(uint256 stake, uint256 estReturn){\n        (stake, estReturn) = liquid.pendingAtt(_pid, _user);\n    }\n\n    function userStakeLiquid(uint256 _pid,address _user) public view returns(uint256 stake, uint256 balance){\n        balance = liquid.userLpBalance(_pid, _user);\n        (stake, ) = liquid.pendingAtt(_pid, _user);   \n    }\n\n    function statsLiquid(uint256 _pid) public view returns(uint256 totalStaked, uint256 totalRewardLeft, uint256 resetblock){\n        totalStaked = liquid.userLpBalance(_pid, address(liquid));\n        totalRewardLeft = liquid.balance();\n        resetblock = liquid.endBlock();\n    }\n\n    function userUnstakePledge(uint256 _pid, address _user) public view returns(uint256 stake, uint256 estReturnAtt, uint256 estReturnBusd){\n        (stake, estReturnAtt, estReturnBusd) = pledge.pendingRewards(_pid, _user);\n    }\n\n    function userStakePledge(uint256 _pid,address _user) public view returns(uint256 stake, uint256 balance){\n        balance = pledge.userLpBalance(_pid, _user);\n        (stake, ,) = pledge.pendingRewards(_pid, _user);   \n    }\n\n    function statsPledge(uint256 _pid) public view returns(uint256 totalStaked, uint256 totalRewardLeftAtt, uint256 totalRewardLeftBusd,uint256 endblock){\n        totalStaked = pledge.userLpBalance(_pid, address(liquid));\n        totalRewardLeftAtt = pledge.balance();\n        totalRewardLeftBusd = pledge.balanceBusd();\n        endblock = pledge.endBlock();\n    }\n\n\n}\n",
  "sourcePath": "/home/sagar/Desktop/projects/ATT/smart-contracts/WatchTower/contracts/WatchTower.sol",
  "compiler": {
    "name": "solc",
    "version": "0.6.12+commit.27d51765.Emscripten.clang"
  },
  "schemaVersion": "3.3.2",
  "updatedAt": "2021-04-30T15:43:59.585Z",
  "devdoc": {
    "kind": "dev",
    "methods": {},
    "version": 1
  },
  "userdoc": {
    "kind": "user",
    "methods": {},
    "version": 1
  }
}