{
  "contractName": "WatchTower",
  "abi": [
    {
      "inputs": [
        {
          "internalType": "address",
          "name": "_zelda",
          "type": "address"
        },
        {
          "internalType": "address",
          "name": "_xsafe",
          "type": "address"
        },
        {
          "internalType": "address",
          "name": "_liquid",
          "type": "address"
        },
        {
          "internalType": "address",
          "name": "_pledge",
          "type": "address"
        },
        {
          "internalType": "address",
          "name": "_master",
          "type": "address"
        },
        {
          "internalType": "address",
          "name": "_oracle",
          "type": "address"
        },
        {
          "internalType": "address",
          "name": "_att",
          "type": "address"
        }
      ],
      "stateMutability": "nonpayable",
      "type": "constructor"
    },
    {
      "inputs": [],
      "name": "att",
      "outputs": [
        {
          "internalType": "contract IAtt",
          "name": "",
          "type": "address"
        }
      ],
      "stateMutability": "view",
      "type": "function"
    },
    {
      "inputs": [],
      "name": "liquid",
      "outputs": [
        {
          "internalType": "contract ILiquidFarm",
          "name": "",
          "type": "address"
        }
      ],
      "stateMutability": "view",
      "type": "function"
    },
    {
      "inputs": [],
      "name": "master",
      "outputs": [
        {
          "internalType": "contract IMaster",
          "name": "",
          "type": "address"
        }
      ],
      "stateMutability": "view",
      "type": "function"
    },
    {
      "inputs": [],
      "name": "oracle",
      "outputs": [
        {
          "internalType": "contract IOracle",
          "name": "",
          "type": "address"
        }
      ],
      "stateMutability": "view",
      "type": "function"
    },
    {
      "inputs": [],
      "name": "pledge",
      "outputs": [
        {
          "internalType": "contract IPledgeFarm",
          "name": "",
          "type": "address"
        }
      ],
      "stateMutability": "view",
      "type": "function"
    },
    {
      "inputs": [],
      "name": "xsafe",
      "outputs": [
        {
          "internalType": "contract IXsafe",
          "name": "",
          "type": "address"
        }
      ],
      "stateMutability": "view",
      "type": "function"
    },
    {
      "inputs": [],
      "name": "zelda",
      "outputs": [
        {
          "internalType": "contract IZelda",
          "name": "",
          "type": "address"
        }
      ],
      "stateMutability": "view",
      "type": "function"
    },
    {
      "inputs": [
        {
          "internalType": "address",
          "name": "_user",
          "type": "address"
        }
      ],
      "name": "userClaim",
      "outputs": [
        {
          "internalType": "bool",
          "name": "hasClaim",
          "type": "bool"
        },
        {
          "internalType": "uint256",
          "name": "amount",
          "type": "uint256"
        }
      ],
      "stateMutability": "view",
      "type": "function"
    },
    {
      "inputs": [
        {
          "internalType": "uint256",
          "name": "_count",
          "type": "uint256"
        }
      ],
      "name": "winHistory",
      "outputs": [
        {
          "components": [
            {
              "internalType": "address",
              "name": "winnerAddress",
              "type": "address"
            },
            {
              "internalType": "uint256",
              "name": "claimAmount",
              "type": "uint256"
            },
            {
              "internalType": "uint256",
              "name": "position",
              "type": "uint256"
            },
            {
              "internalType": "bool",
              "name": "hasPendingClaim",
              "type": "bool"
            }
          ],
          "internalType": "struct WatchTower.winnerStruct[]",
          "name": "winners",
          "type": "tuple[]"
        }
      ],
      "stateMutability": "view",
      "type": "function"
    },
    {
      "inputs": [],
      "name": "currentZeldaCount",
      "outputs": [
        {
          "internalType": "uint256",
          "name": "",
          "type": "uint256"
        }
      ],
      "stateMutability": "view",
      "type": "function"
    },
    {
      "inputs": [],
      "name": "currentWin",
      "outputs": [
        {
          "components": [
            {
              "internalType": "address",
              "name": "winnerAddress",
              "type": "address"
            },
            {
              "internalType": "uint256",
              "name": "claimAmount",
              "type": "uint256"
            },
            {
              "internalType": "uint256",
              "name": "position",
              "type": "uint256"
            },
            {
              "internalType": "bool",
              "name": "hasPendingClaim",
              "type": "bool"
            }
          ],
          "internalType": "struct WatchTower.winnerStruct[]",
          "name": "winners",
          "type": "tuple[]"
        }
      ],
      "stateMutability": "view",
      "type": "function"
    },
    {
      "inputs": [
        {
          "internalType": "address",
          "name": "_user",
          "type": "address"
        }
      ],
      "name": "userUnStake",
      "outputs": [
        {
          "internalType": "uint256",
          "name": "xBal",
          "type": "uint256"
        },
        {
          "internalType": "uint256",
          "name": "price",
          "type": "uint256"
        },
        {
          "internalType": "uint256",
          "name": "estimatedValue",
          "type": "uint256"
        }
      ],
      "stateMutability": "view",
      "type": "function"
    },
    {
      "inputs": [
        {
          "internalType": "address",
          "name": "_user",
          "type": "address"
        }
      ],
      "name": "userStake",
      "outputs": [
        {
          "internalType": "uint256",
          "name": "bal",
          "type": "uint256"
        },
        {
          "internalType": "uint256",
          "name": "price",
          "type": "uint256"
        },
        {
          "internalType": "uint256",
          "name": "estimatedValue",
          "type": "uint256"
        }
      ],
      "stateMutability": "view",
      "type": "function"
    },
    {
      "inputs": [],
      "name": "stakeStats",
      "outputs": [
        {
          "internalType": "uint256",
          "name": "supply",
          "type": "uint256"
        },
        {
          "internalType": "uint256",
          "name": "price",
          "type": "uint256"
        },
        {
          "internalType": "uint256",
          "name": "xSafeBalance",
          "type": "uint256"
        },
        {
          "internalType": "uint256",
          "name": "attLocked",
          "type": "uint256"
        }
      ],
      "stateMutability": "view",
      "type": "function"
    },
    {
      "inputs": [
        {
          "internalType": "uint256",
          "name": "_pid",
          "type": "uint256"
        },
        {
          "internalType": "address",
          "name": "_user",
          "type": "address"
        }
      ],
      "name": "userUnstakeLiquid",
      "outputs": [
        {
          "internalType": "uint256",
          "name": "stake",
          "type": "uint256"
        },
        {
          "internalType": "uint256",
          "name": "estReturn",
          "type": "uint256"
        }
      ],
      "stateMutability": "view",
      "type": "function"
    },
    {
      "inputs": [
        {
          "internalType": "uint256",
          "name": "_pid",
          "type": "uint256"
        },
        {
          "internalType": "address",
          "name": "_user",
          "type": "address"
        }
      ],
      "name": "userStakeLiquid",
      "outputs": [
        {
          "internalType": "uint256",
          "name": "stake",
          "type": "uint256"
        },
        {
          "internalType": "uint256",
          "name": "balance",
          "type": "uint256"
        }
      ],
      "stateMutability": "view",
      "type": "function"
    },
    {
      "inputs": [
        {
          "internalType": "uint256",
          "name": "_pid",
          "type": "uint256"
        }
      ],
      "name": "statsLiquid",
      "outputs": [
        {
          "internalType": "uint256",
          "name": "totalStaked",
          "type": "uint256"
        },
        {
          "internalType": "uint256",
          "name": "totalRewardLeft",
          "type": "uint256"
        },
        {
          "internalType": "uint256",
          "name": "resetblock",
          "type": "uint256"
        }
      ],
      "stateMutability": "view",
      "type": "function"
    },
    {
      "inputs": [
        {
          "internalType": "uint256",
          "name": "_pid",
          "type": "uint256"
        },
        {
          "internalType": "address",
          "name": "_user",
          "type": "address"
        }
      ],
      "name": "userUnstakePledge",
      "outputs": [
        {
          "internalType": "uint256",
          "name": "stake",
          "type": "uint256"
        },
        {
          "internalType": "uint256",
          "name": "estReturnAtt",
          "type": "uint256"
        },
        {
          "internalType": "uint256",
          "name": "estReturnBusd",
          "type": "uint256"
        }
      ],
      "stateMutability": "view",
      "type": "function"
    },
    {
      "inputs": [
        {
          "internalType": "uint256",
          "name": "_pid",
          "type": "uint256"
        },
        {
          "internalType": "address",
          "name": "_user",
          "type": "address"
        }
      ],
      "name": "userStakePledge",
      "outputs": [
        {
          "internalType": "uint256",
          "name": "stake",
          "type": "uint256"
        },
        {
          "internalType": "uint256",
          "name": "balance",
          "type": "uint256"
        }
      ],
      "stateMutability": "view",
      "type": "function"
    },
    {
      "inputs": [
        {
          "internalType": "uint256",
          "name": "_pid",
          "type": "uint256"
        }
      ],
      "name": "statsPledge",
      "outputs": [
        {
          "internalType": "uint256",
          "name": "totalStaked",
          "type": "uint256"
        },
        {
          "internalType": "uint256",
          "name": "totalRewardLeftAtt",
          "type": "uint256"
        },
        {
          "internalType": "uint256",
          "name": "totalRewardLeftBusd",
          "type": "uint256"
        },
        {
          "internalType": "uint256",
          "name": "endblock",
          "type": "uint256"
        }
      ],
      "stateMutability": "view",
      "type": "function"
    },
    {
      "inputs": [],
      "name": "statsDash",
      "outputs": [
        {
          "internalType": "uint256",
          "name": "lastRebase",
          "type": "uint256"
        },
        {
          "internalType": "uint256",
          "name": "nextRebase",
          "type": "uint256"
        }
      ],
      "stateMutability": "view",
      "type": "function"
    },
    {
      "inputs": [],
      "name": "primaryStatsDash",
      "outputs": [
        {
          "internalType": "uint256",
          "name": "totalAttLocked",
          "type": "uint256"
        },
        {
          "internalType": "uint256",
          "name": "totalBusdLocked",
          "type": "uint256"
        },
        {
          "internalType": "uint256",
          "name": "totalBnbAttLpLocked",
          "type": "uint256"
        },
        {
          "internalType": "uint256",
          "name": "oracleRate",
          "type": "uint256"
        },
        {
          "internalType": "uint256",
          "name": "targetPrice",
          "type": "uint256"
        },
        {
          "internalType": "uint256",
          "name": "circulatingSupply",
          "type": "uint256"
        }
      ],
      "stateMutability": "view",
      "type": "function"
    }
  ],
  "bytecode": "0x608060405260056000553480156200001657600080fd5b5060405162001d0f38038062001d0f8339810160408190526200003991620000d9565b600180546001600160a01b03199081166001600160a01b03998a161790915560028054821697891697909717909655600380548716958816959095179094556004805486169387169390931790925560058054851691861691909117905560068054841691851691909117905560078054909216921691909117905562000174565b80516001600160a01b0381168114620000d357600080fd5b92915050565b600080600080600080600060e0888a031215620000f4578283fd5b620001008989620000bb565b9650620001118960208a01620000bb565b9550620001228960408a01620000bb565b9450620001338960608a01620000bb565b9350620001448960808a01620000bb565b9250620001558960a08a01620000bb565b9150620001668960c08a01620000bb565b905092959891949750929550565b611b8b80620001846000396000f3fe608060405234801561001057600080fd5b50600436106101425760003560e01c806391fbae87116100b8578063ab1062fe1161007c578063ab1062fe1461029c578063af6f347f146102a4578063b04296b4146102b7578063ba36f423146102bf578063cb3ce4b8146102c7578063ee97f7f3146102da57610142565b806391fbae871461024657806392fb019b1461025b578063988f94051461026e5780639c831e1d14610281578063a68fee871461029457610142565b8063392cac0c1161010a578063392cac0c146101df57806368e5585d146101f95780637dc0d1d01461021b578063811386d31461022357806388ffe8671461022b57806391d77fd61461023357610142565b80630a6b433f146101475780630c5a57a0146101715780631b51ddc01461018657806325b62e5e146101a75780633418170b146101ca575b600080fd5b61015a61015536600461187f565b6102e2565b604051610168929190611a7f565b60405180910390f35b610179610379565b60405161016891906119fc565b61019961019436600461197d565b610388565b604051610168929190611aaf565b6101ba6101b536600461194d565b610419565b6040516101689493929190611ad3565b6101d2610648565b6040516101689190611a10565b6101e7610665565b60405161016896959493929190611aee565b61020c61020736600461187f565b610c35565b60405161016893929190611abd565b610179610d49565b6101ba610d58565b610179610f80565b61019961024136600461197d565b610f8f565b61024e6110a2565b6040516101689190611aa6565b6101d261026936600461194d565b611124565b61020c61027c36600461187f565b6112e9565b61019961028f36600461197d565b6113a0565b6101796114b3565b6101796114c2565b61020c6102b236600461197d565b6114d1565b610199611567565b61017961167e565b61020c6102d536600461194d565b61168d565b61017961182c565b600154604051637a0787a960e11b815260009182916001600160a01b039091169063f40f0f52906103179086906004016119fc565b60206040518083038186803b15801561032f57600080fd5b505afa158015610343573d6000803e3d6000fd5b505050506040513d601f19601f820116820180604052508101906103679190611965565b9050801561037457600191505b915091565b6001546001600160a01b031681565b6003546040516313c4e0db60e01b815260009182916001600160a01b03909116906313c4e0db906103bf9087908790600401611a8f565b604080518083038186803b1580156103d657600080fd5b505afa1580156103ea573d6000803e3d6000fd5b505050506040513d601f19601f8201168201806040525081019061040e91906119ac565b909590945092505050565b60048054600354604051636ea39eed60e11b81526000938493849384936001600160a01b039283169363dd473dda93610457938b9391169101611a8f565b60206040518083038186803b15801561046f57600080fd5b505afa158015610483573d6000803e3d6000fd5b505050506040513d601f19601f820116820180604052508101906104a79190611965565b9350600460009054906101000a90046001600160a01b03166001600160a01b031663b69ef8a86040518163ffffffff1660e01b815260040160206040518083038186803b1580156104f757600080fd5b505afa15801561050b573d6000803e3d6000fd5b505050506040513d601f19601f8201168201806040525081019061052f9190611965565b9250600460009054906101000a90046001600160a01b03166001600160a01b031663da85ae186040518163ffffffff1660e01b815260040160206040518083038186803b15801561057f57600080fd5b505afa158015610593573d6000803e3d6000fd5b505050506040513d601f19601f820116820180604052508101906105b79190611965565b9150600460009054906101000a90046001600160a01b03166001600160a01b031663083c63236040518163ffffffff1660e01b815260040160206040518083038186803b15801561060757600080fd5b505afa15801561061b573d6000803e3d6000fd5b505050506040513d601f19601f8201168201806040525081019061063f9190611965565b90509193509193565b606060006106546110a2565b905061065f81611124565b91505090565b600080600080600080600660009054906101000a90046001600160a01b03166001600160a01b0316633bc5de306040518163ffffffff1660e01b815260040160206040518083038186803b1580156106bc57600080fd5b505afa1580156106d0573d6000803e3d6000fd5b505050506040513d601f19601f820116820180604052508101906106f49190611965565b9250600560009054906101000a90046001600160a01b03166001600160a01b0316636d32b4ba6040518163ffffffff1660e01b815260040160206040518083038186803b15801561074457600080fd5b505afa158015610758573d6000803e3d6000fd5b505050506040513d601f19601f8201168201806040525081019061077c9190611965565b9150600760009054906101000a90046001600160a01b03166001600160a01b03166318160ddd6040518163ffffffff1660e01b815260040160206040518083038186803b1580156107cc57600080fd5b505afa1580156107e0573d6000803e3d6000fd5b505050506040513d601f19601f820116820180604052508101906108049190611965565b9050600260009054906101000a90046001600160a01b03166001600160a01b031663779755616040518163ffffffff1660e01b815260040160206040518083038186803b15801561085457600080fd5b505afa158015610868573d6000803e3d6000fd5b505050506040513d601f19601f8201168201806040525081019061088c9190611965565b600260009054906101000a90046001600160a01b03166001600160a01b03166363f6d0996040518163ffffffff1660e01b815260040160206040518083038186803b1580156108da57600080fd5b505afa1580156108ee573d6000803e3d6000fd5b505050506040513d601f19601f820116820180604052508101906109129190611965565b600160009054906101000a90046001600160a01b03166001600160a01b031663b69ef8a86040518163ffffffff1660e01b815260040160206040518083038186803b15801561096057600080fd5b505afa158015610974573d6000803e3d6000fd5b505050506040513d601f19601f820116820180604052508101906109989190611965565b600360009054906101000a90046001600160a01b03166001600160a01b031663b69ef8a86040518163ffffffff1660e01b815260040160206040518083038186803b1580156109e657600080fd5b505afa1580156109fa573d6000803e3d6000fd5b505050506040513d601f19601f82011682018060405250810190610a1e9190611965565b60048054604080516316d3df1560e31b815290516001600160a01b039092169263b69ef8a8928282019260209290829003018186803b158015610a6057600080fd5b505afa158015610a74573d6000803e3d6000fd5b505050506040513d601f19601f82011682018060405250810190610a989190611965565b010101019550600460009054906101000a90046001600160a01b03166001600160a01b031663da85ae186040518163ffffffff1660e01b815260040160206040518083038186803b158015610aec57600080fd5b505afa158015610b00573d6000803e3d6000fd5b505050506040513d601f19601f82011682018060405250810190610b249190611965565b60048054604051636ea39eed60e11b81529297506001600160a01b03169163dd473dda91610b5791600091859101611a8f565b60206040518083038186803b158015610b6f57600080fd5b505afa158015610b83573d6000803e3d6000fd5b505050506040513d601f19601f82011682018060405250810190610ba79190611965565b600354604051636ea39eed60e11b81526001600160a01b039091169063dd473dda90610bda906000908490600401611a8f565b60206040518083038186803b158015610bf257600080fd5b505afa158015610c06573d6000803e3d6000fd5b505050506040513d601f19601f82011682018060405250810190610c2a9190611965565b019350909192939495565b600254604051633829a9b360e11b8152600091829182916001600160a01b031690637053536690610c6a9087906004016119fc565b604080518083038186803b158015610c8157600080fd5b505afa158015610c95573d6000803e3d6000fd5b505050506040513d601f19601f82011682018060405250810190610cb991906119ac565b60025460405163491d783f60e01b81529195506001600160a01b0316915063491d783f90610cec90600190600401611aa6565b60206040518083038186803b158015610d0457600080fd5b505afa158015610d18573d6000803e3d6000fd5b505050506040513d601f19601f82011682018060405250810190610d3c9190611965565b9294929350505082820290565b6006546001600160a01b031681565b600080600080600260009054906101000a90046001600160a01b03166001600160a01b03166344d4dd7d6040518163ffffffff1660e01b815260040160206040518083038186803b158015610dac57600080fd5b505afa158015610dc0573d6000803e3d6000fd5b505050506040513d601f19601f82011682018060405250810190610de49190611965565b6002546040516378f7a3a760e01b81529195506001600160a01b0316906378f7a3a790610e1690600190600401611aa6565b60206040518083038186803b158015610e2e57600080fd5b505afa158015610e42573d6000803e3d6000fd5b505050506040513d601f19601f82011682018060405250810190610e669190611965565b9250600260009054906101000a90046001600160a01b03166001600160a01b03166363f6d0996040518163ffffffff1660e01b815260040160206040518083038186803b158015610eb657600080fd5b505afa158015610eca573d6000803e3d6000fd5b505050506040513d601f19601f82011682018060405250810190610eee9190611965565b915081600260009054906101000a90046001600160a01b03166001600160a01b031663779755616040518163ffffffff1660e01b815260040160206040518083038186803b158015610f3f57600080fd5b505afa158015610f53573d6000803e3d6000fd5b505050506040513d601f19601f82011682018060405250810190610f779190611965565b01905090919293565b6004546001600160a01b031681565b60048054604051636ea39eed60e11b815260009283926001600160a01b03169163dd473dda91610fc3918891889101611a8f565b60206040518083038186803b158015610fdb57600080fd5b505afa158015610fef573d6000803e3d6000fd5b505050506040513d601f19601f820116820180604052508101906110139190611965565b600480546040516334637d4f60e21b81529293506001600160a01b03169163d18df53c91611045918891889101611a8f565b60606040518083038186803b15801561105d57600080fd5b505afa158015611071573d6000803e3d6000fd5b505050506040513d601f19601f8201168201806040525081019061109591906119cf565b5090959194509092505050565b600154604080516339a2462360e11b815290516000926001600160a01b0316916373448c46916004808301926020929190829003018186803b1580156110e757600080fd5b505afa1580156110fb573d6000803e3d6000fd5b505050506040513d601f19601f8201168201806040525081019061111f9190611965565b905090565b606060005467ffffffffffffffff8111801561113f57600080fd5b5060405190808252806020026020018201604052801561117957816020015b61116661183b565b81526020019060019003908161115e5790505b50600154604051631ac509a960e21b81529192506060916001600160a01b0390911690636b1426a4906111b0908690600401611aa6565b60006040518083038186803b1580156111c857600080fd5b505afa1580156111dc573d6000803e3d6000fd5b505050506040513d6000823e601f3d908101601f1916820160405261120491908101906118a2565b905060005b6000548110156112e25760008061123284848151811061122557fe5b60200260200101516102e2565b9150915083838151811061124257fe5b602002602001015185848151811061125657fe5b6020026020010151600001906001600160a01b031690816001600160a01b0316815250508085848151811061128757fe5b60200260200101516020018181525050826001018584815181106112a757fe5b60200260200101516040018181525050818584815181106112c457fe5b60209081029190910101519015156060909101525050600101611209565b5050919050565b600254604051633829a9b360e11b8152600091829182916001600160a01b03169063705353669061131e9087906004016119fc565b604080518083038186803b15801561133557600080fd5b505afa158015611349573d6000803e3d6000fd5b505050506040513d601f19601f8201168201806040525081019061136d91906119ac565b506002546040516378f7a3a760e01b81529194506001600160a01b0316906378f7a3a790610cec90600190600401611aa6565b600354604051636ea39eed60e11b815260009182916001600160a01b039091169063dd473dda906113d79087908790600401611a8f565b60206040518083038186803b1580156113ef57600080fd5b505afa158015611403573d6000803e3d6000fd5b505050506040513d601f19601f820116820180604052508101906114279190611965565b6003546040516313c4e0db60e01b81529192506001600160a01b0316906313c4e0db9061145a9087908790600401611a8f565b604080518083038186803b15801561147157600080fd5b505afa158015611485573d6000803e3d6000fd5b505050506040513d601f19601f820116820180604052508101906114a991906119ac565b5094909350915050565b6003546001600160a01b031681565b6002546001600160a01b031681565b600480546040516334637d4f60e21b8152600092839283926001600160a01b039091169163d18df53c91611509918991899101611a8f565b60606040518083038186803b15801561152157600080fd5b505afa158015611535573d6000803e3d6000fd5b505050506040513d601f19601f8201168201806040525081019061155991906119cf565b919790965090945092505050565b600080600560009054906101000a90046001600160a01b03166001600160a01b0316633a93069b6040518163ffffffff1660e01b815260040160206040518083038186803b1580156115b857600080fd5b505afa1580156115cc573d6000803e3d6000fd5b505050506040513d601f19601f820116820180604052508101906115f09190611965565b9150600560009054906101000a90046001600160a01b03166001600160a01b0316636412bb716040518163ffffffff1660e01b815260040160206040518083038186803b15801561164057600080fd5b505afa158015611654573d6000803e3d6000fd5b505050506040513d601f19601f820116820180604052508101906116789190611965565b90509091565b6007546001600160a01b031681565b600354604051636ea39eed60e11b8152600091829182916001600160a01b03169063dd473dda906116c49087908490600401611a8f565b60206040518083038186803b1580156116dc57600080fd5b505afa1580156116f0573d6000803e3d6000fd5b505050506040513d601f19601f820116820180604052508101906117149190611965565b9250600360009054906101000a90046001600160a01b03166001600160a01b031663b69ef8a86040518163ffffffff1660e01b815260040160206040518083038186803b15801561176457600080fd5b505afa158015611778573d6000803e3d6000fd5b505050506040513d601f19601f8201168201806040525081019061179c9190611965565b9150600360009054906101000a90046001600160a01b03166001600160a01b031663083c63236040518163ffffffff1660e01b815260040160206040518083038186803b1580156117ec57600080fd5b505afa158015611800573d6000803e3d6000fd5b505050506040513d601f19601f820116820180604052508101906118249190611965565b929491935050565b6005546001600160a01b031681565b604051806080016040528060006001600160a01b0316815260200160008152602001600081526020016000151581525090565b805161187981611b3d565b92915050565b600060208284031215611890578081fd5b813561189b81611b3d565b9392505050565b600060208083850312156118b4578182fd5b825167ffffffffffffffff808211156118cb578384fd5b818501915085601f8301126118de578384fd5b8151818111156118ec578485fd5b83810291506118fc848301611b16565b8181528481019084860184860187018a1015611916578788fd5b8795505b838610156119405761192c8a8261186e565b83526001959095019491860191860161191a565b5098975050505050505050565b60006020828403121561195e578081fd5b5035919050565b600060208284031215611976578081fd5b5051919050565b6000806040838503121561198f578081fd5b8235915060208301356119a181611b3d565b809150509250929050565b600080604083850312156119be578182fd5b505080516020909101519092909150565b6000806000606084860312156119e3578081fd5b8351925060208401519150604084015190509250925092565b6001600160a01b0391909116815260200190565b602080825282518282018190526000919060409081850190868401855b82811015611a7257815180516001600160a01b031685528681015187860152858101518686015260609081015115159085015260809093019290850190600101611a2d565b5091979650505050505050565b9115158252602082015260400190565b9182526001600160a01b0316602082015260400190565b90815260200190565b918252602082015260400190565b9283526020830191909152604082015260600190565b93845260208401929092526040830152606082015260800190565b958652602086019490945260408501929092526060840152608083015260a082015260c00190565b60405181810167ffffffffffffffff81118282101715611b3557600080fd5b604052919050565b6001600160a01b0381168114611b5257600080fd5b5056fea26469706673582212201dee2b054c84948d576252a5c4ffebbf1c0221c1d7c4b8aab2830bc1429b6dd064736f6c634300060c0033",
  "immutableReferences": {},
  "source": "// SPDX-License-Identifier: MIT\npragma solidity 0.6.12;\npragma experimental ABIEncoderV2;\n\nimport \"./interfaces/IZelda.sol\";\nimport \"./interfaces/IXsafe.sol\";\nimport \"./interfaces/ILiquidFarm.sol\";\nimport \"./interfaces/IPledgeFarm.sol\";\nimport \"./interfaces/IMaster.sol\";\nimport \"./interfaces/IOracle.sol\";\nimport \"./interfaces/IAtt.sol\";\n\ncontract WatchTower {\n\n    uint256 private maxRetPerStance = 5;\n\n    IZelda public zelda;\n    IXsafe public xsafe;\n    ILiquidFarm public liquid;\n    IPledgeFarm public pledge;\n    IMaster public master;\n    IOracle public oracle;\n    IAtt public att;\n\n    struct winnerStruct {\n        address winnerAddress;\n        uint256 claimAmount;\n        uint256 position;\n        bool hasPendingClaim;\n    }\n\n    constructor(\n        address _zelda,\n        address _xsafe,\n        address _liquid,\n        address _pledge,\n        address _master,\n        address _oracle,\n        address _att\n    ) public {\n        zelda = IZelda(_zelda);\n        xsafe = IXsafe(_xsafe);\n        liquid = ILiquidFarm(_liquid);\n        pledge = IPledgeFarm(_pledge);\n        master = IMaster(_master);\n        oracle = IOracle(_oracle);\n        att = IAtt(_att);\n    }\n\n    // function getCurrentBlock() public view returns (uint256) {\n    //     return block.number;\n    // }\n\n    // function getCurrentTimestamp() public view returns (uint256) {\n    //     return block.timestamp;\n    // }\n\n    function userClaim(address _user) public view returns(bool hasClaim, uint256 amount){\n        amount = zelda.pendingReward(_user);\n        if(amount > 0 ){\n            hasClaim = true;\n        }\n    }\n\n    function winHistory(uint256 _count) public view returns(winnerStruct[] memory winners){\n        winners = new winnerStruct[](maxRetPerStance);\n        address[] memory winArr = zelda.getWinners(_count);\n        for (uint256 i = 0; i < maxRetPerStance; i++) {\n            (bool hasClaim, uint256 amount) = userClaim(winArr[i]);\n            winners[i].winnerAddress = winArr[i];\n            winners[i].claimAmount = amount;\n            winners[i].position = i+1;\n            winners[i].hasPendingClaim = hasClaim;\n    }\n    }\n\n    function currentZeldaCount() public view returns(uint256){\n        return  zelda.getCurrentCounter();\n    }\n\n    function currentWin() public view returns (winnerStruct[] memory winners){\n        uint256 currentCount = currentZeldaCount();\n        winners = winHistory(currentCount);\n    }\n\n    function userUnStake(address _user) public view returns (uint256 xBal, uint256 price, uint256 estimatedValue){\n       (xBal, ) = xsafe.getUserStat(_user);\n       price = xsafe.toAtt(1);\n       estimatedValue = xBal*price;\n    }\n\n    function userStake(address _user) public view returns (uint256 bal, uint256 price, uint256 estimatedValue){\n       (, bal ) = xsafe.getUserStat(_user);\n       price = xsafe.toXAtt(1);\n       estimatedValue = bal*price;\n    }\n\n    function stakeStats() public view returns (uint256 supply, uint256 price, uint256 xSafeBalance, uint256 attLocked){\n       supply = xsafe.xattSupply();\n       price = xsafe.toAtt(1);\n       xSafeBalance = xsafe.getXsafeBalance();\n       attLocked = xsafe.getAttPoolBalance() + xSafeBalance;\n    }\n\n    function userUnstakeLiquid(uint256 _pid, address _user) public view returns(uint256 stake, uint256 estReturn){\n        (stake, estReturn) = liquid.pendingAtt(_pid, _user);\n    }\n\n    function userStakeLiquid(uint256 _pid,address _user) public view returns(uint256 stake, uint256 balance){\n        balance = liquid.userLpBalance(_pid, _user);\n        (stake, ) = liquid.pendingAtt(_pid, _user);   \n    }\n\n    function statsLiquid(uint256 _pid) public view returns(uint256 totalStaked, uint256 totalRewardLeft, uint256 resetblock){\n        totalStaked = liquid.userLpBalance(_pid, address(liquid));\n        totalRewardLeft = liquid.balance();\n        resetblock = liquid.endBlock();\n    }\n\n    function userUnstakePledge(uint256 _pid, address _user) public view returns(uint256 stake, uint256 estReturnAtt, uint256 estReturnBusd){\n        (stake, estReturnAtt, estReturnBusd) = pledge.pendingRewards(_pid, _user);\n    }\n\n    function userStakePledge(uint256 _pid,address _user) public view returns(uint256 stake, uint256 balance){\n        balance = pledge.userLpBalance(_pid, _user);\n        (stake, ,) = pledge.pendingRewards(_pid, _user);   \n    }\n\n    function statsPledge(uint256 _pid) public view returns(uint256 totalStaked, uint256 totalRewardLeftAtt, uint256 totalRewardLeftBusd,uint256 endblock){\n        totalStaked = pledge.userLpBalance(_pid, address(liquid));\n        totalRewardLeftAtt = pledge.balance();\n        totalRewardLeftBusd = pledge.balanceBusd();\n        endblock = pledge.endBlock();\n    }\n\n    function statsDash() public view returns(uint256 lastRebase, uint256 nextRebase){\n        lastRebase = master.lastRebaseTimestampSec();\n        nextRebase = master.cooldownExpiryTimestamp();\n    }\n\n    function primaryStatsDash() public view returns(uint256 totalAttLocked, uint256 totalBusdLocked, uint256 totalBnbAttLpLocked , uint256 oracleRate,uint256 targetPrice, uint256 circulatingSupply){\n        oracleRate= oracle.getData();\n        targetPrice= master.currentTargetRate();\n        circulatingSupply= att.totalSupply();\n        totalAttLocked = pledge.balance() + liquid.balance() + zelda.balance() + xsafe.getXsafeBalance() + xsafe.getAttPoolBalance();\n        totalBusdLocked = pledge.balanceBusd();\n        totalBnbAttLpLocked = liquid.userLpBalance(0, address(liquid)) + pledge.userLpBalance(0, address(pledge));\n    }\n\n\n}\n",
  "sourcePath": "/home/sagar/Desktop/projects/ATT/smart-contracts/WatchTower/contracts/WatchTower.sol",
  "compiler": {
    "name": "solc",
    "version": "0.6.12+commit.27d51765.Emscripten.clang"
  },
  "schemaVersion": "3.3.2",
  "updatedAt": "2021-05-01T08:00:03.337Z",
  "devdoc": {
    "kind": "dev",
    "methods": {},
    "version": 1
  },
  "userdoc": {
    "kind": "user",
    "methods": {},
    "version": 1
  }
}