{
  "contractName": "WatchTower",
  "abi": [
    {
      "inputs": [
        {
          "internalType": "address",
          "name": "_zelda",
          "type": "address"
        },
        {
          "internalType": "address",
          "name": "_xsafe",
          "type": "address"
        },
        {
          "internalType": "address",
          "name": "_liquid",
          "type": "address"
        },
        {
          "internalType": "address",
          "name": "_pledge",
          "type": "address"
        },
        {
          "internalType": "address",
          "name": "_master",
          "type": "address"
        },
        {
          "internalType": "address",
          "name": "_oracle",
          "type": "address"
        },
        {
          "internalType": "address",
          "name": "_att",
          "type": "address"
        }
      ],
      "stateMutability": "nonpayable",
      "type": "constructor"
    },
    {
      "inputs": [],
      "name": "att",
      "outputs": [
        {
          "internalType": "contract IAtt",
          "name": "",
          "type": "address"
        }
      ],
      "stateMutability": "view",
      "type": "function"
    },
    {
      "inputs": [],
      "name": "liquid",
      "outputs": [
        {
          "internalType": "contract ILiquidFarm",
          "name": "",
          "type": "address"
        }
      ],
      "stateMutability": "view",
      "type": "function"
    },
    {
      "inputs": [],
      "name": "master",
      "outputs": [
        {
          "internalType": "contract IMaster",
          "name": "",
          "type": "address"
        }
      ],
      "stateMutability": "view",
      "type": "function"
    },
    {
      "inputs": [],
      "name": "oracle",
      "outputs": [
        {
          "internalType": "contract IOracle",
          "name": "",
          "type": "address"
        }
      ],
      "stateMutability": "view",
      "type": "function"
    },
    {
      "inputs": [],
      "name": "pledge",
      "outputs": [
        {
          "internalType": "contract IPledgeFarm",
          "name": "",
          "type": "address"
        }
      ],
      "stateMutability": "view",
      "type": "function"
    },
    {
      "inputs": [],
      "name": "xsafe",
      "outputs": [
        {
          "internalType": "contract IXsafe",
          "name": "",
          "type": "address"
        }
      ],
      "stateMutability": "view",
      "type": "function"
    },
    {
      "inputs": [],
      "name": "zelda",
      "outputs": [
        {
          "internalType": "contract IZelda",
          "name": "",
          "type": "address"
        }
      ],
      "stateMutability": "view",
      "type": "function"
    },
    {
      "inputs": [],
      "name": "getCurrentBlock",
      "outputs": [
        {
          "internalType": "uint256",
          "name": "",
          "type": "uint256"
        }
      ],
      "stateMutability": "view",
      "type": "function"
    },
    {
      "inputs": [],
      "name": "getCurrentTimestamp",
      "outputs": [
        {
          "internalType": "uint256",
          "name": "",
          "type": "uint256"
        }
      ],
      "stateMutability": "view",
      "type": "function"
    },
    {
      "inputs": [
        {
          "internalType": "address",
          "name": "_user",
          "type": "address"
        }
      ],
      "name": "userClaim",
      "outputs": [
        {
          "internalType": "bool",
          "name": "hasClaim",
          "type": "bool"
        },
        {
          "internalType": "uint256",
          "name": "amount",
          "type": "uint256"
        }
      ],
      "stateMutability": "view",
      "type": "function"
    },
    {
      "inputs": [
        {
          "internalType": "uint256",
          "name": "_count",
          "type": "uint256"
        }
      ],
      "name": "winHistory",
      "outputs": [
        {
          "components": [
            {
              "internalType": "address",
              "name": "winnerAddress",
              "type": "address"
            },
            {
              "internalType": "uint256",
              "name": "claimAmount",
              "type": "uint256"
            },
            {
              "internalType": "uint256",
              "name": "position",
              "type": "uint256"
            },
            {
              "internalType": "bool",
              "name": "hasPendingClaim",
              "type": "bool"
            }
          ],
          "internalType": "struct WatchTower.winnerStruct[]",
          "name": "winners",
          "type": "tuple[]"
        }
      ],
      "stateMutability": "view",
      "type": "function"
    },
    {
      "inputs": [],
      "name": "currentZeldaCount",
      "outputs": [
        {
          "internalType": "uint256",
          "name": "",
          "type": "uint256"
        }
      ],
      "stateMutability": "view",
      "type": "function"
    },
    {
      "inputs": [],
      "name": "currentWin",
      "outputs": [
        {
          "components": [
            {
              "internalType": "address",
              "name": "winnerAddress",
              "type": "address"
            },
            {
              "internalType": "uint256",
              "name": "claimAmount",
              "type": "uint256"
            },
            {
              "internalType": "uint256",
              "name": "position",
              "type": "uint256"
            },
            {
              "internalType": "bool",
              "name": "hasPendingClaim",
              "type": "bool"
            }
          ],
          "internalType": "struct WatchTower.winnerStruct[]",
          "name": "winners",
          "type": "tuple[]"
        }
      ],
      "stateMutability": "view",
      "type": "function"
    },
    {
      "inputs": [
        {
          "internalType": "address",
          "name": "_user",
          "type": "address"
        }
      ],
      "name": "userUnStake",
      "outputs": [
        {
          "internalType": "uint256",
          "name": "xBal",
          "type": "uint256"
        },
        {
          "internalType": "uint256",
          "name": "price",
          "type": "uint256"
        },
        {
          "internalType": "uint256",
          "name": "estimatedValue",
          "type": "uint256"
        }
      ],
      "stateMutability": "view",
      "type": "function"
    },
    {
      "inputs": [
        {
          "internalType": "address",
          "name": "_user",
          "type": "address"
        }
      ],
      "name": "userStake",
      "outputs": [
        {
          "internalType": "uint256",
          "name": "bal",
          "type": "uint256"
        },
        {
          "internalType": "uint256",
          "name": "price",
          "type": "uint256"
        },
        {
          "internalType": "uint256",
          "name": "estimatedValue",
          "type": "uint256"
        }
      ],
      "stateMutability": "view",
      "type": "function"
    },
    {
      "inputs": [],
      "name": "stakeStats",
      "outputs": [
        {
          "internalType": "uint256",
          "name": "supply",
          "type": "uint256"
        },
        {
          "internalType": "uint256",
          "name": "price",
          "type": "uint256"
        },
        {
          "internalType": "uint256",
          "name": "xSafeBalance",
          "type": "uint256"
        },
        {
          "internalType": "uint256",
          "name": "attLocked",
          "type": "uint256"
        }
      ],
      "stateMutability": "view",
      "type": "function"
    },
    {
      "inputs": [
        {
          "internalType": "uint256",
          "name": "_pid",
          "type": "uint256"
        },
        {
          "internalType": "address",
          "name": "_user",
          "type": "address"
        }
      ],
      "name": "userUnstakeLiquid",
      "outputs": [
        {
          "internalType": "uint256",
          "name": "stake",
          "type": "uint256"
        },
        {
          "internalType": "uint256",
          "name": "estReturn",
          "type": "uint256"
        }
      ],
      "stateMutability": "view",
      "type": "function"
    },
    {
      "inputs": [
        {
          "internalType": "uint256",
          "name": "_pid",
          "type": "uint256"
        },
        {
          "internalType": "address",
          "name": "_user",
          "type": "address"
        }
      ],
      "name": "userStakeLiquid",
      "outputs": [
        {
          "internalType": "uint256",
          "name": "stake",
          "type": "uint256"
        },
        {
          "internalType": "uint256",
          "name": "balance",
          "type": "uint256"
        }
      ],
      "stateMutability": "view",
      "type": "function"
    },
    {
      "inputs": [
        {
          "internalType": "uint256",
          "name": "_pid",
          "type": "uint256"
        }
      ],
      "name": "statsLiquid",
      "outputs": [
        {
          "internalType": "uint256",
          "name": "totalStaked",
          "type": "uint256"
        },
        {
          "internalType": "uint256",
          "name": "totalRewardLeft",
          "type": "uint256"
        },
        {
          "internalType": "uint256",
          "name": "resetblock",
          "type": "uint256"
        }
      ],
      "stateMutability": "view",
      "type": "function"
    },
    {
      "inputs": [
        {
          "internalType": "uint256",
          "name": "_pid",
          "type": "uint256"
        },
        {
          "internalType": "address",
          "name": "_user",
          "type": "address"
        }
      ],
      "name": "userUnstakePledge",
      "outputs": [
        {
          "internalType": "uint256",
          "name": "stake",
          "type": "uint256"
        },
        {
          "internalType": "uint256",
          "name": "estReturnAtt",
          "type": "uint256"
        },
        {
          "internalType": "uint256",
          "name": "estReturnBusd",
          "type": "uint256"
        }
      ],
      "stateMutability": "view",
      "type": "function"
    },
    {
      "inputs": [
        {
          "internalType": "uint256",
          "name": "_pid",
          "type": "uint256"
        },
        {
          "internalType": "address",
          "name": "_user",
          "type": "address"
        }
      ],
      "name": "userStakePledge",
      "outputs": [
        {
          "internalType": "uint256",
          "name": "stake",
          "type": "uint256"
        },
        {
          "internalType": "uint256",
          "name": "balance",
          "type": "uint256"
        }
      ],
      "stateMutability": "view",
      "type": "function"
    },
    {
      "inputs": [
        {
          "internalType": "uint256",
          "name": "_pid",
          "type": "uint256"
        }
      ],
      "name": "statsPledge",
      "outputs": [
        {
          "internalType": "uint256",
          "name": "totalStaked",
          "type": "uint256"
        },
        {
          "internalType": "uint256",
          "name": "totalRewardLeftAtt",
          "type": "uint256"
        },
        {
          "internalType": "uint256",
          "name": "totalRewardLeftBusd",
          "type": "uint256"
        },
        {
          "internalType": "uint256",
          "name": "endblock",
          "type": "uint256"
        }
      ],
      "stateMutability": "view",
      "type": "function"
    },
    {
      "inputs": [],
      "name": "statsDash",
      "outputs": [
        {
          "internalType": "uint256",
          "name": "lastRebase",
          "type": "uint256"
        },
        {
          "internalType": "uint256",
          "name": "nextRebase",
          "type": "uint256"
        }
      ],
      "stateMutability": "view",
      "type": "function"
    },
    {
      "inputs": [],
      "name": "primaryStatsDash",
      "outputs": [
        {
          "internalType": "uint256",
          "name": "totalAttLocked",
          "type": "uint256"
        },
        {
          "internalType": "uint256",
          "name": "totalBusdLocked",
          "type": "uint256"
        },
        {
          "internalType": "uint256",
          "name": "totalBnbAttLpLocked",
          "type": "uint256"
        },
        {
          "internalType": "uint256",
          "name": "oracleRate",
          "type": "uint256"
        },
        {
          "internalType": "uint256",
          "name": "targetPrice",
          "type": "uint256"
        },
        {
          "internalType": "uint256",
          "name": "circulatingSupply",
          "type": "uint256"
        }
      ],
      "stateMutability": "view",
      "type": "function"
    }
  ],
  "bytecode": "0x608060405260056000553480156200001657600080fd5b5060405162001d3b38038062001d3b8339810160408190526200003991620000d9565b600180546001600160a01b03199081166001600160a01b03998a161790915560028054821697891697909717909655600380548716958816959095179094556004805486169387169390931790925560058054851691861691909117905560068054841691851691909117905560078054909216921691909117905562000174565b80516001600160a01b0381168114620000d357600080fd5b92915050565b600080600080600080600060e0888a031215620000f4578283fd5b620001008989620000bb565b9650620001118960208a01620000bb565b9550620001228960408a01620000bb565b9450620001338960608a01620000bb565b9350620001448960808a01620000bb565b9250620001558960a08a01620000bb565b9150620001668960c08a01620000bb565b905092959891949750929550565b611bb780620001846000396000f3fe608060405234801561001057600080fd5b50600436106101585760003560e01c806391d77fd6116100c3578063ab1062fe1161007c578063ab1062fe146102c2578063af6f347f146102ca578063b04296b4146102dd578063ba36f423146102e5578063cb3ce4b8146102ed578063ee97f7f31461030057610158565b806391d77fd61461026657806391fbae871461027957806392fb019b14610281578063988f9405146102945780639c831e1d146102a7578063a68fee87146102ba57610158565b8063672d5d3b11610115578063672d5d3b1461020f57806368e5585d146102245780636c9230db146102465780637dc0d1d01461024e578063811386d31461025657806388ffe8671461025e57610158565b80630a6b433f1461015d5780630c5a57a0146101875780631b51ddc01461019c57806325b62e5e146101bd5780633418170b146101e0578063392cac0c146101f5575b600080fd5b61017061016b3660046118ab565b610308565b60405161017e929190611aab565b60405180910390f35b61018f61039f565b60405161017e9190611a28565b6101af6101aa3660046119a9565b6103ae565b60405161017e929190611adb565b6101d06101cb366004611979565b61043f565b60405161017e9493929190611aff565b6101e861066e565b60405161017e9190611a3c565b6101fd61068b565b60405161017e96959493929190611b1a565b610217610c5b565b60405161017e9190611ad2565b6102376102323660046118ab565b610c5f565b60405161017e93929190611ae9565b610217610d73565b61018f610d77565b6101d0610d86565b61018f610fac565b6101af6102743660046119a9565b610fbb565b6102176110ce565b6101e861028f366004611979565b611150565b6102376102a23660046118ab565b611315565b6101af6102b53660046119a9565b6113cc565b61018f6114df565b61018f6114ee565b6102376102d83660046119a9565b6114fd565b6101af611593565b61018f6116aa565b6102376102fb366004611979565b6116b9565b61018f611858565b600154604051637a0787a960e11b815260009182916001600160a01b039091169063f40f0f529061033d908690600401611a28565b60206040518083038186803b15801561035557600080fd5b505afa158015610369573d6000803e3d6000fd5b505050506040513d601f19601f8201168201806040525081019061038d9190611991565b9050801561039a57600191505b915091565b6001546001600160a01b031681565b6003546040516313c4e0db60e01b815260009182916001600160a01b03909116906313c4e0db906103e59087908790600401611abb565b604080518083038186803b1580156103fc57600080fd5b505afa158015610410573d6000803e3d6000fd5b505050506040513d601f19601f8201168201806040525081019061043491906119d8565b909590945092505050565b60048054600354604051636ea39eed60e11b81526000938493849384936001600160a01b039283169363dd473dda9361047d938b9391169101611abb565b60206040518083038186803b15801561049557600080fd5b505afa1580156104a9573d6000803e3d6000fd5b505050506040513d601f19601f820116820180604052508101906104cd9190611991565b9350600460009054906101000a90046001600160a01b03166001600160a01b031663b69ef8a86040518163ffffffff1660e01b815260040160206040518083038186803b15801561051d57600080fd5b505afa158015610531573d6000803e3d6000fd5b505050506040513d601f19601f820116820180604052508101906105559190611991565b9250600460009054906101000a90046001600160a01b03166001600160a01b031663da85ae186040518163ffffffff1660e01b815260040160206040518083038186803b1580156105a557600080fd5b505afa1580156105b9573d6000803e3d6000fd5b505050506040513d601f19601f820116820180604052508101906105dd9190611991565b9150600460009054906101000a90046001600160a01b03166001600160a01b031663083c63236040518163ffffffff1660e01b815260040160206040518083038186803b15801561062d57600080fd5b505afa158015610641573d6000803e3d6000fd5b505050506040513d601f19601f820116820180604052508101906106659190611991565b90509193509193565b6060600061067a6110ce565b905061068581611150565b91505090565b600080600080600080600660009054906101000a90046001600160a01b03166001600160a01b0316633bc5de306040518163ffffffff1660e01b815260040160206040518083038186803b1580156106e257600080fd5b505afa1580156106f6573d6000803e3d6000fd5b505050506040513d601f19601f8201168201806040525081019061071a9190611991565b9250600560009054906101000a90046001600160a01b03166001600160a01b0316636d32b4ba6040518163ffffffff1660e01b815260040160206040518083038186803b15801561076a57600080fd5b505afa15801561077e573d6000803e3d6000fd5b505050506040513d601f19601f820116820180604052508101906107a29190611991565b9150600760009054906101000a90046001600160a01b03166001600160a01b03166318160ddd6040518163ffffffff1660e01b815260040160206040518083038186803b1580156107f257600080fd5b505afa158015610806573d6000803e3d6000fd5b505050506040513d601f19601f8201168201806040525081019061082a9190611991565b9050600260009054906101000a90046001600160a01b03166001600160a01b031663779755616040518163ffffffff1660e01b815260040160206040518083038186803b15801561087a57600080fd5b505afa15801561088e573d6000803e3d6000fd5b505050506040513d601f19601f820116820180604052508101906108b29190611991565b600260009054906101000a90046001600160a01b03166001600160a01b03166363f6d0996040518163ffffffff1660e01b815260040160206040518083038186803b15801561090057600080fd5b505afa158015610914573d6000803e3d6000fd5b505050506040513d601f19601f820116820180604052508101906109389190611991565b600160009054906101000a90046001600160a01b03166001600160a01b031663b69ef8a86040518163ffffffff1660e01b815260040160206040518083038186803b15801561098657600080fd5b505afa15801561099a573d6000803e3d6000fd5b505050506040513d601f19601f820116820180604052508101906109be9190611991565b600360009054906101000a90046001600160a01b03166001600160a01b031663b69ef8a86040518163ffffffff1660e01b815260040160206040518083038186803b158015610a0c57600080fd5b505afa158015610a20573d6000803e3d6000fd5b505050506040513d601f19601f82011682018060405250810190610a449190611991565b60048054604080516316d3df1560e31b815290516001600160a01b039092169263b69ef8a8928282019260209290829003018186803b158015610a8657600080fd5b505afa158015610a9a573d6000803e3d6000fd5b505050506040513d601f19601f82011682018060405250810190610abe9190611991565b010101019550600460009054906101000a90046001600160a01b03166001600160a01b031663da85ae186040518163ffffffff1660e01b815260040160206040518083038186803b158015610b1257600080fd5b505afa158015610b26573d6000803e3d6000fd5b505050506040513d601f19601f82011682018060405250810190610b4a9190611991565b60048054604051636ea39eed60e11b81529297506001600160a01b03169163dd473dda91610b7d91600091859101611abb565b60206040518083038186803b158015610b9557600080fd5b505afa158015610ba9573d6000803e3d6000fd5b505050506040513d601f19601f82011682018060405250810190610bcd9190611991565b600354604051636ea39eed60e11b81526001600160a01b039091169063dd473dda90610c00906000908490600401611abb565b60206040518083038186803b158015610c1857600080fd5b505afa158015610c2c573d6000803e3d6000fd5b505050506040513d601f19601f82011682018060405250810190610c509190611991565b019350909192939495565b4390565b600254604051633829a9b360e11b8152600091829182916001600160a01b031690637053536690610c94908790600401611a28565b604080518083038186803b158015610cab57600080fd5b505afa158015610cbf573d6000803e3d6000fd5b505050506040513d601f19601f82011682018060405250810190610ce391906119d8565b60025460405163491d783f60e01b81529195506001600160a01b0316915063491d783f90610d1690600190600401611ad2565b60206040518083038186803b158015610d2e57600080fd5b505afa158015610d42573d6000803e3d6000fd5b505050506040513d601f19601f82011682018060405250810190610d669190611991565b9294929350505082820290565b4290565b6006546001600160a01b031681565b600080600080600260009054906101000a90046001600160a01b03166001600160a01b03166344d4dd7d6040518163ffffffff1660e01b815260040160206040518083038186803b158015610dda57600080fd5b505afa158015610dee573d6000803e3d6000fd5b505050506040513d601f19601f82011682018060405250810190610e129190611991565b6002546040516378f7a3a760e01b81529195506001600160a01b0316906378f7a3a790610e4490600190600401611ad2565b60206040518083038186803b158015610e5c57600080fd5b505afa158015610e70573d6000803e3d6000fd5b505050506040513d601f19601f82011682018060405250810190610e949190611991565b9250600260009054906101000a90046001600160a01b03166001600160a01b03166363f6d0996040518163ffffffff1660e01b815260040160206040518083038186803b158015610ee457600080fd5b505afa158015610ef8573d6000803e3d6000fd5b505050506040513d601f19601f82011682018060405250810190610f1c9190611991565b9150600260009054906101000a90046001600160a01b03166001600160a01b031663779755616040518163ffffffff1660e01b815260040160206040518083038186803b158015610f6c57600080fd5b505afa158015610f80573d6000803e3d6000fd5b505050506040513d601f19601f82011682018060405250810190610fa49190611991565b905090919293565b6004546001600160a01b031681565b60048054604051636ea39eed60e11b815260009283926001600160a01b03169163dd473dda91610fef918891889101611abb565b60206040518083038186803b15801561100757600080fd5b505afa15801561101b573d6000803e3d6000fd5b505050506040513d601f19601f8201168201806040525081019061103f9190611991565b600480546040516334637d4f60e21b81529293506001600160a01b03169163d18df53c91611071918891889101611abb565b60606040518083038186803b15801561108957600080fd5b505afa15801561109d573d6000803e3d6000fd5b505050506040513d601f19601f820116820180604052508101906110c191906119fb565b5090959194509092505050565b600154604080516339a2462360e11b815290516000926001600160a01b0316916373448c46916004808301926020929190829003018186803b15801561111357600080fd5b505afa158015611127573d6000803e3d6000fd5b505050506040513d601f19601f8201168201806040525081019061114b9190611991565b905090565b606060005467ffffffffffffffff8111801561116b57600080fd5b506040519080825280602002602001820160405280156111a557816020015b611192611867565b81526020019060019003908161118a5790505b50600154604051631ac509a960e21b81529192506060916001600160a01b0390911690636b1426a4906111dc908690600401611ad2565b60006040518083038186803b1580156111f457600080fd5b505afa158015611208573d6000803e3d6000fd5b505050506040513d6000823e601f3d908101601f1916820160405261123091908101906118ce565b905060005b60005481101561130e5760008061125e84848151811061125157fe5b6020026020010151610308565b9150915083838151811061126e57fe5b602002602001015185848151811061128257fe5b6020026020010151600001906001600160a01b031690816001600160a01b031681525050808584815181106112b357fe5b60200260200101516020018181525050826001018584815181106112d357fe5b60200260200101516040018181525050818584815181106112f057fe5b60209081029190910101519015156060909101525050600101611235565b5050919050565b600254604051633829a9b360e11b8152600091829182916001600160a01b03169063705353669061134a908790600401611a28565b604080518083038186803b15801561136157600080fd5b505afa158015611375573d6000803e3d6000fd5b505050506040513d601f19601f8201168201806040525081019061139991906119d8565b506002546040516378f7a3a760e01b81529194506001600160a01b0316906378f7a3a790610d1690600190600401611ad2565b600354604051636ea39eed60e11b815260009182916001600160a01b039091169063dd473dda906114039087908790600401611abb565b60206040518083038186803b15801561141b57600080fd5b505afa15801561142f573d6000803e3d6000fd5b505050506040513d601f19601f820116820180604052508101906114539190611991565b6003546040516313c4e0db60e01b81529192506001600160a01b0316906313c4e0db906114869087908790600401611abb565b604080518083038186803b15801561149d57600080fd5b505afa1580156114b1573d6000803e3d6000fd5b505050506040513d601f19601f820116820180604052508101906114d591906119d8565b5094909350915050565b6003546001600160a01b031681565b6002546001600160a01b031681565b600480546040516334637d4f60e21b8152600092839283926001600160a01b039091169163d18df53c91611535918991899101611abb565b60606040518083038186803b15801561154d57600080fd5b505afa158015611561573d6000803e3d6000fd5b505050506040513d601f19601f8201168201806040525081019061158591906119fb565b919790965090945092505050565b600080600560009054906101000a90046001600160a01b03166001600160a01b0316633a93069b6040518163ffffffff1660e01b815260040160206040518083038186803b1580156115e457600080fd5b505afa1580156115f8573d6000803e3d6000fd5b505050506040513d601f19601f8201168201806040525081019061161c9190611991565b9150600560009054906101000a90046001600160a01b03166001600160a01b0316636412bb716040518163ffffffff1660e01b815260040160206040518083038186803b15801561166c57600080fd5b505afa158015611680573d6000803e3d6000fd5b505050506040513d601f19601f820116820180604052508101906116a49190611991565b90509091565b6007546001600160a01b031681565b600354604051636ea39eed60e11b8152600091829182916001600160a01b03169063dd473dda906116f09087908490600401611abb565b60206040518083038186803b15801561170857600080fd5b505afa15801561171c573d6000803e3d6000fd5b505050506040513d601f19601f820116820180604052508101906117409190611991565b9250600360009054906101000a90046001600160a01b03166001600160a01b031663b69ef8a86040518163ffffffff1660e01b815260040160206040518083038186803b15801561179057600080fd5b505afa1580156117a4573d6000803e3d6000fd5b505050506040513d601f19601f820116820180604052508101906117c89190611991565b9150600360009054906101000a90046001600160a01b03166001600160a01b031663083c63236040518163ffffffff1660e01b815260040160206040518083038186803b15801561181857600080fd5b505afa15801561182c573d6000803e3d6000fd5b505050506040513d601f19601f820116820180604052508101906118509190611991565b929491935050565b6005546001600160a01b031681565b604051806080016040528060006001600160a01b0316815260200160008152602001600081526020016000151581525090565b80516118a581611b69565b92915050565b6000602082840312156118bc578081fd5b81356118c781611b69565b9392505050565b600060208083850312156118e0578182fd5b825167ffffffffffffffff808211156118f7578384fd5b818501915085601f83011261190a578384fd5b815181811115611918578485fd5b8381029150611928848301611b42565b8181528481019084860184860187018a1015611942578788fd5b8795505b8386101561196c576119588a8261189a565b835260019590950194918601918601611946565b5098975050505050505050565b60006020828403121561198a578081fd5b5035919050565b6000602082840312156119a2578081fd5b5051919050565b600080604083850312156119bb578081fd5b8235915060208301356119cd81611b69565b809150509250929050565b600080604083850312156119ea578182fd5b505080516020909101519092909150565b600080600060608486031215611a0f578081fd5b8351925060208401519150604084015190509250925092565b6001600160a01b0391909116815260200190565b602080825282518282018190526000919060409081850190868401855b82811015611a9e57815180516001600160a01b031685528681015187860152858101518686015260609081015115159085015260809093019290850190600101611a59565b5091979650505050505050565b9115158252602082015260400190565b9182526001600160a01b0316602082015260400190565b90815260200190565b918252602082015260400190565b9283526020830191909152604082015260600190565b93845260208401929092526040830152606082015260800190565b958652602086019490945260408501929092526060840152608083015260a082015260c00190565b60405181810167ffffffffffffffff81118282101715611b6157600080fd5b604052919050565b6001600160a01b0381168114611b7e57600080fd5b5056fea264697066735822122063eaf7ca6a47f38cdcd5b5d66a5d5efde8d7390d2b1f7f769c4b573387e8aa9664736f6c634300060c0033",
  "immutableReferences": {},
  "source": "// SPDX-License-Identifier: MIT\npragma solidity 0.6.12;\npragma experimental ABIEncoderV2;\n\nimport \"./interfaces/IZelda.sol\";\nimport \"./interfaces/IXsafe.sol\";\nimport \"./interfaces/ILiquidFarm.sol\";\nimport \"./interfaces/IPledgeFarm.sol\";\nimport \"./interfaces/IMaster.sol\";\nimport \"./interfaces/IOracle.sol\";\nimport \"./interfaces/IAtt.sol\";\n\ncontract WatchTower {\n\n    uint256 private maxRetPerStance = 5;\n\n    IZelda public zelda;\n    IXsafe public xsafe;\n    ILiquidFarm public liquid;\n    IPledgeFarm public pledge;\n    IMaster public master;\n    IOracle public oracle;\n    IAtt public att;\n\n    struct winnerStruct {\n        address winnerAddress;\n        uint256 claimAmount;\n        uint256 position;\n        bool hasPendingClaim;\n    }\n\n    constructor(\n        address _zelda,\n        address _xsafe,\n        address _liquid,\n        address _pledge,\n        address _master,\n        address _oracle,\n        address _att\n    ) public {\n        zelda = IZelda(_zelda);\n        xsafe = IXsafe(_xsafe);\n        liquid = ILiquidFarm(_liquid);\n        pledge = IPledgeFarm(_pledge);\n        master = IMaster(_master);\n        oracle = IOracle(_oracle);\n        att = IAtt(_att);\n    }\n\n    function getCurrentBlock() public view returns (uint256) {\n        return block.number;\n    }\n\n    function getCurrentTimestamp() public view returns (uint256) {\n        return block.timestamp;\n    }\n\n    function userClaim(address _user) public view returns(bool hasClaim, uint256 amount){\n        amount = zelda.pendingReward(_user);\n        if(amount > 0 ){\n            hasClaim = true;\n        }\n    }\n\n    function winHistory(uint256 _count) public view returns(winnerStruct[] memory winners){\n        winners = new winnerStruct[](maxRetPerStance);\n        address[] memory winArr = zelda.getWinners(_count);\n        for (uint256 i = 0; i < maxRetPerStance; i++) {\n            (bool hasClaim, uint256 amount) = userClaim(winArr[i]);\n            winners[i].winnerAddress = winArr[i];\n            winners[i].claimAmount = amount;\n            winners[i].position = i+1;\n            winners[i].hasPendingClaim = hasClaim;\n    }\n    }\n\n    function currentZeldaCount() public view returns(uint256){\n        return  zelda.getCurrentCounter();\n    }\n\n    function currentWin() public view returns (winnerStruct[] memory winners){\n        uint256 currentCount = currentZeldaCount();\n        winners = winHistory(currentCount);\n    }\n\n    function userUnStake(address _user) public view returns (uint256 xBal, uint256 price, uint256 estimatedValue){\n       (xBal, ) = xsafe.getUserStat(_user);\n       price = xsafe.toAtt(1);\n       estimatedValue = xBal*price;\n    }\n\n    function userStake(address _user) public view returns (uint256 bal, uint256 price, uint256 estimatedValue){\n       (, bal ) = xsafe.getUserStat(_user);\n       price = xsafe.toXAtt(1);\n       estimatedValue = bal*price;\n    }\n\n    function stakeStats() public view returns (uint256 supply, uint256 price, uint256 xSafeBalance, uint256 attLocked){\n       supply = xsafe.xattSupply();\n       price = xsafe.toAtt(1);\n       xSafeBalance = xsafe.getXsafeBalance();\n       attLocked = xsafe.getAttPoolBalance();\n    }\n\n    function userUnstakeLiquid(uint256 _pid, address _user) public view returns(uint256 stake, uint256 estReturn){\n        (stake, estReturn) = liquid.pendingAtt(_pid, _user);\n    }\n\n    function userStakeLiquid(uint256 _pid,address _user) public view returns(uint256 stake, uint256 balance){\n        balance = liquid.userLpBalance(_pid, _user);\n        (stake, ) = liquid.pendingAtt(_pid, _user);   \n    }\n\n    function statsLiquid(uint256 _pid) public view returns(uint256 totalStaked, uint256 totalRewardLeft, uint256 resetblock){\n        totalStaked = liquid.userLpBalance(_pid, address(liquid));\n        totalRewardLeft = liquid.balance();\n        resetblock = liquid.endBlock();\n    }\n\n    function userUnstakePledge(uint256 _pid, address _user) public view returns(uint256 stake, uint256 estReturnAtt, uint256 estReturnBusd){\n        (stake, estReturnAtt, estReturnBusd) = pledge.pendingRewards(_pid, _user);\n    }\n\n    function userStakePledge(uint256 _pid,address _user) public view returns(uint256 stake, uint256 balance){\n        balance = pledge.userLpBalance(_pid, _user);\n        (stake, ,) = pledge.pendingRewards(_pid, _user);   \n    }\n\n    function statsPledge(uint256 _pid) public view returns(uint256 totalStaked, uint256 totalRewardLeftAtt, uint256 totalRewardLeftBusd,uint256 endblock){\n        totalStaked = pledge.userLpBalance(_pid, address(liquid));\n        totalRewardLeftAtt = pledge.balance();\n        totalRewardLeftBusd = pledge.balanceBusd();\n        endblock = pledge.endBlock();\n    }\n\n    function statsDash() public view returns(uint256 lastRebase, uint256 nextRebase){\n        lastRebase = master.lastRebaseTimestampSec();\n        nextRebase = master.cooldownExpiryTimestamp();\n    }\n\n    function primaryStatsDash() public view returns(uint256 totalAttLocked, uint256 totalBusdLocked, uint256 totalBnbAttLpLocked , uint256 oracleRate,uint256 targetPrice, uint256 circulatingSupply){\n        oracleRate= oracle.getData();\n        targetPrice= master.currentTargetRate();\n        circulatingSupply= att.totalSupply();\n        totalAttLocked = pledge.balance() + liquid.balance() + zelda.balance() + xsafe.getXsafeBalance() + xsafe.getAttPoolBalance();\n        totalBusdLocked = pledge.balanceBusd();\n        totalBnbAttLpLocked = liquid.userLpBalance(0, address(liquid)) + pledge.userLpBalance(0, address(pledge));\n    }\n\n\n}\n",
  "sourcePath": "/home/sagar/Desktop/projects/ATT/smart-contracts/WatchTower/contracts/WatchTower.sol",
  "compiler": {
    "name": "solc",
    "version": "0.6.12+commit.27d51765.Emscripten.clang"
  },
  "schemaVersion": "3.3.2",
  "updatedAt": "2021-04-30T17:38:17.846Z",
  "devdoc": {
    "kind": "dev",
    "methods": {},
    "version": 1
  },
  "userdoc": {
    "kind": "user",
    "methods": {},
    "version": 1
  }
}