{
  "contractName": "WatchTower",
  "abi": [
    {
      "inputs": [
        {
          "internalType": "address",
          "name": "_zelda",
          "type": "address"
        }
      ],
      "stateMutability": "nonpayable",
      "type": "constructor"
    },
    {
      "inputs": [],
      "name": "zelda",
      "outputs": [
        {
          "internalType": "contract IZelda",
          "name": "",
          "type": "address"
        }
      ],
      "stateMutability": "view",
      "type": "function"
    },
    {
      "inputs": [],
      "name": "getCurrentBlock",
      "outputs": [
        {
          "internalType": "uint256",
          "name": "",
          "type": "uint256"
        }
      ],
      "stateMutability": "view",
      "type": "function"
    },
    {
      "inputs": [],
      "name": "getCurrentTimestamp",
      "outputs": [
        {
          "internalType": "uint256",
          "name": "",
          "type": "uint256"
        }
      ],
      "stateMutability": "view",
      "type": "function"
    },
    {
      "inputs": [
        {
          "internalType": "address",
          "name": "_user",
          "type": "address"
        }
      ],
      "name": "userClaim",
      "outputs": [
        {
          "internalType": "bool",
          "name": "hasClaim",
          "type": "bool"
        },
        {
          "internalType": "uint256",
          "name": "amount",
          "type": "uint256"
        }
      ],
      "stateMutability": "view",
      "type": "function"
    },
    {
      "inputs": [
        {
          "internalType": "uint256",
          "name": "_count",
          "type": "uint256"
        }
      ],
      "name": "winHistory",
      "outputs": [
        {
          "components": [
            {
              "internalType": "address",
              "name": "winnerAddress",
              "type": "address"
            },
            {
              "internalType": "uint256",
              "name": "claimAmount",
              "type": "uint256"
            },
            {
              "internalType": "uint256",
              "name": "position",
              "type": "uint256"
            },
            {
              "internalType": "bool",
              "name": "hasPendingClaim",
              "type": "bool"
            }
          ],
          "internalType": "struct WatchTower.winnerStruct[]",
          "name": "winners",
          "type": "tuple[]"
        }
      ],
      "stateMutability": "view",
      "type": "function"
    },
    {
      "inputs": [],
      "name": "currentZeldaCount",
      "outputs": [
        {
          "internalType": "uint256",
          "name": "",
          "type": "uint256"
        }
      ],
      "stateMutability": "view",
      "type": "function"
    },
    {
      "inputs": [],
      "name": "currentWin",
      "outputs": [
        {
          "components": [
            {
              "internalType": "address",
              "name": "winnerAddress",
              "type": "address"
            },
            {
              "internalType": "uint256",
              "name": "claimAmount",
              "type": "uint256"
            },
            {
              "internalType": "uint256",
              "name": "position",
              "type": "uint256"
            },
            {
              "internalType": "bool",
              "name": "hasPendingClaim",
              "type": "bool"
            }
          ],
          "internalType": "struct WatchTower.winnerStruct[]",
          "name": "winners",
          "type": "tuple[]"
        }
      ],
      "stateMutability": "view",
      "type": "function"
    }
  ],
  "bytecode": "0x6080604052600560005534801561001557600080fd5b5060405161070938038061070983398101604081905261003491610059565b600180546001600160a01b0319166001600160a01b0392909216919091179055610087565b60006020828403121561006a578081fd5b81516001600160a01b0381168114610080578182fd5b9392505050565b610673806100966000396000f3fe608060405234801561001057600080fd5b506004361061007d5760003560e01c8063672d5d3b1161005b578063672d5d3b146100d65780636c9230db146100eb57806391fbae87146100f357806392fb019b146100fb5761007d565b80630a6b433f146100825780630c5a57a0146100ac5780633418170b146100c1575b600080fd5b610095610090366004610464565b61010e565b6040516100a39291906105e5565b60405180910390f35b6100b46101a5565b6040516100a39190610562565b6100c96101b4565b6040516100a39190610576565b6100de6101d1565b6040516100a391906105f5565b6100de6101d5565b6100de6101d9565b6100c9610109366004610532565b61025b565b600154604051637a0787a960e11b815260009182916001600160a01b039091169063f40f0f5290610143908690600401610562565b60206040518083038186803b15801561015b57600080fd5b505afa15801561016f573d6000803e3d6000fd5b505050506040513d601f19601f82011682018060405250810190610193919061054a565b905080156101a057600191505b915091565b6001546001600160a01b031681565b606060006101c06101d9565b90506101cb8161025b565b91505090565b4390565b4290565b600154604080516339a2462360e11b815290516000926001600160a01b0316916373448c46916004808301926020929190829003018186803b15801561021e57600080fd5b505afa158015610232573d6000803e3d6000fd5b505050506040513d601f19601f82011682018060405250810190610256919061054a565b905090565b606060005467ffffffffffffffff8111801561027657600080fd5b506040519080825280602002602001820160405280156102b057816020015b61029d610420565b8152602001906001900390816102955790505b50600154604051631ac509a960e21b81529192506060916001600160a01b0390911690636b1426a4906102e79086906004016105f5565b60006040518083038186803b1580156102ff57600080fd5b505afa158015610313573d6000803e3d6000fd5b505050506040513d6000823e601f3d908101601f1916820160405261033b9190810190610487565b905060005b6000548110156104195760008061036984848151811061035c57fe5b602002602001015161010e565b9150915083838151811061037957fe5b602002602001015185848151811061038d57fe5b6020026020010151600001906001600160a01b031690816001600160a01b031681525050808584815181106103be57fe5b60200260200101516020018181525050826001018584815181106103de57fe5b60200260200101516040018181525050818584815181106103fb57fe5b60209081029190910101519015156060909101525050600101610340565b5050919050565b604051806080016040528060006001600160a01b0316815260200160008152602001600081526020016000151581525090565b805161045e81610625565b92915050565b600060208284031215610475578081fd5b813561048081610625565b9392505050565b60006020808385031215610499578182fd5b825167ffffffffffffffff808211156104b0578384fd5b818501915085601f8301126104c3578384fd5b8151818111156104d1578485fd5b83810291506104e18483016105fe565b8181528481019084860184860187018a10156104fb578788fd5b8795505b83861015610525576105118a82610453565b8352600195909501949186019186016104ff565b5098975050505050505050565b600060208284031215610543578081fd5b5035919050565b60006020828403121561055b578081fd5b5051919050565b6001600160a01b0391909116815260200190565b602080825282518282018190526000919060409081850190868401855b828110156105d857815180516001600160a01b031685528681015187860152858101518686015260609081015115159085015260809093019290850190600101610593565b5091979650505050505050565b9115158252602082015260400190565b90815260200190565b60405181810167ffffffffffffffff8111828210171561061d57600080fd5b604052919050565b6001600160a01b038116811461063a57600080fd5b5056fea264697066735822122042662f8f446e998711bbc140704e6f2b0be16a132ea299ade5fdd9f4627f03a364736f6c634300060c0033",
  "immutableReferences": {},
  "source": "// SPDX-License-Identifier: MIT\npragma solidity 0.6.12;\npragma experimental ABIEncoderV2;\n\nimport \"./interfaces/IZelda.sol\";\n\ncontract WatchTower {\n\n    uint256 private maxRetPerStance = 5;\n    IZelda public zelda;\n\n    struct winnerStruct {\n        address winnerAddress;\n        uint256 claimAmount;\n        uint256 position;\n        bool hasPendingClaim;\n    }\n\n    constructor(\n        address _zelda\n    ) public {\n        zelda = IZelda(_zelda);\n    }\n\n    function getCurrentBlock() public view returns (uint256) {\n        return block.number;\n    }\n\n    function getCurrentTimestamp() public view returns (uint256) {\n        return block.timestamp;\n    }\n\n    function userClaim(address _user) public view returns(bool hasClaim, uint256 amount){\n        amount = zelda.pendingReward(_user);\n        if(amount > 0 ){\n            hasClaim = true;\n        }\n    }\n\n    function winHistory(uint256 _count) public view returns(winnerStruct[] memory winners){\n        winners = new winnerStruct[](maxRetPerStance);\n        address[] memory winArr = zelda.getWinners(_count);\n        for (uint256 i = 0; i < maxRetPerStance; i++) {\n            (bool hasClaim, uint256 amount) = userClaim(winArr[i]);\n            winners[i].winnerAddress = winArr[i];\n            winners[i].claimAmount = amount;\n            winners[i].position = i+1;\n            winners[i].hasPendingClaim = hasClaim;\n    }\n    }\n\n    function currentZeldaCount() public view returns(uint256){\n        return  zelda.getCurrentCounter();\n    }\n\n    function currentWin() public view returns (winnerStruct[] memory winners){\n        uint256 currentCount = currentZeldaCount();\n        winners = winHistory(currentCount);\n    }\n}\n",
  "sourcePath": "/home/sagar/Desktop/projects/ATT/smart-contracts/WatchTower/contracts/WatchTower.sol",
  "compiler": {
    "name": "solc",
    "version": "0.6.12+commit.27d51765.Emscripten.clang"
  },
  "schemaVersion": "3.3.2",
  "updatedAt": "2021-04-30T05:31:06.774Z",
  "devdoc": {
    "kind": "dev",
    "methods": {},
    "version": 1
  },
  "userdoc": {
    "kind": "user",
    "methods": {},
    "version": 1
  }
}